{
	"data": {
		"bytecode": {
			"linkReferences": {},
			"object": "608060405234801561001057600080fd5b50600080546001600160a01b0319163390811782556040519091907f8be0079c531659141344cd1fd0a4f28419497f9722a3daafe3b4186f6b6457e0908290a361128b8061005f6000396000f3fe608060405234801561001057600080fd5b50600436106101165760003560e01c80637c61e3bf116100a2578063a20baee611610071578063a20baee614610229578063a3f4df7e14610231578063c521b3f5146102ae578063ebf8e6c6146102cb578063f56f48f2146102d357610116565b80637c61e3bf146101cf5780638da5cb5b146101d75780638f32d59b146101df57806390107afe146101fb57610116565b80632e49d78b116100e95780632e49d78b146101715780633078fff51461019357806345079cb4146101b757806358a6aa88146101bf5780635f42caf8146101c757610116565b80630490be831461011b5780630fdb11cf146101355780631be5c92f1461013d578063200d2ed214610145575b600080fd5b6101236102db565b60408051918252519081900360200190f35b6101236102e1565b610123610629565b61014d61062e565b6040518082600481111561015d57fe5b60ff16815260200191505060405180910390f35b6101916004803603602081101561018757600080fd5b503560ff16610637565b005b61019b610658565b604080516001600160a01b039092168252519081900360200190f35b610123610667565b610123610672565b61012361067e565b61019b610683565b61019b610692565b6101e76106a1565b604080519115158252519081900360200190f35b6101916004803603604081101561021157600080fd5b506001600160a01b03813581169160200135166106b2565b6101236107f5565b610239610801565b6040805160208082528351818301528351919283929083019185019080838360005b8381101561027357818101518382015260200161025b565b50505050905090810190601f1680156102a05780820380516001836020036101000a031916815260200191505b509250505060405180910390f35b610191600480360360208110156102c457600080fd5b5035610826565b61012361082b565b610123610830565b60055481565b60006102eb6111aa565b6102f3610836565b90506102fd6111aa565b61030f82600001518360800151610983565b90506103196111d8565b610321610a64565b9050600060065460ff16600481111561033657fe5b1415610468576103468383610b10565b156103a55761035481610b31565b15610370576103636002610b7f565b6005549350505050610626565b61037981610be5565b15610388576103636001610b7f565b6103926001610b7f565b61039b81610c08565b9350505050610626565b6103ae83610be5565b156103f0576103bc81610b31565b156103cb576103636004610b7f565b6103d56003610b7f565b6103de81610be5565b15610392576005549350505050610626565b6103fa8383610c23565b156104475761040881610b31565b15610417576103636002610b7f565b61042081610be5565b1561042f576103636001610b7f565b6104398382610cc2565b156103885761039b83610d41565b61045081610b31565b1561045f5761045f6004610b7f565b61039b83610d41565b600160065460ff16600481111561047b57fe5b14156104b35761048c838383610d59565b1561049b5761045f6000610b7f565b6104a481610b31565b156103d5576103636002610b7f565b600260065460ff1660048111156104c657fe5b14156104e6576104d7838383610d59565b156103635761045f6000610b7f565b600360065460ff1660048111156104f957fe5b14156105a2576105098383610b10565b156105305761051781610b31565b15610526576103636002610b7f565b6103d56001610b7f565b61053983610be5565b156105565761054781610b31565b156103d5576103636004610b7f565b61055f81610b31565b1561056e5761045f6004610b7f565b61057781610be5565b15610589576005549350505050610626565b6105938382610cc2565b156103885761045f6000610b7f565b600460065460ff1660048111156105b557fe5b1415610622576105c58383610b10565b156105d4576103636002610b7f565b6105dd83610be5565b156105ef576005549350505050610626565b6105fa838383610d59565b156106095761045f6000610b7f565b6106138383610c23565b1561045f576103636002610b7f565b5050505b90565b601281565b60065460ff1681565b6006805482919060ff1916600183600481111561065057fe5b021790555050565b6001546001600160a01b031681565b66b1a2bc2ec5000081565b6706f05b59d3b2000081565b600181565b6002546001600160a01b031681565b6000546001600160a01b031690565b6000546001600160a01b0316331490565b6106ba6106a1565b61070b576040805162461bcd60e51b815260206004820181905260248201527f4f776e61626c653a2063616c6c6572206973206e6f7420746865206f776e6572604482015290519081900360640190fd5b61071482610db1565b61071d81610db1565b600180546001600160a01b038481166001600160a01b03199283161790925560028054928416929091169190911790556006805460ff1916905561075f6111aa565b610767610836565b90506107716111aa565b61078382600001518360800151610983565b905061078f8282610b10565b1580156107a257506107a082610be5565b155b6107dd5760405162461bcd60e51b81526004018080602001828103825260308152602001806112266030913960400191505060405180910390fd5b6107e682610d41565b506107ef610e64565b50505050565b670de0b6b3a764000081565b60405180604001604052806009815260200168141c9a58d95199595960ba1b81525081565b600555565b600681565b61384081565b61083e6111aa565b600160009054906101000a90046001600160a01b03166001600160a01b031663313ce5676040518163ffffffff1660e01b815260040160206040518083038186803b15801561088c57600080fd5b505afa9250505080156108b157506040513d60208110156108ac57600080fd5b505160015b6108ba57610626565b60ff166080820152600160009054906101000a90046001600160a01b03166001600160a01b031663feaf968c6040518163ffffffff1660e01b815260040160a06040518083038186803b15801561091057600080fd5b505afa92505050801561095257506040513d60a081101561093057600080fd5b5080516020820151604083015160608401516080909401519293919290919060015b61095b57610626565b5069ffffffffffffffffffff9093168452506020830152604082015260016060820152610626565b61098b6111aa565b60015460408051639a6fc8f560e01b815269ffffffffffffffffffff600019870116600482015290516001600160a01b0390921691639a6fc8f59160248082019260a092909190829003018186803b1580156109e657600080fd5b505afa925050508015610a2857506040513d60a0811015610a0657600080fd5b5080516020820151604083015160608401516080909401519293919290919060015b610a3157610a5e565b5069ffffffffffffffffffff9093168452506020830152604082015260ff82166080820152600160608201525b92915050565b610a6c6111d8565b600254604080516332e6aadb60e01b81526001600482015290516001600160a01b03909216916332e6aadb91602480820192606092909190829003018186803b158015610ab857600080fd5b505afa925050508015610aec57506040513d6060811015610ad857600080fd5b508051602082015160409092015190919060015b610af557610626565b91151583526020830152604082015260016060820152610626565b6000610b1b83610eae565b80610b2a5750610b2a82610eae565b9392505050565b60008160600151610b4457506001610b7a565b60408201511580610b585750428260400151115b15610b6557506001610b7a565b6020820151610b7657506001610b7a565b5060005b919050565b6006805482919060ff19166001836004811115610b9857fe5b02179055507f5c57579a8214fe4f710c1c56fa829f045b9fa6d225a744225a30c32188064d4e8160405180826004811115610bcf57fe5b60ff16815260200191505060405180910390a150565b6000613840610c01836040015142610f1090919063ffffffff16565b1192915050565b600080610c188360200151610f52565b9050610a5e81610f69565b600080610c3b8460200151856080015160ff16610fa4565b90506000610c548460200151856080015160ff16610fa4565b90506000610c628383610fed565b90506000610c708484611003565b90506000610cac82610ca0670de0b6b3a7640000610c94838863ffffffff610f1016565b9063ffffffff61101316565b9063ffffffff61106c16565b6706f05b59d3b200001098975050505050505050565b600080610cda8460200151856080015160ff16610fa4565b90506000610ceb8460200151610f52565b90506000610cf98284610fed565b90506000610d078385611003565b90506000610d2b83610ca0670de0b6b3a7640000610c94868463ffffffff610f1016565b66b1a2bc2ec50000101598975050505050505050565b600080610c188360200151846080015160ff16610fa4565b6000610d6482610b31565b80610d735750610d7382610be5565b80610d835750610d838484610b10565b80610d925750610d9284610be5565b15610d9f57506000610b2a565b610da98483610cc2565b949350505050565b6001600160a01b038116610e0c576040805162461bcd60e51b815260206004820152601e60248201527f4163636f756e742063616e6e6f74206265207a65726f20616464726573730000604482015290519081900360640190fd5b803b80610e60576040805162461bcd60e51b815260206004820181905260248201527f4163636f756e7420636f64652073697a652063616e6e6f74206265207a65726f604482015290519081900360640190fd5b5050565b600080546040516001600160a01b03909116907f8be0079c531659141344cd1fd0a4f28419497f9722a3daafe3b4186f6b6457e0908390a3600080546001600160a01b0319169055565b60008160600151610ec157506001610b7a565b815169ffffffffffffffffffff16610edb57506001610b7a565b60408201511580610eef5750428260400151115b15610efc57506001610b7a565b6000826020015113610b7657506001610b7a565b6000610b2a83836040518060400160405280601e81526020017f536166654d6174683a207375627472616374696f6e206f766572666c6f7700008152506110ae565b6000610a5e8264e8d4a5100063ffffffff61101316565b60058190556040805182815290517f4d29de21de555af78a62fc82dd4bc05e9ae5b0660a37f04729527e0f22780cd39181900360200190a150565b60008060128310610fcd57610fc6846011198501600a0a63ffffffff61106c16565b9050610b2a565b6012831015610b2a57610da9846012859003600a0a63ffffffff61101316565b6000818310610ffc5781610b2a565b5090919050565b600081831015610ffc5781610b2a565b60008261102257506000610a5e565b8282028284828161102f57fe5b0414610b2a5760405162461bcd60e51b81526004018080602001828103825260218152602001806112056021913960400191505060405180910390fd5b6000610b2a83836040518060400160405280601a81526020017f536166654d6174683a206469766973696f6e206279207a65726f000000000000815250611145565b6000818484111561113d5760405162461bcd60e51b81526004018080602001828103825283818151815260200191508051906020019080838360005b838110156111025781810151838201526020016110ea565b50505050905090810190601f16801561112f5780820380516001836020036101000a031916815260200191505b509250505060405180910390fd5b505050900390565b600081836111945760405162461bcd60e51b81526020600482018181528351602484015283519092839260449091019190850190808383600083156111025781810151838201526020016110ea565b5060008385816111a057fe5b0495945050505050565b6040805160a08101825260008082526020820181905291810182905260608101829052608081019190915290565b60405180608001604052806000151581526020016000815260200160008152602001600015158152509056fe536166654d6174683a206d756c7469706c69636174696f6e206f766572666c6f775072696365466565643a20436861696e6c696e6b206d75737420626520776f726b696e6720616e642063757272656e74a26469706673582212202ff56b5bc413acab091660eebf4c73ec0280e42dce4298b0bebd53be802fa30b64736f6c634300060b0033",
			"opcodes": "PUSH1 0x80 PUSH1 0x40 MSTORE CALLVALUE DUP1 ISZERO PUSH2 0x10 JUMPI PUSH1 0x0 DUP1 REVERT JUMPDEST POP PUSH1 0x0 DUP1 SLOAD PUSH1 0x1 PUSH1 0x1 PUSH1 0xA0 SHL SUB NOT AND CALLER SWAP1 DUP2 OR DUP3 SSTORE PUSH1 0x40 MLOAD SWAP1 SWAP2 SWAP1 PUSH32 0x8BE0079C531659141344CD1FD0A4F28419497F9722A3DAAFE3B4186F6B6457E0 SWAP1 DUP3 SWAP1 LOG3 PUSH2 0x128B DUP1 PUSH2 0x5F PUSH1 0x0 CODECOPY PUSH1 0x0 RETURN INVALID PUSH1 0x80 PUSH1 0x40 MSTORE CALLVALUE DUP1 ISZERO PUSH2 0x10 JUMPI PUSH1 0x0 DUP1 REVERT JUMPDEST POP PUSH1 0x4 CALLDATASIZE LT PUSH2 0x116 JUMPI PUSH1 0x0 CALLDATALOAD PUSH1 0xE0 SHR DUP1 PUSH4 0x7C61E3BF GT PUSH2 0xA2 JUMPI DUP1 PUSH4 0xA20BAEE6 GT PUSH2 0x71 JUMPI DUP1 PUSH4 0xA20BAEE6 EQ PUSH2 0x229 JUMPI DUP1 PUSH4 0xA3F4DF7E EQ PUSH2 0x231 JUMPI DUP1 PUSH4 0xC521B3F5 EQ PUSH2 0x2AE JUMPI DUP1 PUSH4 0xEBF8E6C6 EQ PUSH2 0x2CB JUMPI DUP1 PUSH4 0xF56F48F2 EQ PUSH2 0x2D3 JUMPI PUSH2 0x116 JUMP JUMPDEST DUP1 PUSH4 0x7C61E3BF EQ PUSH2 0x1CF JUMPI DUP1 PUSH4 0x8DA5CB5B EQ PUSH2 0x1D7 JUMPI DUP1 PUSH4 0x8F32D59B EQ PUSH2 0x1DF JUMPI DUP1 PUSH4 0x90107AFE EQ PUSH2 0x1FB JUMPI PUSH2 0x116 JUMP JUMPDEST DUP1 PUSH4 0x2E49D78B GT PUSH2 0xE9 JUMPI DUP1 PUSH4 0x2E49D78B EQ PUSH2 0x171 JUMPI DUP1 PUSH4 0x3078FFF5 EQ PUSH2 0x193 JUMPI DUP1 PUSH4 0x45079CB4 EQ PUSH2 0x1B7 JUMPI DUP1 PUSH4 0x58A6AA88 EQ PUSH2 0x1BF JUMPI DUP1 PUSH4 0x5F42CAF8 EQ PUSH2 0x1C7 JUMPI PUSH2 0x116 JUMP JUMPDEST DUP1 PUSH4 0x490BE83 EQ PUSH2 0x11B JUMPI DUP1 PUSH4 0xFDB11CF EQ PUSH2 0x135 JUMPI DUP1 PUSH4 0x1BE5C92F EQ PUSH2 0x13D JUMPI DUP1 PUSH4 0x200D2ED2 EQ PUSH2 0x145 JUMPI JUMPDEST PUSH1 0x0 DUP1 REVERT JUMPDEST PUSH2 0x123 PUSH2 0x2DB JUMP JUMPDEST PUSH1 0x40 DUP1 MLOAD SWAP2 DUP3 MSTORE MLOAD SWAP1 DUP2 SWAP1 SUB PUSH1 0x20 ADD SWAP1 RETURN JUMPDEST PUSH2 0x123 PUSH2 0x2E1 JUMP JUMPDEST PUSH2 0x123 PUSH2 0x629 JUMP JUMPDEST PUSH2 0x14D PUSH2 0x62E JUMP JUMPDEST PUSH1 0x40 MLOAD DUP1 DUP3 PUSH1 0x4 DUP2 GT ISZERO PUSH2 0x15D JUMPI INVALID JUMPDEST PUSH1 0xFF AND DUP2 MSTORE PUSH1 0x20 ADD SWAP2 POP POP PUSH1 0x40 MLOAD DUP1 SWAP2 SUB SWAP1 RETURN JUMPDEST PUSH2 0x191 PUSH1 0x4 DUP1 CALLDATASIZE SUB PUSH1 0x20 DUP2 LT ISZERO PUSH2 0x187 JUMPI PUSH1 0x0 DUP1 REVERT JUMPDEST POP CALLDATALOAD PUSH1 0xFF AND PUSH2 0x637 JUMP JUMPDEST STOP JUMPDEST PUSH2 0x19B PUSH2 0x658 JUMP JUMPDEST PUSH1 0x40 DUP1 MLOAD PUSH1 0x1 PUSH1 0x1 PUSH1 0xA0 SHL SUB SWAP1 SWAP3 AND DUP3 MSTORE MLOAD SWAP1 DUP2 SWAP1 SUB PUSH1 0x20 ADD SWAP1 RETURN JUMPDEST PUSH2 0x123 PUSH2 0x667 JUMP JUMPDEST PUSH2 0x123 PUSH2 0x672 JUMP JUMPDEST PUSH2 0x123 PUSH2 0x67E JUMP JUMPDEST PUSH2 0x19B PUSH2 0x683 JUMP JUMPDEST PUSH2 0x19B PUSH2 0x692 JUMP JUMPDEST PUSH2 0x1E7 PUSH2 0x6A1 JUMP JUMPDEST PUSH1 0x40 DUP1 MLOAD SWAP2 ISZERO ISZERO DUP3 MSTORE MLOAD SWAP1 DUP2 SWAP1 SUB PUSH1 0x20 ADD SWAP1 RETURN JUMPDEST PUSH2 0x191 PUSH1 0x4 DUP1 CALLDATASIZE SUB PUSH1 0x40 DUP2 LT ISZERO PUSH2 0x211 JUMPI PUSH1 0x0 DUP1 REVERT JUMPDEST POP PUSH1 0x1 PUSH1 0x1 PUSH1 0xA0 SHL SUB DUP2 CALLDATALOAD DUP2 AND SWAP2 PUSH1 0x20 ADD CALLDATALOAD AND PUSH2 0x6B2 JUMP JUMPDEST PUSH2 0x123 PUSH2 0x7F5 JUMP JUMPDEST PUSH2 0x239 PUSH2 0x801 JUMP JUMPDEST PUSH1 0x40 DUP1 MLOAD PUSH1 0x20 DUP1 DUP3 MSTORE DUP4 MLOAD DUP2 DUP4 ADD MSTORE DUP4 MLOAD SWAP2 SWAP3 DUP4 SWAP3 SWAP1 DUP4 ADD SWAP2 DUP6 ADD SWAP1 DUP1 DUP4 DUP4 PUSH1 0x0 JUMPDEST DUP4 DUP2 LT ISZERO PUSH2 0x273 JUMPI DUP2 DUP2 ADD MLOAD DUP4 DUP3 ADD MSTORE PUSH1 0x20 ADD PUSH2 0x25B JUMP JUMPDEST POP POP POP POP SWAP1 POP SWAP1 DUP2 ADD SWAP1 PUSH1 0x1F AND DUP1 ISZERO PUSH2 0x2A0 JUMPI DUP1 DUP3 SUB DUP1 MLOAD PUSH1 0x1 DUP4 PUSH1 0x20 SUB PUSH2 0x100 EXP SUB NOT AND DUP2 MSTORE PUSH1 0x20 ADD SWAP2 POP JUMPDEST POP SWAP3 POP POP POP PUSH1 0x40 MLOAD DUP1 SWAP2 SUB SWAP1 RETURN JUMPDEST PUSH2 0x191 PUSH1 0x4 DUP1 CALLDATASIZE SUB PUSH1 0x20 DUP2 LT ISZERO PUSH2 0x2C4 JUMPI PUSH1 0x0 DUP1 REVERT JUMPDEST POP CALLDATALOAD PUSH2 0x826 JUMP JUMPDEST PUSH2 0x123 PUSH2 0x82B JUMP JUMPDEST PUSH2 0x123 PUSH2 0x830 JUMP JUMPDEST PUSH1 0x5 SLOAD DUP2 JUMP JUMPDEST PUSH1 0x0 PUSH2 0x2EB PUSH2 0x11AA JUMP JUMPDEST PUSH2 0x2F3 PUSH2 0x836 JUMP JUMPDEST SWAP1 POP PUSH2 0x2FD PUSH2 0x11AA JUMP JUMPDEST PUSH2 0x30F DUP3 PUSH1 0x0 ADD MLOAD DUP4 PUSH1 0x80 ADD MLOAD PUSH2 0x983 JUMP JUMPDEST SWAP1 POP PUSH2 0x319 PUSH2 0x11D8 JUMP JUMPDEST PUSH2 0x321 PUSH2 0xA64 JUMP JUMPDEST SWAP1 POP PUSH1 0x0 PUSH1 0x6 SLOAD PUSH1 0xFF AND PUSH1 0x4 DUP2 GT ISZERO PUSH2 0x336 JUMPI INVALID JUMPDEST EQ ISZERO PUSH2 0x468 JUMPI PUSH2 0x346 DUP4 DUP4 PUSH2 0xB10 JUMP JUMPDEST ISZERO PUSH2 0x3A5 JUMPI PUSH2 0x354 DUP2 PUSH2 0xB31 JUMP JUMPDEST ISZERO PUSH2 0x370 JUMPI PUSH2 0x363 PUSH1 0x2 PUSH2 0xB7F JUMP JUMPDEST PUSH1 0x5 SLOAD SWAP4 POP POP POP POP PUSH2 0x626 JUMP JUMPDEST PUSH2 0x379 DUP2 PUSH2 0xBE5 JUMP JUMPDEST ISZERO PUSH2 0x388 JUMPI PUSH2 0x363 PUSH1 0x1 PUSH2 0xB7F JUMP JUMPDEST PUSH2 0x392 PUSH1 0x1 PUSH2 0xB7F JUMP JUMPDEST PUSH2 0x39B DUP2 PUSH2 0xC08 JUMP JUMPDEST SWAP4 POP POP POP POP PUSH2 0x626 JUMP JUMPDEST PUSH2 0x3AE DUP4 PUSH2 0xBE5 JUMP JUMPDEST ISZERO PUSH2 0x3F0 JUMPI PUSH2 0x3BC DUP2 PUSH2 0xB31 JUMP JUMPDEST ISZERO PUSH2 0x3CB JUMPI PUSH2 0x363 PUSH1 0x4 PUSH2 0xB7F JUMP JUMPDEST PUSH2 0x3D5 PUSH1 0x3 PUSH2 0xB7F JUMP JUMPDEST PUSH2 0x3DE DUP2 PUSH2 0xBE5 JUMP JUMPDEST ISZERO PUSH2 0x392 JUMPI PUSH1 0x5 SLOAD SWAP4 POP POP POP POP PUSH2 0x626 JUMP JUMPDEST PUSH2 0x3FA DUP4 DUP4 PUSH2 0xC23 JUMP JUMPDEST ISZERO PUSH2 0x447 JUMPI PUSH2 0x408 DUP2 PUSH2 0xB31 JUMP JUMPDEST ISZERO PUSH2 0x417 JUMPI PUSH2 0x363 PUSH1 0x2 PUSH2 0xB7F JUMP JUMPDEST PUSH2 0x420 DUP2 PUSH2 0xBE5 JUMP JUMPDEST ISZERO PUSH2 0x42F JUMPI PUSH2 0x363 PUSH1 0x1 PUSH2 0xB7F JUMP JUMPDEST PUSH2 0x439 DUP4 DUP3 PUSH2 0xCC2 JUMP JUMPDEST ISZERO PUSH2 0x388 JUMPI PUSH2 0x39B DUP4 PUSH2 0xD41 JUMP JUMPDEST PUSH2 0x450 DUP2 PUSH2 0xB31 JUMP JUMPDEST ISZERO PUSH2 0x45F JUMPI PUSH2 0x45F PUSH1 0x4 PUSH2 0xB7F JUMP JUMPDEST PUSH2 0x39B DUP4 PUSH2 0xD41 JUMP JUMPDEST PUSH1 0x1 PUSH1 0x6 SLOAD PUSH1 0xFF AND PUSH1 0x4 DUP2 GT ISZERO PUSH2 0x47B JUMPI INVALID JUMPDEST EQ ISZERO PUSH2 0x4B3 JUMPI PUSH2 0x48C DUP4 DUP4 DUP4 PUSH2 0xD59 JUMP JUMPDEST ISZERO PUSH2 0x49B JUMPI PUSH2 0x45F PUSH1 0x0 PUSH2 0xB7F JUMP JUMPDEST PUSH2 0x4A4 DUP2 PUSH2 0xB31 JUMP JUMPDEST ISZERO PUSH2 0x3D5 JUMPI PUSH2 0x363 PUSH1 0x2 PUSH2 0xB7F JUMP JUMPDEST PUSH1 0x2 PUSH1 0x6 SLOAD PUSH1 0xFF AND PUSH1 0x4 DUP2 GT ISZERO PUSH2 0x4C6 JUMPI INVALID JUMPDEST EQ ISZERO PUSH2 0x4E6 JUMPI PUSH2 0x4D7 DUP4 DUP4 DUP4 PUSH2 0xD59 JUMP JUMPDEST ISZERO PUSH2 0x363 JUMPI PUSH2 0x45F PUSH1 0x0 PUSH2 0xB7F JUMP JUMPDEST PUSH1 0x3 PUSH1 0x6 SLOAD PUSH1 0xFF AND PUSH1 0x4 DUP2 GT ISZERO PUSH2 0x4F9 JUMPI INVALID JUMPDEST EQ ISZERO PUSH2 0x5A2 JUMPI PUSH2 0x509 DUP4 DUP4 PUSH2 0xB10 JUMP JUMPDEST ISZERO PUSH2 0x530 JUMPI PUSH2 0x517 DUP2 PUSH2 0xB31 JUMP JUMPDEST ISZERO PUSH2 0x526 JUMPI PUSH2 0x363 PUSH1 0x2 PUSH2 0xB7F JUMP JUMPDEST PUSH2 0x3D5 PUSH1 0x1 PUSH2 0xB7F JUMP JUMPDEST PUSH2 0x539 DUP4 PUSH2 0xBE5 JUMP JUMPDEST ISZERO PUSH2 0x556 JUMPI PUSH2 0x547 DUP2 PUSH2 0xB31 JUMP JUMPDEST ISZERO PUSH2 0x3D5 JUMPI PUSH2 0x363 PUSH1 0x4 PUSH2 0xB7F JUMP JUMPDEST PUSH2 0x55F DUP2 PUSH2 0xB31 JUMP JUMPDEST ISZERO PUSH2 0x56E JUMPI PUSH2 0x45F PUSH1 0x4 PUSH2 0xB7F JUMP JUMPDEST PUSH2 0x577 DUP2 PUSH2 0xBE5 JUMP JUMPDEST ISZERO PUSH2 0x589 JUMPI PUSH1 0x5 SLOAD SWAP4 POP POP POP POP PUSH2 0x626 JUMP JUMPDEST PUSH2 0x593 DUP4 DUP3 PUSH2 0xCC2 JUMP JUMPDEST ISZERO PUSH2 0x388 JUMPI PUSH2 0x45F PUSH1 0x0 PUSH2 0xB7F JUMP JUMPDEST PUSH1 0x4 PUSH1 0x6 SLOAD PUSH1 0xFF AND PUSH1 0x4 DUP2 GT ISZERO PUSH2 0x5B5 JUMPI INVALID JUMPDEST EQ ISZERO PUSH2 0x622 JUMPI PUSH2 0x5C5 DUP4 DUP4 PUSH2 0xB10 JUMP JUMPDEST ISZERO PUSH2 0x5D4 JUMPI PUSH2 0x363 PUSH1 0x2 PUSH2 0xB7F JUMP JUMPDEST PUSH2 0x5DD DUP4 PUSH2 0xBE5 JUMP JUMPDEST ISZERO PUSH2 0x5EF JUMPI PUSH1 0x5 SLOAD SWAP4 POP POP POP POP PUSH2 0x626 JUMP JUMPDEST PUSH2 0x5FA DUP4 DUP4 DUP4 PUSH2 0xD59 JUMP JUMPDEST ISZERO PUSH2 0x609 JUMPI PUSH2 0x45F PUSH1 0x0 PUSH2 0xB7F JUMP JUMPDEST PUSH2 0x613 DUP4 DUP4 PUSH2 0xC23 JUMP JUMPDEST ISZERO PUSH2 0x45F JUMPI PUSH2 0x363 PUSH1 0x2 PUSH2 0xB7F JUMP JUMPDEST POP POP POP JUMPDEST SWAP1 JUMP JUMPDEST PUSH1 0x12 DUP2 JUMP JUMPDEST PUSH1 0x6 SLOAD PUSH1 0xFF AND DUP2 JUMP JUMPDEST PUSH1 0x6 DUP1 SLOAD DUP3 SWAP2 SWAP1 PUSH1 0xFF NOT AND PUSH1 0x1 DUP4 PUSH1 0x4 DUP2 GT ISZERO PUSH2 0x650 JUMPI INVALID JUMPDEST MUL OR SWAP1 SSTORE POP POP JUMP JUMPDEST PUSH1 0x1 SLOAD PUSH1 0x1 PUSH1 0x1 PUSH1 0xA0 SHL SUB AND DUP2 JUMP JUMPDEST PUSH7 0xB1A2BC2EC50000 DUP2 JUMP JUMPDEST PUSH8 0x6F05B59D3B20000 DUP2 JUMP JUMPDEST PUSH1 0x1 DUP2 JUMP JUMPDEST PUSH1 0x2 SLOAD PUSH1 0x1 PUSH1 0x1 PUSH1 0xA0 SHL SUB AND DUP2 JUMP JUMPDEST PUSH1 0x0 SLOAD PUSH1 0x1 PUSH1 0x1 PUSH1 0xA0 SHL SUB AND SWAP1 JUMP JUMPDEST PUSH1 0x0 SLOAD PUSH1 0x1 PUSH1 0x1 PUSH1 0xA0 SHL SUB AND CALLER EQ SWAP1 JUMP JUMPDEST PUSH2 0x6BA PUSH2 0x6A1 JUMP JUMPDEST PUSH2 0x70B JUMPI PUSH1 0x40 DUP1 MLOAD PUSH3 0x461BCD PUSH1 0xE5 SHL DUP2 MSTORE PUSH1 0x20 PUSH1 0x4 DUP3 ADD DUP2 SWAP1 MSTORE PUSH1 0x24 DUP3 ADD MSTORE PUSH32 0x4F776E61626C653A2063616C6C6572206973206E6F7420746865206F776E6572 PUSH1 0x44 DUP3 ADD MSTORE SWAP1 MLOAD SWAP1 DUP2 SWAP1 SUB PUSH1 0x64 ADD SWAP1 REVERT JUMPDEST PUSH2 0x714 DUP3 PUSH2 0xDB1 JUMP JUMPDEST PUSH2 0x71D DUP2 PUSH2 0xDB1 JUMP JUMPDEST PUSH1 0x1 DUP1 SLOAD PUSH1 0x1 PUSH1 0x1 PUSH1 0xA0 SHL SUB DUP5 DUP2 AND PUSH1 0x1 PUSH1 0x1 PUSH1 0xA0 SHL SUB NOT SWAP3 DUP4 AND OR SWAP1 SWAP3 SSTORE PUSH1 0x2 DUP1 SLOAD SWAP3 DUP5 AND SWAP3 SWAP1 SWAP2 AND SWAP2 SWAP1 SWAP2 OR SWAP1 SSTORE PUSH1 0x6 DUP1 SLOAD PUSH1 0xFF NOT AND SWAP1 SSTORE PUSH2 0x75F PUSH2 0x11AA JUMP JUMPDEST PUSH2 0x767 PUSH2 0x836 JUMP JUMPDEST SWAP1 POP PUSH2 0x771 PUSH2 0x11AA JUMP JUMPDEST PUSH2 0x783 DUP3 PUSH1 0x0 ADD MLOAD DUP4 PUSH1 0x80 ADD MLOAD PUSH2 0x983 JUMP JUMPDEST SWAP1 POP PUSH2 0x78F DUP3 DUP3 PUSH2 0xB10 JUMP JUMPDEST ISZERO DUP1 ISZERO PUSH2 0x7A2 JUMPI POP PUSH2 0x7A0 DUP3 PUSH2 0xBE5 JUMP JUMPDEST ISZERO JUMPDEST PUSH2 0x7DD JUMPI PUSH1 0x40 MLOAD PUSH3 0x461BCD PUSH1 0xE5 SHL DUP2 MSTORE PUSH1 0x4 ADD DUP1 DUP1 PUSH1 0x20 ADD DUP3 DUP2 SUB DUP3 MSTORE PUSH1 0x30 DUP2 MSTORE PUSH1 0x20 ADD DUP1 PUSH2 0x1226 PUSH1 0x30 SWAP2 CODECOPY PUSH1 0x40 ADD SWAP2 POP POP PUSH1 0x40 MLOAD DUP1 SWAP2 SUB SWAP1 REVERT JUMPDEST PUSH2 0x7E6 DUP3 PUSH2 0xD41 JUMP JUMPDEST POP PUSH2 0x7EF PUSH2 0xE64 JUMP JUMPDEST POP POP POP POP JUMP JUMPDEST PUSH8 0xDE0B6B3A7640000 DUP2 JUMP JUMPDEST PUSH1 0x40 MLOAD DUP1 PUSH1 0x40 ADD PUSH1 0x40 MSTORE DUP1 PUSH1 0x9 DUP2 MSTORE PUSH1 0x20 ADD PUSH9 0x141C9A58D951995959 PUSH1 0xBA SHL DUP2 MSTORE POP DUP2 JUMP JUMPDEST PUSH1 0x5 SSTORE JUMP JUMPDEST PUSH1 0x6 DUP2 JUMP JUMPDEST PUSH2 0x3840 DUP2 JUMP JUMPDEST PUSH2 0x83E PUSH2 0x11AA JUMP JUMPDEST PUSH1 0x1 PUSH1 0x0 SWAP1 SLOAD SWAP1 PUSH2 0x100 EXP SWAP1 DIV PUSH1 0x1 PUSH1 0x1 PUSH1 0xA0 SHL SUB AND PUSH1 0x1 PUSH1 0x1 PUSH1 0xA0 SHL SUB AND PUSH4 0x313CE567 PUSH1 0x40 MLOAD DUP2 PUSH4 0xFFFFFFFF AND PUSH1 0xE0 SHL DUP2 MSTORE PUSH1 0x4 ADD PUSH1 0x20 PUSH1 0x40 MLOAD DUP1 DUP4 SUB DUP2 DUP7 DUP1 EXTCODESIZE ISZERO DUP1 ISZERO PUSH2 0x88C JUMPI PUSH1 0x0 DUP1 REVERT JUMPDEST POP GAS STATICCALL SWAP3 POP POP POP DUP1 ISZERO PUSH2 0x8B1 JUMPI POP PUSH1 0x40 MLOAD RETURNDATASIZE PUSH1 0x20 DUP2 LT ISZERO PUSH2 0x8AC JUMPI PUSH1 0x0 DUP1 REVERT JUMPDEST POP MLOAD PUSH1 0x1 JUMPDEST PUSH2 0x8BA JUMPI PUSH2 0x626 JUMP JUMPDEST PUSH1 0xFF AND PUSH1 0x80 DUP3 ADD MSTORE PUSH1 0x1 PUSH1 0x0 SWAP1 SLOAD SWAP1 PUSH2 0x100 EXP SWAP1 DIV PUSH1 0x1 PUSH1 0x1 PUSH1 0xA0 SHL SUB AND PUSH1 0x1 PUSH1 0x1 PUSH1 0xA0 SHL SUB AND PUSH4 0xFEAF968C PUSH1 0x40 MLOAD DUP2 PUSH4 0xFFFFFFFF AND PUSH1 0xE0 SHL DUP2 MSTORE PUSH1 0x4 ADD PUSH1 0xA0 PUSH1 0x40 MLOAD DUP1 DUP4 SUB DUP2 DUP7 DUP1 EXTCODESIZE ISZERO DUP1 ISZERO PUSH2 0x910 JUMPI PUSH1 0x0 DUP1 REVERT JUMPDEST POP GAS STATICCALL SWAP3 POP POP POP DUP1 ISZERO PUSH2 0x952 JUMPI POP PUSH1 0x40 MLOAD RETURNDATASIZE PUSH1 0xA0 DUP2 LT ISZERO PUSH2 0x930 JUMPI PUSH1 0x0 DUP1 REVERT JUMPDEST POP DUP1 MLOAD PUSH1 0x20 DUP3 ADD MLOAD PUSH1 0x40 DUP4 ADD MLOAD PUSH1 0x60 DUP5 ADD MLOAD PUSH1 0x80 SWAP1 SWAP5 ADD MLOAD SWAP3 SWAP4 SWAP2 SWAP3 SWAP1 SWAP2 SWAP1 PUSH1 0x1 JUMPDEST PUSH2 0x95B JUMPI PUSH2 0x626 JUMP JUMPDEST POP PUSH10 0xFFFFFFFFFFFFFFFFFFFF SWAP1 SWAP4 AND DUP5 MSTORE POP PUSH1 0x20 DUP4 ADD MSTORE PUSH1 0x40 DUP3 ADD MSTORE PUSH1 0x1 PUSH1 0x60 DUP3 ADD MSTORE PUSH2 0x626 JUMP JUMPDEST PUSH2 0x98B PUSH2 0x11AA JUMP JUMPDEST PUSH1 0x1 SLOAD PUSH1 0x40 DUP1 MLOAD PUSH4 0x9A6FC8F5 PUSH1 0xE0 SHL DUP2 MSTORE PUSH10 0xFFFFFFFFFFFFFFFFFFFF PUSH1 0x0 NOT DUP8 ADD AND PUSH1 0x4 DUP3 ADD MSTORE SWAP1 MLOAD PUSH1 0x1 PUSH1 0x1 PUSH1 0xA0 SHL SUB SWAP1 SWAP3 AND SWAP2 PUSH4 0x9A6FC8F5 SWAP2 PUSH1 0x24 DUP1 DUP3 ADD SWAP3 PUSH1 0xA0 SWAP3 SWAP1 SWAP2 SWAP1 DUP3 SWAP1 SUB ADD DUP2 DUP7 DUP1 EXTCODESIZE ISZERO DUP1 ISZERO PUSH2 0x9E6 JUMPI PUSH1 0x0 DUP1 REVERT JUMPDEST POP GAS STATICCALL SWAP3 POP POP POP DUP1 ISZERO PUSH2 0xA28 JUMPI POP PUSH1 0x40 MLOAD RETURNDATASIZE PUSH1 0xA0 DUP2 LT ISZERO PUSH2 0xA06 JUMPI PUSH1 0x0 DUP1 REVERT JUMPDEST POP DUP1 MLOAD PUSH1 0x20 DUP3 ADD MLOAD PUSH1 0x40 DUP4 ADD MLOAD PUSH1 0x60 DUP5 ADD MLOAD PUSH1 0x80 SWAP1 SWAP5 ADD MLOAD SWAP3 SWAP4 SWAP2 SWAP3 SWAP1 SWAP2 SWAP1 PUSH1 0x1 JUMPDEST PUSH2 0xA31 JUMPI PUSH2 0xA5E JUMP JUMPDEST POP PUSH10 0xFFFFFFFFFFFFFFFFFFFF SWAP1 SWAP4 AND DUP5 MSTORE POP PUSH1 0x20 DUP4 ADD MSTORE PUSH1 0x40 DUP3 ADD MSTORE PUSH1 0xFF DUP3 AND PUSH1 0x80 DUP3 ADD MSTORE PUSH1 0x1 PUSH1 0x60 DUP3 ADD MSTORE JUMPDEST SWAP3 SWAP2 POP POP JUMP JUMPDEST PUSH2 0xA6C PUSH2 0x11D8 JUMP JUMPDEST PUSH1 0x2 SLOAD PUSH1 0x40 DUP1 MLOAD PUSH4 0x32E6AADB PUSH1 0xE0 SHL DUP2 MSTORE PUSH1 0x1 PUSH1 0x4 DUP3 ADD MSTORE SWAP1 MLOAD PUSH1 0x1 PUSH1 0x1 PUSH1 0xA0 SHL SUB SWAP1 SWAP3 AND SWAP2 PUSH4 0x32E6AADB SWAP2 PUSH1 0x24 DUP1 DUP3 ADD SWAP3 PUSH1 0x60 SWAP3 SWAP1 SWAP2 SWAP1 DUP3 SWAP1 SUB ADD DUP2 DUP7 DUP1 EXTCODESIZE ISZERO DUP1 ISZERO PUSH2 0xAB8 JUMPI PUSH1 0x0 DUP1 REVERT JUMPDEST POP GAS STATICCALL SWAP3 POP POP POP DUP1 ISZERO PUSH2 0xAEC JUMPI POP PUSH1 0x40 MLOAD RETURNDATASIZE PUSH1 0x60 DUP2 LT ISZERO PUSH2 0xAD8 JUMPI PUSH1 0x0 DUP1 REVERT JUMPDEST POP DUP1 MLOAD PUSH1 0x20 DUP3 ADD MLOAD PUSH1 0x40 SWAP1 SWAP3 ADD MLOAD SWAP1 SWAP2 SWAP1 PUSH1 0x1 JUMPDEST PUSH2 0xAF5 JUMPI PUSH2 0x626 JUMP JUMPDEST SWAP2 ISZERO ISZERO DUP4 MSTORE PUSH1 0x20 DUP4 ADD MSTORE PUSH1 0x40 DUP3 ADD MSTORE PUSH1 0x1 PUSH1 0x60 DUP3 ADD MSTORE PUSH2 0x626 JUMP JUMPDEST PUSH1 0x0 PUSH2 0xB1B DUP4 PUSH2 0xEAE JUMP JUMPDEST DUP1 PUSH2 0xB2A JUMPI POP PUSH2 0xB2A DUP3 PUSH2 0xEAE JUMP JUMPDEST SWAP4 SWAP3 POP POP POP JUMP JUMPDEST PUSH1 0x0 DUP2 PUSH1 0x60 ADD MLOAD PUSH2 0xB44 JUMPI POP PUSH1 0x1 PUSH2 0xB7A JUMP JUMPDEST PUSH1 0x40 DUP3 ADD MLOAD ISZERO DUP1 PUSH2 0xB58 JUMPI POP TIMESTAMP DUP3 PUSH1 0x40 ADD MLOAD GT JUMPDEST ISZERO PUSH2 0xB65 JUMPI POP PUSH1 0x1 PUSH2 0xB7A JUMP JUMPDEST PUSH1 0x20 DUP3 ADD MLOAD PUSH2 0xB76 JUMPI POP PUSH1 0x1 PUSH2 0xB7A JUMP JUMPDEST POP PUSH1 0x0 JUMPDEST SWAP2 SWAP1 POP JUMP JUMPDEST PUSH1 0x6 DUP1 SLOAD DUP3 SWAP2 SWAP1 PUSH1 0xFF NOT AND PUSH1 0x1 DUP4 PUSH1 0x4 DUP2 GT ISZERO PUSH2 0xB98 JUMPI INVALID JUMPDEST MUL OR SWAP1 SSTORE POP PUSH32 0x5C57579A8214FE4F710C1C56FA829F045B9FA6D225A744225A30C32188064D4E DUP2 PUSH1 0x40 MLOAD DUP1 DUP3 PUSH1 0x4 DUP2 GT ISZERO PUSH2 0xBCF JUMPI INVALID JUMPDEST PUSH1 0xFF AND DUP2 MSTORE PUSH1 0x20 ADD SWAP2 POP POP PUSH1 0x40 MLOAD DUP1 SWAP2 SUB SWAP1 LOG1 POP JUMP JUMPDEST PUSH1 0x0 PUSH2 0x3840 PUSH2 0xC01 DUP4 PUSH1 0x40 ADD MLOAD TIMESTAMP PUSH2 0xF10 SWAP1 SWAP2 SWAP1 PUSH4 0xFFFFFFFF AND JUMP JUMPDEST GT SWAP3 SWAP2 POP POP JUMP JUMPDEST PUSH1 0x0 DUP1 PUSH2 0xC18 DUP4 PUSH1 0x20 ADD MLOAD PUSH2 0xF52 JUMP JUMPDEST SWAP1 POP PUSH2 0xA5E DUP2 PUSH2 0xF69 JUMP JUMPDEST PUSH1 0x0 DUP1 PUSH2 0xC3B DUP5 PUSH1 0x20 ADD MLOAD DUP6 PUSH1 0x80 ADD MLOAD PUSH1 0xFF AND PUSH2 0xFA4 JUMP JUMPDEST SWAP1 POP PUSH1 0x0 PUSH2 0xC54 DUP5 PUSH1 0x20 ADD MLOAD DUP6 PUSH1 0x80 ADD MLOAD PUSH1 0xFF AND PUSH2 0xFA4 JUMP JUMPDEST SWAP1 POP PUSH1 0x0 PUSH2 0xC62 DUP4 DUP4 PUSH2 0xFED JUMP JUMPDEST SWAP1 POP PUSH1 0x0 PUSH2 0xC70 DUP5 DUP5 PUSH2 0x1003 JUMP JUMPDEST SWAP1 POP PUSH1 0x0 PUSH2 0xCAC DUP3 PUSH2 0xCA0 PUSH8 0xDE0B6B3A7640000 PUSH2 0xC94 DUP4 DUP9 PUSH4 0xFFFFFFFF PUSH2 0xF10 AND JUMP JUMPDEST SWAP1 PUSH4 0xFFFFFFFF PUSH2 0x1013 AND JUMP JUMPDEST SWAP1 PUSH4 0xFFFFFFFF PUSH2 0x106C AND JUMP JUMPDEST PUSH8 0x6F05B59D3B20000 LT SWAP9 SWAP8 POP POP POP POP POP POP POP POP JUMP JUMPDEST PUSH1 0x0 DUP1 PUSH2 0xCDA DUP5 PUSH1 0x20 ADD MLOAD DUP6 PUSH1 0x80 ADD MLOAD PUSH1 0xFF AND PUSH2 0xFA4 JUMP JUMPDEST SWAP1 POP PUSH1 0x0 PUSH2 0xCEB DUP5 PUSH1 0x20 ADD MLOAD PUSH2 0xF52 JUMP JUMPDEST SWAP1 POP PUSH1 0x0 PUSH2 0xCF9 DUP3 DUP5 PUSH2 0xFED JUMP JUMPDEST SWAP1 POP PUSH1 0x0 PUSH2 0xD07 DUP4 DUP6 PUSH2 0x1003 JUMP JUMPDEST SWAP1 POP PUSH1 0x0 PUSH2 0xD2B DUP4 PUSH2 0xCA0 PUSH8 0xDE0B6B3A7640000 PUSH2 0xC94 DUP7 DUP5 PUSH4 0xFFFFFFFF PUSH2 0xF10 AND JUMP JUMPDEST PUSH7 0xB1A2BC2EC50000 LT ISZERO SWAP9 SWAP8 POP POP POP POP POP POP POP POP JUMP JUMPDEST PUSH1 0x0 DUP1 PUSH2 0xC18 DUP4 PUSH1 0x20 ADD MLOAD DUP5 PUSH1 0x80 ADD MLOAD PUSH1 0xFF AND PUSH2 0xFA4 JUMP JUMPDEST PUSH1 0x0 PUSH2 0xD64 DUP3 PUSH2 0xB31 JUMP JUMPDEST DUP1 PUSH2 0xD73 JUMPI POP PUSH2 0xD73 DUP3 PUSH2 0xBE5 JUMP JUMPDEST DUP1 PUSH2 0xD83 JUMPI POP PUSH2 0xD83 DUP5 DUP5 PUSH2 0xB10 JUMP JUMPDEST DUP1 PUSH2 0xD92 JUMPI POP PUSH2 0xD92 DUP5 PUSH2 0xBE5 JUMP JUMPDEST ISZERO PUSH2 0xD9F JUMPI POP PUSH1 0x0 PUSH2 0xB2A JUMP JUMPDEST PUSH2 0xDA9 DUP5 DUP4 PUSH2 0xCC2 JUMP JUMPDEST SWAP5 SWAP4 POP POP POP POP JUMP JUMPDEST PUSH1 0x1 PUSH1 0x1 PUSH1 0xA0 SHL SUB DUP2 AND PUSH2 0xE0C JUMPI PUSH1 0x40 DUP1 MLOAD PUSH3 0x461BCD PUSH1 0xE5 SHL DUP2 MSTORE PUSH1 0x20 PUSH1 0x4 DUP3 ADD MSTORE PUSH1 0x1E PUSH1 0x24 DUP3 ADD MSTORE PUSH32 0x4163636F756E742063616E6E6F74206265207A65726F20616464726573730000 PUSH1 0x44 DUP3 ADD MSTORE SWAP1 MLOAD SWAP1 DUP2 SWAP1 SUB PUSH1 0x64 ADD SWAP1 REVERT JUMPDEST DUP1 EXTCODESIZE DUP1 PUSH2 0xE60 JUMPI PUSH1 0x40 DUP1 MLOAD PUSH3 0x461BCD PUSH1 0xE5 SHL DUP2 MSTORE PUSH1 0x20 PUSH1 0x4 DUP3 ADD DUP2 SWAP1 MSTORE PUSH1 0x24 DUP3 ADD MSTORE PUSH32 0x4163636F756E7420636F64652073697A652063616E6E6F74206265207A65726F PUSH1 0x44 DUP3 ADD MSTORE SWAP1 MLOAD SWAP1 DUP2 SWAP1 SUB PUSH1 0x64 ADD SWAP1 REVERT JUMPDEST POP POP JUMP JUMPDEST PUSH1 0x0 DUP1 SLOAD PUSH1 0x40 MLOAD PUSH1 0x1 PUSH1 0x1 PUSH1 0xA0 SHL SUB SWAP1 SWAP2 AND SWAP1 PUSH32 0x8BE0079C531659141344CD1FD0A4F28419497F9722A3DAAFE3B4186F6B6457E0 SWAP1 DUP4 SWAP1 LOG3 PUSH1 0x0 DUP1 SLOAD PUSH1 0x1 PUSH1 0x1 PUSH1 0xA0 SHL SUB NOT AND SWAP1 SSTORE JUMP JUMPDEST PUSH1 0x0 DUP2 PUSH1 0x60 ADD MLOAD PUSH2 0xEC1 JUMPI POP PUSH1 0x1 PUSH2 0xB7A JUMP JUMPDEST DUP2 MLOAD PUSH10 0xFFFFFFFFFFFFFFFFFFFF AND PUSH2 0xEDB JUMPI POP PUSH1 0x1 PUSH2 0xB7A JUMP JUMPDEST PUSH1 0x40 DUP3 ADD MLOAD ISZERO DUP1 PUSH2 0xEEF JUMPI POP TIMESTAMP DUP3 PUSH1 0x40 ADD MLOAD GT JUMPDEST ISZERO PUSH2 0xEFC JUMPI POP PUSH1 0x1 PUSH2 0xB7A JUMP JUMPDEST PUSH1 0x0 DUP3 PUSH1 0x20 ADD MLOAD SGT PUSH2 0xB76 JUMPI POP PUSH1 0x1 PUSH2 0xB7A JUMP JUMPDEST PUSH1 0x0 PUSH2 0xB2A DUP4 DUP4 PUSH1 0x40 MLOAD DUP1 PUSH1 0x40 ADD PUSH1 0x40 MSTORE DUP1 PUSH1 0x1E DUP2 MSTORE PUSH1 0x20 ADD PUSH32 0x536166654D6174683A207375627472616374696F6E206F766572666C6F770000 DUP2 MSTORE POP PUSH2 0x10AE JUMP JUMPDEST PUSH1 0x0 PUSH2 0xA5E DUP3 PUSH5 0xE8D4A51000 PUSH4 0xFFFFFFFF PUSH2 0x1013 AND JUMP JUMPDEST PUSH1 0x5 DUP2 SWAP1 SSTORE PUSH1 0x40 DUP1 MLOAD DUP3 DUP2 MSTORE SWAP1 MLOAD PUSH32 0x4D29DE21DE555AF78A62FC82DD4BC05E9AE5B0660A37F04729527E0F22780CD3 SWAP2 DUP2 SWAP1 SUB PUSH1 0x20 ADD SWAP1 LOG1 POP JUMP JUMPDEST PUSH1 0x0 DUP1 PUSH1 0x12 DUP4 LT PUSH2 0xFCD JUMPI PUSH2 0xFC6 DUP5 PUSH1 0x11 NOT DUP6 ADD PUSH1 0xA EXP PUSH4 0xFFFFFFFF PUSH2 0x106C AND JUMP JUMPDEST SWAP1 POP PUSH2 0xB2A JUMP JUMPDEST PUSH1 0x12 DUP4 LT ISZERO PUSH2 0xB2A JUMPI PUSH2 0xDA9 DUP5 PUSH1 0x12 DUP6 SWAP1 SUB PUSH1 0xA EXP PUSH4 0xFFFFFFFF PUSH2 0x1013 AND JUMP JUMPDEST PUSH1 0x0 DUP2 DUP4 LT PUSH2 0xFFC JUMPI DUP2 PUSH2 0xB2A JUMP JUMPDEST POP SWAP1 SWAP2 SWAP1 POP JUMP JUMPDEST PUSH1 0x0 DUP2 DUP4 LT ISZERO PUSH2 0xFFC JUMPI DUP2 PUSH2 0xB2A JUMP JUMPDEST PUSH1 0x0 DUP3 PUSH2 0x1022 JUMPI POP PUSH1 0x0 PUSH2 0xA5E JUMP JUMPDEST DUP3 DUP3 MUL DUP3 DUP5 DUP3 DUP2 PUSH2 0x102F JUMPI INVALID JUMPDEST DIV EQ PUSH2 0xB2A JUMPI PUSH1 0x40 MLOAD PUSH3 0x461BCD PUSH1 0xE5 SHL DUP2 MSTORE PUSH1 0x4 ADD DUP1 DUP1 PUSH1 0x20 ADD DUP3 DUP2 SUB DUP3 MSTORE PUSH1 0x21 DUP2 MSTORE PUSH1 0x20 ADD DUP1 PUSH2 0x1205 PUSH1 0x21 SWAP2 CODECOPY PUSH1 0x40 ADD SWAP2 POP POP PUSH1 0x40 MLOAD DUP1 SWAP2 SUB SWAP1 REVERT JUMPDEST PUSH1 0x0 PUSH2 0xB2A DUP4 DUP4 PUSH1 0x40 MLOAD DUP1 PUSH1 0x40 ADD PUSH1 0x40 MSTORE DUP1 PUSH1 0x1A DUP2 MSTORE PUSH1 0x20 ADD PUSH32 0x536166654D6174683A206469766973696F6E206279207A65726F000000000000 DUP2 MSTORE POP PUSH2 0x1145 JUMP JUMPDEST PUSH1 0x0 DUP2 DUP5 DUP5 GT ISZERO PUSH2 0x113D JUMPI PUSH1 0x40 MLOAD PUSH3 0x461BCD PUSH1 0xE5 SHL DUP2 MSTORE PUSH1 0x4 ADD DUP1 DUP1 PUSH1 0x20 ADD DUP3 DUP2 SUB DUP3 MSTORE DUP4 DUP2 DUP2 MLOAD DUP2 MSTORE PUSH1 0x20 ADD SWAP2 POP DUP1 MLOAD SWAP1 PUSH1 0x20 ADD SWAP1 DUP1 DUP4 DUP4 PUSH1 0x0 JUMPDEST DUP4 DUP2 LT ISZERO PUSH2 0x1102 JUMPI DUP2 DUP2 ADD MLOAD DUP4 DUP3 ADD MSTORE PUSH1 0x20 ADD PUSH2 0x10EA JUMP JUMPDEST POP POP POP POP SWAP1 POP SWAP1 DUP2 ADD SWAP1 PUSH1 0x1F AND DUP1 ISZERO PUSH2 0x112F JUMPI DUP1 DUP3 SUB DUP1 MLOAD PUSH1 0x1 DUP4 PUSH1 0x20 SUB PUSH2 0x100 EXP SUB NOT AND DUP2 MSTORE PUSH1 0x20 ADD SWAP2 POP JUMPDEST POP SWAP3 POP POP POP PUSH1 0x40 MLOAD DUP1 SWAP2 SUB SWAP1 REVERT JUMPDEST POP POP POP SWAP1 SUB SWAP1 JUMP JUMPDEST PUSH1 0x0 DUP2 DUP4 PUSH2 0x1194 JUMPI PUSH1 0x40 MLOAD PUSH3 0x461BCD PUSH1 0xE5 SHL DUP2 MSTORE PUSH1 0x20 PUSH1 0x4 DUP3 ADD DUP2 DUP2 MSTORE DUP4 MLOAD PUSH1 0x24 DUP5 ADD MSTORE DUP4 MLOAD SWAP1 SWAP3 DUP4 SWAP3 PUSH1 0x44 SWAP1 SWAP2 ADD SWAP2 SWAP1 DUP6 ADD SWAP1 DUP1 DUP4 DUP4 PUSH1 0x0 DUP4 ISZERO PUSH2 0x1102 JUMPI DUP2 DUP2 ADD MLOAD DUP4 DUP3 ADD MSTORE PUSH1 0x20 ADD PUSH2 0x10EA JUMP JUMPDEST POP PUSH1 0x0 DUP4 DUP6 DUP2 PUSH2 0x11A0 JUMPI INVALID JUMPDEST DIV SWAP6 SWAP5 POP POP POP POP POP JUMP JUMPDEST PUSH1 0x40 DUP1 MLOAD PUSH1 0xA0 DUP2 ADD DUP3 MSTORE PUSH1 0x0 DUP1 DUP3 MSTORE PUSH1 0x20 DUP3 ADD DUP2 SWAP1 MSTORE SWAP2 DUP2 ADD DUP3 SWAP1 MSTORE PUSH1 0x60 DUP2 ADD DUP3 SWAP1 MSTORE PUSH1 0x80 DUP2 ADD SWAP2 SWAP1 SWAP2 MSTORE SWAP1 JUMP JUMPDEST PUSH1 0x40 MLOAD DUP1 PUSH1 0x80 ADD PUSH1 0x40 MSTORE DUP1 PUSH1 0x0 ISZERO ISZERO DUP2 MSTORE PUSH1 0x20 ADD PUSH1 0x0 DUP2 MSTORE PUSH1 0x20 ADD PUSH1 0x0 DUP2 MSTORE PUSH1 0x20 ADD PUSH1 0x0 ISZERO ISZERO DUP2 MSTORE POP SWAP1 JUMP INVALID MSTORE8 PUSH2 0x6665 0x4D PUSH2 0x7468 GASPRICE KECCAK256 PUSH14 0x756C7469706C69636174696F6E20 PUSH16 0x766572666C6F77507269636546656564 GASPRICE KECCAK256 NUMBER PUSH9 0x61696E6C696E6B206D PUSH22 0x737420626520776F726B696E6720616E642063757272 PUSH6 0x6E74A2646970 PUSH7 0x73582212202FF5 PUSH12 0x5BC413ACAB091660EEBF4C73 0xEC MUL DUP1 0xE4 0x2D 0xCE TIMESTAMP SWAP9 0xB0 0xBE 0xBD MSTORE8 0xBE DUP1 0x2F LOG3 SIGNEXTEND PUSH5 0x736F6C6343 STOP MOD SIGNEXTEND STOP CALLER "
		},
		"gasEstimates": {
			"creation": {
				"codeDepositCost": "949400",
				"executionCost": "23356",
				"totalCost": "972756"
			},
			"external": {
				"DECIMAL_PRECISION()": "220",
				"ETHUSD_TELLOR_REQ_ID()": "309",
				"MAX_PRICE_DEVIATION_FROM_PREVIOUS_ROUND()": "287",
				"MAX_PRICE_DIFFERENCE_BETWEEN_ORACLES()": "265",
				"NAME()": "infinite",
				"TARGET_DIGITS()": "266",
				"TELLOR_DIGITS()": "286",
				"TIMEOUT()": "308",
				"fetchPrice()": "infinite",
				"isOwner()": "1094",
				"lastGoodPrice()": "1022",
				"owner()": "1082",
				"priceAggregator()": "1082",
				"setAddresses(address,address)": "infinite",
				"setLastGoodPrice(uint256)": "20255",
				"setStatus(uint8)": "21086",
				"status()": "1133",
				"tellorCaller()": "1060"
			}
		},
		"methodIdentifiers": {
			"DECIMAL_PRECISION()": "a20baee6",
			"ETHUSD_TELLOR_REQ_ID()": "5f42caf8",
			"MAX_PRICE_DEVIATION_FROM_PREVIOUS_ROUND()": "58a6aa88",
			"MAX_PRICE_DIFFERENCE_BETWEEN_ORACLES()": "45079cb4",
			"NAME()": "a3f4df7e",
			"TARGET_DIGITS()": "1be5c92f",
			"TELLOR_DIGITS()": "ebf8e6c6",
			"TIMEOUT()": "f56f48f2",
			"fetchPrice()": "0fdb11cf",
			"isOwner()": "8f32d59b",
			"lastGoodPrice()": "0490be83",
			"owner()": "8da5cb5b",
			"priceAggregator()": "3078fff5",
			"setAddresses(address,address)": "90107afe",
			"setLastGoodPrice(uint256)": "c521b3f5",
			"setStatus(uint8)": "2e49d78b",
			"status()": "200d2ed2",
			"tellorCaller()": "7c61e3bf"
		}
	},
	"abi": [
		{
			"anonymous": false,
			"inputs": [
				{
					"indexed": false,
					"internalType": "uint256",
					"name": "_lastGoodPrice",
					"type": "uint256"
				}
			],
			"name": "LastGoodPriceUpdated",
			"type": "event"
		},
		{
			"anonymous": false,
			"inputs": [
				{
					"indexed": true,
					"internalType": "address",
					"name": "previousOwner",
					"type": "address"
				},
				{
					"indexed": true,
					"internalType": "address",
					"name": "newOwner",
					"type": "address"
				}
			],
			"name": "OwnershipTransferred",
			"type": "event"
		},
		{
			"anonymous": false,
			"inputs": [
				{
					"indexed": false,
					"internalType": "enum PriceFeed.Status",
					"name": "newStatus",
					"type": "uint8"
				}
			],
			"name": "PriceFeedStatusChanged",
			"type": "event"
		},
		{
			"inputs": [],
			"name": "DECIMAL_PRECISION",
			"outputs": [
				{
					"internalType": "uint256",
					"name": "",
					"type": "uint256"
				}
			],
			"stateMutability": "view",
			"type": "function"
		},
		{
			"inputs": [],
			"name": "ETHUSD_TELLOR_REQ_ID",
			"outputs": [
				{
					"internalType": "uint256",
					"name": "",
					"type": "uint256"
				}
			],
			"stateMutability": "view",
			"type": "function"
		},
		{
			"inputs": [],
			"name": "MAX_PRICE_DEVIATION_FROM_PREVIOUS_ROUND",
			"outputs": [
				{
					"internalType": "uint256",
					"name": "",
					"type": "uint256"
				}
			],
			"stateMutability": "view",
			"type": "function"
		},
		{
			"inputs": [],
			"name": "MAX_PRICE_DIFFERENCE_BETWEEN_ORACLES",
			"outputs": [
				{
					"internalType": "uint256",
					"name": "",
					"type": "uint256"
				}
			],
			"stateMutability": "view",
			"type": "function"
		},
		{
			"inputs": [],
			"name": "NAME",
			"outputs": [
				{
					"internalType": "string",
					"name": "",
					"type": "string"
				}
			],
			"stateMutability": "view",
			"type": "function"
		},
		{
			"inputs": [],
			"name": "TARGET_DIGITS",
			"outputs": [
				{
					"internalType": "uint256",
					"name": "",
					"type": "uint256"
				}
			],
			"stateMutability": "view",
			"type": "function"
		},
		{
			"inputs": [],
			"name": "TELLOR_DIGITS",
			"outputs": [
				{
					"internalType": "uint256",
					"name": "",
					"type": "uint256"
				}
			],
			"stateMutability": "view",
			"type": "function"
		},
		{
			"inputs": [],
			"name": "TIMEOUT",
			"outputs": [
				{
					"internalType": "uint256",
					"name": "",
					"type": "uint256"
				}
			],
			"stateMutability": "view",
			"type": "function"
		},
		{
			"inputs": [],
			"name": "fetchPrice",
			"outputs": [
				{
					"internalType": "uint256",
					"name": "",
					"type": "uint256"
				}
			],
			"stateMutability": "nonpayable",
			"type": "function"
		},
		{
			"inputs": [],
			"name": "isOwner",
			"outputs": [
				{
					"internalType": "bool",
					"name": "",
					"type": "bool"
				}
			],
			"stateMutability": "view",
			"type": "function"
		},
		{
			"inputs": [],
			"name": "lastGoodPrice",
			"outputs": [
				{
					"internalType": "uint256",
					"name": "",
					"type": "uint256"
				}
			],
			"stateMutability": "view",
			"type": "function"
		},
		{
			"inputs": [],
			"name": "owner",
			"outputs": [
				{
					"internalType": "address",
					"name": "",
					"type": "address"
				}
			],
			"stateMutability": "view",
			"type": "function"
		},
		{
			"inputs": [],
			"name": "priceAggregator",
			"outputs": [
				{
					"internalType": "contract AggregatorV3Interface",
					"name": "",
					"type": "address"
				}
			],
			"stateMutability": "view",
			"type": "function"
		},
		{
			"inputs": [
				{
					"internalType": "address",
					"name": "_priceAggregatorAddress",
					"type": "address"
				},
				{
					"internalType": "address",
					"name": "_tellorCallerAddress",
					"type": "address"
				}
			],
			"name": "setAddresses",
			"outputs": [],
			"stateMutability": "nonpayable",
			"type": "function"
		},
		{
			"inputs": [
				{
					"internalType": "uint256",
					"name": "_lastGoodPrice",
					"type": "uint256"
				}
			],
			"name": "setLastGoodPrice",
			"outputs": [],
			"stateMutability": "nonpayable",
			"type": "function"
		},
		{
			"inputs": [
				{
					"internalType": "enum PriceFeed.Status",
					"name": "_status",
					"type": "uint8"
				}
			],
			"name": "setStatus",
			"outputs": [],
			"stateMutability": "nonpayable",
			"type": "function"
		},
		{
			"inputs": [],
			"name": "status",
			"outputs": [
				{
					"internalType": "enum PriceFeed.Status",
					"name": "",
					"type": "uint8"
				}
			],
			"stateMutability": "view",
			"type": "function"
		},
		{
			"inputs": [],
			"name": "tellorCaller",
			"outputs": [
				{
					"internalType": "contract ITellorCaller",
					"name": "",
					"type": "address"
				}
			],
			"stateMutability": "view",
			"type": "function"
		}
	]
}