{
	"contracts/contracts/TestContracts/SortedTrovesTester.sol": {
		"SortedTrovesTester": {
			"abi": [
				{
					"inputs": [
						{
							"internalType": "address",
							"name": "",
							"type": "address"
						},
						{
							"internalType": "uint256",
							"name": "",
							"type": "uint256"
						}
					],
					"name": "getCurrentICR",
					"outputs": [
						{
							"internalType": "uint256",
							"name": "",
							"type": "uint256"
						}
					],
					"stateMutability": "pure",
					"type": "function"
				},
				{
					"inputs": [
						{
							"internalType": "address",
							"name": "",
							"type": "address"
						}
					],
					"name": "getNominalICR",
					"outputs": [
						{
							"internalType": "uint256",
							"name": "",
							"type": "uint256"
						}
					],
					"stateMutability": "pure",
					"type": "function"
				},
				{
					"inputs": [
						{
							"internalType": "address",
							"name": "_id",
							"type": "address"
						},
						{
							"internalType": "uint256",
							"name": "_NICR",
							"type": "uint256"
						},
						{
							"internalType": "address",
							"name": "_prevId",
							"type": "address"
						},
						{
							"internalType": "address",
							"name": "_nextId",
							"type": "address"
						}
					],
					"name": "insert",
					"outputs": [],
					"stateMutability": "nonpayable",
					"type": "function"
				},
				{
					"inputs": [
						{
							"internalType": "address",
							"name": "_id",
							"type": "address"
						},
						{
							"internalType": "uint256",
							"name": "_newNICR",
							"type": "uint256"
						},
						{
							"internalType": "address",
							"name": "_prevId",
							"type": "address"
						},
						{
							"internalType": "address",
							"name": "_nextId",
							"type": "address"
						}
					],
					"name": "reInsert",
					"outputs": [],
					"stateMutability": "nonpayable",
					"type": "function"
				},
				{
					"inputs": [
						{
							"internalType": "address",
							"name": "_id",
							"type": "address"
						}
					],
					"name": "remove",
					"outputs": [],
					"stateMutability": "nonpayable",
					"type": "function"
				},
				{
					"inputs": [
						{
							"internalType": "address",
							"name": "_sortedTrovesAddress",
							"type": "address"
						}
					],
					"name": "setSortedTroves",
					"outputs": [],
					"stateMutability": "nonpayable",
					"type": "function"
				}
			],
			"devdoc": {
				"kind": "dev",
				"methods": {},
				"version": 1
			},
			"evm": {
				"assembly": "    /* \"contracts/contracts/TestContracts/SortedTrovesTester.sol\":102:905  contract SortedTrovesTester {... */\n  mstore(0x40, 0x80)\n  callvalue\n  dup1\n  iszero\n  tag_1\n  jumpi\n  0x00\n  dup1\n  revert\ntag_1:\n  pop\n  dataSize(sub_0)\n  dup1\n  dataOffset(sub_0)\n  0x00\n  codecopy\n  0x00\n  return\nstop\n\nsub_0: assembly {\n        /* \"contracts/contracts/TestContracts/SortedTrovesTester.sol\":102:905  contract SortedTrovesTester {... */\n      mstore(0x40, 0x80)\n      callvalue\n      dup1\n      iszero\n      tag_1\n      jumpi\n      0x00\n      dup1\n      revert\n    tag_1:\n      pop\n      jumpi(tag_2, lt(calldatasize, 0x04))\n      shr(0xe0, calldataload(0x00))\n      dup1\n      0x29092d0e\n      eq\n      tag_3\n      jumpi\n      dup1\n      0x2be21260\n      eq\n      tag_4\n      jumpi\n      dup1\n      0x46f7cf87\n      eq\n      tag_5\n      jumpi\n      dup1\n      0xb0d8e181\n      eq\n      tag_6\n      jumpi\n      dup1\n      0xd293c710\n      eq\n      tag_7\n      jumpi\n      dup1\n      0xe24b40d2\n      eq\n      tag_8\n      jumpi\n    tag_2:\n      0x00\n      dup1\n      revert\n        /* \"contracts/contracts/TestContracts/SortedTrovesTester.sol\":465:544  function remove(address _id) external {... */\n    tag_3:\n      tag_9\n      0x04\n      dup1\n      calldatasize\n      sub\n      0x20\n      dup2\n      lt\n      iszero\n      tag_10\n      jumpi\n      0x00\n      dup1\n      revert\n    tag_10:\n      pop\n      calldataload\n      sub(shl(0xa0, 0x01), 0x01)\n      and\n      tag_11\n      jump\t// in\n    tag_9:\n      stop\n        /* \"contracts/contracts/TestContracts/SortedTrovesTester.sol\":550:713  function reInsert(address _id, uint256 _newNICR, address _prevId, address _nextId) external {... */\n    tag_4:\n      tag_9\n      0x04\n      dup1\n      calldatasize\n      sub\n      0x80\n      dup2\n      lt\n      iszero\n      tag_13\n      jumpi\n      0x00\n      dup1\n      revert\n    tag_13:\n      pop\n      sub(shl(0xa0, 0x01), 0x01)\n      dup2\n      calldataload\n      dup2\n      and\n      swap2\n      0x20\n      dup2\n      add\n      calldataload\n      swap2\n      0x40\n      dup3\n      add\n      calldataload\n      dup2\n      and\n      swap2\n      0x60\n      add\n      calldataload\n      and\n      tag_14\n      jump\t// in\n        /* \"contracts/contracts/TestContracts/SortedTrovesTester.sol\":306:459  function insert(address _id, uint256 _NICR, address _prevId, address _nextId) external {... */\n    tag_5:\n      tag_9\n      0x04\n      dup1\n      calldatasize\n      sub\n      0x80\n      dup2\n      lt\n      iszero\n      tag_16\n      jumpi\n      0x00\n      dup1\n      revert\n    tag_16:\n      pop\n      sub(shl(0xa0, 0x01), 0x01)\n      dup2\n      calldataload\n      dup2\n      and\n      swap2\n      0x20\n      dup2\n      add\n      calldataload\n      swap2\n      0x40\n      dup3\n      add\n      calldataload\n      dup2\n      and\n      swap2\n      0x60\n      add\n      calldataload\n      and\n      tag_17\n      jump\t// in\n        /* \"contracts/contracts/TestContracts/SortedTrovesTester.sol\":719:805  function getNominalICR(address) external pure returns (uint) {... */\n    tag_6:\n      tag_18\n      0x04\n      dup1\n      calldatasize\n      sub\n      0x20\n      dup2\n      lt\n      iszero\n      tag_19\n      jumpi\n      0x00\n      dup1\n      revert\n    tag_19:\n      pop\n      calldataload\n      sub(shl(0xa0, 0x01), 0x01)\n      and\n      tag_20\n      jump\t// in\n    tag_18:\n      0x40\n      dup1\n      mload\n      swap2\n      dup3\n      mstore\n      mload\n      swap1\n      dup2\n      swap1\n      sub\n      0x20\n      add\n      swap1\n      return\n        /* \"contracts/contracts/TestContracts/SortedTrovesTester.sol\":811:903  function getCurrentICR(address, uint) external pure returns (uint) {... */\n    tag_7:\n      tag_18\n      0x04\n      dup1\n      calldatasize\n      sub\n      0x40\n      dup2\n      lt\n      iszero\n      tag_22\n      jumpi\n      0x00\n      dup1\n      revert\n    tag_22:\n      pop\n      sub(shl(0xa0, 0x01), 0x01)\n      dup2\n      calldataload\n      and\n      swap1\n      0x20\n      add\n      calldataload\n      tag_23\n      jump\t// in\n        /* \"contracts/contracts/TestContracts/SortedTrovesTester.sol\":169:300  function setSortedTroves(address _sortedTrovesAddress) external {... */\n    tag_8:\n      tag_9\n      0x04\n      dup1\n      calldatasize\n      sub\n      0x20\n      dup2\n      lt\n      iszero\n      tag_25\n      jumpi\n      0x00\n      dup1\n      revert\n    tag_25:\n      pop\n      calldataload\n      sub(shl(0xa0, 0x01), 0x01)\n      and\n      tag_26\n      jump\t// in\n        /* \"contracts/contracts/TestContracts/SortedTrovesTester.sol\":465:544  function remove(address _id) external {... */\n    tag_11:\n        /* \"contracts/contracts/TestContracts/SortedTrovesTester.sol\":513:525  sortedTroves */\n      0x00\n      dup1\n      sload\n        /* \"contracts/contracts/TestContracts/SortedTrovesTester.sol\":513:537  sortedTroves.remove(_id) */\n      0x40\n      dup1\n      mload\n      shl(0xe1, 0x14849687)\n      dup2\n      mstore\n      sub(shl(0xa0, 0x01), 0x01)\n      dup6\n      dup2\n      and\n      0x04\n      dup4\n      add\n      mstore\n      swap2\n      mload\n        /* \"contracts/contracts/TestContracts/SortedTrovesTester.sol\":513:525  sortedTroves */\n      swap2\n      swap1\n      swap3\n      and\n      swap3\n        /* \"contracts/contracts/TestContracts/SortedTrovesTester.sol\":513:532  sortedTroves.remove */\n      0x29092d0e\n      swap3\n        /* \"contracts/contracts/TestContracts/SortedTrovesTester.sol\":513:537  sortedTroves.remove(_id) */\n      0x24\n      dup1\n      dup3\n      add\n      swap4\n      swap2\n      dup3\n      swap1\n      sub\n      add\n      dup2\n        /* \"contracts/contracts/TestContracts/SortedTrovesTester.sol\":513:525  sortedTroves */\n      dup4\n      dup8\n        /* \"contracts/contracts/TestContracts/SortedTrovesTester.sol\":513:537  sortedTroves.remove(_id) */\n      dup1\n      extcodesize\n      iszero\n      dup1\n      iszero\n      tag_28\n      jumpi\n      0x00\n      dup1\n      revert\n    tag_28:\n      pop\n      gas\n      call\n      iszero\n      dup1\n      iszero\n      tag_30\n      jumpi\n      returndatasize\n      0x00\n      dup1\n      returndatacopy\n      revert(0x00, returndatasize)\n    tag_30:\n      pop\n      pop\n      pop\n      pop\n        /* \"contracts/contracts/TestContracts/SortedTrovesTester.sol\":465:544  function remove(address _id) external {... */\n      pop\n      jump\t// out\n        /* \"contracts/contracts/TestContracts/SortedTrovesTester.sol\":550:713  function reInsert(address _id, uint256 _newNICR, address _prevId, address _nextId) external {... */\n    tag_14:\n        /* \"contracts/contracts/TestContracts/SortedTrovesTester.sol\":652:664  sortedTroves */\n      0x00\n      dup1\n      sload\n        /* \"contracts/contracts/TestContracts/SortedTrovesTester.sol\":652:706  sortedTroves.reInsert(_id, _newNICR, _prevId, _nextId) */\n      0x40\n      dup1\n      mload\n      shl(0xe5, 0x015f1093)\n      dup2\n      mstore\n      sub(shl(0xa0, 0x01), 0x01)\n      dup9\n      dup2\n      and\n      0x04\n      dup4\n      add\n      mstore\n      0x24\n      dup3\n      add\n      dup9\n      swap1\n      mstore\n      dup7\n      dup2\n      and\n      0x44\n      dup4\n      add\n      mstore\n      dup6\n      dup2\n      and\n      0x64\n      dup4\n      add\n      mstore\n      swap2\n      mload\n        /* \"contracts/contracts/TestContracts/SortedTrovesTester.sol\":652:664  sortedTroves */\n      swap2\n      swap1\n      swap3\n      and\n      swap3\n        /* \"contracts/contracts/TestContracts/SortedTrovesTester.sol\":652:673  sortedTroves.reInsert */\n      0x2be21260\n      swap3\n        /* \"contracts/contracts/TestContracts/SortedTrovesTester.sol\":652:706  sortedTroves.reInsert(_id, _newNICR, _prevId, _nextId) */\n      0x84\n      dup1\n      dup3\n      add\n      swap4\n      swap2\n      dup3\n      swap1\n      sub\n      add\n      dup2\n        /* \"contracts/contracts/TestContracts/SortedTrovesTester.sol\":652:664  sortedTroves */\n      dup4\n      dup8\n        /* \"contracts/contracts/TestContracts/SortedTrovesTester.sol\":652:706  sortedTroves.reInsert(_id, _newNICR, _prevId, _nextId) */\n      dup1\n      extcodesize\n      iszero\n      dup1\n      iszero\n      tag_32\n      jumpi\n      0x00\n      dup1\n      revert\n    tag_32:\n      pop\n      gas\n      call\n      iszero\n      dup1\n      iszero\n      tag_34\n      jumpi\n      returndatasize\n      0x00\n      dup1\n      returndatacopy\n      revert(0x00, returndatasize)\n    tag_34:\n      pop\n      pop\n      pop\n      pop\n        /* \"contracts/contracts/TestContracts/SortedTrovesTester.sol\":550:713  function reInsert(address _id, uint256 _newNICR, address _prevId, address _nextId) external {... */\n      pop\n      pop\n      pop\n      pop\n      jump\t// out\n        /* \"contracts/contracts/TestContracts/SortedTrovesTester.sol\":306:459  function insert(address _id, uint256 _NICR, address _prevId, address _nextId) external {... */\n    tag_17:\n        /* \"contracts/contracts/TestContracts/SortedTrovesTester.sol\":403:415  sortedTroves */\n      0x00\n      dup1\n      sload\n        /* \"contracts/contracts/TestContracts/SortedTrovesTester.sol\":403:452  sortedTroves.insert(_id, _NICR, _prevId, _nextId) */\n      0x40\n      dup1\n      mload\n      shl(0xe0, 0x46f7cf87)\n      dup2\n      mstore\n      sub(shl(0xa0, 0x01), 0x01)\n      dup9\n      dup2\n      and\n      0x04\n      dup4\n      add\n      mstore\n      0x24\n      dup3\n      add\n      dup9\n      swap1\n      mstore\n      dup7\n      dup2\n      and\n      0x44\n      dup4\n      add\n      mstore\n      dup6\n      dup2\n      and\n      0x64\n      dup4\n      add\n      mstore\n      swap2\n      mload\n        /* \"contracts/contracts/TestContracts/SortedTrovesTester.sol\":403:415  sortedTroves */\n      swap2\n      swap1\n      swap3\n      and\n      swap3\n        /* \"contracts/contracts/TestContracts/SortedTrovesTester.sol\":403:422  sortedTroves.insert */\n      0x46f7cf87\n      swap3\n        /* \"contracts/contracts/TestContracts/SortedTrovesTester.sol\":403:452  sortedTroves.insert(_id, _NICR, _prevId, _nextId) */\n      0x84\n      dup1\n      dup3\n      add\n      swap4\n      swap2\n      dup3\n      swap1\n      sub\n      add\n      dup2\n        /* \"contracts/contracts/TestContracts/SortedTrovesTester.sol\":403:415  sortedTroves */\n      dup4\n      dup8\n        /* \"contracts/contracts/TestContracts/SortedTrovesTester.sol\":403:452  sortedTroves.insert(_id, _NICR, _prevId, _nextId) */\n      dup1\n      extcodesize\n      iszero\n      dup1\n      iszero\n      tag_32\n      jumpi\n      0x00\n      dup1\n      revert\n        /* \"contracts/contracts/TestContracts/SortedTrovesTester.sol\":719:805  function getNominalICR(address) external pure returns (uint) {... */\n    tag_20:\n      pop\n        /* \"contracts/contracts/TestContracts/SortedTrovesTester.sol\":797:798  1 */\n      0x01\n      swap1\n        /* \"contracts/contracts/TestContracts/SortedTrovesTester.sol\":719:805  function getNominalICR(address) external pure returns (uint) {... */\n      jump\t// out\n        /* \"contracts/contracts/TestContracts/SortedTrovesTester.sol\":811:903  function getCurrentICR(address, uint) external pure returns (uint) {... */\n    tag_23:\n        /* \"contracts/contracts/TestContracts/SortedTrovesTester.sol\":895:896  1 */\n      0x01\n        /* \"contracts/contracts/TestContracts/SortedTrovesTester.sol\":811:903  function getCurrentICR(address, uint) external pure returns (uint) {... */\n      swap3\n      swap2\n      pop\n      pop\n      jump\t// out\n        /* \"contracts/contracts/TestContracts/SortedTrovesTester.sol\":169:300  function setSortedTroves(address _sortedTrovesAddress) external {... */\n    tag_26:\n        /* \"contracts/contracts/TestContracts/SortedTrovesTester.sol\":243:255  sortedTroves */\n      0x00\n        /* \"contracts/contracts/TestContracts/SortedTrovesTester.sol\":243:293  sortedTroves = ISortedTroves(_sortedTrovesAddress) */\n      dup1\n      sload\n      not(sub(shl(0xa0, 0x01), 0x01))\n      and\n      sub(shl(0xa0, 0x01), 0x01)\n      swap3\n      swap1\n      swap3\n      and\n      swap2\n      swap1\n      swap2\n      or\n      swap1\n      sstore\n        /* \"contracts/contracts/TestContracts/SortedTrovesTester.sol\":169:300  function setSortedTroves(address _sortedTrovesAddress) external {... */\n      jump\t// out\n\n    auxdata: 0xa2646970667358221220e3a89694c1d7fc274946be706d6322a587630cf4b1c7ace8e9994999976717f364736f6c634300060b0033\n}\n",
				"bytecode": {
					"linkReferences": {},
					"object": "608060405234801561001057600080fd5b5061033f806100206000396000f3fe608060405234801561001057600080fd5b50600436106100625760003560e01c806329092d0e146100675780632be212601461008f57806346f7cf87146100cb578063b0d8e18114610107578063d293c7101461013f578063e24b40d21461016b575b600080fd5b61008d6004803603602081101561007d57600080fd5b50356001600160a01b0316610191565b005b61008d600480360360808110156100a557600080fd5b506001600160a01b038135811691602081013591604082013581169160600135166101f7565b61008d600480360360808110156100e157600080fd5b506001600160a01b03813581169160208101359160408201358116916060013516610277565b61012d6004803603602081101561011d57600080fd5b50356001600160a01b03166102d9565b60408051918252519081900360200190f35b61012d6004803603604081101561015557600080fd5b506001600160a01b0381351690602001356102df565b61008d6004803603602081101561018157600080fd5b50356001600160a01b03166102e7565b6000805460408051631484968760e11b81526001600160a01b038581166004830152915191909216926329092d0e926024808201939182900301818387803b1580156101dc57600080fd5b505af11580156101f0573d6000803e3d6000fd5b5050505050565b600080546040805163015f109360e51b81526001600160a01b038881166004830152602482018890528681166044830152858116606483015291519190921692632be21260926084808201939182900301818387803b15801561025957600080fd5b505af115801561026d573d6000803e3d6000fd5b5050505050505050565b60008054604080516346f7cf8760e01b81526001600160a01b0388811660048301526024820188905286811660448301528581166064830152915191909216926346f7cf87926084808201939182900301818387803b15801561025957600080fd5b50600190565b600192915050565b600080546001600160a01b0319166001600160a01b039290921691909117905556fea2646970667358221220e3a89694c1d7fc274946be706d6322a587630cf4b1c7ace8e9994999976717f364736f6c634300060b0033",
					"opcodes": "PUSH1 0x80 PUSH1 0x40 MSTORE CALLVALUE DUP1 ISZERO PUSH2 0x10 JUMPI PUSH1 0x0 DUP1 REVERT JUMPDEST POP PUSH2 0x33F DUP1 PUSH2 0x20 PUSH1 0x0 CODECOPY PUSH1 0x0 RETURN INVALID PUSH1 0x80 PUSH1 0x40 MSTORE CALLVALUE DUP1 ISZERO PUSH2 0x10 JUMPI PUSH1 0x0 DUP1 REVERT JUMPDEST POP PUSH1 0x4 CALLDATASIZE LT PUSH2 0x62 JUMPI PUSH1 0x0 CALLDATALOAD PUSH1 0xE0 SHR DUP1 PUSH4 0x29092D0E EQ PUSH2 0x67 JUMPI DUP1 PUSH4 0x2BE21260 EQ PUSH2 0x8F JUMPI DUP1 PUSH4 0x46F7CF87 EQ PUSH2 0xCB JUMPI DUP1 PUSH4 0xB0D8E181 EQ PUSH2 0x107 JUMPI DUP1 PUSH4 0xD293C710 EQ PUSH2 0x13F JUMPI DUP1 PUSH4 0xE24B40D2 EQ PUSH2 0x16B JUMPI JUMPDEST PUSH1 0x0 DUP1 REVERT JUMPDEST PUSH2 0x8D PUSH1 0x4 DUP1 CALLDATASIZE SUB PUSH1 0x20 DUP2 LT ISZERO PUSH2 0x7D JUMPI PUSH1 0x0 DUP1 REVERT JUMPDEST POP CALLDATALOAD PUSH1 0x1 PUSH1 0x1 PUSH1 0xA0 SHL SUB AND PUSH2 0x191 JUMP JUMPDEST STOP JUMPDEST PUSH2 0x8D PUSH1 0x4 DUP1 CALLDATASIZE SUB PUSH1 0x80 DUP2 LT ISZERO PUSH2 0xA5 JUMPI PUSH1 0x0 DUP1 REVERT JUMPDEST POP PUSH1 0x1 PUSH1 0x1 PUSH1 0xA0 SHL SUB DUP2 CALLDATALOAD DUP2 AND SWAP2 PUSH1 0x20 DUP2 ADD CALLDATALOAD SWAP2 PUSH1 0x40 DUP3 ADD CALLDATALOAD DUP2 AND SWAP2 PUSH1 0x60 ADD CALLDATALOAD AND PUSH2 0x1F7 JUMP JUMPDEST PUSH2 0x8D PUSH1 0x4 DUP1 CALLDATASIZE SUB PUSH1 0x80 DUP2 LT ISZERO PUSH2 0xE1 JUMPI PUSH1 0x0 DUP1 REVERT JUMPDEST POP PUSH1 0x1 PUSH1 0x1 PUSH1 0xA0 SHL SUB DUP2 CALLDATALOAD DUP2 AND SWAP2 PUSH1 0x20 DUP2 ADD CALLDATALOAD SWAP2 PUSH1 0x40 DUP3 ADD CALLDATALOAD DUP2 AND SWAP2 PUSH1 0x60 ADD CALLDATALOAD AND PUSH2 0x277 JUMP JUMPDEST PUSH2 0x12D PUSH1 0x4 DUP1 CALLDATASIZE SUB PUSH1 0x20 DUP2 LT ISZERO PUSH2 0x11D JUMPI PUSH1 0x0 DUP1 REVERT JUMPDEST POP CALLDATALOAD PUSH1 0x1 PUSH1 0x1 PUSH1 0xA0 SHL SUB AND PUSH2 0x2D9 JUMP JUMPDEST PUSH1 0x40 DUP1 MLOAD SWAP2 DUP3 MSTORE MLOAD SWAP1 DUP2 SWAP1 SUB PUSH1 0x20 ADD SWAP1 RETURN JUMPDEST PUSH2 0x12D PUSH1 0x4 DUP1 CALLDATASIZE SUB PUSH1 0x40 DUP2 LT ISZERO PUSH2 0x155 JUMPI PUSH1 0x0 DUP1 REVERT JUMPDEST POP PUSH1 0x1 PUSH1 0x1 PUSH1 0xA0 SHL SUB DUP2 CALLDATALOAD AND SWAP1 PUSH1 0x20 ADD CALLDATALOAD PUSH2 0x2DF JUMP JUMPDEST PUSH2 0x8D PUSH1 0x4 DUP1 CALLDATASIZE SUB PUSH1 0x20 DUP2 LT ISZERO PUSH2 0x181 JUMPI PUSH1 0x0 DUP1 REVERT JUMPDEST POP CALLDATALOAD PUSH1 0x1 PUSH1 0x1 PUSH1 0xA0 SHL SUB AND PUSH2 0x2E7 JUMP JUMPDEST PUSH1 0x0 DUP1 SLOAD PUSH1 0x40 DUP1 MLOAD PUSH4 0x14849687 PUSH1 0xE1 SHL DUP2 MSTORE PUSH1 0x1 PUSH1 0x1 PUSH1 0xA0 SHL SUB DUP6 DUP2 AND PUSH1 0x4 DUP4 ADD MSTORE SWAP2 MLOAD SWAP2 SWAP1 SWAP3 AND SWAP3 PUSH4 0x29092D0E SWAP3 PUSH1 0x24 DUP1 DUP3 ADD SWAP4 SWAP2 DUP3 SWAP1 SUB ADD DUP2 DUP4 DUP8 DUP1 EXTCODESIZE ISZERO DUP1 ISZERO PUSH2 0x1DC JUMPI PUSH1 0x0 DUP1 REVERT JUMPDEST POP GAS CALL ISZERO DUP1 ISZERO PUSH2 0x1F0 JUMPI RETURNDATASIZE PUSH1 0x0 DUP1 RETURNDATACOPY RETURNDATASIZE PUSH1 0x0 REVERT JUMPDEST POP POP POP POP POP JUMP JUMPDEST PUSH1 0x0 DUP1 SLOAD PUSH1 0x40 DUP1 MLOAD PUSH4 0x15F1093 PUSH1 0xE5 SHL DUP2 MSTORE PUSH1 0x1 PUSH1 0x1 PUSH1 0xA0 SHL SUB DUP9 DUP2 AND PUSH1 0x4 DUP4 ADD MSTORE PUSH1 0x24 DUP3 ADD DUP9 SWAP1 MSTORE DUP7 DUP2 AND PUSH1 0x44 DUP4 ADD MSTORE DUP6 DUP2 AND PUSH1 0x64 DUP4 ADD MSTORE SWAP2 MLOAD SWAP2 SWAP1 SWAP3 AND SWAP3 PUSH4 0x2BE21260 SWAP3 PUSH1 0x84 DUP1 DUP3 ADD SWAP4 SWAP2 DUP3 SWAP1 SUB ADD DUP2 DUP4 DUP8 DUP1 EXTCODESIZE ISZERO DUP1 ISZERO PUSH2 0x259 JUMPI PUSH1 0x0 DUP1 REVERT JUMPDEST POP GAS CALL ISZERO DUP1 ISZERO PUSH2 0x26D JUMPI RETURNDATASIZE PUSH1 0x0 DUP1 RETURNDATACOPY RETURNDATASIZE PUSH1 0x0 REVERT JUMPDEST POP POP POP POP POP POP POP POP JUMP JUMPDEST PUSH1 0x0 DUP1 SLOAD PUSH1 0x40 DUP1 MLOAD PUSH4 0x46F7CF87 PUSH1 0xE0 SHL DUP2 MSTORE PUSH1 0x1 PUSH1 0x1 PUSH1 0xA0 SHL SUB DUP9 DUP2 AND PUSH1 0x4 DUP4 ADD MSTORE PUSH1 0x24 DUP3 ADD DUP9 SWAP1 MSTORE DUP7 DUP2 AND PUSH1 0x44 DUP4 ADD MSTORE DUP6 DUP2 AND PUSH1 0x64 DUP4 ADD MSTORE SWAP2 MLOAD SWAP2 SWAP1 SWAP3 AND SWAP3 PUSH4 0x46F7CF87 SWAP3 PUSH1 0x84 DUP1 DUP3 ADD SWAP4 SWAP2 DUP3 SWAP1 SUB ADD DUP2 DUP4 DUP8 DUP1 EXTCODESIZE ISZERO DUP1 ISZERO PUSH2 0x259 JUMPI PUSH1 0x0 DUP1 REVERT JUMPDEST POP PUSH1 0x1 SWAP1 JUMP JUMPDEST PUSH1 0x1 SWAP3 SWAP2 POP POP JUMP JUMPDEST PUSH1 0x0 DUP1 SLOAD PUSH1 0x1 PUSH1 0x1 PUSH1 0xA0 SHL SUB NOT AND PUSH1 0x1 PUSH1 0x1 PUSH1 0xA0 SHL SUB SWAP3 SWAP1 SWAP3 AND SWAP2 SWAP1 SWAP2 OR SWAP1 SSTORE JUMP INVALID LOG2 PUSH5 0x6970667358 0x22 SLT KECCAK256 0xE3 0xA8 SWAP7 SWAP5 0xC1 0xD7 0xFC 0x27 0x49 CHAINID 0xBE PUSH17 0x6D6322A587630CF4B1C7ACE8E999499997 PUSH8 0x17F364736F6C6343 STOP MOD SIGNEXTEND STOP CALLER "
				},
				"gasEstimates": {
					"creation": {
						"codeDepositCost": "166200",
						"executionCost": "208",
						"totalCost": "166408"
					},
					"external": {
						"getCurrentICR(address,uint256)": "346",
						"getNominalICR(address)": "304",
						"insert(address,uint256,address,address)": "infinite",
						"reInsert(address,uint256,address,address)": "infinite",
						"remove(address)": "infinite",
						"setSortedTroves(address)": "21161"
					}
				},
				"methodIdentifiers": {
					"getCurrentICR(address,uint256)": "d293c710",
					"getNominalICR(address)": "b0d8e181",
					"insert(address,uint256,address,address)": "46f7cf87",
					"reInsert(address,uint256,address,address)": "2be21260",
					"remove(address)": "29092d0e",
					"setSortedTroves(address)": "e24b40d2"
				}
			},
			"storageLayout": {
				"storage": [
					{
						"astId": 136,
						"contract": "contracts/contracts/TestContracts/SortedTrovesTester.sol:SortedTrovesTester",
						"label": "sortedTroves",
						"offset": 0,
						"slot": "0",
						"type": "t_contract(ISortedTroves)131"
					}
				],
				"types": {
					"t_contract(ISortedTroves)131": {
						"encoding": "inplace",
						"label": "contract ISortedTroves",
						"numberOfBytes": "20"
					}
				}
			},
			"userdoc": {
				"kind": "user",
				"methods": {},
				"version": 1
			}
		}
	}
}