{
	"data": {
		"bytecode": {
			"linkReferences": {},
			"object": "608060405234801561001057600080fd5b50600380546001600160a01b031916339081179091556040516000907f8be0079c531659141344cd1fd0a4f28419497f9722a3daafe3b4186f6b6457e0908290a3615c4280620000616000396000f3fe608060405234801561001057600080fd5b50600436106104965760003560e01c8063795d26c311610262578063b83f91a211610151578063d3d6f843116100ce578063e2ac77b011610092578063e2ac77b014610d07578063f34862de14610d2d578063f36b242514610d53578063f851a44014610d5b578063f92d3433146106a9578063fe2ba84814610d6357610496565b8063d3d6f84314610c73578063d5b3563514610c9f578063d66a255314610cbc578063d9a7244414610ce2578063dba1c5f214610cff57610496565b8063c52861f211610115578063c52861f214610c09578063c7b5548114610c11578063cbd138ae14610c19578063d293c71014610c3f578063d380a37c14610c6b57610496565b8063b83f91a214610b57578063b91af97c14610b5f578063bcd3752614610bab578063bf9befb114610bf9578063c35bc55014610c0157610496565b806396d711ff116101df578063a3f4df7e116101a3578063a3f4df7e14610a87578063ae91875414610b04578063b0d8e18114610b0c578063b7f8cf9b14610b32578063b82f263d14610b3a57610496565b806396d711ff14610a435780639976cf4514610a4b5780639dd233d214610a77578063a20baee61461092c578063a3a6401714610a7f57610496565b806382fe3eb91161022657806382fe3eb9146109fd578063887105d314610a235780638bad0c0a14610a2b5780638da5cb5b14610a335780638f32d59b14610a3b57610496565b8063795d26c314610961578063797250e3146109695780637985c5e4146109715780637f7dde4a146109ed578063807d138d146109f557610496565b8063480cd5781161038957806364cee2601161030657806372423c17116102ca57806372423c17146108da578063724e78da1461090657806372fe25aa1461092c578063741bef1a14610934578063756b253e1461093c578063794e57241461095957610496565b806364cee260146107fa578063653d46e71461082057806366ca4a211461083d5780636ef6433814610845578063704b6c02146108b457610496565b80635d6b480f1161034d5780635d6b480f1461077b5780635d8c9609146107a75780635dba4c4a146107cd57806361ec893d146107d5578063631203b0146107dd57610496565b8063480cd5781461070c5780634870dd9a1461073257806349eefeee1461073a5780634e443d9e146107425780635733d58f1461077357610496565b80631f68f20a116104175780632b11551a116103db5780632b11551a146106b15780632e86bbd8146106b95780632f865568146106c15780633cc74225146106e7578063477d66cf146106ef57610496565b80631f68f20a1461066b5780631f7af3c31461067357806321e378011461067b57806324092669146106a157806328d28b5b146106a957610496565b806315d549f11161045e57806315d549f1146105355780631673c79a1461055b57806318f2817a1461059a5780631bf43555146105c05780631e8b1c2b146105c857610496565b8063048c661d1461049b578063060d49a3146104bf578063071a7541146104d95780630b076557146104e157806312610e9214610509575b600080fd5b6104a3610d89565b604080516001600160a01b039092168252519081900360200190f35b6104c7610d98565b60408051918252519081900360200190f35b6104c7610d9e565b610507600480360360208110156104f757600080fd5b50356001600160a01b0316610da3565b005b6104c76004803603604081101561051f57600080fd5b506001600160a01b038135169060200135610dcb565b6104c76004803603602081101561054b57600080fd5b50356001600160a01b0316610e23565b6105816004803603602081101561057157600080fd5b50356001600160a01b0316610e47565b6040805192835260208301919091528051918290030190f35b6104c7600480360360208110156105b057600080fd5b50356001600160a01b0316610e60565b6104c7610e73565b610507600480360360208110156105de57600080fd5b8101906020810181356401000000008111156105f957600080fd5b82018360208201111561060b57600080fd5b8035906020019184602083028401116401000000008311171561062d57600080fd5b919080806020026020016040519081016040528093929190818152602001838360200280828437600092019190915250929550610e80945050505050565b6104c7611222565b6104a3611228565b6104c76004803603602081101561069157600080fd5b50356001600160a01b0316611237565b6104c7611261565b6104c7611274565b6104c7611285565b6104c7611297565b610507600480360360208110156106d757600080fd5b50356001600160a01b03166112a4565b6104a361130a565b6104c76004803603602081101561070557600080fd5b5035611319565b6104c76004803603602081101561072257600080fd5b50356001600160a01b031661132c565b6104c761134a565b6104c761134f565b61075f6004803603602081101561075857600080fd5b5035611355565b604080519115158252519081900360200190f35b6104c7611360565b6105076004803603604081101561079157600080fd5b506001600160a01b03813516906020013561136c565b6104c7600480360360208110156107bd57600080fd5b50356001600160a01b03166113b8565b61050761147e565b6104c76114e4565b6104c7600480360360208110156107f357600080fd5b50356114e9565b6104c76004803603602081101561081057600080fd5b50356001600160a01b03166114f6565b6105076004803603602081101561083657600080fd5b5035611514565b6104c76118c2565b61086b6004803603602081101561085b57600080fd5b50356001600160a01b03166118d4565b6040518086815260200185815260200184815260200183600481111561088d57fe5b60ff1681526001600160801b03909216602083015250604080519182900301945092505050f35b610507600480360360208110156108ca57600080fd5b50356001600160a01b031661190e565b6104c7600480360360408110156108f057600080fd5b506001600160a01b038135169060200135611989565b6105076004803603602081101561091c57600080fd5b50356001600160a01b03166119e6565b6104c7611a1f565b6104a3611a2b565b6104a36004803603602081101561095257600080fd5b5035611a3a565b6104c7611a61565b6104c7611a6d565b6104c7611b6e565b610507600480360361016081101561098857600080fd5b506001600160a01b038135811691602081013582169160408201358116916060810135821691608082013581169160a081013582169160c082013581169160e08101358216916101008201358116916101208101358216916101409091013516611b74565b6104a3611f6d565b6104c7611f7c565b61050760048036036020811015610a1357600080fd5b50356001600160a01b0316611f82565b6104c7611f93565b61050761204f565b6104a3612078565b61075f612087565b6104c7612098565b6104c760048036036040811015610a6157600080fd5b506001600160a01b03813516906020013561209e565b6104c76120d1565b6104a36120d7565b610a8f6120e6565b6040805160208082528351818301528351919283929083019185019080838360005b83811015610ac9578181015183820152602001610ab1565b50505050905090810190601f168015610af65780820380516001836020036101000a031916815260200191505b509250505060405180910390f35b6104a361210e565b6104c760048036036020811015610b2257600080fd5b50356001600160a01b031661211d565b6104a3612144565b6104c760048036036020811015610b5057600080fd5b5035612153565b6104a361215e565b610b8560048036036020811015610b7557600080fd5b50356001600160a01b031661216d565b604080519485526020850193909352838301919091526060830152519081900360800190f35b610507600480360360e0811015610bc157600080fd5b508035906001600160a01b03602082013581169160408101358216916060820135169060808101359060a08101359060c001356121d1565b6104c7612973565b6104c7612979565b6104c7612980565b6104c7612992565b61050760048036036020811015610c2f57600080fd5b50356001600160a01b031661299e565b6104c760048036036040811015610c5557600080fd5b506001600160a01b0381351690602001356129b1565b6104c76129d0565b6104c760048036036040811015610c8957600080fd5b506001600160a01b0381351690602001356129d6565b6104c760048036036020811015610cb557600080fd5b5035612a0c565b6104c760048036036020811015610cd257600080fd5b50356001600160a01b0316612a1f565b6104a360048036036020811015610cf857600080fd5b5035612a3a565b6104c7612a64565b61075f60048036036020811015610d1d57600080fd5b50356001600160a01b0316612a6a565b6104c760048036036020811015610d4357600080fd5b50356001600160a01b0316612ac8565b6104c7612af9565b6104a3612b06565b61050760048036036020811015610d7957600080fd5b50356001600160a01b0316612b15565b6005546001600160a01b031681565b60175481565b600281565b610dab612b26565b600054600154610dc8916001600160a01b03908116911683612b71565b50565b6000610dd5612b26565b6001600160a01b0383166000908152600e6020526040812054610dfe908463ffffffff612c9316565b6001600160a01b0385166000908152600e602052604090208190559150505b92915050565b6000610e2d612b26565b610e3682612cdc565b6001600160801b031690505b919050565b6014602052600090815260409020805460019091015482565b6000610e6a612b26565b610e1d82612d76565b6809c2007651b250000081565b8051610ebd5760405162461bcd60e51b8152600401808060200182810382526036815260200180615ac86036913960400191505060405180910390fd5b6000546001546005546001600160a01b03928316929182169116610edf6157e0565b610ee7615811565b600260009054906101000a90046001600160a01b03166001600160a01b0316630fdb11cf6040518163ffffffff1660e01b8152600401602060405180830381600087803b158015610f3757600080fd5b505af1158015610f4b573d6000803e3d6000fd5b505050506040513d6020811015610f6157600080fd5b50518252604080516326fcbc6b60e21b815290516001600160a01b03851691639bf2f1ac916004808301926020929190829003018186803b158015610fa557600080fd5b505afa158015610fb9573d6000803e3d6000fd5b505050506040513d6020811015610fcf57600080fd5b505160208301528151610fe190612e25565b1580156040840152611009576110028585846000015185602001518a612e42565b9050611021565b61101e8585846000015185602001518a613072565b90505b60008160200151116110645760405162461bcd60e51b8152600401808060200182810382526022815260200180615bbc6022913960400191505060405180910390fd5b826001600160a01b031663335525ad82608001518360a001516040518363ffffffff1660e01b81526004018083815260200182815260200192505050600060405180830381600087803b1580156110ba57600080fd5b505af11580156110ce573d6000803e3d6000fd5b505050506110e685858360c001518460e0015161313a565b6101008101511561116557600754610100820151604080516364a197f360e01b81526001600160a01b039384166004820152602481019290925251918716916364a197f39160448082019260009290919082900301818387803b15801561114c57600080fd5b505af1158015611160573d6000803e3d6000fd5b505050505b6111738582604001516133bb565b60208101516060830152610100810151604082015182516111ab929161119f919063ffffffff612c9316565b9063ffffffff612c9316565b608080840182905260608085015160408086015186840151825193845260208401969096528282015291810193909352517f4152c73dd2614c4f9fc35e8c9cf16013cd588c75b49a4c1673ecffdcbcda94039281900390910190a161121a853383606001518460400151613502565b505050505050565b600c5481565b6009546001600160a01b031681565b6001600160a01b0381166000908152600e602052604081206003015460ff166004811115610e1d57fe5b6064670de0b6b3a76400005b0460050281565b6103e8670de0b6b3a764000061126d565b6000611292600c54613605565b905090565b6801158e460913d0000081565b6112ad8161363b565b6040805160018082528183019092526060916020808301908036833701905050905081816000815181106112dd57fe5b60200260200101906001600160a01b031690816001600160a01b03168152505061130681610e80565b5050565b6001546001600160a01b031681565b6000610e1d6113266118c2565b836136a3565b6001600160a01b03166000908152600e602052604090206001015490565b60c881565b60155490565b6000610e1d82612e25565b6714d1120d7b16000081565b611374612b26565b80600481111561138057fe5b6001600160a01b0383166000908152600e60205260409020600301805460ff191660018360048111156113af57fe5b02179055505050565b6001600160a01b03811660009081526014602052604081205460125482906113e6908363ffffffff612c9316565b905080158061141f575060016001600160a01b0385166000908152600e602052604090206003015460ff16600481111561141c57fe5b14155b1561142f57600092505050610e42565b6001600160a01b0384166000908152600e602052604081206002015490611474670de0b6b3a7640000611468848663ffffffff6136c116565b9063ffffffff61371a16565b9695505050505050565b611486612b26565b600061149061375c565b9050670de0b6b3a76400008111156114a457fe5b600c8190556040805182815290517fc454ee9b76c52f782a256af821b857ca6e125d1e3333bcede402fec2bed9600c9181900360200190a1610dc86137a0565b603c81565b6000610e1d611326612af9565b6001600160a01b03166000908152600e602052604090206002015490565b61151c61585d565b506040805160e081018252600080546001600160a01b0390811683526001548116602084015292820181905260608201819052600b548316608083015260a0820181905260c08201526005549091166115736157e0565b61157b615811565b600260009054906101000a90046001600160a01b03166001600160a01b0316630fdb11cf6040518163ffffffff1660e01b8152600401602060405180830381600087803b1580156115cb57600080fd5b505af11580156115df573d6000803e3d6000fd5b505050506040513d60208110156115f557600080fd5b50518252604080516326fcbc6b60e21b815290516001600160a01b03851691639bf2f1ac916004808301926020929190829003018186803b15801561163957600080fd5b505afa15801561164d573d6000803e3d6000fd5b505050506040513d602081101561166357600080fd5b50516020830152815161167590612e25565b158015604084015261169c576116958483600001518460200151886137fc565b90506116bc565b6116b9846000015185602001518460000151856020015189613b97565b90505b60008160200151116116ff5760405162461bcd60e51b8152600401808060200182810382526022815260200180615bbc6022913960400191505060405180910390fd5b826001600160a01b031663335525ad82608001518360a001516040518363ffffffff1660e01b81526004018083815260200182815260200192505050600060405180830381600087803b15801561175557600080fd5b505af1158015611769573d6000803e3d6000fd5b50505050611789846000015185602001518360c001518460e0015161313a565b6101008101511561180a578351600754610100830151604080516364a197f360e01b81526001600160a01b03938416600482015260248101929092525191909216916364a197f391604480830192600092919082900301818387803b1580156117f157600080fd5b505af1158015611805573d6000803e3d6000fd5b505050505b61181c846000015182604001516133bb565b6020810151606083015261010081015160408201518251611848929161119f919063ffffffff612c9316565b608080840182905260608085015160408086015186840151825193845260208401969096528282015291810193909352517f4152c73dd2614c4f9fc35e8c9cf16013cd588c75b49a4c1673ecffdcbcda94039281900390910190a16118bb84600001513383606001518460400151613502565b5050505050565b60006112926118cf61375c565b613cc9565b600e6020526000908152604090208054600182015460028301546003909301549192909160ff81169061010090046001600160801b031685565b611916612087565b611967576040805162461bcd60e51b815260206004820181905260248201527f4f776e61626c653a2063616c6c6572206973206e6f7420746865206f776e6572604482015290519081900360640190fd5b601880546001600160a01b0319166001600160a01b0392909216919091179055565b6000611993612b26565b6001600160a01b0383166000908152600e60205260408120600101546119bf908463ffffffff613cf016565b6001600160a01b0385166000908152600e6020526040902060010181905591505092915050565b6018546001600160a01b031633146119fd57600080fd5b600280546001600160a01b0319166001600160a01b0392909216919091179055565b670de0b6b3a764000081565b6002546001600160a01b031681565b60158181548110611a4757fe5b6000918252602090912001546001600160a01b0316905081565b670f43fc2c04ee000081565b6000805460408051632f5a97e560e11b8152905183926001600160a01b031691635eb52fca916004808301926020929190829003018186803b158015611ab257600080fd5b505afa158015611ac6573d6000803e3d6000fd5b505050506040513d6020811015611adc57600080fd5b505160015460408051632f5a97e560e11b815290519293506000926001600160a01b0390921691635eb52fca91600480820192602092909190829003018186803b158015611b2957600080fd5b505afa158015611b3d573d6000803e3d6000fd5b505050506040513d6020811015611b5357600080fd5b50519050611b67828263ffffffff613cf016565b9250505090565b60165481565b611b7c612087565b611bcd576040805162461bcd60e51b815260206004820181905260248201527f4f776e61626c653a2063616c6c6572206973206e6f7420746865206f776e6572604482015290519081900360640190fd5b611bd68b613d4a565b611bdf8a613d4a565b611be889613d4a565b611bf188613d4a565b611bfa87613d4a565b611c0386613d4a565b611c0c85613d4a565b611c1584613d4a565b611c1e83613d4a565b611c2782613d4a565b611c3081613d4a565b600480546001600160a01b03199081166001600160a01b038e81169182179093556000805483168e85161790556001805483168d85161790556005805483168c85161790556006805483168b85161790556007805483168a8516179055600280548316898516179055600880548316888516179055600b80548316878516179055600980548316868516179055600a805490921692841692909217905560408051918252517f3ca631ffcd2a9b5d9ae18543fc82f58eb4ca33af9e6ab01b7a8e95331e6ed985916020908290030190a1604080516001600160a01b038c16815290517f78f058b189175430c48dc02699e3a0031ea4ff781536dc2fab847de4babdd8829181900360200190a1604080516001600160a01b038b16815290517f5ee0cae2f063ed938bb55046f6a932fb6ae792bf43624806bb90abe68a50be9b9181900360200190a1604080516001600160a01b038a16815290517f82966d27eea39b038ee0fa30cd16532bb24f6e65d31cb58fb227aa5766cdcc7f9181900360200190a1604080516001600160a01b038916815290517fcfb07d791fcafc032b35837b50eb84b74df518cf4cc287e8084f47630fa70fa09181900360200190a1604080516001600160a01b038816815290517fe67f36a6e961157d6eff83b91f3af5a62131ceb6f04954ef74f51c1c05e7f88d9181900360200190a1604080516001600160a01b038716815290517f8c537274438aa850a330284665d81a85dd38267d09e4050d416bfc94142db2649181900360200190a1604080516001600160a01b038616815290517f227eec0ec317af6ab1a9587ffa1c84332522eb4c583a908f89babc05f8f339bd9181900360200190a1604080516001600160a01b038516815290517f65f4cf077bc01e4742eb5ad98326f6e95b63548ea24b17f8d5e823111fe788009181900360200190a1604080516001600160a01b038416815290517f2ac6e99201ddc1b6eac6f8f28662d1ecafee131f6eb98c29de54528a9888a7d19181900360200190a1604080516001600160a01b038316815290517f756ebc192164c295bba134b5aacd72cc7aff8098a670d1f0a5f6b3a0b4ce67079181900360200190a1611f60613df9565b5050505050505050505050565b6000546001600160a01b031681565b60105481565b611f8a612b26565b610dc881613e43565b6000805460408051630a7b61df60e11b8152905183926001600160a01b0316916314f6c3be916004808301926020929190829003018186803b158015611fd857600080fd5b505afa158015611fec573d6000803e3d6000fd5b505050506040513d602081101561200257600080fd5b505160015460408051630a7b61df60e11b815290519293506000926001600160a01b03909216916314f6c3be91600480820192602092909190829003018186803b158015611b2957600080fd5b6018546001600160a01b0316331461206657600080fd5b601880546001600160a01b0319169055565b6003546001600160a01b031690565b6003546001600160a01b0316331490565b60115481565b60006120a8612b26565b6001600160a01b0383166000908152600e6020526040812054610dfe908463ffffffff613cf016565b60125481565b600a546001600160a01b031681565b6040518060400160405280600c81526020016b2a3937bb32a6b0b730b3b2b960a11b81525081565b600b546001600160a01b031681565b600080600061212b84613eae565b91509150600061213b8383613f34565b95945050505050565b6004546001600160a01b031681565b6000610e1d82613f69565b6008546001600160a01b031681565b6001600160a01b0381166000908152600e60205260408120805460019091015490918061219985612ac8565b91506121a4856113b8565b90506121b6848363ffffffff613cf016565b93506121c8838263ffffffff613cf016565b92509193509193565b6121d961585d565b506040805160e0810182526000546001600160a01b03908116825260015481166020830152600854811692820192909252600a5482166060820152600b5482166080820152600754821660a082015260065490911660c082015261223b615899565b61224483613f95565b61224c613fef565b600260009054906101000a90046001600160a01b03166001600160a01b0316630fdb11cf6040518163ffffffff1660e01b8152600401602060405180830381600087803b15801561229c57600080fd5b505af11580156122b0573d6000803e3d6000fd5b505050506040513d60208110156122c657600080fd5b505160c082018190526122d8906140b3565b6122e189614102565b6122f08260400151338b614141565b6122f8611a6d565b60e0820181905260408084015181516370a0823160e01b815233600482015291516001600160a01b03909116916370a08231916024808301926020929190829003018186803b15801561234a57600080fd5b505afa15801561235e573d6000803e3d6000fd5b505050506040513d602081101561237457600080fd5b5051111561237e57fe5b888152608082015160c0820151600091612399918b90614201565b156123a55750876124cf565b82608001516001600160a01b0316634d6228316040518163ffffffff1660e01b815260040160206040518083038186803b1580156123e257600080fd5b505afa1580156123f6573d6000803e3d6000fd5b505050506040513d602081101561240c57600080fd5b505190505b6001600160a01b0381161580159061243d5750670f43fc2c04ee000061243b828460c001516129b1565b105b156124cf5782608001516001600160a01b031663b72703ac826040518263ffffffff1660e01b815260040180826001600160a01b03166001600160a01b0316815260200191505060206040518083038186803b15801561249c57600080fd5b505afa1580156124b0573d6000803e3d6000fd5b505050506040513d60208110156124c657600080fd5b50519050612411565b846124da5760001994505b6001600160a01b038116158015906124f25750815115155b80156124fe5750600085115b1561263257848060019003955050600083608001516001600160a01b031663b72703ac836040518263ffffffff1660e01b815260040180826001600160a01b03166001600160a01b0316815260200191505060206040518083038186803b15801561256857600080fd5b505afa15801561257c573d6000803e3d6000fd5b505050506040513d602081101561259257600080fd5b5051845160208601519192506125a89184612b71565b6125b06158de565b6125c7858486600001518760c001518e8e8e614374565b90508060400151156125da575050612632565b805160208501516125f09163ffffffff613cf016565b60208086019190915281015160408501516126109163ffffffff613cf016565b6040850152805184516126289163ffffffff612c9316565b84525090506124da565b60008260400151116126755760405162461bcd60e51b815260040180806020018281038252602981526020018061596b6029913960400191505060405180910390fd5b61268c82604001518360c001518460e00151614627565b5061269a82604001516146cf565b6060830181905260408301516126b19190866146dc565b82600001516001600160a01b03166364a197f3846060015184606001516040518363ffffffff1660e01b815260040180836001600160a01b03166001600160a01b0316815260200182815260200192505050600060405180830381600087803b15801561271d57600080fd5b505af1158015612731573d6000803e3d6000fd5b5050505082606001516001600160a01b0316631e3e2a1a83606001516040518263ffffffff1660e01b815260040180828152602001915050600060405180830381600087803b15801561278357600080fd5b505af1158015612797573d6000803e3d6000fd5b50505050606082015160408301516127ae91612c93565b8260800181815250507f43a3f4082a4dbc33d78e317d2497d3a730bc7fc3574159dcea1056e62e5d9ad88a8360200151846040015185606001516040518085815260200184815260200183815260200182815260200194505050505060405180910390a182604001516001600160a01b0316639dc29fac3384602001516040518363ffffffff1660e01b815260040180836001600160a01b03166001600160a01b0316815260200182815260200192505050600060405180830381600087803b15801561287a57600080fd5b505af115801561288e573d6000803e3d6000fd5b5050505082600001516001600160a01b03166338d995a883602001516040518263ffffffff1660e01b815260040180828152602001915050600060405180830381600087803b1580156128e057600080fd5b505af11580156128f4573d6000803e3d6000fd5b505084516080850151604080516364a197f360e01b81523360048201526024810192909252516001600160a01b0390921693506364a197f3925060448082019260009290919082900301818387803b15801561294f57600080fd5b505af1158015612963573d6000803e3d6000fd5b5050505050505050505050505050565b600f5481565b6212750081565b600061129261298d61375c565b613605565b670ddd4b8c6c7d70d881565b6129a6612b26565b610dc8816002614751565b60008060006129bf85613eae565b91509150600061147483838761486a565b600d5481565b60006129e0612b26565b6001600160a01b0383166000908152600e60205260408120600101546119bf908463ffffffff612c9316565b6000610e1d612a19612980565b8361489a565b6001600160a01b03166000908152600e602052604090205490565b600060158281548110612a4957fe5b6000918252602090912001546001600160a01b031692915050565b60135481565b600060016001600160a01b0383166000908152600e602052604090206003015460ff166004811115612a9857fe5b14612aa557506000610e42565b506012546001600160a01b03821660009081526014602052604090205410919050565b6001600160a01b03811660009081526014602052604081206001015460135482906113e6908363ffffffff612c9316565b6000611292600c54613cc9565b6018546001600160a01b031681565b612b1d612b26565b610dc8816148f9565b6004546001600160a01b03163314612b6f5760405162461bcd60e51b815260040180806020018281038252603b815260200180615a8d603b913960400191505060405180910390fd5b565b612b7a81612a6a565b15612c8e57612b888161363b565b6000612b93826113b8565b90506000612ba083612ac8565b6001600160a01b0384166000908152600e6020526040902060010154909150612bcf908363ffffffff613cf016565b6001600160a01b0384166000908152600e60205260409020600181019190915554612c00908263ffffffff613cf016565b6001600160a01b0384166000908152600e6020526040902055612c2283613e43565b612c2e85858385614949565b6001600160a01b0383166000818152600e60209081526040808320805460018201546002909201548351918252938101919091528082019290925260608201929092529051600080516020615a6d8339815191529181900360800190a250505b505050565b6000612cd583836040518060400160405280601e81526020017f536166654d6174683a207375627472616374696f6e206f766572666c6f770000815250614a4b565b9392505050565b601580546001808201835560008381527f55f448fdea98c4d29eb340757ef0a66cd03dbb9538908a6a81d96026b71ec47590920180546001600160a01b0319166001600160a01b03861617905591549091612d379190612c93565b6001600160a01b03929092166000908152600e602052604090206003018054610100600160881b0319166101006001600160801b038516021790555090565b6001600160a01b0381166000908152600e60205260408120600101548190612d9d90614ae2565b6001600160a01b0384166000908152600e60205260409020600201805490829055600f5491925090612de7908390612ddb908463ffffffff612c9316565b9063ffffffff613cf016565b600f81905560408051918252517f6bac5e0eb3c44eb03a60ab11ec3a2c051771616aecadbcfff2630aabae5203829181900360200190a15092915050565b600080612e3183613f69565b6714d1120d7b160000119392505050565b612e4a615811565b612e52615901565b612e5a615811565b84825260006080830152612e6c611a6d565b60a0830152612e79611f93565b60c0830152600060208301525b8351826020015110156130675783826020015181518110612ea357fe5b6020908102919091018101516001600160a01b0316606084018190526000908152600e909152604090206003015460019060ff166004811115612ee257fe5b14612eec57613057565b612efa8260600151876129b1565b60408301526080820151612ff957670f43fc2c04ee0000826040015110158015612f2357508151155b15612f2d57613057565b6000612f428360c001518460a001518961486a565b9050612f5f8989856060015186604001518760000151868d614b1e565b60808101518451919350612f79919063ffffffff612c9316565b8352608082015160a0840151612f949163ffffffff612c9316565b8360a0018181525050612fc982610100015161119f846040015161119f8660a001518860c00151612c9390919063ffffffff16565b60c0840152612fd88483614e75565b9350612fed8360c001518460a0015189614f8c565b15608084015250613057565b816080015180156130155750670f43fc2c04ee00008260400151105b156130575761302e888884606001518560000151614fad565b60808101518351919250613048919063ffffffff612c9316565b82526130548382614e75565b92505b6020820180516001019052612e86565b505095945050505050565b61307a615811565b613082615901565b61308a615811565b848252600060208301525b83518260200151101561306757838260200151815181106130b257fe5b60209081029190910101516001600160a01b0316606083018190526130d790876129b1565b60408301819052670f43fc2c04ee0000111561312a57613101888884606001518560000151614fad565b6080810151835191925061311b919063ffffffff612c9316565b82526131278382614e75565b92505b6020820180516001019052613095565b81613144576133b5565b60165460009061316690612ddb84670de0b6b3a764000063ffffffff6136c116565b9050600061318b601754612ddb670de0b6b3a7640000876136c190919063ffffffff16565b905060006131a4600f548461371a90919063ffffffff16565b905060006131bd600f548461371a90919063ffffffff16565b90506131e46131d7600f54846136c190919063ffffffff16565b859063ffffffff612c9316565b601655600f5461320c906131ff90839063ffffffff6136c116565b849063ffffffff612c9316565b601755601254613222908363ffffffff613cf016565b601255601354613238908263ffffffff613cf016565b601381905560125460408051918252602082019290925281517f9f8bc8ab0daf5bceef75ecfd2085d1fcc6548c657ea970d9a23a60610d0737e3929181900390910190a1876001600160a01b03166338d995a8876040518263ffffffff1660e01b815260040180828152602001915050600060405180830381600087803b1580156132c257600080fd5b505af11580156132d6573d6000803e3d6000fd5b50505050866001600160a01b031663cfb9329a876040518263ffffffff1660e01b815260040180828152602001915050600060405180830381600087803b15801561332057600080fd5b505af1158015613334573d6000803e3d6000fd5b50505050876001600160a01b03166364a197f388876040518363ffffffff1660e01b815260040180836001600160a01b03166001600160a01b0316815260200182815260200192505050600060405180830381600087803b15801561339857600080fd5b505af11580156133ac573d6000803e3d6000fd5b50505050505050505b50505050565b600f546010819055506000826001600160a01b03166314f6c3be6040518163ffffffff1660e01b815260040160206040518083038186803b1580156133ff57600080fd5b505afa158015613413573d6000803e3d6000fd5b505050506040513d602081101561342957600080fd5b505160015460408051630a7b61df60e11b815290519293506000926001600160a01b03909216916314f6c3be91600480820192602092909190829003018186803b15801561347657600080fd5b505afa15801561348a573d6000803e3d6000fd5b505050506040513d60208110156134a057600080fd5b505190506134b881612ddb848663ffffffff612c9316565b601181905560105460408051918252602082019290925281517f51bf4c63ec3cba9d03d43238abbdd979dd91bd16d9895c74ceea9118c7baaf60929181900390910190a150505050565b81156135815760085460065460408051631062c15f60e11b81526001600160a01b039283166004820152868316602482015260448101869052905191909216916320c582be91606480830192600092919082900301818387803b15801561356857600080fd5b505af115801561357c573d6000803e3d6000fd5b505050505b80156133b557836001600160a01b03166364a197f384836040518363ffffffff1660e01b815260040180836001600160a01b03166001600160a01b0316815260200182815260200192505050600060405180830381600087803b1580156135e757600080fd5b505af11580156135fb573d6000803e3d6000fd5b5050505050505050565b6000610e1d61362d836103e8670de0b6b3a76400005b04600502613cf090919063ffffffff16565b670de0b6b3a764000061512e565b60016001600160a01b0382166000908152600e602052604090206003015460ff16600481111561366757fe5b14610dc85760405162461bcd60e51b815260040180806020018281038252602f815260200180615bde602f913960400191505060405180910390fd5b6000612cd5670de0b6b3a7640000611468858563ffffffff6136c116565b6000826136d057506000610e1d565b828202828482816136dd57fe5b0414612cd55760405162461bcd60e51b81526004018080602001828103825260218152602001806159fe6021913960400191505060405180910390fd5b6000612cd583836040518060400160405280601a81526020017f536166654d6174683a206469766973696f6e206279207a65726f000000000000815250615144565b6000806137676151a9565b9050600061377d670ddd4b8c6c7d70d8836151c5565b9050611b67670de0b6b3a764000061146883600c546136c190919063ffffffff16565b60006137b7600d5442612c9390919063ffffffff16565b9050603c8110610dc85742600d81905560408051918252517f860f8d2f0c74dd487e89e2883e3b25b8159ce1e1b3433a291cba7b82c508f3bc9181900360200190a150565b613804615811565b61380c615901565b613814615811565b84825260006080830152613826611a6d565b60a0830152613833611f93565b8260c001818152505086608001516001600160a01b0316634d6228316040518163ffffffff1660e01b815260040160206040518083038186803b15801561387957600080fd5b505afa15801561388d573d6000803e3d6000fd5b505050506040513d60208110156138a357600080fd5b50516001600160a01b039081166060840152608088015160408051631e22314360e01b815290516000939290921691631e22314391600480820192602092909190829003018186803b1580156138f857600080fd5b505afa15801561390c573d6000803e3d6000fd5b505050506040513d602081101561392257600080fd5b50516000602085015290505b8483602001511080156139575750806001600160a01b031683606001516001600160a01b031614155b15613b8c57600088608001516001600160a01b031663b72703ac85606001516040518263ffffffff1660e01b815260040180826001600160a01b03166001600160a01b0316815260200191505060206040518083038186803b1580156139bc57600080fd5b505afa1580156139d0573d6000803e3d6000fd5b505050506040513d60208110156139e657600080fd5b505160608501519091506139fa90896129b1565b60408501526080840151613afe57670f43fc2c04ee0000846040015110158015613a2357508351155b15613a2e5750613b8c565b6000613a438560c001518660a001518b61486a565b8a5160208c0151606088015160408901518951949550613a6494868f614b1e565b60808101518651919550613a7e919063ffffffff612c9316565b8552608084015160a0860151613a999163ffffffff612c9316565b8560a0018181525050613ace84610100015161119f866040015161119f8860a001518a60c00151612c9390919063ffffffff16565b60c0860152613add8685614e75565b9550613af28560c001518660a001518b614f8c565b15608086015250613b6e565b83608001518015613b1a5750670f43fc2c04ee00008460400151105b15613b6857613b3b89600001518a6020015186606001518760000151614fad565b60808101518551919450613b55919063ffffffff612c9316565b8452613b618584614e75565b9450613b6e565b50613b8c565b6001600160a01b03166060840152602083018051600101905261392e565b505050949350505050565b613b9f615811565b613ba7615901565b613baf615811565b600b54858352600060208401526001600160a01b03165b8483602001511015613cbd57806001600160a01b0316634d6228316040518163ffffffff1660e01b815260040160206040518083038186803b158015613c0b57600080fd5b505afa158015613c1f573d6000803e3d6000fd5b505050506040513d6020811015613c3557600080fd5b50516001600160a01b031660608401819052613c5190886129b1565b60408401819052670f43fc2c04ee00001115613ca857613c7b898985606001518660000151614fad565b60808101518451919350613c95919063ffffffff612c9316565b8352613ca18483614e75565b9350613cad565b613cbd565b6020830180516001019052613bc6565b50505095945050505050565b6000610e1d613ce3836103e8670de0b6b3a764000061361b565b66b1a2bc2ec5000061512e565b600082820183811015612cd5576040805162461bcd60e51b815260206004820152601b60248201527f536166654d6174683a206164646974696f6e206f766572666c6f770000000000604482015290519081900360640190fd5b6001600160a01b038116613da5576040805162461bcd60e51b815260206004820152601e60248201527f4163636f756e742063616e6e6f74206265207a65726f20616464726573730000604482015290519081900360640190fd5b803b80611306576040805162461bcd60e51b815260206004820181905260248201527f4163636f756e7420636f64652073697a652063616e6e6f74206265207a65726f604482015290519081900360640190fd5b6003546040516000916001600160a01b0316907f8be0079c531659141344cd1fd0a4f28419497f9722a3daafe3b4186f6b6457e0908390a3600380546001600160a01b0319169055565b601280546001600160a01b0383166000908152601460209081526040918290209283556013546001909301839055925481519081529283019190915280517fc437f324d85e369394148dd9d62f98f534b382e01ed3dd2eb98138fb6d3ab49a9281900390910190a150565b6000806000613ebc846113b8565b90506000613ec985612ac8565b6001600160a01b0386166000908152600e602052604081206001015491925090613ef9908463ffffffff613cf016565b6001600160a01b0387166000908152600e602052604081205491925090613f26908463ffffffff613cf016565b919550909350505050915091565b60008115613f6057613f59826114688568056bc75e2d6310000063ffffffff6136c116565b9050610e1d565b50600019610e1d565b600080613f74611f93565b90506000613f80611a6d565b9050613f8d82828661486a565b949350505050565b6611c37937e080008110801590613fb45750670de0b6b3a76400008111155b610dc85760405162461bcd60e51b8152600401808060200182810382526030815260200180615b626030913960400191505060405180910390fd5b60095460408051631e425be160e11b815290516000926001600160a01b031691633c84b7c2916004808301926020929190829003018186803b15801561403457600080fd5b505afa158015614048573d6000803e3d6000fd5b505050506040513d602081101561405e57600080fd5b50519050614075816212750063ffffffff613cf016565b421015610dc85760405162461bcd60e51b81526004018080602001828103825260408152602001806159be6040913960400191505060405180910390fd5b670f43fc2c04ee00006140c582613f69565b1015610dc85760405162461bcd60e51b815260040180806020018281038252602a815260200180615b92602a913960400191505060405180910390fd5b60008111610dc85760405162461bcd60e51b815260040180806020018281038252602e815260200180615afe602e913960400191505060405180910390fd5b80836001600160a01b03166370a08231846040518263ffffffff1660e01b815260040180826001600160a01b03166001600160a01b0316815260200191505060206040518083038186803b15801561419857600080fd5b505afa1580156141ac573d6000803e3d6000fd5b505050506040513d60208110156141c257600080fd5b50511015612c8e5760405162461bcd60e51b815260040180806020018281038252604e815260200180615a1f604e913960600191505060405180910390fd5b60006001600160a01b03831615806142985750836001600160a01b0316635dbe47e8846040518263ffffffff1660e01b815260040180826001600160a01b03166001600160a01b0316815260200191505060206040518083038186803b15801561426a57600080fd5b505afa15801561427e573d6000803e3d6000fd5b505050506040513d602081101561429457600080fd5b5051155b806142b35750670f43fc2c04ee00006142b184846129b1565b105b156142c057506000612cd5565b6000846001600160a01b031663765e0159856040518263ffffffff1660e01b815260040180826001600160a01b03166001600160a01b0316815260200191505060206040518083038186803b15801561431857600080fd5b505afa15801561432c573d6000803e3d6000fd5b505050506040513d602081101561434257600080fd5b505190506001600160a01b038116158061213b5750670f43fc2c04ee000061436a82856129b1565b1095945050505050565b61437c6158de565b6001600160a01b0387166000908152600e60205260409020546143b99087906143b4906801158e460913d0000063ffffffff612c9316565b61512e565b8082526143da90869061146890670de0b6b3a764000063ffffffff6136c116565b60208083019190915281516001600160a01b0389166000908152600e909252604082205461440d9163ffffffff612c9316565b6020808401516001600160a01b038b166000908152600e909252604082206001015492935090916144439163ffffffff612c9316565b90506801158e460913d000008214156144dc5761445f896148f9565b61446a896004614751565b61447f8a8a6801158e460913d0000084615270565b886001600160a01b0316600080516020615a6d83398151915260008060006003604051808581526020018481526020018381526020018260038111156144c157fe5b60ff16815260200194505050505060405180910390a2614619565b60006144e88284613f34565b9050848114158061450957506809c2007651b250000061450784615425565b105b1561451d575050600160408301525061461c565b60808b01516040805163015f109360e51b81526001600160a01b038d81166004830152602482018590528a81166044830152898116606483015291519190921691632be2126091608480830192600092919082900301818387803b15801561458457600080fd5b505af1158015614598573d6000803e3d6000fd5b5050506001600160a01b038b166000908152600e60205260409020848155600101839055506145c68a612d76565b506001600160a01b038a166000818152600e602090815260409182902060020154825187815291820186905281830152600360608201529051600080516020615a6d8339815191529181900360800190a2505b50505b979650505050505050565b60008061463261375c565b9050600061464a84611468888863ffffffff6136c116565b9050600061466f61466283600263ffffffff61371a16565b849063ffffffff613cf016565b905061468381670de0b6b3a764000061512e565b90506000811161468f57fe5b600c8190556040805182815290517fc454ee9b76c52f782a256af821b857ca6e125d1e3333bcede402fec2bed9600c9181900360200190a16114746137a0565b6000610e1d612a19611285565b60006146fa8361146886670de0b6b3a764000063ffffffff6136c116565b9050818111156133b5576040805162461bcd60e51b815260206004820152601d60248201527f4665652065786365656465642070726f7669646564206d6178696d756d000000604482015290519081900360640190fd5b600081600481111561475f57fe5b141580156147795750600181600481111561477657fe5b14155b61477f57fe5b60155461478b81615440565b6001600160a01b0383166000908152600e60205260409020600301805483919060ff191660018360048111156147bd57fe5b02179055506001600160a01b0383166000908152600e602090815260408083206001808201859055908490556014909252822082815501556147ff83826154f9565b600b5460408051631484968760e11b81526001600160a01b038681166004830152915191909216916329092d0e91602480830192600092919082900301818387803b15801561484d57600080fd5b505af1158015614861573d6000803e3d6000fd5b50505050505050565b6000821561489157600061488884611468878663ffffffff6136c116565b9150612cd59050565b50600019612cd5565b6000806148b9670de0b6b3a7640000611468868663ffffffff6136c116565b9050828110612cd55760405162461bcd60e51b8152600401808060200182810382526036815260200180615b2c6036913960400191505060405180910390fd5b6001600160a01b0381166000908152600e6020526040902060020154600f54614928908263ffffffff612c9316565b600f55506001600160a01b03166000908152600e6020526040812060020155565b826001600160a01b03166338d995a8836040518263ffffffff1660e01b815260040180828152602001915050600060405180830381600087803b15801561498f57600080fd5b505af11580156149a3573d6000803e3d6000fd5b50505050836001600160a01b031663cfb9329a836040518263ffffffff1660e01b815260040180828152602001915050600060405180830381600087803b1580156149ed57600080fd5b505af1158015614a01573d6000803e3d6000fd5b50505050826001600160a01b031663be41205f826040518263ffffffff1660e01b815260040180828152602001915050600060405180830381600087803b1580156135e757600080fd5b60008184841115614ada5760405162461bcd60e51b81526004018080602001828103825283818151815260200191508051906020019080838360005b83811015614a9f578181015183820152602001614a87565b50505050905090810190601f168015614acc5780820380516001836020036101000a031916815260200191505b509250505060405180910390fd5b505050900390565b60008060115460001415614af7575081610e1d565b600060105411614b0357fe5b612cd5601154611468601054866136c190919063ffffffff16565b614b26615811565b614b2e615949565b601554600110614b3e575061461c565b614b478761216d565b60408501526020848101919091528401819052908352614b66906156a0565b604083018190526801158e460913d0000060608401526020830151614b909163ffffffff612c9316565b8152670de0b6b3a76400008611614caa57614bb5898983602001518460400151614949565b614bbe876148f9565b60006080830181905260a0830152815160c0830152805160e0830152614be5876003614751565b866001600160a01b03167fea67486ed7ebe3eea8ab3390efd4a3c8aae48be5bea27df104a8af786c40843483600001518460200151600260405180848152602001838152602001826003811115614c3857fe5b60ff168152602001935050505060405180910390a2866001600160a01b0316600080516020615a6d8339815191526000806000600260405180858152602001848152602001838152602001826003811115614c8f57fe5b60ff16815260200194505050505060405180910390a2614e69565b670de0b6b3a764000086118015614cc85750670f43fc2c04ee000086105b15614d1857614ce1898983602001518460400151614949565b614cea876148f9565b81518151614cf99190876156a7565b60e086015260c085015260a08401526080830152614be5876003614751565b670f43fc2c04ee00008610158015614d2f57508386105b8015614d3c575081518510155b15614e5857614d55898983602001518460400151614949565b84614d5c57fe5b614d65876148f9565b614d788260000151836020015185615713565b9150614d85876003614751565b61010082015115614e055760075461010083015160408051633f10abab60e01b81526001600160a01b038b81166004830152602482019390935290519190921691633f10abab91604480830192600092919082900301818387803b158015614dec57600080fd5b505af1158015614e00573d6000803e3d6000fd5b505050505b866001600160a01b03167fea67486ed7ebe3eea8ab3390efd4a3c8aae48be5bea27df104a8af786c40843483600001518460a00151600260405180848152602001838152602001826003811115614c3857fe5b614e60615811565b915061461c9050565b50979650505050505050565b614e7d615811565b60408083015190840151614e969163ffffffff613cf016565b604082015260608083015190840151614eb49163ffffffff613cf016565b606082015281516020840151614ecf9163ffffffff613cf016565b6020808301919091528201518351614eec9163ffffffff613cf016565b815260808083015190840151614f079163ffffffff613cf016565b608082015260a08083015190840151614f259163ffffffff613cf016565b60a082015260c08083015190840151614f439163ffffffff613cf016565b60c082015260e08083015190840151614f619163ffffffff613cf016565b60e08201526101008083015190840151614f809163ffffffff613cf016565b61010082015292915050565b600080614f9a85858561486a565b6714d1120d7b1600001195945050505050565b614fb5615811565b614fbd615949565b614fc68461216d565b60408501908152602085810192835286019290925291845290519051614ff0918891889190614949565b614ff9846148f9565b61500682602001516156a0565b604083018190526801158e460913d0000060608401526020830151600091615034919063ffffffff612c9316565b9050615045836000015182866156a7565b60e087015260c086015260a08501526080840152615064856003614751565b846001600160a01b03167fea67486ed7ebe3eea8ab3390efd4a3c8aae48be5bea27df104a8af786c408434846000015185602001516001604051808481526020018381526020018260038111156150b757fe5b60ff168152602001935050505060405180910390a2846001600160a01b0316600080516020615a6d833981519152600080600060016040518085815260200184815260200183815260200182600381111561510e57fe5b60ff16815260200194505050505060405180910390a25050949350505050565b600081831061513d5781612cd5565b5090919050565b600081836151935760405162461bcd60e51b8152602060048201818152835160248401528351909283926044909101919085019080838360008315614a9f578181015183820152602001614a87565b50600083858161519f57fe5b0495945050505050565b6000611292603c611468600d5442612c9390919063ffffffff16565b6000631f5405008211156151db57631f54050091505b816151ef5750670de0b6b3a7640000610e1d565b670de0b6b3a764000083835b600181111561526657600281066152305761521682836157ad565b915061522981600263ffffffff61371a16565b9050615261565b61523a82846157ad565b925061524682836157ad565b915061525e600261146883600163ffffffff612c9316565b90505b6151fb565b61147482846157ad565b6040808501516006548251632770a7eb60e21b81526001600160a01b039182166004820152602481018690529251911691639dc29fac91604480830192600092919082900301818387803b1580156152c757600080fd5b505af11580156152db573d6000803e3d6000fd5b5050505083600001516001600160a01b03166338d995a8836040518263ffffffff1660e01b815260040180828152602001915050600060405180830381600087803b15801561532957600080fd5b505af115801561533d573d6000803e3d6000fd5b505050508360a001516001600160a01b0316633f10abab84836040518363ffffffff1660e01b815260040180836001600160a01b03166001600160a01b0316815260200182815260200192505050600060405180830381600087803b1580156153a557600080fd5b505af11580156153b9573d6000803e3d6000fd5b5050505083600001516001600160a01b03166364a197f38560a00151836040518363ffffffff1660e01b815260040180836001600160a01b03166001600160a01b0316815260200182815260200192505050600060405180830381600087803b1580156135e757600080fd5b6000610e1d826801158e460913d0000063ffffffff612c9316565b6001811180156154be5750600b546040805163de8fa43160e01b815290516001926001600160a01b03169163de8fa431916004808301926020929190829003018186803b15801561549057600080fd5b505afa1580156154a4573d6000803e3d6000fd5b505050506040513d60208110156154ba57600080fd5b5051115b610dc85760405162461bcd60e51b815260040180806020018281038252602a815260200180615994602a913960400191505060405180910390fd5b6001600160a01b0382166000908152600e602052604081206003015460ff169081600481111561552557fe5b1415801561553f5750600181600481111561553c57fe5b14155b61554557fe5b6001600160a01b0383166000908152600e602052604081206003015461010090046001600160801b031690839061557d826001612c93565b905080836001600160801b0316111561559257fe5b6000601582815481106155a157fe5b600091825260209091200154601580546001600160a01b03909216925082916001600160801b0387169081106155d357fe5b600091825260208083209190910180546001600160a01b0319166001600160a01b03948516179055918316808252600e83526040918290206003018054610100600160881b0319166101006001600160801b038a169081029190911790915582519182529281019290925280517f02b04ae5f7be9ca7c103293a2aa15f3c339d15d6eda53b721fef7b0e609c831a9281900390910190a1601580548061567557fe5b600082815260209020810160001990810180546001600160a01b031916905501905550505050505050565b60c8900490565b600080808084156156fd576156bc878661512e565b93506156d287611468888763ffffffff6136c116565b92506156e4878563ffffffff612c9316565b91506156f6868463ffffffff612c9316565b905061570a565b5060009250829150859050845b93509350935093565b61571b615811565b8381526020810183905260006157438361146887670f43fc2c04ee000063ffffffff6136c116565b905061574e816156a0565b604083018190526801158e460913d0000060608401526080830186905261577c90829063ffffffff612c9316565b60a0830152615791848263ffffffff612c9316565b61010083015250600060c0820181905260e08201529392505050565b6000806157c0848463ffffffff6136c116565b9050613f8d670de0b6b3a7640000611468836706f05b59d3b20000613cf0565b6040518060a00160405280600081526020016000815260200160001515815260200160008152602001600081525090565b6040518061012001604052806000815260200160008152602001600081526020016000815260200160008152602001600081526020016000815260200160008152602001600081525090565b6040805160e081018252600080825260208201819052918101829052606081018290526080810182905260a0810182905260c081019190915290565b60405180610100016040528060008152602001600081526020016000815260200160008152602001600081526020016000815260200160008152602001600081525090565b604051806060016040528060008152602001600081526020016000151581525090565b6040518060e0016040528060008152602001600081526020016000815260200160006001600160a01b0316815260200160001515815260200160008152602001600081525090565b6040518060600160405280600081526020016000815260200160008152509056fe54726f76654d616e616765723a20556e61626c6520746f2072656465656d20616e7920616d6f756e7454726f76654d616e616765723a204f6e6c79206f6e652074726f766520696e207468652073797374656d54726f76654d616e616765723a20526564656d7074696f6e7320617265206e6f7420616c6c6f77656420647572696e6720626f6f747374726170207068617365536166654d6174683a206d756c7469706c69636174696f6e206f766572666c6f7754726f76654d616e616765723a2052657175657374656420726564656d7074696f6e20616d6f756e74206d757374206265203c3d20757365722773204c55534420746f6b656e2062616c616e6365c3770d654ed33aeea6bf11ac8ef05d02a6a04ed4686dd2f624d853bbec43cc8b54726f76654d616e616765723a2043616c6c6572206973206e6f742074686520426f72726f7765724f7065726174696f6e7320636f6e747261637454726f76654d616e616765723a2043616c6c646174612061646472657373206172726179206d757374206e6f7420626520656d70747954726f76654d616e616765723a20416d6f756e74206d7573742062652067726561746572207468616e207a65726f54726f76654d616e616765723a2046656520776f756c642065617420757020616c6c2072657475726e656420636f6c6c61746572616c4d6178206665652070657263656e74616765206d757374206265206265747765656e20302e352520616e64203130302554726f76654d616e616765723a2043616e6e6f742072656465656d207768656e20544352203c204d435254726f76654d616e616765723a206e6f7468696e6720746f206c697175696461746554726f76654d616e616765723a2054726f766520646f6573206e6f74206578697374206f7220697320636c6f736564a26469706673582212208d843e64798d7c9fa2b15beb6b354222df15b86b0c0a0c75d432d41f8a278d1b64736f6c634300060b0033",
			"opcodes": "PUSH1 0x80 PUSH1 0x40 MSTORE CALLVALUE DUP1 ISZERO PUSH2 0x10 JUMPI PUSH1 0x0 DUP1 REVERT JUMPDEST POP PUSH1 0x3 DUP1 SLOAD PUSH1 0x1 PUSH1 0x1 PUSH1 0xA0 SHL SUB NOT AND CALLER SWAP1 DUP2 OR SWAP1 SWAP2 SSTORE PUSH1 0x40 MLOAD PUSH1 0x0 SWAP1 PUSH32 0x8BE0079C531659141344CD1FD0A4F28419497F9722A3DAAFE3B4186F6B6457E0 SWAP1 DUP3 SWAP1 LOG3 PUSH2 0x5C42 DUP1 PUSH3 0x61 PUSH1 0x0 CODECOPY PUSH1 0x0 RETURN INVALID PUSH1 0x80 PUSH1 0x40 MSTORE CALLVALUE DUP1 ISZERO PUSH2 0x10 JUMPI PUSH1 0x0 DUP1 REVERT JUMPDEST POP PUSH1 0x4 CALLDATASIZE LT PUSH2 0x496 JUMPI PUSH1 0x0 CALLDATALOAD PUSH1 0xE0 SHR DUP1 PUSH4 0x795D26C3 GT PUSH2 0x262 JUMPI DUP1 PUSH4 0xB83F91A2 GT PUSH2 0x151 JUMPI DUP1 PUSH4 0xD3D6F843 GT PUSH2 0xCE JUMPI DUP1 PUSH4 0xE2AC77B0 GT PUSH2 0x92 JUMPI DUP1 PUSH4 0xE2AC77B0 EQ PUSH2 0xD07 JUMPI DUP1 PUSH4 0xF34862DE EQ PUSH2 0xD2D JUMPI DUP1 PUSH4 0xF36B2425 EQ PUSH2 0xD53 JUMPI DUP1 PUSH4 0xF851A440 EQ PUSH2 0xD5B JUMPI DUP1 PUSH4 0xF92D3433 EQ PUSH2 0x6A9 JUMPI DUP1 PUSH4 0xFE2BA848 EQ PUSH2 0xD63 JUMPI PUSH2 0x496 JUMP JUMPDEST DUP1 PUSH4 0xD3D6F843 EQ PUSH2 0xC73 JUMPI DUP1 PUSH4 0xD5B35635 EQ PUSH2 0xC9F JUMPI DUP1 PUSH4 0xD66A2553 EQ PUSH2 0xCBC JUMPI DUP1 PUSH4 0xD9A72444 EQ PUSH2 0xCE2 JUMPI DUP1 PUSH4 0xDBA1C5F2 EQ PUSH2 0xCFF JUMPI PUSH2 0x496 JUMP JUMPDEST DUP1 PUSH4 0xC52861F2 GT PUSH2 0x115 JUMPI DUP1 PUSH4 0xC52861F2 EQ PUSH2 0xC09 JUMPI DUP1 PUSH4 0xC7B55481 EQ PUSH2 0xC11 JUMPI DUP1 PUSH4 0xCBD138AE EQ PUSH2 0xC19 JUMPI DUP1 PUSH4 0xD293C710 EQ PUSH2 0xC3F JUMPI DUP1 PUSH4 0xD380A37C EQ PUSH2 0xC6B JUMPI PUSH2 0x496 JUMP JUMPDEST DUP1 PUSH4 0xB83F91A2 EQ PUSH2 0xB57 JUMPI DUP1 PUSH4 0xB91AF97C EQ PUSH2 0xB5F JUMPI DUP1 PUSH4 0xBCD37526 EQ PUSH2 0xBAB JUMPI DUP1 PUSH4 0xBF9BEFB1 EQ PUSH2 0xBF9 JUMPI DUP1 PUSH4 0xC35BC550 EQ PUSH2 0xC01 JUMPI PUSH2 0x496 JUMP JUMPDEST DUP1 PUSH4 0x96D711FF GT PUSH2 0x1DF JUMPI DUP1 PUSH4 0xA3F4DF7E GT PUSH2 0x1A3 JUMPI DUP1 PUSH4 0xA3F4DF7E EQ PUSH2 0xA87 JUMPI DUP1 PUSH4 0xAE918754 EQ PUSH2 0xB04 JUMPI DUP1 PUSH4 0xB0D8E181 EQ PUSH2 0xB0C JUMPI DUP1 PUSH4 0xB7F8CF9B EQ PUSH2 0xB32 JUMPI DUP1 PUSH4 0xB82F263D EQ PUSH2 0xB3A JUMPI PUSH2 0x496 JUMP JUMPDEST DUP1 PUSH4 0x96D711FF EQ PUSH2 0xA43 JUMPI DUP1 PUSH4 0x9976CF45 EQ PUSH2 0xA4B JUMPI DUP1 PUSH4 0x9DD233D2 EQ PUSH2 0xA77 JUMPI DUP1 PUSH4 0xA20BAEE6 EQ PUSH2 0x92C JUMPI DUP1 PUSH4 0xA3A64017 EQ PUSH2 0xA7F JUMPI PUSH2 0x496 JUMP JUMPDEST DUP1 PUSH4 0x82FE3EB9 GT PUSH2 0x226 JUMPI DUP1 PUSH4 0x82FE3EB9 EQ PUSH2 0x9FD JUMPI DUP1 PUSH4 0x887105D3 EQ PUSH2 0xA23 JUMPI DUP1 PUSH4 0x8BAD0C0A EQ PUSH2 0xA2B JUMPI DUP1 PUSH4 0x8DA5CB5B EQ PUSH2 0xA33 JUMPI DUP1 PUSH4 0x8F32D59B EQ PUSH2 0xA3B JUMPI PUSH2 0x496 JUMP JUMPDEST DUP1 PUSH4 0x795D26C3 EQ PUSH2 0x961 JUMPI DUP1 PUSH4 0x797250E3 EQ PUSH2 0x969 JUMPI DUP1 PUSH4 0x7985C5E4 EQ PUSH2 0x971 JUMPI DUP1 PUSH4 0x7F7DDE4A EQ PUSH2 0x9ED JUMPI DUP1 PUSH4 0x807D138D EQ PUSH2 0x9F5 JUMPI PUSH2 0x496 JUMP JUMPDEST DUP1 PUSH4 0x480CD578 GT PUSH2 0x389 JUMPI DUP1 PUSH4 0x64CEE260 GT PUSH2 0x306 JUMPI DUP1 PUSH4 0x72423C17 GT PUSH2 0x2CA JUMPI DUP1 PUSH4 0x72423C17 EQ PUSH2 0x8DA JUMPI DUP1 PUSH4 0x724E78DA EQ PUSH2 0x906 JUMPI DUP1 PUSH4 0x72FE25AA EQ PUSH2 0x92C JUMPI DUP1 PUSH4 0x741BEF1A EQ PUSH2 0x934 JUMPI DUP1 PUSH4 0x756B253E EQ PUSH2 0x93C JUMPI DUP1 PUSH4 0x794E5724 EQ PUSH2 0x959 JUMPI PUSH2 0x496 JUMP JUMPDEST DUP1 PUSH4 0x64CEE260 EQ PUSH2 0x7FA JUMPI DUP1 PUSH4 0x653D46E7 EQ PUSH2 0x820 JUMPI DUP1 PUSH4 0x66CA4A21 EQ PUSH2 0x83D JUMPI DUP1 PUSH4 0x6EF64338 EQ PUSH2 0x845 JUMPI DUP1 PUSH4 0x704B6C02 EQ PUSH2 0x8B4 JUMPI PUSH2 0x496 JUMP JUMPDEST DUP1 PUSH4 0x5D6B480F GT PUSH2 0x34D JUMPI DUP1 PUSH4 0x5D6B480F EQ PUSH2 0x77B JUMPI DUP1 PUSH4 0x5D8C9609 EQ PUSH2 0x7A7 JUMPI DUP1 PUSH4 0x5DBA4C4A EQ PUSH2 0x7CD JUMPI DUP1 PUSH4 0x61EC893D EQ PUSH2 0x7D5 JUMPI DUP1 PUSH4 0x631203B0 EQ PUSH2 0x7DD JUMPI PUSH2 0x496 JUMP JUMPDEST DUP1 PUSH4 0x480CD578 EQ PUSH2 0x70C JUMPI DUP1 PUSH4 0x4870DD9A EQ PUSH2 0x732 JUMPI DUP1 PUSH4 0x49EEFEEE EQ PUSH2 0x73A JUMPI DUP1 PUSH4 0x4E443D9E EQ PUSH2 0x742 JUMPI DUP1 PUSH4 0x5733D58F EQ PUSH2 0x773 JUMPI PUSH2 0x496 JUMP JUMPDEST DUP1 PUSH4 0x1F68F20A GT PUSH2 0x417 JUMPI DUP1 PUSH4 0x2B11551A GT PUSH2 0x3DB JUMPI DUP1 PUSH4 0x2B11551A EQ PUSH2 0x6B1 JUMPI DUP1 PUSH4 0x2E86BBD8 EQ PUSH2 0x6B9 JUMPI DUP1 PUSH4 0x2F865568 EQ PUSH2 0x6C1 JUMPI DUP1 PUSH4 0x3CC74225 EQ PUSH2 0x6E7 JUMPI DUP1 PUSH4 0x477D66CF EQ PUSH2 0x6EF JUMPI PUSH2 0x496 JUMP JUMPDEST DUP1 PUSH4 0x1F68F20A EQ PUSH2 0x66B JUMPI DUP1 PUSH4 0x1F7AF3C3 EQ PUSH2 0x673 JUMPI DUP1 PUSH4 0x21E37801 EQ PUSH2 0x67B JUMPI DUP1 PUSH4 0x24092669 EQ PUSH2 0x6A1 JUMPI DUP1 PUSH4 0x28D28B5B EQ PUSH2 0x6A9 JUMPI PUSH2 0x496 JUMP JUMPDEST DUP1 PUSH4 0x15D549F1 GT PUSH2 0x45E JUMPI DUP1 PUSH4 0x15D549F1 EQ PUSH2 0x535 JUMPI DUP1 PUSH4 0x1673C79A EQ PUSH2 0x55B JUMPI DUP1 PUSH4 0x18F2817A EQ PUSH2 0x59A JUMPI DUP1 PUSH4 0x1BF43555 EQ PUSH2 0x5C0 JUMPI DUP1 PUSH4 0x1E8B1C2B EQ PUSH2 0x5C8 JUMPI PUSH2 0x496 JUMP JUMPDEST DUP1 PUSH4 0x48C661D EQ PUSH2 0x49B JUMPI DUP1 PUSH4 0x60D49A3 EQ PUSH2 0x4BF JUMPI DUP1 PUSH4 0x71A7541 EQ PUSH2 0x4D9 JUMPI DUP1 PUSH4 0xB076557 EQ PUSH2 0x4E1 JUMPI DUP1 PUSH4 0x12610E92 EQ PUSH2 0x509 JUMPI JUMPDEST PUSH1 0x0 DUP1 REVERT JUMPDEST PUSH2 0x4A3 PUSH2 0xD89 JUMP JUMPDEST PUSH1 0x40 DUP1 MLOAD PUSH1 0x1 PUSH1 0x1 PUSH1 0xA0 SHL SUB SWAP1 SWAP3 AND DUP3 MSTORE MLOAD SWAP1 DUP2 SWAP1 SUB PUSH1 0x20 ADD SWAP1 RETURN JUMPDEST PUSH2 0x4C7 PUSH2 0xD98 JUMP JUMPDEST PUSH1 0x40 DUP1 MLOAD SWAP2 DUP3 MSTORE MLOAD SWAP1 DUP2 SWAP1 SUB PUSH1 0x20 ADD SWAP1 RETURN JUMPDEST PUSH2 0x4C7 PUSH2 0xD9E JUMP JUMPDEST PUSH2 0x507 PUSH1 0x4 DUP1 CALLDATASIZE SUB PUSH1 0x20 DUP2 LT ISZERO PUSH2 0x4F7 JUMPI PUSH1 0x0 DUP1 REVERT JUMPDEST POP CALLDATALOAD PUSH1 0x1 PUSH1 0x1 PUSH1 0xA0 SHL SUB AND PUSH2 0xDA3 JUMP JUMPDEST STOP JUMPDEST PUSH2 0x4C7 PUSH1 0x4 DUP1 CALLDATASIZE SUB PUSH1 0x40 DUP2 LT ISZERO PUSH2 0x51F JUMPI PUSH1 0x0 DUP1 REVERT JUMPDEST POP PUSH1 0x1 PUSH1 0x1 PUSH1 0xA0 SHL SUB DUP2 CALLDATALOAD AND SWAP1 PUSH1 0x20 ADD CALLDATALOAD PUSH2 0xDCB JUMP JUMPDEST PUSH2 0x4C7 PUSH1 0x4 DUP1 CALLDATASIZE SUB PUSH1 0x20 DUP2 LT ISZERO PUSH2 0x54B JUMPI PUSH1 0x0 DUP1 REVERT JUMPDEST POP CALLDATALOAD PUSH1 0x1 PUSH1 0x1 PUSH1 0xA0 SHL SUB AND PUSH2 0xE23 JUMP JUMPDEST PUSH2 0x581 PUSH1 0x4 DUP1 CALLDATASIZE SUB PUSH1 0x20 DUP2 LT ISZERO PUSH2 0x571 JUMPI PUSH1 0x0 DUP1 REVERT JUMPDEST POP CALLDATALOAD PUSH1 0x1 PUSH1 0x1 PUSH1 0xA0 SHL SUB AND PUSH2 0xE47 JUMP JUMPDEST PUSH1 0x40 DUP1 MLOAD SWAP3 DUP4 MSTORE PUSH1 0x20 DUP4 ADD SWAP2 SWAP1 SWAP2 MSTORE DUP1 MLOAD SWAP2 DUP3 SWAP1 SUB ADD SWAP1 RETURN JUMPDEST PUSH2 0x4C7 PUSH1 0x4 DUP1 CALLDATASIZE SUB PUSH1 0x20 DUP2 LT ISZERO PUSH2 0x5B0 JUMPI PUSH1 0x0 DUP1 REVERT JUMPDEST POP CALLDATALOAD PUSH1 0x1 PUSH1 0x1 PUSH1 0xA0 SHL SUB AND PUSH2 0xE60 JUMP JUMPDEST PUSH2 0x4C7 PUSH2 0xE73 JUMP JUMPDEST PUSH2 0x507 PUSH1 0x4 DUP1 CALLDATASIZE SUB PUSH1 0x20 DUP2 LT ISZERO PUSH2 0x5DE JUMPI PUSH1 0x0 DUP1 REVERT JUMPDEST DUP2 ADD SWAP1 PUSH1 0x20 DUP2 ADD DUP2 CALLDATALOAD PUSH5 0x100000000 DUP2 GT ISZERO PUSH2 0x5F9 JUMPI PUSH1 0x0 DUP1 REVERT JUMPDEST DUP3 ADD DUP4 PUSH1 0x20 DUP3 ADD GT ISZERO PUSH2 0x60B JUMPI PUSH1 0x0 DUP1 REVERT JUMPDEST DUP1 CALLDATALOAD SWAP1 PUSH1 0x20 ADD SWAP2 DUP5 PUSH1 0x20 DUP4 MUL DUP5 ADD GT PUSH5 0x100000000 DUP4 GT OR ISZERO PUSH2 0x62D JUMPI PUSH1 0x0 DUP1 REVERT JUMPDEST SWAP2 SWAP1 DUP1 DUP1 PUSH1 0x20 MUL PUSH1 0x20 ADD PUSH1 0x40 MLOAD SWAP1 DUP2 ADD PUSH1 0x40 MSTORE DUP1 SWAP4 SWAP3 SWAP2 SWAP1 DUP2 DUP2 MSTORE PUSH1 0x20 ADD DUP4 DUP4 PUSH1 0x20 MUL DUP1 DUP3 DUP5 CALLDATACOPY PUSH1 0x0 SWAP3 ADD SWAP2 SWAP1 SWAP2 MSTORE POP SWAP3 SWAP6 POP PUSH2 0xE80 SWAP5 POP POP POP POP POP JUMP JUMPDEST PUSH2 0x4C7 PUSH2 0x1222 JUMP JUMPDEST PUSH2 0x4A3 PUSH2 0x1228 JUMP JUMPDEST PUSH2 0x4C7 PUSH1 0x4 DUP1 CALLDATASIZE SUB PUSH1 0x20 DUP2 LT ISZERO PUSH2 0x691 JUMPI PUSH1 0x0 DUP1 REVERT JUMPDEST POP CALLDATALOAD PUSH1 0x1 PUSH1 0x1 PUSH1 0xA0 SHL SUB AND PUSH2 0x1237 JUMP JUMPDEST PUSH2 0x4C7 PUSH2 0x1261 JUMP JUMPDEST PUSH2 0x4C7 PUSH2 0x1274 JUMP JUMPDEST PUSH2 0x4C7 PUSH2 0x1285 JUMP JUMPDEST PUSH2 0x4C7 PUSH2 0x1297 JUMP JUMPDEST PUSH2 0x507 PUSH1 0x4 DUP1 CALLDATASIZE SUB PUSH1 0x20 DUP2 LT ISZERO PUSH2 0x6D7 JUMPI PUSH1 0x0 DUP1 REVERT JUMPDEST POP CALLDATALOAD PUSH1 0x1 PUSH1 0x1 PUSH1 0xA0 SHL SUB AND PUSH2 0x12A4 JUMP JUMPDEST PUSH2 0x4A3 PUSH2 0x130A JUMP JUMPDEST PUSH2 0x4C7 PUSH1 0x4 DUP1 CALLDATASIZE SUB PUSH1 0x20 DUP2 LT ISZERO PUSH2 0x705 JUMPI PUSH1 0x0 DUP1 REVERT JUMPDEST POP CALLDATALOAD PUSH2 0x1319 JUMP JUMPDEST PUSH2 0x4C7 PUSH1 0x4 DUP1 CALLDATASIZE SUB PUSH1 0x20 DUP2 LT ISZERO PUSH2 0x722 JUMPI PUSH1 0x0 DUP1 REVERT JUMPDEST POP CALLDATALOAD PUSH1 0x1 PUSH1 0x1 PUSH1 0xA0 SHL SUB AND PUSH2 0x132C JUMP JUMPDEST PUSH2 0x4C7 PUSH2 0x134A JUMP JUMPDEST PUSH2 0x4C7 PUSH2 0x134F JUMP JUMPDEST PUSH2 0x75F PUSH1 0x4 DUP1 CALLDATASIZE SUB PUSH1 0x20 DUP2 LT ISZERO PUSH2 0x758 JUMPI PUSH1 0x0 DUP1 REVERT JUMPDEST POP CALLDATALOAD PUSH2 0x1355 JUMP JUMPDEST PUSH1 0x40 DUP1 MLOAD SWAP2 ISZERO ISZERO DUP3 MSTORE MLOAD SWAP1 DUP2 SWAP1 SUB PUSH1 0x20 ADD SWAP1 RETURN JUMPDEST PUSH2 0x4C7 PUSH2 0x1360 JUMP JUMPDEST PUSH2 0x507 PUSH1 0x4 DUP1 CALLDATASIZE SUB PUSH1 0x40 DUP2 LT ISZERO PUSH2 0x791 JUMPI PUSH1 0x0 DUP1 REVERT JUMPDEST POP PUSH1 0x1 PUSH1 0x1 PUSH1 0xA0 SHL SUB DUP2 CALLDATALOAD AND SWAP1 PUSH1 0x20 ADD CALLDATALOAD PUSH2 0x136C JUMP JUMPDEST PUSH2 0x4C7 PUSH1 0x4 DUP1 CALLDATASIZE SUB PUSH1 0x20 DUP2 LT ISZERO PUSH2 0x7BD JUMPI PUSH1 0x0 DUP1 REVERT JUMPDEST POP CALLDATALOAD PUSH1 0x1 PUSH1 0x1 PUSH1 0xA0 SHL SUB AND PUSH2 0x13B8 JUMP JUMPDEST PUSH2 0x507 PUSH2 0x147E JUMP JUMPDEST PUSH2 0x4C7 PUSH2 0x14E4 JUMP JUMPDEST PUSH2 0x4C7 PUSH1 0x4 DUP1 CALLDATASIZE SUB PUSH1 0x20 DUP2 LT ISZERO PUSH2 0x7F3 JUMPI PUSH1 0x0 DUP1 REVERT JUMPDEST POP CALLDATALOAD PUSH2 0x14E9 JUMP JUMPDEST PUSH2 0x4C7 PUSH1 0x4 DUP1 CALLDATASIZE SUB PUSH1 0x20 DUP2 LT ISZERO PUSH2 0x810 JUMPI PUSH1 0x0 DUP1 REVERT JUMPDEST POP CALLDATALOAD PUSH1 0x1 PUSH1 0x1 PUSH1 0xA0 SHL SUB AND PUSH2 0x14F6 JUMP JUMPDEST PUSH2 0x507 PUSH1 0x4 DUP1 CALLDATASIZE SUB PUSH1 0x20 DUP2 LT ISZERO PUSH2 0x836 JUMPI PUSH1 0x0 DUP1 REVERT JUMPDEST POP CALLDATALOAD PUSH2 0x1514 JUMP JUMPDEST PUSH2 0x4C7 PUSH2 0x18C2 JUMP JUMPDEST PUSH2 0x86B PUSH1 0x4 DUP1 CALLDATASIZE SUB PUSH1 0x20 DUP2 LT ISZERO PUSH2 0x85B JUMPI PUSH1 0x0 DUP1 REVERT JUMPDEST POP CALLDATALOAD PUSH1 0x1 PUSH1 0x1 PUSH1 0xA0 SHL SUB AND PUSH2 0x18D4 JUMP JUMPDEST PUSH1 0x40 MLOAD DUP1 DUP7 DUP2 MSTORE PUSH1 0x20 ADD DUP6 DUP2 MSTORE PUSH1 0x20 ADD DUP5 DUP2 MSTORE PUSH1 0x20 ADD DUP4 PUSH1 0x4 DUP2 GT ISZERO PUSH2 0x88D JUMPI INVALID JUMPDEST PUSH1 0xFF AND DUP2 MSTORE PUSH1 0x1 PUSH1 0x1 PUSH1 0x80 SHL SUB SWAP1 SWAP3 AND PUSH1 0x20 DUP4 ADD MSTORE POP PUSH1 0x40 DUP1 MLOAD SWAP2 DUP3 SWAP1 SUB ADD SWAP5 POP SWAP3 POP POP POP RETURN JUMPDEST PUSH2 0x507 PUSH1 0x4 DUP1 CALLDATASIZE SUB PUSH1 0x20 DUP2 LT ISZERO PUSH2 0x8CA JUMPI PUSH1 0x0 DUP1 REVERT JUMPDEST POP CALLDATALOAD PUSH1 0x1 PUSH1 0x1 PUSH1 0xA0 SHL SUB AND PUSH2 0x190E JUMP JUMPDEST PUSH2 0x4C7 PUSH1 0x4 DUP1 CALLDATASIZE SUB PUSH1 0x40 DUP2 LT ISZERO PUSH2 0x8F0 JUMPI PUSH1 0x0 DUP1 REVERT JUMPDEST POP PUSH1 0x1 PUSH1 0x1 PUSH1 0xA0 SHL SUB DUP2 CALLDATALOAD AND SWAP1 PUSH1 0x20 ADD CALLDATALOAD PUSH2 0x1989 JUMP JUMPDEST PUSH2 0x507 PUSH1 0x4 DUP1 CALLDATASIZE SUB PUSH1 0x20 DUP2 LT ISZERO PUSH2 0x91C JUMPI PUSH1 0x0 DUP1 REVERT JUMPDEST POP CALLDATALOAD PUSH1 0x1 PUSH1 0x1 PUSH1 0xA0 SHL SUB AND PUSH2 0x19E6 JUMP JUMPDEST PUSH2 0x4C7 PUSH2 0x1A1F JUMP JUMPDEST PUSH2 0x4A3 PUSH2 0x1A2B JUMP JUMPDEST PUSH2 0x4A3 PUSH1 0x4 DUP1 CALLDATASIZE SUB PUSH1 0x20 DUP2 LT ISZERO PUSH2 0x952 JUMPI PUSH1 0x0 DUP1 REVERT JUMPDEST POP CALLDATALOAD PUSH2 0x1A3A JUMP JUMPDEST PUSH2 0x4C7 PUSH2 0x1A61 JUMP JUMPDEST PUSH2 0x4C7 PUSH2 0x1A6D JUMP JUMPDEST PUSH2 0x4C7 PUSH2 0x1B6E JUMP JUMPDEST PUSH2 0x507 PUSH1 0x4 DUP1 CALLDATASIZE SUB PUSH2 0x160 DUP2 LT ISZERO PUSH2 0x988 JUMPI PUSH1 0x0 DUP1 REVERT JUMPDEST POP PUSH1 0x1 PUSH1 0x1 PUSH1 0xA0 SHL SUB DUP2 CALLDATALOAD DUP2 AND SWAP2 PUSH1 0x20 DUP2 ADD CALLDATALOAD DUP3 AND SWAP2 PUSH1 0x40 DUP3 ADD CALLDATALOAD DUP2 AND SWAP2 PUSH1 0x60 DUP2 ADD CALLDATALOAD DUP3 AND SWAP2 PUSH1 0x80 DUP3 ADD CALLDATALOAD DUP2 AND SWAP2 PUSH1 0xA0 DUP2 ADD CALLDATALOAD DUP3 AND SWAP2 PUSH1 0xC0 DUP3 ADD CALLDATALOAD DUP2 AND SWAP2 PUSH1 0xE0 DUP2 ADD CALLDATALOAD DUP3 AND SWAP2 PUSH2 0x100 DUP3 ADD CALLDATALOAD DUP2 AND SWAP2 PUSH2 0x120 DUP2 ADD CALLDATALOAD DUP3 AND SWAP2 PUSH2 0x140 SWAP1 SWAP2 ADD CALLDATALOAD AND PUSH2 0x1B74 JUMP JUMPDEST PUSH2 0x4A3 PUSH2 0x1F6D JUMP JUMPDEST PUSH2 0x4C7 PUSH2 0x1F7C JUMP JUMPDEST PUSH2 0x507 PUSH1 0x4 DUP1 CALLDATASIZE SUB PUSH1 0x20 DUP2 LT ISZERO PUSH2 0xA13 JUMPI PUSH1 0x0 DUP1 REVERT JUMPDEST POP CALLDATALOAD PUSH1 0x1 PUSH1 0x1 PUSH1 0xA0 SHL SUB AND PUSH2 0x1F82 JUMP JUMPDEST PUSH2 0x4C7 PUSH2 0x1F93 JUMP JUMPDEST PUSH2 0x507 PUSH2 0x204F JUMP JUMPDEST PUSH2 0x4A3 PUSH2 0x2078 JUMP JUMPDEST PUSH2 0x75F PUSH2 0x2087 JUMP JUMPDEST PUSH2 0x4C7 PUSH2 0x2098 JUMP JUMPDEST PUSH2 0x4C7 PUSH1 0x4 DUP1 CALLDATASIZE SUB PUSH1 0x40 DUP2 LT ISZERO PUSH2 0xA61 JUMPI PUSH1 0x0 DUP1 REVERT JUMPDEST POP PUSH1 0x1 PUSH1 0x1 PUSH1 0xA0 SHL SUB DUP2 CALLDATALOAD AND SWAP1 PUSH1 0x20 ADD CALLDATALOAD PUSH2 0x209E JUMP JUMPDEST PUSH2 0x4C7 PUSH2 0x20D1 JUMP JUMPDEST PUSH2 0x4A3 PUSH2 0x20D7 JUMP JUMPDEST PUSH2 0xA8F PUSH2 0x20E6 JUMP JUMPDEST PUSH1 0x40 DUP1 MLOAD PUSH1 0x20 DUP1 DUP3 MSTORE DUP4 MLOAD DUP2 DUP4 ADD MSTORE DUP4 MLOAD SWAP2 SWAP3 DUP4 SWAP3 SWAP1 DUP4 ADD SWAP2 DUP6 ADD SWAP1 DUP1 DUP4 DUP4 PUSH1 0x0 JUMPDEST DUP4 DUP2 LT ISZERO PUSH2 0xAC9 JUMPI DUP2 DUP2 ADD MLOAD DUP4 DUP3 ADD MSTORE PUSH1 0x20 ADD PUSH2 0xAB1 JUMP JUMPDEST POP POP POP POP SWAP1 POP SWAP1 DUP2 ADD SWAP1 PUSH1 0x1F AND DUP1 ISZERO PUSH2 0xAF6 JUMPI DUP1 DUP3 SUB DUP1 MLOAD PUSH1 0x1 DUP4 PUSH1 0x20 SUB PUSH2 0x100 EXP SUB NOT AND DUP2 MSTORE PUSH1 0x20 ADD SWAP2 POP JUMPDEST POP SWAP3 POP POP POP PUSH1 0x40 MLOAD DUP1 SWAP2 SUB SWAP1 RETURN JUMPDEST PUSH2 0x4A3 PUSH2 0x210E JUMP JUMPDEST PUSH2 0x4C7 PUSH1 0x4 DUP1 CALLDATASIZE SUB PUSH1 0x20 DUP2 LT ISZERO PUSH2 0xB22 JUMPI PUSH1 0x0 DUP1 REVERT JUMPDEST POP CALLDATALOAD PUSH1 0x1 PUSH1 0x1 PUSH1 0xA0 SHL SUB AND PUSH2 0x211D JUMP JUMPDEST PUSH2 0x4A3 PUSH2 0x2144 JUMP JUMPDEST PUSH2 0x4C7 PUSH1 0x4 DUP1 CALLDATASIZE SUB PUSH1 0x20 DUP2 LT ISZERO PUSH2 0xB50 JUMPI PUSH1 0x0 DUP1 REVERT JUMPDEST POP CALLDATALOAD PUSH2 0x2153 JUMP JUMPDEST PUSH2 0x4A3 PUSH2 0x215E JUMP JUMPDEST PUSH2 0xB85 PUSH1 0x4 DUP1 CALLDATASIZE SUB PUSH1 0x20 DUP2 LT ISZERO PUSH2 0xB75 JUMPI PUSH1 0x0 DUP1 REVERT JUMPDEST POP CALLDATALOAD PUSH1 0x1 PUSH1 0x1 PUSH1 0xA0 SHL SUB AND PUSH2 0x216D JUMP JUMPDEST PUSH1 0x40 DUP1 MLOAD SWAP5 DUP6 MSTORE PUSH1 0x20 DUP6 ADD SWAP4 SWAP1 SWAP4 MSTORE DUP4 DUP4 ADD SWAP2 SWAP1 SWAP2 MSTORE PUSH1 0x60 DUP4 ADD MSTORE MLOAD SWAP1 DUP2 SWAP1 SUB PUSH1 0x80 ADD SWAP1 RETURN JUMPDEST PUSH2 0x507 PUSH1 0x4 DUP1 CALLDATASIZE SUB PUSH1 0xE0 DUP2 LT ISZERO PUSH2 0xBC1 JUMPI PUSH1 0x0 DUP1 REVERT JUMPDEST POP DUP1 CALLDATALOAD SWAP1 PUSH1 0x1 PUSH1 0x1 PUSH1 0xA0 SHL SUB PUSH1 0x20 DUP3 ADD CALLDATALOAD DUP2 AND SWAP2 PUSH1 0x40 DUP2 ADD CALLDATALOAD DUP3 AND SWAP2 PUSH1 0x60 DUP3 ADD CALLDATALOAD AND SWAP1 PUSH1 0x80 DUP2 ADD CALLDATALOAD SWAP1 PUSH1 0xA0 DUP2 ADD CALLDATALOAD SWAP1 PUSH1 0xC0 ADD CALLDATALOAD PUSH2 0x21D1 JUMP JUMPDEST PUSH2 0x4C7 PUSH2 0x2973 JUMP JUMPDEST PUSH2 0x4C7 PUSH2 0x2979 JUMP JUMPDEST PUSH2 0x4C7 PUSH2 0x2980 JUMP JUMPDEST PUSH2 0x4C7 PUSH2 0x2992 JUMP JUMPDEST PUSH2 0x507 PUSH1 0x4 DUP1 CALLDATASIZE SUB PUSH1 0x20 DUP2 LT ISZERO PUSH2 0xC2F JUMPI PUSH1 0x0 DUP1 REVERT JUMPDEST POP CALLDATALOAD PUSH1 0x1 PUSH1 0x1 PUSH1 0xA0 SHL SUB AND PUSH2 0x299E JUMP JUMPDEST PUSH2 0x4C7 PUSH1 0x4 DUP1 CALLDATASIZE SUB PUSH1 0x40 DUP2 LT ISZERO PUSH2 0xC55 JUMPI PUSH1 0x0 DUP1 REVERT JUMPDEST POP PUSH1 0x1 PUSH1 0x1 PUSH1 0xA0 SHL SUB DUP2 CALLDATALOAD AND SWAP1 PUSH1 0x20 ADD CALLDATALOAD PUSH2 0x29B1 JUMP JUMPDEST PUSH2 0x4C7 PUSH2 0x29D0 JUMP JUMPDEST PUSH2 0x4C7 PUSH1 0x4 DUP1 CALLDATASIZE SUB PUSH1 0x40 DUP2 LT ISZERO PUSH2 0xC89 JUMPI PUSH1 0x0 DUP1 REVERT JUMPDEST POP PUSH1 0x1 PUSH1 0x1 PUSH1 0xA0 SHL SUB DUP2 CALLDATALOAD AND SWAP1 PUSH1 0x20 ADD CALLDATALOAD PUSH2 0x29D6 JUMP JUMPDEST PUSH2 0x4C7 PUSH1 0x4 DUP1 CALLDATASIZE SUB PUSH1 0x20 DUP2 LT ISZERO PUSH2 0xCB5 JUMPI PUSH1 0x0 DUP1 REVERT JUMPDEST POP CALLDATALOAD PUSH2 0x2A0C JUMP JUMPDEST PUSH2 0x4C7 PUSH1 0x4 DUP1 CALLDATASIZE SUB PUSH1 0x20 DUP2 LT ISZERO PUSH2 0xCD2 JUMPI PUSH1 0x0 DUP1 REVERT JUMPDEST POP CALLDATALOAD PUSH1 0x1 PUSH1 0x1 PUSH1 0xA0 SHL SUB AND PUSH2 0x2A1F JUMP JUMPDEST PUSH2 0x4A3 PUSH1 0x4 DUP1 CALLDATASIZE SUB PUSH1 0x20 DUP2 LT ISZERO PUSH2 0xCF8 JUMPI PUSH1 0x0 DUP1 REVERT JUMPDEST POP CALLDATALOAD PUSH2 0x2A3A JUMP JUMPDEST PUSH2 0x4C7 PUSH2 0x2A64 JUMP JUMPDEST PUSH2 0x75F PUSH1 0x4 DUP1 CALLDATASIZE SUB PUSH1 0x20 DUP2 LT ISZERO PUSH2 0xD1D JUMPI PUSH1 0x0 DUP1 REVERT JUMPDEST POP CALLDATALOAD PUSH1 0x1 PUSH1 0x1 PUSH1 0xA0 SHL SUB AND PUSH2 0x2A6A JUMP JUMPDEST PUSH2 0x4C7 PUSH1 0x4 DUP1 CALLDATASIZE SUB PUSH1 0x20 DUP2 LT ISZERO PUSH2 0xD43 JUMPI PUSH1 0x0 DUP1 REVERT JUMPDEST POP CALLDATALOAD PUSH1 0x1 PUSH1 0x1 PUSH1 0xA0 SHL SUB AND PUSH2 0x2AC8 JUMP JUMPDEST PUSH2 0x4C7 PUSH2 0x2AF9 JUMP JUMPDEST PUSH2 0x4A3 PUSH2 0x2B06 JUMP JUMPDEST PUSH2 0x507 PUSH1 0x4 DUP1 CALLDATASIZE SUB PUSH1 0x20 DUP2 LT ISZERO PUSH2 0xD79 JUMPI PUSH1 0x0 DUP1 REVERT JUMPDEST POP CALLDATALOAD PUSH1 0x1 PUSH1 0x1 PUSH1 0xA0 SHL SUB AND PUSH2 0x2B15 JUMP JUMPDEST PUSH1 0x5 SLOAD PUSH1 0x1 PUSH1 0x1 PUSH1 0xA0 SHL SUB AND DUP2 JUMP JUMPDEST PUSH1 0x17 SLOAD DUP2 JUMP JUMPDEST PUSH1 0x2 DUP2 JUMP JUMPDEST PUSH2 0xDAB PUSH2 0x2B26 JUMP JUMPDEST PUSH1 0x0 SLOAD PUSH1 0x1 SLOAD PUSH2 0xDC8 SWAP2 PUSH1 0x1 PUSH1 0x1 PUSH1 0xA0 SHL SUB SWAP1 DUP2 AND SWAP2 AND DUP4 PUSH2 0x2B71 JUMP JUMPDEST POP JUMP JUMPDEST PUSH1 0x0 PUSH2 0xDD5 PUSH2 0x2B26 JUMP JUMPDEST PUSH1 0x1 PUSH1 0x1 PUSH1 0xA0 SHL SUB DUP4 AND PUSH1 0x0 SWAP1 DUP2 MSTORE PUSH1 0xE PUSH1 0x20 MSTORE PUSH1 0x40 DUP2 KECCAK256 SLOAD PUSH2 0xDFE SWAP1 DUP5 PUSH4 0xFFFFFFFF PUSH2 0x2C93 AND JUMP JUMPDEST PUSH1 0x1 PUSH1 0x1 PUSH1 0xA0 SHL SUB DUP6 AND PUSH1 0x0 SWAP1 DUP2 MSTORE PUSH1 0xE PUSH1 0x20 MSTORE PUSH1 0x40 SWAP1 KECCAK256 DUP2 SWAP1 SSTORE SWAP2 POP POP JUMPDEST SWAP3 SWAP2 POP POP JUMP JUMPDEST PUSH1 0x0 PUSH2 0xE2D PUSH2 0x2B26 JUMP JUMPDEST PUSH2 0xE36 DUP3 PUSH2 0x2CDC JUMP JUMPDEST PUSH1 0x1 PUSH1 0x1 PUSH1 0x80 SHL SUB AND SWAP1 POP JUMPDEST SWAP2 SWAP1 POP JUMP JUMPDEST PUSH1 0x14 PUSH1 0x20 MSTORE PUSH1 0x0 SWAP1 DUP2 MSTORE PUSH1 0x40 SWAP1 KECCAK256 DUP1 SLOAD PUSH1 0x1 SWAP1 SWAP2 ADD SLOAD DUP3 JUMP JUMPDEST PUSH1 0x0 PUSH2 0xE6A PUSH2 0x2B26 JUMP JUMPDEST PUSH2 0xE1D DUP3 PUSH2 0x2D76 JUMP JUMPDEST PUSH9 0x9C2007651B2500000 DUP2 JUMP JUMPDEST DUP1 MLOAD PUSH2 0xEBD JUMPI PUSH1 0x40 MLOAD PUSH3 0x461BCD PUSH1 0xE5 SHL DUP2 MSTORE PUSH1 0x4 ADD DUP1 DUP1 PUSH1 0x20 ADD DUP3 DUP2 SUB DUP3 MSTORE PUSH1 0x36 DUP2 MSTORE PUSH1 0x20 ADD DUP1 PUSH2 0x5AC8 PUSH1 0x36 SWAP2 CODECOPY PUSH1 0x40 ADD SWAP2 POP POP PUSH1 0x40 MLOAD DUP1 SWAP2 SUB SWAP1 REVERT JUMPDEST PUSH1 0x0 SLOAD PUSH1 0x1 SLOAD PUSH1 0x5 SLOAD PUSH1 0x1 PUSH1 0x1 PUSH1 0xA0 SHL SUB SWAP3 DUP4 AND SWAP3 SWAP2 DUP3 AND SWAP2 AND PUSH2 0xEDF PUSH2 0x57E0 JUMP JUMPDEST PUSH2 0xEE7 PUSH2 0x5811 JUMP JUMPDEST PUSH1 0x2 PUSH1 0x0 SWAP1 SLOAD SWAP1 PUSH2 0x100 EXP SWAP1 DIV PUSH1 0x1 PUSH1 0x1 PUSH1 0xA0 SHL SUB AND PUSH1 0x1 PUSH1 0x1 PUSH1 0xA0 SHL SUB AND PUSH4 0xFDB11CF PUSH1 0x40 MLOAD DUP2 PUSH4 0xFFFFFFFF AND PUSH1 0xE0 SHL DUP2 MSTORE PUSH1 0x4 ADD PUSH1 0x20 PUSH1 0x40 MLOAD DUP1 DUP4 SUB DUP2 PUSH1 0x0 DUP8 DUP1 EXTCODESIZE ISZERO DUP1 ISZERO PUSH2 0xF37 JUMPI PUSH1 0x0 DUP1 REVERT JUMPDEST POP GAS CALL ISZERO DUP1 ISZERO PUSH2 0xF4B JUMPI RETURNDATASIZE PUSH1 0x0 DUP1 RETURNDATACOPY RETURNDATASIZE PUSH1 0x0 REVERT JUMPDEST POP POP POP POP PUSH1 0x40 MLOAD RETURNDATASIZE PUSH1 0x20 DUP2 LT ISZERO PUSH2 0xF61 JUMPI PUSH1 0x0 DUP1 REVERT JUMPDEST POP MLOAD DUP3 MSTORE PUSH1 0x40 DUP1 MLOAD PUSH4 0x26FCBC6B PUSH1 0xE2 SHL DUP2 MSTORE SWAP1 MLOAD PUSH1 0x1 PUSH1 0x1 PUSH1 0xA0 SHL SUB DUP6 AND SWAP2 PUSH4 0x9BF2F1AC SWAP2 PUSH1 0x4 DUP1 DUP4 ADD SWAP3 PUSH1 0x20 SWAP3 SWAP2 SWAP1 DUP3 SWAP1 SUB ADD DUP2 DUP7 DUP1 EXTCODESIZE ISZERO DUP1 ISZERO PUSH2 0xFA5 JUMPI PUSH1 0x0 DUP1 REVERT JUMPDEST POP GAS STATICCALL ISZERO DUP1 ISZERO PUSH2 0xFB9 JUMPI RETURNDATASIZE PUSH1 0x0 DUP1 RETURNDATACOPY RETURNDATASIZE PUSH1 0x0 REVERT JUMPDEST POP POP POP POP PUSH1 0x40 MLOAD RETURNDATASIZE PUSH1 0x20 DUP2 LT ISZERO PUSH2 0xFCF JUMPI PUSH1 0x0 DUP1 REVERT JUMPDEST POP MLOAD PUSH1 0x20 DUP4 ADD MSTORE DUP2 MLOAD PUSH2 0xFE1 SWAP1 PUSH2 0x2E25 JUMP JUMPDEST ISZERO DUP1 ISZERO PUSH1 0x40 DUP5 ADD MSTORE PUSH2 0x1009 JUMPI PUSH2 0x1002 DUP6 DUP6 DUP5 PUSH1 0x0 ADD MLOAD DUP6 PUSH1 0x20 ADD MLOAD DUP11 PUSH2 0x2E42 JUMP JUMPDEST SWAP1 POP PUSH2 0x1021 JUMP JUMPDEST PUSH2 0x101E DUP6 DUP6 DUP5 PUSH1 0x0 ADD MLOAD DUP6 PUSH1 0x20 ADD MLOAD DUP11 PUSH2 0x3072 JUMP JUMPDEST SWAP1 POP JUMPDEST PUSH1 0x0 DUP2 PUSH1 0x20 ADD MLOAD GT PUSH2 0x1064 JUMPI PUSH1 0x40 MLOAD PUSH3 0x461BCD PUSH1 0xE5 SHL DUP2 MSTORE PUSH1 0x4 ADD DUP1 DUP1 PUSH1 0x20 ADD DUP3 DUP2 SUB DUP3 MSTORE PUSH1 0x22 DUP2 MSTORE PUSH1 0x20 ADD DUP1 PUSH2 0x5BBC PUSH1 0x22 SWAP2 CODECOPY PUSH1 0x40 ADD SWAP2 POP POP PUSH1 0x40 MLOAD DUP1 SWAP2 SUB SWAP1 REVERT JUMPDEST DUP3 PUSH1 0x1 PUSH1 0x1 PUSH1 0xA0 SHL SUB AND PUSH4 0x335525AD DUP3 PUSH1 0x80 ADD MLOAD DUP4 PUSH1 0xA0 ADD MLOAD PUSH1 0x40 MLOAD DUP4 PUSH4 0xFFFFFFFF AND PUSH1 0xE0 SHL DUP2 MSTORE PUSH1 0x4 ADD DUP1 DUP4 DUP2 MSTORE PUSH1 0x20 ADD DUP3 DUP2 MSTORE PUSH1 0x20 ADD SWAP3 POP POP POP PUSH1 0x0 PUSH1 0x40 MLOAD DUP1 DUP4 SUB DUP2 PUSH1 0x0 DUP8 DUP1 EXTCODESIZE ISZERO DUP1 ISZERO PUSH2 0x10BA JUMPI PUSH1 0x0 DUP1 REVERT JUMPDEST POP GAS CALL ISZERO DUP1 ISZERO PUSH2 0x10CE JUMPI RETURNDATASIZE PUSH1 0x0 DUP1 RETURNDATACOPY RETURNDATASIZE PUSH1 0x0 REVERT JUMPDEST POP POP POP POP PUSH2 0x10E6 DUP6 DUP6 DUP4 PUSH1 0xC0 ADD MLOAD DUP5 PUSH1 0xE0 ADD MLOAD PUSH2 0x313A JUMP JUMPDEST PUSH2 0x100 DUP2 ADD MLOAD ISZERO PUSH2 0x1165 JUMPI PUSH1 0x7 SLOAD PUSH2 0x100 DUP3 ADD MLOAD PUSH1 0x40 DUP1 MLOAD PUSH4 0x64A197F3 PUSH1 0xE0 SHL DUP2 MSTORE PUSH1 0x1 PUSH1 0x1 PUSH1 0xA0 SHL SUB SWAP4 DUP5 AND PUSH1 0x4 DUP3 ADD MSTORE PUSH1 0x24 DUP2 ADD SWAP3 SWAP1 SWAP3 MSTORE MLOAD SWAP2 DUP8 AND SWAP2 PUSH4 0x64A197F3 SWAP2 PUSH1 0x44 DUP1 DUP3 ADD SWAP3 PUSH1 0x0 SWAP3 SWAP1 SWAP2 SWAP1 DUP3 SWAP1 SUB ADD DUP2 DUP4 DUP8 DUP1 EXTCODESIZE ISZERO DUP1 ISZERO PUSH2 0x114C JUMPI PUSH1 0x0 DUP1 REVERT JUMPDEST POP GAS CALL ISZERO DUP1 ISZERO PUSH2 0x1160 JUMPI RETURNDATASIZE PUSH1 0x0 DUP1 RETURNDATACOPY RETURNDATASIZE PUSH1 0x0 REVERT JUMPDEST POP POP POP POP JUMPDEST PUSH2 0x1173 DUP6 DUP3 PUSH1 0x40 ADD MLOAD PUSH2 0x33BB JUMP JUMPDEST PUSH1 0x20 DUP2 ADD MLOAD PUSH1 0x60 DUP4 ADD MSTORE PUSH2 0x100 DUP2 ADD MLOAD PUSH1 0x40 DUP3 ADD MLOAD DUP3 MLOAD PUSH2 0x11AB SWAP3 SWAP2 PUSH2 0x119F SWAP2 SWAP1 PUSH4 0xFFFFFFFF PUSH2 0x2C93 AND JUMP JUMPDEST SWAP1 PUSH4 0xFFFFFFFF PUSH2 0x2C93 AND JUMP JUMPDEST PUSH1 0x80 DUP1 DUP5 ADD DUP3 SWAP1 MSTORE PUSH1 0x60 DUP1 DUP6 ADD MLOAD PUSH1 0x40 DUP1 DUP7 ADD MLOAD DUP7 DUP5 ADD MLOAD DUP3 MLOAD SWAP4 DUP5 MSTORE PUSH1 0x20 DUP5 ADD SWAP7 SWAP1 SWAP7 MSTORE DUP3 DUP3 ADD MSTORE SWAP2 DUP2 ADD SWAP4 SWAP1 SWAP4 MSTORE MLOAD PUSH32 0x4152C73DD2614C4F9FC35E8C9CF16013CD588C75B49A4C1673ECFFDCBCDA9403 SWAP3 DUP2 SWAP1 SUB SWAP1 SWAP2 ADD SWAP1 LOG1 PUSH2 0x121A DUP6 CALLER DUP4 PUSH1 0x60 ADD MLOAD DUP5 PUSH1 0x40 ADD MLOAD PUSH2 0x3502 JUMP JUMPDEST POP POP POP POP POP POP JUMP JUMPDEST PUSH1 0xC SLOAD DUP2 JUMP JUMPDEST PUSH1 0x9 SLOAD PUSH1 0x1 PUSH1 0x1 PUSH1 0xA0 SHL SUB AND DUP2 JUMP JUMPDEST PUSH1 0x1 PUSH1 0x1 PUSH1 0xA0 SHL SUB DUP2 AND PUSH1 0x0 SWAP1 DUP2 MSTORE PUSH1 0xE PUSH1 0x20 MSTORE PUSH1 0x40 DUP2 KECCAK256 PUSH1 0x3 ADD SLOAD PUSH1 0xFF AND PUSH1 0x4 DUP2 GT ISZERO PUSH2 0xE1D JUMPI INVALID JUMPDEST PUSH1 0x64 PUSH8 0xDE0B6B3A7640000 JUMPDEST DIV PUSH1 0x5 MUL DUP2 JUMP JUMPDEST PUSH2 0x3E8 PUSH8 0xDE0B6B3A7640000 PUSH2 0x126D JUMP JUMPDEST PUSH1 0x0 PUSH2 0x1292 PUSH1 0xC SLOAD PUSH2 0x3605 JUMP JUMPDEST SWAP1 POP SWAP1 JUMP JUMPDEST PUSH9 0x1158E460913D00000 DUP2 JUMP JUMPDEST PUSH2 0x12AD DUP2 PUSH2 0x363B JUMP JUMPDEST PUSH1 0x40 DUP1 MLOAD PUSH1 0x1 DUP1 DUP3 MSTORE DUP2 DUP4 ADD SWAP1 SWAP3 MSTORE PUSH1 0x60 SWAP2 PUSH1 0x20 DUP1 DUP4 ADD SWAP1 DUP1 CALLDATASIZE DUP4 CALLDATACOPY ADD SWAP1 POP POP SWAP1 POP DUP2 DUP2 PUSH1 0x0 DUP2 MLOAD DUP2 LT PUSH2 0x12DD JUMPI INVALID JUMPDEST PUSH1 0x20 MUL PUSH1 0x20 ADD ADD SWAP1 PUSH1 0x1 PUSH1 0x1 PUSH1 0xA0 SHL SUB AND SWAP1 DUP2 PUSH1 0x1 PUSH1 0x1 PUSH1 0xA0 SHL SUB AND DUP2 MSTORE POP POP PUSH2 0x1306 DUP2 PUSH2 0xE80 JUMP JUMPDEST POP POP JUMP JUMPDEST PUSH1 0x1 SLOAD PUSH1 0x1 PUSH1 0x1 PUSH1 0xA0 SHL SUB AND DUP2 JUMP JUMPDEST PUSH1 0x0 PUSH2 0xE1D PUSH2 0x1326 PUSH2 0x18C2 JUMP JUMPDEST DUP4 PUSH2 0x36A3 JUMP JUMPDEST PUSH1 0x1 PUSH1 0x1 PUSH1 0xA0 SHL SUB AND PUSH1 0x0 SWAP1 DUP2 MSTORE PUSH1 0xE PUSH1 0x20 MSTORE PUSH1 0x40 SWAP1 KECCAK256 PUSH1 0x1 ADD SLOAD SWAP1 JUMP JUMPDEST PUSH1 0xC8 DUP2 JUMP JUMPDEST PUSH1 0x15 SLOAD SWAP1 JUMP JUMPDEST PUSH1 0x0 PUSH2 0xE1D DUP3 PUSH2 0x2E25 JUMP JUMPDEST PUSH8 0x14D1120D7B160000 DUP2 JUMP JUMPDEST PUSH2 0x1374 PUSH2 0x2B26 JUMP JUMPDEST DUP1 PUSH1 0x4 DUP2 GT ISZERO PUSH2 0x1380 JUMPI INVALID JUMPDEST PUSH1 0x1 PUSH1 0x1 PUSH1 0xA0 SHL SUB DUP4 AND PUSH1 0x0 SWAP1 DUP2 MSTORE PUSH1 0xE PUSH1 0x20 MSTORE PUSH1 0x40 SWAP1 KECCAK256 PUSH1 0x3 ADD DUP1 SLOAD PUSH1 0xFF NOT AND PUSH1 0x1 DUP4 PUSH1 0x4 DUP2 GT ISZERO PUSH2 0x13AF JUMPI INVALID JUMPDEST MUL OR SWAP1 SSTORE POP POP POP JUMP JUMPDEST PUSH1 0x1 PUSH1 0x1 PUSH1 0xA0 SHL SUB DUP2 AND PUSH1 0x0 SWAP1 DUP2 MSTORE PUSH1 0x14 PUSH1 0x20 MSTORE PUSH1 0x40 DUP2 KECCAK256 SLOAD PUSH1 0x12 SLOAD DUP3 SWAP1 PUSH2 0x13E6 SWAP1 DUP4 PUSH4 0xFFFFFFFF PUSH2 0x2C93 AND JUMP JUMPDEST SWAP1 POP DUP1 ISZERO DUP1 PUSH2 0x141F JUMPI POP PUSH1 0x1 PUSH1 0x1 PUSH1 0x1 PUSH1 0xA0 SHL SUB DUP6 AND PUSH1 0x0 SWAP1 DUP2 MSTORE PUSH1 0xE PUSH1 0x20 MSTORE PUSH1 0x40 SWAP1 KECCAK256 PUSH1 0x3 ADD SLOAD PUSH1 0xFF AND PUSH1 0x4 DUP2 GT ISZERO PUSH2 0x141C JUMPI INVALID JUMPDEST EQ ISZERO JUMPDEST ISZERO PUSH2 0x142F JUMPI PUSH1 0x0 SWAP3 POP POP POP PUSH2 0xE42 JUMP JUMPDEST PUSH1 0x1 PUSH1 0x1 PUSH1 0xA0 SHL SUB DUP5 AND PUSH1 0x0 SWAP1 DUP2 MSTORE PUSH1 0xE PUSH1 0x20 MSTORE PUSH1 0x40 DUP2 KECCAK256 PUSH1 0x2 ADD SLOAD SWAP1 PUSH2 0x1474 PUSH8 0xDE0B6B3A7640000 PUSH2 0x1468 DUP5 DUP7 PUSH4 0xFFFFFFFF PUSH2 0x36C1 AND JUMP JUMPDEST SWAP1 PUSH4 0xFFFFFFFF PUSH2 0x371A AND JUMP JUMPDEST SWAP7 SWAP6 POP POP POP POP POP POP JUMP JUMPDEST PUSH2 0x1486 PUSH2 0x2B26 JUMP JUMPDEST PUSH1 0x0 PUSH2 0x1490 PUSH2 0x375C JUMP JUMPDEST SWAP1 POP PUSH8 0xDE0B6B3A7640000 DUP2 GT ISZERO PUSH2 0x14A4 JUMPI INVALID JUMPDEST PUSH1 0xC DUP2 SWAP1 SSTORE PUSH1 0x40 DUP1 MLOAD DUP3 DUP2 MSTORE SWAP1 MLOAD PUSH32 0xC454EE9B76C52F782A256AF821B857CA6E125D1E3333BCEDE402FEC2BED9600C SWAP2 DUP2 SWAP1 SUB PUSH1 0x20 ADD SWAP1 LOG1 PUSH2 0xDC8 PUSH2 0x37A0 JUMP JUMPDEST PUSH1 0x3C DUP2 JUMP JUMPDEST PUSH1 0x0 PUSH2 0xE1D PUSH2 0x1326 PUSH2 0x2AF9 JUMP JUMPDEST PUSH1 0x1 PUSH1 0x1 PUSH1 0xA0 SHL SUB AND PUSH1 0x0 SWAP1 DUP2 MSTORE PUSH1 0xE PUSH1 0x20 MSTORE PUSH1 0x40 SWAP1 KECCAK256 PUSH1 0x2 ADD SLOAD SWAP1 JUMP JUMPDEST PUSH2 0x151C PUSH2 0x585D JUMP JUMPDEST POP PUSH1 0x40 DUP1 MLOAD PUSH1 0xE0 DUP2 ADD DUP3 MSTORE PUSH1 0x0 DUP1 SLOAD PUSH1 0x1 PUSH1 0x1 PUSH1 0xA0 SHL SUB SWAP1 DUP2 AND DUP4 MSTORE PUSH1 0x1 SLOAD DUP2 AND PUSH1 0x20 DUP5 ADD MSTORE SWAP3 DUP3 ADD DUP2 SWAP1 MSTORE PUSH1 0x60 DUP3 ADD DUP2 SWAP1 MSTORE PUSH1 0xB SLOAD DUP4 AND PUSH1 0x80 DUP4 ADD MSTORE PUSH1 0xA0 DUP3 ADD DUP2 SWAP1 MSTORE PUSH1 0xC0 DUP3 ADD MSTORE PUSH1 0x5 SLOAD SWAP1 SWAP2 AND PUSH2 0x1573 PUSH2 0x57E0 JUMP JUMPDEST PUSH2 0x157B PUSH2 0x5811 JUMP JUMPDEST PUSH1 0x2 PUSH1 0x0 SWAP1 SLOAD SWAP1 PUSH2 0x100 EXP SWAP1 DIV PUSH1 0x1 PUSH1 0x1 PUSH1 0xA0 SHL SUB AND PUSH1 0x1 PUSH1 0x1 PUSH1 0xA0 SHL SUB AND PUSH4 0xFDB11CF PUSH1 0x40 MLOAD DUP2 PUSH4 0xFFFFFFFF AND PUSH1 0xE0 SHL DUP2 MSTORE PUSH1 0x4 ADD PUSH1 0x20 PUSH1 0x40 MLOAD DUP1 DUP4 SUB DUP2 PUSH1 0x0 DUP8 DUP1 EXTCODESIZE ISZERO DUP1 ISZERO PUSH2 0x15CB JUMPI PUSH1 0x0 DUP1 REVERT JUMPDEST POP GAS CALL ISZERO DUP1 ISZERO PUSH2 0x15DF JUMPI RETURNDATASIZE PUSH1 0x0 DUP1 RETURNDATACOPY RETURNDATASIZE PUSH1 0x0 REVERT JUMPDEST POP POP POP POP PUSH1 0x40 MLOAD RETURNDATASIZE PUSH1 0x20 DUP2 LT ISZERO PUSH2 0x15F5 JUMPI PUSH1 0x0 DUP1 REVERT JUMPDEST POP MLOAD DUP3 MSTORE PUSH1 0x40 DUP1 MLOAD PUSH4 0x26FCBC6B PUSH1 0xE2 SHL DUP2 MSTORE SWAP1 MLOAD PUSH1 0x1 PUSH1 0x1 PUSH1 0xA0 SHL SUB DUP6 AND SWAP2 PUSH4 0x9BF2F1AC SWAP2 PUSH1 0x4 DUP1 DUP4 ADD SWAP3 PUSH1 0x20 SWAP3 SWAP2 SWAP1 DUP3 SWAP1 SUB ADD DUP2 DUP7 DUP1 EXTCODESIZE ISZERO DUP1 ISZERO PUSH2 0x1639 JUMPI PUSH1 0x0 DUP1 REVERT JUMPDEST POP GAS STATICCALL ISZERO DUP1 ISZERO PUSH2 0x164D JUMPI RETURNDATASIZE PUSH1 0x0 DUP1 RETURNDATACOPY RETURNDATASIZE PUSH1 0x0 REVERT JUMPDEST POP POP POP POP PUSH1 0x40 MLOAD RETURNDATASIZE PUSH1 0x20 DUP2 LT ISZERO PUSH2 0x1663 JUMPI PUSH1 0x0 DUP1 REVERT JUMPDEST POP MLOAD PUSH1 0x20 DUP4 ADD MSTORE DUP2 MLOAD PUSH2 0x1675 SWAP1 PUSH2 0x2E25 JUMP JUMPDEST ISZERO DUP1 ISZERO PUSH1 0x40 DUP5 ADD MSTORE PUSH2 0x169C JUMPI PUSH2 0x1695 DUP5 DUP4 PUSH1 0x0 ADD MLOAD DUP5 PUSH1 0x20 ADD MLOAD DUP9 PUSH2 0x37FC JUMP JUMPDEST SWAP1 POP PUSH2 0x16BC JUMP JUMPDEST PUSH2 0x16B9 DUP5 PUSH1 0x0 ADD MLOAD DUP6 PUSH1 0x20 ADD MLOAD DUP5 PUSH1 0x0 ADD MLOAD DUP6 PUSH1 0x20 ADD MLOAD DUP10 PUSH2 0x3B97 JUMP JUMPDEST SWAP1 POP JUMPDEST PUSH1 0x0 DUP2 PUSH1 0x20 ADD MLOAD GT PUSH2 0x16FF JUMPI PUSH1 0x40 MLOAD PUSH3 0x461BCD PUSH1 0xE5 SHL DUP2 MSTORE PUSH1 0x4 ADD DUP1 DUP1 PUSH1 0x20 ADD DUP3 DUP2 SUB DUP3 MSTORE PUSH1 0x22 DUP2 MSTORE PUSH1 0x20 ADD DUP1 PUSH2 0x5BBC PUSH1 0x22 SWAP2 CODECOPY PUSH1 0x40 ADD SWAP2 POP POP PUSH1 0x40 MLOAD DUP1 SWAP2 SUB SWAP1 REVERT JUMPDEST DUP3 PUSH1 0x1 PUSH1 0x1 PUSH1 0xA0 SHL SUB AND PUSH4 0x335525AD DUP3 PUSH1 0x80 ADD MLOAD DUP4 PUSH1 0xA0 ADD MLOAD PUSH1 0x40 MLOAD DUP4 PUSH4 0xFFFFFFFF AND PUSH1 0xE0 SHL DUP2 MSTORE PUSH1 0x4 ADD DUP1 DUP4 DUP2 MSTORE PUSH1 0x20 ADD DUP3 DUP2 MSTORE PUSH1 0x20 ADD SWAP3 POP POP POP PUSH1 0x0 PUSH1 0x40 MLOAD DUP1 DUP4 SUB DUP2 PUSH1 0x0 DUP8 DUP1 EXTCODESIZE ISZERO DUP1 ISZERO PUSH2 0x1755 JUMPI PUSH1 0x0 DUP1 REVERT JUMPDEST POP GAS CALL ISZERO DUP1 ISZERO PUSH2 0x1769 JUMPI RETURNDATASIZE PUSH1 0x0 DUP1 RETURNDATACOPY RETURNDATASIZE PUSH1 0x0 REVERT JUMPDEST POP POP POP POP PUSH2 0x1789 DUP5 PUSH1 0x0 ADD MLOAD DUP6 PUSH1 0x20 ADD MLOAD DUP4 PUSH1 0xC0 ADD MLOAD DUP5 PUSH1 0xE0 ADD MLOAD PUSH2 0x313A JUMP JUMPDEST PUSH2 0x100 DUP2 ADD MLOAD ISZERO PUSH2 0x180A JUMPI DUP4 MLOAD PUSH1 0x7 SLOAD PUSH2 0x100 DUP4 ADD MLOAD PUSH1 0x40 DUP1 MLOAD PUSH4 0x64A197F3 PUSH1 0xE0 SHL DUP2 MSTORE PUSH1 0x1 PUSH1 0x1 PUSH1 0xA0 SHL SUB SWAP4 DUP5 AND PUSH1 0x4 DUP3 ADD MSTORE PUSH1 0x24 DUP2 ADD SWAP3 SWAP1 SWAP3 MSTORE MLOAD SWAP2 SWAP1 SWAP3 AND SWAP2 PUSH4 0x64A197F3 SWAP2 PUSH1 0x44 DUP1 DUP4 ADD SWAP3 PUSH1 0x0 SWAP3 SWAP2 SWAP1 DUP3 SWAP1 SUB ADD DUP2 DUP4 DUP8 DUP1 EXTCODESIZE ISZERO DUP1 ISZERO PUSH2 0x17F1 JUMPI PUSH1 0x0 DUP1 REVERT JUMPDEST POP GAS CALL ISZERO DUP1 ISZERO PUSH2 0x1805 JUMPI RETURNDATASIZE PUSH1 0x0 DUP1 RETURNDATACOPY RETURNDATASIZE PUSH1 0x0 REVERT JUMPDEST POP POP POP POP JUMPDEST PUSH2 0x181C DUP5 PUSH1 0x0 ADD MLOAD DUP3 PUSH1 0x40 ADD MLOAD PUSH2 0x33BB JUMP JUMPDEST PUSH1 0x20 DUP2 ADD MLOAD PUSH1 0x60 DUP4 ADD MSTORE PUSH2 0x100 DUP2 ADD MLOAD PUSH1 0x40 DUP3 ADD MLOAD DUP3 MLOAD PUSH2 0x1848 SWAP3 SWAP2 PUSH2 0x119F SWAP2 SWAP1 PUSH4 0xFFFFFFFF PUSH2 0x2C93 AND JUMP JUMPDEST PUSH1 0x80 DUP1 DUP5 ADD DUP3 SWAP1 MSTORE PUSH1 0x60 DUP1 DUP6 ADD MLOAD PUSH1 0x40 DUP1 DUP7 ADD MLOAD DUP7 DUP5 ADD MLOAD DUP3 MLOAD SWAP4 DUP5 MSTORE PUSH1 0x20 DUP5 ADD SWAP7 SWAP1 SWAP7 MSTORE DUP3 DUP3 ADD MSTORE SWAP2 DUP2 ADD SWAP4 SWAP1 SWAP4 MSTORE MLOAD PUSH32 0x4152C73DD2614C4F9FC35E8C9CF16013CD588C75B49A4C1673ECFFDCBCDA9403 SWAP3 DUP2 SWAP1 SUB SWAP1 SWAP2 ADD SWAP1 LOG1 PUSH2 0x18BB DUP5 PUSH1 0x0 ADD MLOAD CALLER DUP4 PUSH1 0x60 ADD MLOAD DUP5 PUSH1 0x40 ADD MLOAD PUSH2 0x3502 JUMP JUMPDEST POP POP POP POP POP JUMP JUMPDEST PUSH1 0x0 PUSH2 0x1292 PUSH2 0x18CF PUSH2 0x375C JUMP JUMPDEST PUSH2 0x3CC9 JUMP JUMPDEST PUSH1 0xE PUSH1 0x20 MSTORE PUSH1 0x0 SWAP1 DUP2 MSTORE PUSH1 0x40 SWAP1 KECCAK256 DUP1 SLOAD PUSH1 0x1 DUP3 ADD SLOAD PUSH1 0x2 DUP4 ADD SLOAD PUSH1 0x3 SWAP1 SWAP4 ADD SLOAD SWAP2 SWAP3 SWAP1 SWAP2 PUSH1 0xFF DUP2 AND SWAP1 PUSH2 0x100 SWAP1 DIV PUSH1 0x1 PUSH1 0x1 PUSH1 0x80 SHL SUB AND DUP6 JUMP JUMPDEST PUSH2 0x1916 PUSH2 0x2087 JUMP JUMPDEST PUSH2 0x1967 JUMPI PUSH1 0x40 DUP1 MLOAD PUSH3 0x461BCD PUSH1 0xE5 SHL DUP2 MSTORE PUSH1 0x20 PUSH1 0x4 DUP3 ADD DUP2 SWAP1 MSTORE PUSH1 0x24 DUP3 ADD MSTORE PUSH32 0x4F776E61626C653A2063616C6C6572206973206E6F7420746865206F776E6572 PUSH1 0x44 DUP3 ADD MSTORE SWAP1 MLOAD SWAP1 DUP2 SWAP1 SUB PUSH1 0x64 ADD SWAP1 REVERT JUMPDEST PUSH1 0x18 DUP1 SLOAD PUSH1 0x1 PUSH1 0x1 PUSH1 0xA0 SHL SUB NOT AND PUSH1 0x1 PUSH1 0x1 PUSH1 0xA0 SHL SUB SWAP3 SWAP1 SWAP3 AND SWAP2 SWAP1 SWAP2 OR SWAP1 SSTORE JUMP JUMPDEST PUSH1 0x0 PUSH2 0x1993 PUSH2 0x2B26 JUMP JUMPDEST PUSH1 0x1 PUSH1 0x1 PUSH1 0xA0 SHL SUB DUP4 AND PUSH1 0x0 SWAP1 DUP2 MSTORE PUSH1 0xE PUSH1 0x20 MSTORE PUSH1 0x40 DUP2 KECCAK256 PUSH1 0x1 ADD SLOAD PUSH2 0x19BF SWAP1 DUP5 PUSH4 0xFFFFFFFF PUSH2 0x3CF0 AND JUMP JUMPDEST PUSH1 0x1 PUSH1 0x1 PUSH1 0xA0 SHL SUB DUP6 AND PUSH1 0x0 SWAP1 DUP2 MSTORE PUSH1 0xE PUSH1 0x20 MSTORE PUSH1 0x40 SWAP1 KECCAK256 PUSH1 0x1 ADD DUP2 SWAP1 SSTORE SWAP2 POP POP SWAP3 SWAP2 POP POP JUMP JUMPDEST PUSH1 0x18 SLOAD PUSH1 0x1 PUSH1 0x1 PUSH1 0xA0 SHL SUB AND CALLER EQ PUSH2 0x19FD JUMPI PUSH1 0x0 DUP1 REVERT JUMPDEST PUSH1 0x2 DUP1 SLOAD PUSH1 0x1 PUSH1 0x1 PUSH1 0xA0 SHL SUB NOT AND PUSH1 0x1 PUSH1 0x1 PUSH1 0xA0 SHL SUB SWAP3 SWAP1 SWAP3 AND SWAP2 SWAP1 SWAP2 OR SWAP1 SSTORE JUMP JUMPDEST PUSH8 0xDE0B6B3A7640000 DUP2 JUMP JUMPDEST PUSH1 0x2 SLOAD PUSH1 0x1 PUSH1 0x1 PUSH1 0xA0 SHL SUB AND DUP2 JUMP JUMPDEST PUSH1 0x15 DUP2 DUP2 SLOAD DUP2 LT PUSH2 0x1A47 JUMPI INVALID JUMPDEST PUSH1 0x0 SWAP2 DUP3 MSTORE PUSH1 0x20 SWAP1 SWAP2 KECCAK256 ADD SLOAD PUSH1 0x1 PUSH1 0x1 PUSH1 0xA0 SHL SUB AND SWAP1 POP DUP2 JUMP JUMPDEST PUSH8 0xF43FC2C04EE0000 DUP2 JUMP JUMPDEST PUSH1 0x0 DUP1 SLOAD PUSH1 0x40 DUP1 MLOAD PUSH4 0x2F5A97E5 PUSH1 0xE1 SHL DUP2 MSTORE SWAP1 MLOAD DUP4 SWAP3 PUSH1 0x1 PUSH1 0x1 PUSH1 0xA0 SHL SUB AND SWAP2 PUSH4 0x5EB52FCA SWAP2 PUSH1 0x4 DUP1 DUP4 ADD SWAP3 PUSH1 0x20 SWAP3 SWAP2 SWAP1 DUP3 SWAP1 SUB ADD DUP2 DUP7 DUP1 EXTCODESIZE ISZERO DUP1 ISZERO PUSH2 0x1AB2 JUMPI PUSH1 0x0 DUP1 REVERT JUMPDEST POP GAS STATICCALL ISZERO DUP1 ISZERO PUSH2 0x1AC6 JUMPI RETURNDATASIZE PUSH1 0x0 DUP1 RETURNDATACOPY RETURNDATASIZE PUSH1 0x0 REVERT JUMPDEST POP POP POP POP PUSH1 0x40 MLOAD RETURNDATASIZE PUSH1 0x20 DUP2 LT ISZERO PUSH2 0x1ADC JUMPI PUSH1 0x0 DUP1 REVERT JUMPDEST POP MLOAD PUSH1 0x1 SLOAD PUSH1 0x40 DUP1 MLOAD PUSH4 0x2F5A97E5 PUSH1 0xE1 SHL DUP2 MSTORE SWAP1 MLOAD SWAP3 SWAP4 POP PUSH1 0x0 SWAP3 PUSH1 0x1 PUSH1 0x1 PUSH1 0xA0 SHL SUB SWAP1 SWAP3 AND SWAP2 PUSH4 0x5EB52FCA SWAP2 PUSH1 0x4 DUP1 DUP3 ADD SWAP3 PUSH1 0x20 SWAP3 SWAP1 SWAP2 SWAP1 DUP3 SWAP1 SUB ADD DUP2 DUP7 DUP1 EXTCODESIZE ISZERO DUP1 ISZERO PUSH2 0x1B29 JUMPI PUSH1 0x0 DUP1 REVERT JUMPDEST POP GAS STATICCALL ISZERO DUP1 ISZERO PUSH2 0x1B3D JUMPI RETURNDATASIZE PUSH1 0x0 DUP1 RETURNDATACOPY RETURNDATASIZE PUSH1 0x0 REVERT JUMPDEST POP POP POP POP PUSH1 0x40 MLOAD RETURNDATASIZE PUSH1 0x20 DUP2 LT ISZERO PUSH2 0x1B53 JUMPI PUSH1 0x0 DUP1 REVERT JUMPDEST POP MLOAD SWAP1 POP PUSH2 0x1B67 DUP3 DUP3 PUSH4 0xFFFFFFFF PUSH2 0x3CF0 AND JUMP JUMPDEST SWAP3 POP POP POP SWAP1 JUMP JUMPDEST PUSH1 0x16 SLOAD DUP2 JUMP JUMPDEST PUSH2 0x1B7C PUSH2 0x2087 JUMP JUMPDEST PUSH2 0x1BCD JUMPI PUSH1 0x40 DUP1 MLOAD PUSH3 0x461BCD PUSH1 0xE5 SHL DUP2 MSTORE PUSH1 0x20 PUSH1 0x4 DUP3 ADD DUP2 SWAP1 MSTORE PUSH1 0x24 DUP3 ADD MSTORE PUSH32 0x4F776E61626C653A2063616C6C6572206973206E6F7420746865206F776E6572 PUSH1 0x44 DUP3 ADD MSTORE SWAP1 MLOAD SWAP1 DUP2 SWAP1 SUB PUSH1 0x64 ADD SWAP1 REVERT JUMPDEST PUSH2 0x1BD6 DUP12 PUSH2 0x3D4A JUMP JUMPDEST PUSH2 0x1BDF DUP11 PUSH2 0x3D4A JUMP JUMPDEST PUSH2 0x1BE8 DUP10 PUSH2 0x3D4A JUMP JUMPDEST PUSH2 0x1BF1 DUP9 PUSH2 0x3D4A JUMP JUMPDEST PUSH2 0x1BFA DUP8 PUSH2 0x3D4A JUMP JUMPDEST PUSH2 0x1C03 DUP7 PUSH2 0x3D4A JUMP JUMPDEST PUSH2 0x1C0C DUP6 PUSH2 0x3D4A JUMP JUMPDEST PUSH2 0x1C15 DUP5 PUSH2 0x3D4A JUMP JUMPDEST PUSH2 0x1C1E DUP4 PUSH2 0x3D4A JUMP JUMPDEST PUSH2 0x1C27 DUP3 PUSH2 0x3D4A JUMP JUMPDEST PUSH2 0x1C30 DUP2 PUSH2 0x3D4A JUMP JUMPDEST PUSH1 0x4 DUP1 SLOAD PUSH1 0x1 PUSH1 0x1 PUSH1 0xA0 SHL SUB NOT SWAP1 DUP2 AND PUSH1 0x1 PUSH1 0x1 PUSH1 0xA0 SHL SUB DUP15 DUP2 AND SWAP2 DUP3 OR SWAP1 SWAP4 SSTORE PUSH1 0x0 DUP1 SLOAD DUP4 AND DUP15 DUP6 AND OR SWAP1 SSTORE PUSH1 0x1 DUP1 SLOAD DUP4 AND DUP14 DUP6 AND OR SWAP1 SSTORE PUSH1 0x5 DUP1 SLOAD DUP4 AND DUP13 DUP6 AND OR SWAP1 SSTORE PUSH1 0x6 DUP1 SLOAD DUP4 AND DUP12 DUP6 AND OR SWAP1 SSTORE PUSH1 0x7 DUP1 SLOAD DUP4 AND DUP11 DUP6 AND OR SWAP1 SSTORE PUSH1 0x2 DUP1 SLOAD DUP4 AND DUP10 DUP6 AND OR SWAP1 SSTORE PUSH1 0x8 DUP1 SLOAD DUP4 AND DUP9 DUP6 AND OR SWAP1 SSTORE PUSH1 0xB DUP1 SLOAD DUP4 AND DUP8 DUP6 AND OR SWAP1 SSTORE PUSH1 0x9 DUP1 SLOAD DUP4 AND DUP7 DUP6 AND OR SWAP1 SSTORE PUSH1 0xA DUP1 SLOAD SWAP1 SWAP3 AND SWAP3 DUP5 AND SWAP3 SWAP1 SWAP3 OR SWAP1 SSTORE PUSH1 0x40 DUP1 MLOAD SWAP2 DUP3 MSTORE MLOAD PUSH32 0x3CA631FFCD2A9B5D9AE18543FC82F58EB4CA33AF9E6AB01B7A8E95331E6ED985 SWAP2 PUSH1 0x20 SWAP1 DUP3 SWAP1 SUB ADD SWAP1 LOG1 PUSH1 0x40 DUP1 MLOAD PUSH1 0x1 PUSH1 0x1 PUSH1 0xA0 SHL SUB DUP13 AND DUP2 MSTORE SWAP1 MLOAD PUSH32 0x78F058B189175430C48DC02699E3A0031EA4FF781536DC2FAB847DE4BABDD882 SWAP2 DUP2 SWAP1 SUB PUSH1 0x20 ADD SWAP1 LOG1 PUSH1 0x40 DUP1 MLOAD PUSH1 0x1 PUSH1 0x1 PUSH1 0xA0 SHL SUB DUP12 AND DUP2 MSTORE SWAP1 MLOAD PUSH32 0x5EE0CAE2F063ED938BB55046F6A932FB6AE792BF43624806BB90ABE68A50BE9B SWAP2 DUP2 SWAP1 SUB PUSH1 0x20 ADD SWAP1 LOG1 PUSH1 0x40 DUP1 MLOAD PUSH1 0x1 PUSH1 0x1 PUSH1 0xA0 SHL SUB DUP11 AND DUP2 MSTORE SWAP1 MLOAD PUSH32 0x82966D27EEA39B038EE0FA30CD16532BB24F6E65D31CB58FB227AA5766CDCC7F SWAP2 DUP2 SWAP1 SUB PUSH1 0x20 ADD SWAP1 LOG1 PUSH1 0x40 DUP1 MLOAD PUSH1 0x1 PUSH1 0x1 PUSH1 0xA0 SHL SUB DUP10 AND DUP2 MSTORE SWAP1 MLOAD PUSH32 0xCFB07D791FCAFC032B35837B50EB84B74DF518CF4CC287E8084F47630FA70FA0 SWAP2 DUP2 SWAP1 SUB PUSH1 0x20 ADD SWAP1 LOG1 PUSH1 0x40 DUP1 MLOAD PUSH1 0x1 PUSH1 0x1 PUSH1 0xA0 SHL SUB DUP9 AND DUP2 MSTORE SWAP1 MLOAD PUSH32 0xE67F36A6E961157D6EFF83B91F3AF5A62131CEB6F04954EF74F51C1C05E7F88D SWAP2 DUP2 SWAP1 SUB PUSH1 0x20 ADD SWAP1 LOG1 PUSH1 0x40 DUP1 MLOAD PUSH1 0x1 PUSH1 0x1 PUSH1 0xA0 SHL SUB DUP8 AND DUP2 MSTORE SWAP1 MLOAD PUSH32 0x8C537274438AA850A330284665D81A85DD38267D09E4050D416BFC94142DB264 SWAP2 DUP2 SWAP1 SUB PUSH1 0x20 ADD SWAP1 LOG1 PUSH1 0x40 DUP1 MLOAD PUSH1 0x1 PUSH1 0x1 PUSH1 0xA0 SHL SUB DUP7 AND DUP2 MSTORE SWAP1 MLOAD PUSH32 0x227EEC0EC317AF6AB1A9587FFA1C84332522EB4C583A908F89BABC05F8F339BD SWAP2 DUP2 SWAP1 SUB PUSH1 0x20 ADD SWAP1 LOG1 PUSH1 0x40 DUP1 MLOAD PUSH1 0x1 PUSH1 0x1 PUSH1 0xA0 SHL SUB DUP6 AND DUP2 MSTORE SWAP1 MLOAD PUSH32 0x65F4CF077BC01E4742EB5AD98326F6E95B63548EA24B17F8D5E823111FE78800 SWAP2 DUP2 SWAP1 SUB PUSH1 0x20 ADD SWAP1 LOG1 PUSH1 0x40 DUP1 MLOAD PUSH1 0x1 PUSH1 0x1 PUSH1 0xA0 SHL SUB DUP5 AND DUP2 MSTORE SWAP1 MLOAD PUSH32 0x2AC6E99201DDC1B6EAC6F8F28662D1ECAFEE131F6EB98C29DE54528A9888A7D1 SWAP2 DUP2 SWAP1 SUB PUSH1 0x20 ADD SWAP1 LOG1 PUSH1 0x40 DUP1 MLOAD PUSH1 0x1 PUSH1 0x1 PUSH1 0xA0 SHL SUB DUP4 AND DUP2 MSTORE SWAP1 MLOAD PUSH32 0x756EBC192164C295BBA134B5AACD72CC7AFF8098A670D1F0A5F6B3A0B4CE6707 SWAP2 DUP2 SWAP1 SUB PUSH1 0x20 ADD SWAP1 LOG1 PUSH2 0x1F60 PUSH2 0x3DF9 JUMP JUMPDEST POP POP POP POP POP POP POP POP POP POP POP JUMP JUMPDEST PUSH1 0x0 SLOAD PUSH1 0x1 PUSH1 0x1 PUSH1 0xA0 SHL SUB AND DUP2 JUMP JUMPDEST PUSH1 0x10 SLOAD DUP2 JUMP JUMPDEST PUSH2 0x1F8A PUSH2 0x2B26 JUMP JUMPDEST PUSH2 0xDC8 DUP2 PUSH2 0x3E43 JUMP JUMPDEST PUSH1 0x0 DUP1 SLOAD PUSH1 0x40 DUP1 MLOAD PUSH4 0xA7B61DF PUSH1 0xE1 SHL DUP2 MSTORE SWAP1 MLOAD DUP4 SWAP3 PUSH1 0x1 PUSH1 0x1 PUSH1 0xA0 SHL SUB AND SWAP2 PUSH4 0x14F6C3BE SWAP2 PUSH1 0x4 DUP1 DUP4 ADD SWAP3 PUSH1 0x20 SWAP3 SWAP2 SWAP1 DUP3 SWAP1 SUB ADD DUP2 DUP7 DUP1 EXTCODESIZE ISZERO DUP1 ISZERO PUSH2 0x1FD8 JUMPI PUSH1 0x0 DUP1 REVERT JUMPDEST POP GAS STATICCALL ISZERO DUP1 ISZERO PUSH2 0x1FEC JUMPI RETURNDATASIZE PUSH1 0x0 DUP1 RETURNDATACOPY RETURNDATASIZE PUSH1 0x0 REVERT JUMPDEST POP POP POP POP PUSH1 0x40 MLOAD RETURNDATASIZE PUSH1 0x20 DUP2 LT ISZERO PUSH2 0x2002 JUMPI PUSH1 0x0 DUP1 REVERT JUMPDEST POP MLOAD PUSH1 0x1 SLOAD PUSH1 0x40 DUP1 MLOAD PUSH4 0xA7B61DF PUSH1 0xE1 SHL DUP2 MSTORE SWAP1 MLOAD SWAP3 SWAP4 POP PUSH1 0x0 SWAP3 PUSH1 0x1 PUSH1 0x1 PUSH1 0xA0 SHL SUB SWAP1 SWAP3 AND SWAP2 PUSH4 0x14F6C3BE SWAP2 PUSH1 0x4 DUP1 DUP3 ADD SWAP3 PUSH1 0x20 SWAP3 SWAP1 SWAP2 SWAP1 DUP3 SWAP1 SUB ADD DUP2 DUP7 DUP1 EXTCODESIZE ISZERO DUP1 ISZERO PUSH2 0x1B29 JUMPI PUSH1 0x0 DUP1 REVERT JUMPDEST PUSH1 0x18 SLOAD PUSH1 0x1 PUSH1 0x1 PUSH1 0xA0 SHL SUB AND CALLER EQ PUSH2 0x2066 JUMPI PUSH1 0x0 DUP1 REVERT JUMPDEST PUSH1 0x18 DUP1 SLOAD PUSH1 0x1 PUSH1 0x1 PUSH1 0xA0 SHL SUB NOT AND SWAP1 SSTORE JUMP JUMPDEST PUSH1 0x3 SLOAD PUSH1 0x1 PUSH1 0x1 PUSH1 0xA0 SHL SUB AND SWAP1 JUMP JUMPDEST PUSH1 0x3 SLOAD PUSH1 0x1 PUSH1 0x1 PUSH1 0xA0 SHL SUB AND CALLER EQ SWAP1 JUMP JUMPDEST PUSH1 0x11 SLOAD DUP2 JUMP JUMPDEST PUSH1 0x0 PUSH2 0x20A8 PUSH2 0x2B26 JUMP JUMPDEST PUSH1 0x1 PUSH1 0x1 PUSH1 0xA0 SHL SUB DUP4 AND PUSH1 0x0 SWAP1 DUP2 MSTORE PUSH1 0xE PUSH1 0x20 MSTORE PUSH1 0x40 DUP2 KECCAK256 SLOAD PUSH2 0xDFE SWAP1 DUP5 PUSH4 0xFFFFFFFF PUSH2 0x3CF0 AND JUMP JUMPDEST PUSH1 0x12 SLOAD DUP2 JUMP JUMPDEST PUSH1 0xA SLOAD PUSH1 0x1 PUSH1 0x1 PUSH1 0xA0 SHL SUB AND DUP2 JUMP JUMPDEST PUSH1 0x40 MLOAD DUP1 PUSH1 0x40 ADD PUSH1 0x40 MSTORE DUP1 PUSH1 0xC DUP2 MSTORE PUSH1 0x20 ADD PUSH12 0x2A3937BB32A6B0B730B3B2B9 PUSH1 0xA1 SHL DUP2 MSTORE POP DUP2 JUMP JUMPDEST PUSH1 0xB SLOAD PUSH1 0x1 PUSH1 0x1 PUSH1 0xA0 SHL SUB AND DUP2 JUMP JUMPDEST PUSH1 0x0 DUP1 PUSH1 0x0 PUSH2 0x212B DUP5 PUSH2 0x3EAE JUMP JUMPDEST SWAP2 POP SWAP2 POP PUSH1 0x0 PUSH2 0x213B DUP4 DUP4 PUSH2 0x3F34 JUMP JUMPDEST SWAP6 SWAP5 POP POP POP POP POP JUMP JUMPDEST PUSH1 0x4 SLOAD PUSH1 0x1 PUSH1 0x1 PUSH1 0xA0 SHL SUB AND DUP2 JUMP JUMPDEST PUSH1 0x0 PUSH2 0xE1D DUP3 PUSH2 0x3F69 JUMP JUMPDEST PUSH1 0x8 SLOAD PUSH1 0x1 PUSH1 0x1 PUSH1 0xA0 SHL SUB AND DUP2 JUMP JUMPDEST PUSH1 0x1 PUSH1 0x1 PUSH1 0xA0 SHL SUB DUP2 AND PUSH1 0x0 SWAP1 DUP2 MSTORE PUSH1 0xE PUSH1 0x20 MSTORE PUSH1 0x40 DUP2 KECCAK256 DUP1 SLOAD PUSH1 0x1 SWAP1 SWAP2 ADD SLOAD SWAP1 SWAP2 DUP1 PUSH2 0x2199 DUP6 PUSH2 0x2AC8 JUMP JUMPDEST SWAP2 POP PUSH2 0x21A4 DUP6 PUSH2 0x13B8 JUMP JUMPDEST SWAP1 POP PUSH2 0x21B6 DUP5 DUP4 PUSH4 0xFFFFFFFF PUSH2 0x3CF0 AND JUMP JUMPDEST SWAP4 POP PUSH2 0x21C8 DUP4 DUP3 PUSH4 0xFFFFFFFF PUSH2 0x3CF0 AND JUMP JUMPDEST SWAP3 POP SWAP2 SWAP4 POP SWAP2 SWAP4 JUMP JUMPDEST PUSH2 0x21D9 PUSH2 0x585D JUMP JUMPDEST POP PUSH1 0x40 DUP1 MLOAD PUSH1 0xE0 DUP2 ADD DUP3 MSTORE PUSH1 0x0 SLOAD PUSH1 0x1 PUSH1 0x1 PUSH1 0xA0 SHL SUB SWAP1 DUP2 AND DUP3 MSTORE PUSH1 0x1 SLOAD DUP2 AND PUSH1 0x20 DUP4 ADD MSTORE PUSH1 0x8 SLOAD DUP2 AND SWAP3 DUP3 ADD SWAP3 SWAP1 SWAP3 MSTORE PUSH1 0xA SLOAD DUP3 AND PUSH1 0x60 DUP3 ADD MSTORE PUSH1 0xB SLOAD DUP3 AND PUSH1 0x80 DUP3 ADD MSTORE PUSH1 0x7 SLOAD DUP3 AND PUSH1 0xA0 DUP3 ADD MSTORE PUSH1 0x6 SLOAD SWAP1 SWAP2 AND PUSH1 0xC0 DUP3 ADD MSTORE PUSH2 0x223B PUSH2 0x5899 JUMP JUMPDEST PUSH2 0x2244 DUP4 PUSH2 0x3F95 JUMP JUMPDEST PUSH2 0x224C PUSH2 0x3FEF JUMP JUMPDEST PUSH1 0x2 PUSH1 0x0 SWAP1 SLOAD SWAP1 PUSH2 0x100 EXP SWAP1 DIV PUSH1 0x1 PUSH1 0x1 PUSH1 0xA0 SHL SUB AND PUSH1 0x1 PUSH1 0x1 PUSH1 0xA0 SHL SUB AND PUSH4 0xFDB11CF PUSH1 0x40 MLOAD DUP2 PUSH4 0xFFFFFFFF AND PUSH1 0xE0 SHL DUP2 MSTORE PUSH1 0x4 ADD PUSH1 0x20 PUSH1 0x40 MLOAD DUP1 DUP4 SUB DUP2 PUSH1 0x0 DUP8 DUP1 EXTCODESIZE ISZERO DUP1 ISZERO PUSH2 0x229C JUMPI PUSH1 0x0 DUP1 REVERT JUMPDEST POP GAS CALL ISZERO DUP1 ISZERO PUSH2 0x22B0 JUMPI RETURNDATASIZE PUSH1 0x0 DUP1 RETURNDATACOPY RETURNDATASIZE PUSH1 0x0 REVERT JUMPDEST POP POP POP POP PUSH1 0x40 MLOAD RETURNDATASIZE PUSH1 0x20 DUP2 LT ISZERO PUSH2 0x22C6 JUMPI PUSH1 0x0 DUP1 REVERT JUMPDEST POP MLOAD PUSH1 0xC0 DUP3 ADD DUP2 SWAP1 MSTORE PUSH2 0x22D8 SWAP1 PUSH2 0x40B3 JUMP JUMPDEST PUSH2 0x22E1 DUP10 PUSH2 0x4102 JUMP JUMPDEST PUSH2 0x22F0 DUP3 PUSH1 0x40 ADD MLOAD CALLER DUP12 PUSH2 0x4141 JUMP JUMPDEST PUSH2 0x22F8 PUSH2 0x1A6D JUMP JUMPDEST PUSH1 0xE0 DUP3 ADD DUP2 SWAP1 MSTORE PUSH1 0x40 DUP1 DUP5 ADD MLOAD DUP2 MLOAD PUSH4 0x70A08231 PUSH1 0xE0 SHL DUP2 MSTORE CALLER PUSH1 0x4 DUP3 ADD MSTORE SWAP2 MLOAD PUSH1 0x1 PUSH1 0x1 PUSH1 0xA0 SHL SUB SWAP1 SWAP2 AND SWAP2 PUSH4 0x70A08231 SWAP2 PUSH1 0x24 DUP1 DUP4 ADD SWAP3 PUSH1 0x20 SWAP3 SWAP2 SWAP1 DUP3 SWAP1 SUB ADD DUP2 DUP7 DUP1 EXTCODESIZE ISZERO DUP1 ISZERO PUSH2 0x234A JUMPI PUSH1 0x0 DUP1 REVERT JUMPDEST POP GAS STATICCALL ISZERO DUP1 ISZERO PUSH2 0x235E JUMPI RETURNDATASIZE PUSH1 0x0 DUP1 RETURNDATACOPY RETURNDATASIZE PUSH1 0x0 REVERT JUMPDEST POP POP POP POP PUSH1 0x40 MLOAD RETURNDATASIZE PUSH1 0x20 DUP2 LT ISZERO PUSH2 0x2374 JUMPI PUSH1 0x0 DUP1 REVERT JUMPDEST POP MLOAD GT ISZERO PUSH2 0x237E JUMPI INVALID JUMPDEST DUP9 DUP2 MSTORE PUSH1 0x80 DUP3 ADD MLOAD PUSH1 0xC0 DUP3 ADD MLOAD PUSH1 0x0 SWAP2 PUSH2 0x2399 SWAP2 DUP12 SWAP1 PUSH2 0x4201 JUMP JUMPDEST ISZERO PUSH2 0x23A5 JUMPI POP DUP8 PUSH2 0x24CF JUMP JUMPDEST DUP3 PUSH1 0x80 ADD MLOAD PUSH1 0x1 PUSH1 0x1 PUSH1 0xA0 SHL SUB AND PUSH4 0x4D622831 PUSH1 0x40 MLOAD DUP2 PUSH4 0xFFFFFFFF AND PUSH1 0xE0 SHL DUP2 MSTORE PUSH1 0x4 ADD PUSH1 0x20 PUSH1 0x40 MLOAD DUP1 DUP4 SUB DUP2 DUP7 DUP1 EXTCODESIZE ISZERO DUP1 ISZERO PUSH2 0x23E2 JUMPI PUSH1 0x0 DUP1 REVERT JUMPDEST POP GAS STATICCALL ISZERO DUP1 ISZERO PUSH2 0x23F6 JUMPI RETURNDATASIZE PUSH1 0x0 DUP1 RETURNDATACOPY RETURNDATASIZE PUSH1 0x0 REVERT JUMPDEST POP POP POP POP PUSH1 0x40 MLOAD RETURNDATASIZE PUSH1 0x20 DUP2 LT ISZERO PUSH2 0x240C JUMPI PUSH1 0x0 DUP1 REVERT JUMPDEST POP MLOAD SWAP1 POP JUMPDEST PUSH1 0x1 PUSH1 0x1 PUSH1 0xA0 SHL SUB DUP2 AND ISZERO DUP1 ISZERO SWAP1 PUSH2 0x243D JUMPI POP PUSH8 0xF43FC2C04EE0000 PUSH2 0x243B DUP3 DUP5 PUSH1 0xC0 ADD MLOAD PUSH2 0x29B1 JUMP JUMPDEST LT JUMPDEST ISZERO PUSH2 0x24CF JUMPI DUP3 PUSH1 0x80 ADD MLOAD PUSH1 0x1 PUSH1 0x1 PUSH1 0xA0 SHL SUB AND PUSH4 0xB72703AC DUP3 PUSH1 0x40 MLOAD DUP3 PUSH4 0xFFFFFFFF AND PUSH1 0xE0 SHL DUP2 MSTORE PUSH1 0x4 ADD DUP1 DUP3 PUSH1 0x1 PUSH1 0x1 PUSH1 0xA0 SHL SUB AND PUSH1 0x1 PUSH1 0x1 PUSH1 0xA0 SHL SUB AND DUP2 MSTORE PUSH1 0x20 ADD SWAP2 POP POP PUSH1 0x20 PUSH1 0x40 MLOAD DUP1 DUP4 SUB DUP2 DUP7 DUP1 EXTCODESIZE ISZERO DUP1 ISZERO PUSH2 0x249C JUMPI PUSH1 0x0 DUP1 REVERT JUMPDEST POP GAS STATICCALL ISZERO DUP1 ISZERO PUSH2 0x24B0 JUMPI RETURNDATASIZE PUSH1 0x0 DUP1 RETURNDATACOPY RETURNDATASIZE PUSH1 0x0 REVERT JUMPDEST POP POP POP POP PUSH1 0x40 MLOAD RETURNDATASIZE PUSH1 0x20 DUP2 LT ISZERO PUSH2 0x24C6 JUMPI PUSH1 0x0 DUP1 REVERT JUMPDEST POP MLOAD SWAP1 POP PUSH2 0x2411 JUMP JUMPDEST DUP5 PUSH2 0x24DA JUMPI PUSH1 0x0 NOT SWAP5 POP JUMPDEST PUSH1 0x1 PUSH1 0x1 PUSH1 0xA0 SHL SUB DUP2 AND ISZERO DUP1 ISZERO SWAP1 PUSH2 0x24F2 JUMPI POP DUP2 MLOAD ISZERO ISZERO JUMPDEST DUP1 ISZERO PUSH2 0x24FE JUMPI POP PUSH1 0x0 DUP6 GT JUMPDEST ISZERO PUSH2 0x2632 JUMPI DUP5 DUP1 PUSH1 0x1 SWAP1 SUB SWAP6 POP POP PUSH1 0x0 DUP4 PUSH1 0x80 ADD MLOAD PUSH1 0x1 PUSH1 0x1 PUSH1 0xA0 SHL SUB AND PUSH4 0xB72703AC DUP4 PUSH1 0x40 MLOAD DUP3 PUSH4 0xFFFFFFFF AND PUSH1 0xE0 SHL DUP2 MSTORE PUSH1 0x4 ADD DUP1 DUP3 PUSH1 0x1 PUSH1 0x1 PUSH1 0xA0 SHL SUB AND PUSH1 0x1 PUSH1 0x1 PUSH1 0xA0 SHL SUB AND DUP2 MSTORE PUSH1 0x20 ADD SWAP2 POP POP PUSH1 0x20 PUSH1 0x40 MLOAD DUP1 DUP4 SUB DUP2 DUP7 DUP1 EXTCODESIZE ISZERO DUP1 ISZERO PUSH2 0x2568 JUMPI PUSH1 0x0 DUP1 REVERT JUMPDEST POP GAS STATICCALL ISZERO DUP1 ISZERO PUSH2 0x257C JUMPI RETURNDATASIZE PUSH1 0x0 DUP1 RETURNDATACOPY RETURNDATASIZE PUSH1 0x0 REVERT JUMPDEST POP POP POP POP PUSH1 0x40 MLOAD RETURNDATASIZE PUSH1 0x20 DUP2 LT ISZERO PUSH2 0x2592 JUMPI PUSH1 0x0 DUP1 REVERT JUMPDEST POP MLOAD DUP5 MLOAD PUSH1 0x20 DUP7 ADD MLOAD SWAP2 SWAP3 POP PUSH2 0x25A8 SWAP2 DUP5 PUSH2 0x2B71 JUMP JUMPDEST PUSH2 0x25B0 PUSH2 0x58DE JUMP JUMPDEST PUSH2 0x25C7 DUP6 DUP5 DUP7 PUSH1 0x0 ADD MLOAD DUP8 PUSH1 0xC0 ADD MLOAD DUP15 DUP15 DUP15 PUSH2 0x4374 JUMP JUMPDEST SWAP1 POP DUP1 PUSH1 0x40 ADD MLOAD ISZERO PUSH2 0x25DA JUMPI POP POP PUSH2 0x2632 JUMP JUMPDEST DUP1 MLOAD PUSH1 0x20 DUP6 ADD MLOAD PUSH2 0x25F0 SWAP2 PUSH4 0xFFFFFFFF PUSH2 0x3CF0 AND JUMP JUMPDEST PUSH1 0x20 DUP1 DUP7 ADD SWAP2 SWAP1 SWAP2 MSTORE DUP2 ADD MLOAD PUSH1 0x40 DUP6 ADD MLOAD PUSH2 0x2610 SWAP2 PUSH4 0xFFFFFFFF PUSH2 0x3CF0 AND JUMP JUMPDEST PUSH1 0x40 DUP6 ADD MSTORE DUP1 MLOAD DUP5 MLOAD PUSH2 0x2628 SWAP2 PUSH4 0xFFFFFFFF PUSH2 0x2C93 AND JUMP JUMPDEST DUP5 MSTORE POP SWAP1 POP PUSH2 0x24DA JUMP JUMPDEST PUSH1 0x0 DUP3 PUSH1 0x40 ADD MLOAD GT PUSH2 0x2675 JUMPI PUSH1 0x40 MLOAD PUSH3 0x461BCD PUSH1 0xE5 SHL DUP2 MSTORE PUSH1 0x4 ADD DUP1 DUP1 PUSH1 0x20 ADD DUP3 DUP2 SUB DUP3 MSTORE PUSH1 0x29 DUP2 MSTORE PUSH1 0x20 ADD DUP1 PUSH2 0x596B PUSH1 0x29 SWAP2 CODECOPY PUSH1 0x40 ADD SWAP2 POP POP PUSH1 0x40 MLOAD DUP1 SWAP2 SUB SWAP1 REVERT JUMPDEST PUSH2 0x268C DUP3 PUSH1 0x40 ADD MLOAD DUP4 PUSH1 0xC0 ADD MLOAD DUP5 PUSH1 0xE0 ADD MLOAD PUSH2 0x4627 JUMP JUMPDEST POP PUSH2 0x269A DUP3 PUSH1 0x40 ADD MLOAD PUSH2 0x46CF JUMP JUMPDEST PUSH1 0x60 DUP4 ADD DUP2 SWAP1 MSTORE PUSH1 0x40 DUP4 ADD MLOAD PUSH2 0x26B1 SWAP2 SWAP1 DUP7 PUSH2 0x46DC JUMP JUMPDEST DUP3 PUSH1 0x0 ADD MLOAD PUSH1 0x1 PUSH1 0x1 PUSH1 0xA0 SHL SUB AND PUSH4 0x64A197F3 DUP5 PUSH1 0x60 ADD MLOAD DUP5 PUSH1 0x60 ADD MLOAD PUSH1 0x40 MLOAD DUP4 PUSH4 0xFFFFFFFF AND PUSH1 0xE0 SHL DUP2 MSTORE PUSH1 0x4 ADD DUP1 DUP4 PUSH1 0x1 PUSH1 0x1 PUSH1 0xA0 SHL SUB AND PUSH1 0x1 PUSH1 0x1 PUSH1 0xA0 SHL SUB AND DUP2 MSTORE PUSH1 0x20 ADD DUP3 DUP2 MSTORE PUSH1 0x20 ADD SWAP3 POP POP POP PUSH1 0x0 PUSH1 0x40 MLOAD DUP1 DUP4 SUB DUP2 PUSH1 0x0 DUP8 DUP1 EXTCODESIZE ISZERO DUP1 ISZERO PUSH2 0x271D JUMPI PUSH1 0x0 DUP1 REVERT JUMPDEST POP GAS CALL ISZERO DUP1 ISZERO PUSH2 0x2731 JUMPI RETURNDATASIZE PUSH1 0x0 DUP1 RETURNDATACOPY RETURNDATASIZE PUSH1 0x0 REVERT JUMPDEST POP POP POP POP DUP3 PUSH1 0x60 ADD MLOAD PUSH1 0x1 PUSH1 0x1 PUSH1 0xA0 SHL SUB AND PUSH4 0x1E3E2A1A DUP4 PUSH1 0x60 ADD MLOAD PUSH1 0x40 MLOAD DUP3 PUSH4 0xFFFFFFFF AND PUSH1 0xE0 SHL DUP2 MSTORE PUSH1 0x4 ADD DUP1 DUP3 DUP2 MSTORE PUSH1 0x20 ADD SWAP2 POP POP PUSH1 0x0 PUSH1 0x40 MLOAD DUP1 DUP4 SUB DUP2 PUSH1 0x0 DUP8 DUP1 EXTCODESIZE ISZERO DUP1 ISZERO PUSH2 0x2783 JUMPI PUSH1 0x0 DUP1 REVERT JUMPDEST POP GAS CALL ISZERO DUP1 ISZERO PUSH2 0x2797 JUMPI RETURNDATASIZE PUSH1 0x0 DUP1 RETURNDATACOPY RETURNDATASIZE PUSH1 0x0 REVERT JUMPDEST POP POP POP POP PUSH1 0x60 DUP3 ADD MLOAD PUSH1 0x40 DUP4 ADD MLOAD PUSH2 0x27AE SWAP2 PUSH2 0x2C93 JUMP JUMPDEST DUP3 PUSH1 0x80 ADD DUP2 DUP2 MSTORE POP POP PUSH32 0x43A3F4082A4DBC33D78E317D2497D3A730BC7FC3574159DCEA1056E62E5D9AD8 DUP11 DUP4 PUSH1 0x20 ADD MLOAD DUP5 PUSH1 0x40 ADD MLOAD DUP6 PUSH1 0x60 ADD MLOAD PUSH1 0x40 MLOAD DUP1 DUP6 DUP2 MSTORE PUSH1 0x20 ADD DUP5 DUP2 MSTORE PUSH1 0x20 ADD DUP4 DUP2 MSTORE PUSH1 0x20 ADD DUP3 DUP2 MSTORE PUSH1 0x20 ADD SWAP5 POP POP POP POP POP PUSH1 0x40 MLOAD DUP1 SWAP2 SUB SWAP1 LOG1 DUP3 PUSH1 0x40 ADD MLOAD PUSH1 0x1 PUSH1 0x1 PUSH1 0xA0 SHL SUB AND PUSH4 0x9DC29FAC CALLER DUP5 PUSH1 0x20 ADD MLOAD PUSH1 0x40 MLOAD DUP4 PUSH4 0xFFFFFFFF AND PUSH1 0xE0 SHL DUP2 MSTORE PUSH1 0x4 ADD DUP1 DUP4 PUSH1 0x1 PUSH1 0x1 PUSH1 0xA0 SHL SUB AND PUSH1 0x1 PUSH1 0x1 PUSH1 0xA0 SHL SUB AND DUP2 MSTORE PUSH1 0x20 ADD DUP3 DUP2 MSTORE PUSH1 0x20 ADD SWAP3 POP POP POP PUSH1 0x0 PUSH1 0x40 MLOAD DUP1 DUP4 SUB DUP2 PUSH1 0x0 DUP8 DUP1 EXTCODESIZE ISZERO DUP1 ISZERO PUSH2 0x287A JUMPI PUSH1 0x0 DUP1 REVERT JUMPDEST POP GAS CALL ISZERO DUP1 ISZERO PUSH2 0x288E JUMPI RETURNDATASIZE PUSH1 0x0 DUP1 RETURNDATACOPY RETURNDATASIZE PUSH1 0x0 REVERT JUMPDEST POP POP POP POP DUP3 PUSH1 0x0 ADD MLOAD PUSH1 0x1 PUSH1 0x1 PUSH1 0xA0 SHL SUB AND PUSH4 0x38D995A8 DUP4 PUSH1 0x20 ADD MLOAD PUSH1 0x40 MLOAD DUP3 PUSH4 0xFFFFFFFF AND PUSH1 0xE0 SHL DUP2 MSTORE PUSH1 0x4 ADD DUP1 DUP3 DUP2 MSTORE PUSH1 0x20 ADD SWAP2 POP POP PUSH1 0x0 PUSH1 0x40 MLOAD DUP1 DUP4 SUB DUP2 PUSH1 0x0 DUP8 DUP1 EXTCODESIZE ISZERO DUP1 ISZERO PUSH2 0x28E0 JUMPI PUSH1 0x0 DUP1 REVERT JUMPDEST POP GAS CALL ISZERO DUP1 ISZERO PUSH2 0x28F4 JUMPI RETURNDATASIZE PUSH1 0x0 DUP1 RETURNDATACOPY RETURNDATASIZE PUSH1 0x0 REVERT JUMPDEST POP POP DUP5 MLOAD PUSH1 0x80 DUP6 ADD MLOAD PUSH1 0x40 DUP1 MLOAD PUSH4 0x64A197F3 PUSH1 0xE0 SHL DUP2 MSTORE CALLER PUSH1 0x4 DUP3 ADD MSTORE PUSH1 0x24 DUP2 ADD SWAP3 SWAP1 SWAP3 MSTORE MLOAD PUSH1 0x1 PUSH1 0x1 PUSH1 0xA0 SHL SUB SWAP1 SWAP3 AND SWAP4 POP PUSH4 0x64A197F3 SWAP3 POP PUSH1 0x44 DUP1 DUP3 ADD SWAP3 PUSH1 0x0 SWAP3 SWAP1 SWAP2 SWAP1 DUP3 SWAP1 SUB ADD DUP2 DUP4 DUP8 DUP1 EXTCODESIZE ISZERO DUP1 ISZERO PUSH2 0x294F JUMPI PUSH1 0x0 DUP1 REVERT JUMPDEST POP GAS CALL ISZERO DUP1 ISZERO PUSH2 0x2963 JUMPI RETURNDATASIZE PUSH1 0x0 DUP1 RETURNDATACOPY RETURNDATASIZE PUSH1 0x0 REVERT JUMPDEST POP POP POP POP POP POP POP POP POP POP POP POP POP POP JUMP JUMPDEST PUSH1 0xF SLOAD DUP2 JUMP JUMPDEST PUSH3 0x127500 DUP2 JUMP JUMPDEST PUSH1 0x0 PUSH2 0x1292 PUSH2 0x298D PUSH2 0x375C JUMP JUMPDEST PUSH2 0x3605 JUMP JUMPDEST PUSH8 0xDDD4B8C6C7D70D8 DUP2 JUMP JUMPDEST PUSH2 0x29A6 PUSH2 0x2B26 JUMP JUMPDEST PUSH2 0xDC8 DUP2 PUSH1 0x2 PUSH2 0x4751 JUMP JUMPDEST PUSH1 0x0 DUP1 PUSH1 0x0 PUSH2 0x29BF DUP6 PUSH2 0x3EAE JUMP JUMPDEST SWAP2 POP SWAP2 POP PUSH1 0x0 PUSH2 0x1474 DUP4 DUP4 DUP8 PUSH2 0x486A JUMP JUMPDEST PUSH1 0xD SLOAD DUP2 JUMP JUMPDEST PUSH1 0x0 PUSH2 0x29E0 PUSH2 0x2B26 JUMP JUMPDEST PUSH1 0x1 PUSH1 0x1 PUSH1 0xA0 SHL SUB DUP4 AND PUSH1 0x0 SWAP1 DUP2 MSTORE PUSH1 0xE PUSH1 0x20 MSTORE PUSH1 0x40 DUP2 KECCAK256 PUSH1 0x1 ADD SLOAD PUSH2 0x19BF SWAP1 DUP5 PUSH4 0xFFFFFFFF PUSH2 0x2C93 AND JUMP JUMPDEST PUSH1 0x0 PUSH2 0xE1D PUSH2 0x2A19 PUSH2 0x2980 JUMP JUMPDEST DUP4 PUSH2 0x489A JUMP JUMPDEST PUSH1 0x1 PUSH1 0x1 PUSH1 0xA0 SHL SUB AND PUSH1 0x0 SWAP1 DUP2 MSTORE PUSH1 0xE PUSH1 0x20 MSTORE PUSH1 0x40 SWAP1 KECCAK256 SLOAD SWAP1 JUMP JUMPDEST PUSH1 0x0 PUSH1 0x15 DUP3 DUP2 SLOAD DUP2 LT PUSH2 0x2A49 JUMPI INVALID JUMPDEST PUSH1 0x0 SWAP2 DUP3 MSTORE PUSH1 0x20 SWAP1 SWAP2 KECCAK256 ADD SLOAD PUSH1 0x1 PUSH1 0x1 PUSH1 0xA0 SHL SUB AND SWAP3 SWAP2 POP POP JUMP JUMPDEST PUSH1 0x13 SLOAD DUP2 JUMP JUMPDEST PUSH1 0x0 PUSH1 0x1 PUSH1 0x1 PUSH1 0x1 PUSH1 0xA0 SHL SUB DUP4 AND PUSH1 0x0 SWAP1 DUP2 MSTORE PUSH1 0xE PUSH1 0x20 MSTORE PUSH1 0x40 SWAP1 KECCAK256 PUSH1 0x3 ADD SLOAD PUSH1 0xFF AND PUSH1 0x4 DUP2 GT ISZERO PUSH2 0x2A98 JUMPI INVALID JUMPDEST EQ PUSH2 0x2AA5 JUMPI POP PUSH1 0x0 PUSH2 0xE42 JUMP JUMPDEST POP PUSH1 0x12 SLOAD PUSH1 0x1 PUSH1 0x1 PUSH1 0xA0 SHL SUB DUP3 AND PUSH1 0x0 SWAP1 DUP2 MSTORE PUSH1 0x14 PUSH1 0x20 MSTORE PUSH1 0x40 SWAP1 KECCAK256 SLOAD LT SWAP2 SWAP1 POP JUMP JUMPDEST PUSH1 0x1 PUSH1 0x1 PUSH1 0xA0 SHL SUB DUP2 AND PUSH1 0x0 SWAP1 DUP2 MSTORE PUSH1 0x14 PUSH1 0x20 MSTORE PUSH1 0x40 DUP2 KECCAK256 PUSH1 0x1 ADD SLOAD PUSH1 0x13 SLOAD DUP3 SWAP1 PUSH2 0x13E6 SWAP1 DUP4 PUSH4 0xFFFFFFFF PUSH2 0x2C93 AND JUMP JUMPDEST PUSH1 0x0 PUSH2 0x1292 PUSH1 0xC SLOAD PUSH2 0x3CC9 JUMP JUMPDEST PUSH1 0x18 SLOAD PUSH1 0x1 PUSH1 0x1 PUSH1 0xA0 SHL SUB AND DUP2 JUMP JUMPDEST PUSH2 0x2B1D PUSH2 0x2B26 JUMP JUMPDEST PUSH2 0xDC8 DUP2 PUSH2 0x48F9 JUMP JUMPDEST PUSH1 0x4 SLOAD PUSH1 0x1 PUSH1 0x1 PUSH1 0xA0 SHL SUB AND CALLER EQ PUSH2 0x2B6F JUMPI PUSH1 0x40 MLOAD PUSH3 0x461BCD PUSH1 0xE5 SHL DUP2 MSTORE PUSH1 0x4 ADD DUP1 DUP1 PUSH1 0x20 ADD DUP3 DUP2 SUB DUP3 MSTORE PUSH1 0x3B DUP2 MSTORE PUSH1 0x20 ADD DUP1 PUSH2 0x5A8D PUSH1 0x3B SWAP2 CODECOPY PUSH1 0x40 ADD SWAP2 POP POP PUSH1 0x40 MLOAD DUP1 SWAP2 SUB SWAP1 REVERT JUMPDEST JUMP JUMPDEST PUSH2 0x2B7A DUP2 PUSH2 0x2A6A JUMP JUMPDEST ISZERO PUSH2 0x2C8E JUMPI PUSH2 0x2B88 DUP2 PUSH2 0x363B JUMP JUMPDEST PUSH1 0x0 PUSH2 0x2B93 DUP3 PUSH2 0x13B8 JUMP JUMPDEST SWAP1 POP PUSH1 0x0 PUSH2 0x2BA0 DUP4 PUSH2 0x2AC8 JUMP JUMPDEST PUSH1 0x1 PUSH1 0x1 PUSH1 0xA0 SHL SUB DUP5 AND PUSH1 0x0 SWAP1 DUP2 MSTORE PUSH1 0xE PUSH1 0x20 MSTORE PUSH1 0x40 SWAP1 KECCAK256 PUSH1 0x1 ADD SLOAD SWAP1 SWAP2 POP PUSH2 0x2BCF SWAP1 DUP4 PUSH4 0xFFFFFFFF PUSH2 0x3CF0 AND JUMP JUMPDEST PUSH1 0x1 PUSH1 0x1 PUSH1 0xA0 SHL SUB DUP5 AND PUSH1 0x0 SWAP1 DUP2 MSTORE PUSH1 0xE PUSH1 0x20 MSTORE PUSH1 0x40 SWAP1 KECCAK256 PUSH1 0x1 DUP2 ADD SWAP2 SWAP1 SWAP2 SSTORE SLOAD PUSH2 0x2C00 SWAP1 DUP3 PUSH4 0xFFFFFFFF PUSH2 0x3CF0 AND JUMP JUMPDEST PUSH1 0x1 PUSH1 0x1 PUSH1 0xA0 SHL SUB DUP5 AND PUSH1 0x0 SWAP1 DUP2 MSTORE PUSH1 0xE PUSH1 0x20 MSTORE PUSH1 0x40 SWAP1 KECCAK256 SSTORE PUSH2 0x2C22 DUP4 PUSH2 0x3E43 JUMP JUMPDEST PUSH2 0x2C2E DUP6 DUP6 DUP4 DUP6 PUSH2 0x4949 JUMP JUMPDEST PUSH1 0x1 PUSH1 0x1 PUSH1 0xA0 SHL SUB DUP4 AND PUSH1 0x0 DUP2 DUP2 MSTORE PUSH1 0xE PUSH1 0x20 SWAP1 DUP2 MSTORE PUSH1 0x40 DUP1 DUP4 KECCAK256 DUP1 SLOAD PUSH1 0x1 DUP3 ADD SLOAD PUSH1 0x2 SWAP1 SWAP3 ADD SLOAD DUP4 MLOAD SWAP2 DUP3 MSTORE SWAP4 DUP2 ADD SWAP2 SWAP1 SWAP2 MSTORE DUP1 DUP3 ADD SWAP3 SWAP1 SWAP3 MSTORE PUSH1 0x60 DUP3 ADD SWAP3 SWAP1 SWAP3 MSTORE SWAP1 MLOAD PUSH1 0x0 DUP1 MLOAD PUSH1 0x20 PUSH2 0x5A6D DUP4 CODECOPY DUP2 MLOAD SWAP2 MSTORE SWAP2 DUP2 SWAP1 SUB PUSH1 0x80 ADD SWAP1 LOG2 POP POP JUMPDEST POP POP POP JUMP JUMPDEST PUSH1 0x0 PUSH2 0x2CD5 DUP4 DUP4 PUSH1 0x40 MLOAD DUP1 PUSH1 0x40 ADD PUSH1 0x40 MSTORE DUP1 PUSH1 0x1E DUP2 MSTORE PUSH1 0x20 ADD PUSH32 0x536166654D6174683A207375627472616374696F6E206F766572666C6F770000 DUP2 MSTORE POP PUSH2 0x4A4B JUMP JUMPDEST SWAP4 SWAP3 POP POP POP JUMP JUMPDEST PUSH1 0x15 DUP1 SLOAD PUSH1 0x1 DUP1 DUP3 ADD DUP4 SSTORE PUSH1 0x0 DUP4 DUP2 MSTORE PUSH32 0x55F448FDEA98C4D29EB340757EF0A66CD03DBB9538908A6A81D96026B71EC475 SWAP1 SWAP3 ADD DUP1 SLOAD PUSH1 0x1 PUSH1 0x1 PUSH1 0xA0 SHL SUB NOT AND PUSH1 0x1 PUSH1 0x1 PUSH1 0xA0 SHL SUB DUP7 AND OR SWAP1 SSTORE SWAP2 SLOAD SWAP1 SWAP2 PUSH2 0x2D37 SWAP2 SWAP1 PUSH2 0x2C93 JUMP JUMPDEST PUSH1 0x1 PUSH1 0x1 PUSH1 0xA0 SHL SUB SWAP3 SWAP1 SWAP3 AND PUSH1 0x0 SWAP1 DUP2 MSTORE PUSH1 0xE PUSH1 0x20 MSTORE PUSH1 0x40 SWAP1 KECCAK256 PUSH1 0x3 ADD DUP1 SLOAD PUSH2 0x100 PUSH1 0x1 PUSH1 0x88 SHL SUB NOT AND PUSH2 0x100 PUSH1 0x1 PUSH1 0x1 PUSH1 0x80 SHL SUB DUP6 AND MUL OR SWAP1 SSTORE POP SWAP1 JUMP JUMPDEST PUSH1 0x1 PUSH1 0x1 PUSH1 0xA0 SHL SUB DUP2 AND PUSH1 0x0 SWAP1 DUP2 MSTORE PUSH1 0xE PUSH1 0x20 MSTORE PUSH1 0x40 DUP2 KECCAK256 PUSH1 0x1 ADD SLOAD DUP2 SWAP1 PUSH2 0x2D9D SWAP1 PUSH2 0x4AE2 JUMP JUMPDEST PUSH1 0x1 PUSH1 0x1 PUSH1 0xA0 SHL SUB DUP5 AND PUSH1 0x0 SWAP1 DUP2 MSTORE PUSH1 0xE PUSH1 0x20 MSTORE PUSH1 0x40 SWAP1 KECCAK256 PUSH1 0x2 ADD DUP1 SLOAD SWAP1 DUP3 SWAP1 SSTORE PUSH1 0xF SLOAD SWAP2 SWAP3 POP SWAP1 PUSH2 0x2DE7 SWAP1 DUP4 SWAP1 PUSH2 0x2DDB SWAP1 DUP5 PUSH4 0xFFFFFFFF PUSH2 0x2C93 AND JUMP JUMPDEST SWAP1 PUSH4 0xFFFFFFFF PUSH2 0x3CF0 AND JUMP JUMPDEST PUSH1 0xF DUP2 SWAP1 SSTORE PUSH1 0x40 DUP1 MLOAD SWAP2 DUP3 MSTORE MLOAD PUSH32 0x6BAC5E0EB3C44EB03A60AB11EC3A2C051771616AECADBCFFF2630AABAE520382 SWAP2 DUP2 SWAP1 SUB PUSH1 0x20 ADD SWAP1 LOG1 POP SWAP3 SWAP2 POP POP JUMP JUMPDEST PUSH1 0x0 DUP1 PUSH2 0x2E31 DUP4 PUSH2 0x3F69 JUMP JUMPDEST PUSH8 0x14D1120D7B160000 GT SWAP4 SWAP3 POP POP POP JUMP JUMPDEST PUSH2 0x2E4A PUSH2 0x5811 JUMP JUMPDEST PUSH2 0x2E52 PUSH2 0x5901 JUMP JUMPDEST PUSH2 0x2E5A PUSH2 0x5811 JUMP JUMPDEST DUP5 DUP3 MSTORE PUSH1 0x0 PUSH1 0x80 DUP4 ADD MSTORE PUSH2 0x2E6C PUSH2 0x1A6D JUMP JUMPDEST PUSH1 0xA0 DUP4 ADD MSTORE PUSH2 0x2E79 PUSH2 0x1F93 JUMP JUMPDEST PUSH1 0xC0 DUP4 ADD MSTORE PUSH1 0x0 PUSH1 0x20 DUP4 ADD MSTORE JUMPDEST DUP4 MLOAD DUP3 PUSH1 0x20 ADD MLOAD LT ISZERO PUSH2 0x3067 JUMPI DUP4 DUP3 PUSH1 0x20 ADD MLOAD DUP2 MLOAD DUP2 LT PUSH2 0x2EA3 JUMPI INVALID JUMPDEST PUSH1 0x20 SWAP1 DUP2 MUL SWAP2 SWAP1 SWAP2 ADD DUP2 ADD MLOAD PUSH1 0x1 PUSH1 0x1 PUSH1 0xA0 SHL SUB AND PUSH1 0x60 DUP5 ADD DUP2 SWAP1 MSTORE PUSH1 0x0 SWAP1 DUP2 MSTORE PUSH1 0xE SWAP1 SWAP2 MSTORE PUSH1 0x40 SWAP1 KECCAK256 PUSH1 0x3 ADD SLOAD PUSH1 0x1 SWAP1 PUSH1 0xFF AND PUSH1 0x4 DUP2 GT ISZERO PUSH2 0x2EE2 JUMPI INVALID JUMPDEST EQ PUSH2 0x2EEC JUMPI PUSH2 0x3057 JUMP JUMPDEST PUSH2 0x2EFA DUP3 PUSH1 0x60 ADD MLOAD DUP8 PUSH2 0x29B1 JUMP JUMPDEST PUSH1 0x40 DUP4 ADD MSTORE PUSH1 0x80 DUP3 ADD MLOAD PUSH2 0x2FF9 JUMPI PUSH8 0xF43FC2C04EE0000 DUP3 PUSH1 0x40 ADD MLOAD LT ISZERO DUP1 ISZERO PUSH2 0x2F23 JUMPI POP DUP2 MLOAD ISZERO JUMPDEST ISZERO PUSH2 0x2F2D JUMPI PUSH2 0x3057 JUMP JUMPDEST PUSH1 0x0 PUSH2 0x2F42 DUP4 PUSH1 0xC0 ADD MLOAD DUP5 PUSH1 0xA0 ADD MLOAD DUP10 PUSH2 0x486A JUMP JUMPDEST SWAP1 POP PUSH2 0x2F5F DUP10 DUP10 DUP6 PUSH1 0x60 ADD MLOAD DUP7 PUSH1 0x40 ADD MLOAD DUP8 PUSH1 0x0 ADD MLOAD DUP7 DUP14 PUSH2 0x4B1E JUMP JUMPDEST PUSH1 0x80 DUP2 ADD MLOAD DUP5 MLOAD SWAP2 SWAP4 POP PUSH2 0x2F79 SWAP2 SWAP1 PUSH4 0xFFFFFFFF PUSH2 0x2C93 AND JUMP JUMPDEST DUP4 MSTORE PUSH1 0x80 DUP3 ADD MLOAD PUSH1 0xA0 DUP5 ADD MLOAD PUSH2 0x2F94 SWAP2 PUSH4 0xFFFFFFFF PUSH2 0x2C93 AND JUMP JUMPDEST DUP4 PUSH1 0xA0 ADD DUP2 DUP2 MSTORE POP POP PUSH2 0x2FC9 DUP3 PUSH2 0x100 ADD MLOAD PUSH2 0x119F DUP5 PUSH1 0x40 ADD MLOAD PUSH2 0x119F DUP7 PUSH1 0xA0 ADD MLOAD DUP9 PUSH1 0xC0 ADD MLOAD PUSH2 0x2C93 SWAP1 SWAP2 SWAP1 PUSH4 0xFFFFFFFF AND JUMP JUMPDEST PUSH1 0xC0 DUP5 ADD MSTORE PUSH2 0x2FD8 DUP5 DUP4 PUSH2 0x4E75 JUMP JUMPDEST SWAP4 POP PUSH2 0x2FED DUP4 PUSH1 0xC0 ADD MLOAD DUP5 PUSH1 0xA0 ADD MLOAD DUP10 PUSH2 0x4F8C JUMP JUMPDEST ISZERO PUSH1 0x80 DUP5 ADD MSTORE POP PUSH2 0x3057 JUMP JUMPDEST DUP2 PUSH1 0x80 ADD MLOAD DUP1 ISZERO PUSH2 0x3015 JUMPI POP PUSH8 0xF43FC2C04EE0000 DUP3 PUSH1 0x40 ADD MLOAD LT JUMPDEST ISZERO PUSH2 0x3057 JUMPI PUSH2 0x302E DUP9 DUP9 DUP5 PUSH1 0x60 ADD MLOAD DUP6 PUSH1 0x0 ADD MLOAD PUSH2 0x4FAD JUMP JUMPDEST PUSH1 0x80 DUP2 ADD MLOAD DUP4 MLOAD SWAP2 SWAP3 POP PUSH2 0x3048 SWAP2 SWAP1 PUSH4 0xFFFFFFFF PUSH2 0x2C93 AND JUMP JUMPDEST DUP3 MSTORE PUSH2 0x3054 DUP4 DUP3 PUSH2 0x4E75 JUMP JUMPDEST SWAP3 POP JUMPDEST PUSH1 0x20 DUP3 ADD DUP1 MLOAD PUSH1 0x1 ADD SWAP1 MSTORE PUSH2 0x2E86 JUMP JUMPDEST POP POP SWAP6 SWAP5 POP POP POP POP POP JUMP JUMPDEST PUSH2 0x307A PUSH2 0x5811 JUMP JUMPDEST PUSH2 0x3082 PUSH2 0x5901 JUMP JUMPDEST PUSH2 0x308A PUSH2 0x5811 JUMP JUMPDEST DUP5 DUP3 MSTORE PUSH1 0x0 PUSH1 0x20 DUP4 ADD MSTORE JUMPDEST DUP4 MLOAD DUP3 PUSH1 0x20 ADD MLOAD LT ISZERO PUSH2 0x3067 JUMPI DUP4 DUP3 PUSH1 0x20 ADD MLOAD DUP2 MLOAD DUP2 LT PUSH2 0x30B2 JUMPI INVALID JUMPDEST PUSH1 0x20 SWAP1 DUP2 MUL SWAP2 SWAP1 SWAP2 ADD ADD MLOAD PUSH1 0x1 PUSH1 0x1 PUSH1 0xA0 SHL SUB AND PUSH1 0x60 DUP4 ADD DUP2 SWAP1 MSTORE PUSH2 0x30D7 SWAP1 DUP8 PUSH2 0x29B1 JUMP JUMPDEST PUSH1 0x40 DUP4 ADD DUP2 SWAP1 MSTORE PUSH8 0xF43FC2C04EE0000 GT ISZERO PUSH2 0x312A JUMPI PUSH2 0x3101 DUP9 DUP9 DUP5 PUSH1 0x60 ADD MLOAD DUP6 PUSH1 0x0 ADD MLOAD PUSH2 0x4FAD JUMP JUMPDEST PUSH1 0x80 DUP2 ADD MLOAD DUP4 MLOAD SWAP2 SWAP3 POP PUSH2 0x311B SWAP2 SWAP1 PUSH4 0xFFFFFFFF PUSH2 0x2C93 AND JUMP JUMPDEST DUP3 MSTORE PUSH2 0x3127 DUP4 DUP3 PUSH2 0x4E75 JUMP JUMPDEST SWAP3 POP JUMPDEST PUSH1 0x20 DUP3 ADD DUP1 MLOAD PUSH1 0x1 ADD SWAP1 MSTORE PUSH2 0x3095 JUMP JUMPDEST DUP2 PUSH2 0x3144 JUMPI PUSH2 0x33B5 JUMP JUMPDEST PUSH1 0x16 SLOAD PUSH1 0x0 SWAP1 PUSH2 0x3166 SWAP1 PUSH2 0x2DDB DUP5 PUSH8 0xDE0B6B3A7640000 PUSH4 0xFFFFFFFF PUSH2 0x36C1 AND JUMP JUMPDEST SWAP1 POP PUSH1 0x0 PUSH2 0x318B PUSH1 0x17 SLOAD PUSH2 0x2DDB PUSH8 0xDE0B6B3A7640000 DUP8 PUSH2 0x36C1 SWAP1 SWAP2 SWAP1 PUSH4 0xFFFFFFFF AND JUMP JUMPDEST SWAP1 POP PUSH1 0x0 PUSH2 0x31A4 PUSH1 0xF SLOAD DUP5 PUSH2 0x371A SWAP1 SWAP2 SWAP1 PUSH4 0xFFFFFFFF AND JUMP JUMPDEST SWAP1 POP PUSH1 0x0 PUSH2 0x31BD PUSH1 0xF SLOAD DUP5 PUSH2 0x371A SWAP1 SWAP2 SWAP1 PUSH4 0xFFFFFFFF AND JUMP JUMPDEST SWAP1 POP PUSH2 0x31E4 PUSH2 0x31D7 PUSH1 0xF SLOAD DUP5 PUSH2 0x36C1 SWAP1 SWAP2 SWAP1 PUSH4 0xFFFFFFFF AND JUMP JUMPDEST DUP6 SWAP1 PUSH4 0xFFFFFFFF PUSH2 0x2C93 AND JUMP JUMPDEST PUSH1 0x16 SSTORE PUSH1 0xF SLOAD PUSH2 0x320C SWAP1 PUSH2 0x31FF SWAP1 DUP4 SWAP1 PUSH4 0xFFFFFFFF PUSH2 0x36C1 AND JUMP JUMPDEST DUP5 SWAP1 PUSH4 0xFFFFFFFF PUSH2 0x2C93 AND JUMP JUMPDEST PUSH1 0x17 SSTORE PUSH1 0x12 SLOAD PUSH2 0x3222 SWAP1 DUP4 PUSH4 0xFFFFFFFF PUSH2 0x3CF0 AND JUMP JUMPDEST PUSH1 0x12 SSTORE PUSH1 0x13 SLOAD PUSH2 0x3238 SWAP1 DUP3 PUSH4 0xFFFFFFFF PUSH2 0x3CF0 AND JUMP JUMPDEST PUSH1 0x13 DUP2 SWAP1 SSTORE PUSH1 0x12 SLOAD PUSH1 0x40 DUP1 MLOAD SWAP2 DUP3 MSTORE PUSH1 0x20 DUP3 ADD SWAP3 SWAP1 SWAP3 MSTORE DUP2 MLOAD PUSH32 0x9F8BC8AB0DAF5BCEEF75ECFD2085D1FCC6548C657EA970D9A23A60610D0737E3 SWAP3 SWAP2 DUP2 SWAP1 SUB SWAP1 SWAP2 ADD SWAP1 LOG1 DUP8 PUSH1 0x1 PUSH1 0x1 PUSH1 0xA0 SHL SUB AND PUSH4 0x38D995A8 DUP8 PUSH1 0x40 MLOAD DUP3 PUSH4 0xFFFFFFFF AND PUSH1 0xE0 SHL DUP2 MSTORE PUSH1 0x4 ADD DUP1 DUP3 DUP2 MSTORE PUSH1 0x20 ADD SWAP2 POP POP PUSH1 0x0 PUSH1 0x40 MLOAD DUP1 DUP4 SUB DUP2 PUSH1 0x0 DUP8 DUP1 EXTCODESIZE ISZERO DUP1 ISZERO PUSH2 0x32C2 JUMPI PUSH1 0x0 DUP1 REVERT JUMPDEST POP GAS CALL ISZERO DUP1 ISZERO PUSH2 0x32D6 JUMPI RETURNDATASIZE PUSH1 0x0 DUP1 RETURNDATACOPY RETURNDATASIZE PUSH1 0x0 REVERT JUMPDEST POP POP POP POP DUP7 PUSH1 0x1 PUSH1 0x1 PUSH1 0xA0 SHL SUB AND PUSH4 0xCFB9329A DUP8 PUSH1 0x40 MLOAD DUP3 PUSH4 0xFFFFFFFF AND PUSH1 0xE0 SHL DUP2 MSTORE PUSH1 0x4 ADD DUP1 DUP3 DUP2 MSTORE PUSH1 0x20 ADD SWAP2 POP POP PUSH1 0x0 PUSH1 0x40 MLOAD DUP1 DUP4 SUB DUP2 PUSH1 0x0 DUP8 DUP1 EXTCODESIZE ISZERO DUP1 ISZERO PUSH2 0x3320 JUMPI PUSH1 0x0 DUP1 REVERT JUMPDEST POP GAS CALL ISZERO DUP1 ISZERO PUSH2 0x3334 JUMPI RETURNDATASIZE PUSH1 0x0 DUP1 RETURNDATACOPY RETURNDATASIZE PUSH1 0x0 REVERT JUMPDEST POP POP POP POP DUP8 PUSH1 0x1 PUSH1 0x1 PUSH1 0xA0 SHL SUB AND PUSH4 0x64A197F3 DUP9 DUP8 PUSH1 0x40 MLOAD DUP4 PUSH4 0xFFFFFFFF AND PUSH1 0xE0 SHL DUP2 MSTORE PUSH1 0x4 ADD DUP1 DUP4 PUSH1 0x1 PUSH1 0x1 PUSH1 0xA0 SHL SUB AND PUSH1 0x1 PUSH1 0x1 PUSH1 0xA0 SHL SUB AND DUP2 MSTORE PUSH1 0x20 ADD DUP3 DUP2 MSTORE PUSH1 0x20 ADD SWAP3 POP POP POP PUSH1 0x0 PUSH1 0x40 MLOAD DUP1 DUP4 SUB DUP2 PUSH1 0x0 DUP8 DUP1 EXTCODESIZE ISZERO DUP1 ISZERO PUSH2 0x3398 JUMPI PUSH1 0x0 DUP1 REVERT JUMPDEST POP GAS CALL ISZERO DUP1 ISZERO PUSH2 0x33AC JUMPI RETURNDATASIZE PUSH1 0x0 DUP1 RETURNDATACOPY RETURNDATASIZE PUSH1 0x0 REVERT JUMPDEST POP POP POP POP POP POP POP POP JUMPDEST POP POP POP POP JUMP JUMPDEST PUSH1 0xF SLOAD PUSH1 0x10 DUP2 SWAP1 SSTORE POP PUSH1 0x0 DUP3 PUSH1 0x1 PUSH1 0x1 PUSH1 0xA0 SHL SUB AND PUSH4 0x14F6C3BE PUSH1 0x40 MLOAD DUP2 PUSH4 0xFFFFFFFF AND PUSH1 0xE0 SHL DUP2 MSTORE PUSH1 0x4 ADD PUSH1 0x20 PUSH1 0x40 MLOAD DUP1 DUP4 SUB DUP2 DUP7 DUP1 EXTCODESIZE ISZERO DUP1 ISZERO PUSH2 0x33FF JUMPI PUSH1 0x0 DUP1 REVERT JUMPDEST POP GAS STATICCALL ISZERO DUP1 ISZERO PUSH2 0x3413 JUMPI RETURNDATASIZE PUSH1 0x0 DUP1 RETURNDATACOPY RETURNDATASIZE PUSH1 0x0 REVERT JUMPDEST POP POP POP POP PUSH1 0x40 MLOAD RETURNDATASIZE PUSH1 0x20 DUP2 LT ISZERO PUSH2 0x3429 JUMPI PUSH1 0x0 DUP1 REVERT JUMPDEST POP MLOAD PUSH1 0x1 SLOAD PUSH1 0x40 DUP1 MLOAD PUSH4 0xA7B61DF PUSH1 0xE1 SHL DUP2 MSTORE SWAP1 MLOAD SWAP3 SWAP4 POP PUSH1 0x0 SWAP3 PUSH1 0x1 PUSH1 0x1 PUSH1 0xA0 SHL SUB SWAP1 SWAP3 AND SWAP2 PUSH4 0x14F6C3BE SWAP2 PUSH1 0x4 DUP1 DUP3 ADD SWAP3 PUSH1 0x20 SWAP3 SWAP1 SWAP2 SWAP1 DUP3 SWAP1 SUB ADD DUP2 DUP7 DUP1 EXTCODESIZE ISZERO DUP1 ISZERO PUSH2 0x3476 JUMPI PUSH1 0x0 DUP1 REVERT JUMPDEST POP GAS STATICCALL ISZERO DUP1 ISZERO PUSH2 0x348A JUMPI RETURNDATASIZE PUSH1 0x0 DUP1 RETURNDATACOPY RETURNDATASIZE PUSH1 0x0 REVERT JUMPDEST POP POP POP POP PUSH1 0x40 MLOAD RETURNDATASIZE PUSH1 0x20 DUP2 LT ISZERO PUSH2 0x34A0 JUMPI PUSH1 0x0 DUP1 REVERT JUMPDEST POP MLOAD SWAP1 POP PUSH2 0x34B8 DUP2 PUSH2 0x2DDB DUP5 DUP7 PUSH4 0xFFFFFFFF PUSH2 0x2C93 AND JUMP JUMPDEST PUSH1 0x11 DUP2 SWAP1 SSTORE PUSH1 0x10 SLOAD PUSH1 0x40 DUP1 MLOAD SWAP2 DUP3 MSTORE PUSH1 0x20 DUP3 ADD SWAP3 SWAP1 SWAP3 MSTORE DUP2 MLOAD PUSH32 0x51BF4C63EC3CBA9D03D43238ABBDD979DD91BD16D9895C74CEEA9118C7BAAF60 SWAP3 SWAP2 DUP2 SWAP1 SUB SWAP1 SWAP2 ADD SWAP1 LOG1 POP POP POP POP JUMP JUMPDEST DUP2 ISZERO PUSH2 0x3581 JUMPI PUSH1 0x8 SLOAD PUSH1 0x6 SLOAD PUSH1 0x40 DUP1 MLOAD PUSH4 0x1062C15F PUSH1 0xE1 SHL DUP2 MSTORE PUSH1 0x1 PUSH1 0x1 PUSH1 0xA0 SHL SUB SWAP3 DUP4 AND PUSH1 0x4 DUP3 ADD MSTORE DUP7 DUP4 AND PUSH1 0x24 DUP3 ADD MSTORE PUSH1 0x44 DUP2 ADD DUP7 SWAP1 MSTORE SWAP1 MLOAD SWAP2 SWAP1 SWAP3 AND SWAP2 PUSH4 0x20C582BE SWAP2 PUSH1 0x64 DUP1 DUP4 ADD SWAP3 PUSH1 0x0 SWAP3 SWAP2 SWAP1 DUP3 SWAP1 SUB ADD DUP2 DUP4 DUP8 DUP1 EXTCODESIZE ISZERO DUP1 ISZERO PUSH2 0x3568 JUMPI PUSH1 0x0 DUP1 REVERT JUMPDEST POP GAS CALL ISZERO DUP1 ISZERO PUSH2 0x357C JUMPI RETURNDATASIZE PUSH1 0x0 DUP1 RETURNDATACOPY RETURNDATASIZE PUSH1 0x0 REVERT JUMPDEST POP POP POP POP JUMPDEST DUP1 ISZERO PUSH2 0x33B5 JUMPI DUP4 PUSH1 0x1 PUSH1 0x1 PUSH1 0xA0 SHL SUB AND PUSH4 0x64A197F3 DUP5 DUP4 PUSH1 0x40 MLOAD DUP4 PUSH4 0xFFFFFFFF AND PUSH1 0xE0 SHL DUP2 MSTORE PUSH1 0x4 ADD DUP1 DUP4 PUSH1 0x1 PUSH1 0x1 PUSH1 0xA0 SHL SUB AND PUSH1 0x1 PUSH1 0x1 PUSH1 0xA0 SHL SUB AND DUP2 MSTORE PUSH1 0x20 ADD DUP3 DUP2 MSTORE PUSH1 0x20 ADD SWAP3 POP POP POP PUSH1 0x0 PUSH1 0x40 MLOAD DUP1 DUP4 SUB DUP2 PUSH1 0x0 DUP8 DUP1 EXTCODESIZE ISZERO DUP1 ISZERO PUSH2 0x35E7 JUMPI PUSH1 0x0 DUP1 REVERT JUMPDEST POP GAS CALL ISZERO DUP1 ISZERO PUSH2 0x35FB JUMPI RETURNDATASIZE PUSH1 0x0 DUP1 RETURNDATACOPY RETURNDATASIZE PUSH1 0x0 REVERT JUMPDEST POP POP POP POP POP POP POP POP JUMP JUMPDEST PUSH1 0x0 PUSH2 0xE1D PUSH2 0x362D DUP4 PUSH2 0x3E8 PUSH8 0xDE0B6B3A7640000 JUMPDEST DIV PUSH1 0x5 MUL PUSH2 0x3CF0 SWAP1 SWAP2 SWAP1 PUSH4 0xFFFFFFFF AND JUMP JUMPDEST PUSH8 0xDE0B6B3A7640000 PUSH2 0x512E JUMP JUMPDEST PUSH1 0x1 PUSH1 0x1 PUSH1 0x1 PUSH1 0xA0 SHL SUB DUP3 AND PUSH1 0x0 SWAP1 DUP2 MSTORE PUSH1 0xE PUSH1 0x20 MSTORE PUSH1 0x40 SWAP1 KECCAK256 PUSH1 0x3 ADD SLOAD PUSH1 0xFF AND PUSH1 0x4 DUP2 GT ISZERO PUSH2 0x3667 JUMPI INVALID JUMPDEST EQ PUSH2 0xDC8 JUMPI PUSH1 0x40 MLOAD PUSH3 0x461BCD PUSH1 0xE5 SHL DUP2 MSTORE PUSH1 0x4 ADD DUP1 DUP1 PUSH1 0x20 ADD DUP3 DUP2 SUB DUP3 MSTORE PUSH1 0x2F DUP2 MSTORE PUSH1 0x20 ADD DUP1 PUSH2 0x5BDE PUSH1 0x2F SWAP2 CODECOPY PUSH1 0x40 ADD SWAP2 POP POP PUSH1 0x40 MLOAD DUP1 SWAP2 SUB SWAP1 REVERT JUMPDEST PUSH1 0x0 PUSH2 0x2CD5 PUSH8 0xDE0B6B3A7640000 PUSH2 0x1468 DUP6 DUP6 PUSH4 0xFFFFFFFF PUSH2 0x36C1 AND JUMP JUMPDEST PUSH1 0x0 DUP3 PUSH2 0x36D0 JUMPI POP PUSH1 0x0 PUSH2 0xE1D JUMP JUMPDEST DUP3 DUP3 MUL DUP3 DUP5 DUP3 DUP2 PUSH2 0x36DD JUMPI INVALID JUMPDEST DIV EQ PUSH2 0x2CD5 JUMPI PUSH1 0x40 MLOAD PUSH3 0x461BCD PUSH1 0xE5 SHL DUP2 MSTORE PUSH1 0x4 ADD DUP1 DUP1 PUSH1 0x20 ADD DUP3 DUP2 SUB DUP3 MSTORE PUSH1 0x21 DUP2 MSTORE PUSH1 0x20 ADD DUP1 PUSH2 0x59FE PUSH1 0x21 SWAP2 CODECOPY PUSH1 0x40 ADD SWAP2 POP POP PUSH1 0x40 MLOAD DUP1 SWAP2 SUB SWAP1 REVERT JUMPDEST PUSH1 0x0 PUSH2 0x2CD5 DUP4 DUP4 PUSH1 0x40 MLOAD DUP1 PUSH1 0x40 ADD PUSH1 0x40 MSTORE DUP1 PUSH1 0x1A DUP2 MSTORE PUSH1 0x20 ADD PUSH32 0x536166654D6174683A206469766973696F6E206279207A65726F000000000000 DUP2 MSTORE POP PUSH2 0x5144 JUMP JUMPDEST PUSH1 0x0 DUP1 PUSH2 0x3767 PUSH2 0x51A9 JUMP JUMPDEST SWAP1 POP PUSH1 0x0 PUSH2 0x377D PUSH8 0xDDD4B8C6C7D70D8 DUP4 PUSH2 0x51C5 JUMP JUMPDEST SWAP1 POP PUSH2 0x1B67 PUSH8 0xDE0B6B3A7640000 PUSH2 0x1468 DUP4 PUSH1 0xC SLOAD PUSH2 0x36C1 SWAP1 SWAP2 SWAP1 PUSH4 0xFFFFFFFF AND JUMP JUMPDEST PUSH1 0x0 PUSH2 0x37B7 PUSH1 0xD SLOAD TIMESTAMP PUSH2 0x2C93 SWAP1 SWAP2 SWAP1 PUSH4 0xFFFFFFFF AND JUMP JUMPDEST SWAP1 POP PUSH1 0x3C DUP2 LT PUSH2 0xDC8 JUMPI TIMESTAMP PUSH1 0xD DUP2 SWAP1 SSTORE PUSH1 0x40 DUP1 MLOAD SWAP2 DUP3 MSTORE MLOAD PUSH32 0x860F8D2F0C74DD487E89E2883E3B25B8159CE1E1B3433A291CBA7B82C508F3BC SWAP2 DUP2 SWAP1 SUB PUSH1 0x20 ADD SWAP1 LOG1 POP JUMP JUMPDEST PUSH2 0x3804 PUSH2 0x5811 JUMP JUMPDEST PUSH2 0x380C PUSH2 0x5901 JUMP JUMPDEST PUSH2 0x3814 PUSH2 0x5811 JUMP JUMPDEST DUP5 DUP3 MSTORE PUSH1 0x0 PUSH1 0x80 DUP4 ADD MSTORE PUSH2 0x3826 PUSH2 0x1A6D JUMP JUMPDEST PUSH1 0xA0 DUP4 ADD MSTORE PUSH2 0x3833 PUSH2 0x1F93 JUMP JUMPDEST DUP3 PUSH1 0xC0 ADD DUP2 DUP2 MSTORE POP POP DUP7 PUSH1 0x80 ADD MLOAD PUSH1 0x1 PUSH1 0x1 PUSH1 0xA0 SHL SUB AND PUSH4 0x4D622831 PUSH1 0x40 MLOAD DUP2 PUSH4 0xFFFFFFFF AND PUSH1 0xE0 SHL DUP2 MSTORE PUSH1 0x4 ADD PUSH1 0x20 PUSH1 0x40 MLOAD DUP1 DUP4 SUB DUP2 DUP7 DUP1 EXTCODESIZE ISZERO DUP1 ISZERO PUSH2 0x3879 JUMPI PUSH1 0x0 DUP1 REVERT JUMPDEST POP GAS STATICCALL ISZERO DUP1 ISZERO PUSH2 0x388D JUMPI RETURNDATASIZE PUSH1 0x0 DUP1 RETURNDATACOPY RETURNDATASIZE PUSH1 0x0 REVERT JUMPDEST POP POP POP POP PUSH1 0x40 MLOAD RETURNDATASIZE PUSH1 0x20 DUP2 LT ISZERO PUSH2 0x38A3 JUMPI PUSH1 0x0 DUP1 REVERT JUMPDEST POP MLOAD PUSH1 0x1 PUSH1 0x1 PUSH1 0xA0 SHL SUB SWAP1 DUP2 AND PUSH1 0x60 DUP5 ADD MSTORE PUSH1 0x80 DUP9 ADD MLOAD PUSH1 0x40 DUP1 MLOAD PUSH4 0x1E223143 PUSH1 0xE0 SHL DUP2 MSTORE SWAP1 MLOAD PUSH1 0x0 SWAP4 SWAP3 SWAP1 SWAP3 AND SWAP2 PUSH4 0x1E223143 SWAP2 PUSH1 0x4 DUP1 DUP3 ADD SWAP3 PUSH1 0x20 SWAP3 SWAP1 SWAP2 SWAP1 DUP3 SWAP1 SUB ADD DUP2 DUP7 DUP1 EXTCODESIZE ISZERO DUP1 ISZERO PUSH2 0x38F8 JUMPI PUSH1 0x0 DUP1 REVERT JUMPDEST POP GAS STATICCALL ISZERO DUP1 ISZERO PUSH2 0x390C JUMPI RETURNDATASIZE PUSH1 0x0 DUP1 RETURNDATACOPY RETURNDATASIZE PUSH1 0x0 REVERT JUMPDEST POP POP POP POP PUSH1 0x40 MLOAD RETURNDATASIZE PUSH1 0x20 DUP2 LT ISZERO PUSH2 0x3922 JUMPI PUSH1 0x0 DUP1 REVERT JUMPDEST POP MLOAD PUSH1 0x0 PUSH1 0x20 DUP6 ADD MSTORE SWAP1 POP JUMPDEST DUP5 DUP4 PUSH1 0x20 ADD MLOAD LT DUP1 ISZERO PUSH2 0x3957 JUMPI POP DUP1 PUSH1 0x1 PUSH1 0x1 PUSH1 0xA0 SHL SUB AND DUP4 PUSH1 0x60 ADD MLOAD PUSH1 0x1 PUSH1 0x1 PUSH1 0xA0 SHL SUB AND EQ ISZERO JUMPDEST ISZERO PUSH2 0x3B8C JUMPI PUSH1 0x0 DUP9 PUSH1 0x80 ADD MLOAD PUSH1 0x1 PUSH1 0x1 PUSH1 0xA0 SHL SUB AND PUSH4 0xB72703AC DUP6 PUSH1 0x60 ADD MLOAD PUSH1 0x40 MLOAD DUP3 PUSH4 0xFFFFFFFF AND PUSH1 0xE0 SHL DUP2 MSTORE PUSH1 0x4 ADD DUP1 DUP3 PUSH1 0x1 PUSH1 0x1 PUSH1 0xA0 SHL SUB AND PUSH1 0x1 PUSH1 0x1 PUSH1 0xA0 SHL SUB AND DUP2 MSTORE PUSH1 0x20 ADD SWAP2 POP POP PUSH1 0x20 PUSH1 0x40 MLOAD DUP1 DUP4 SUB DUP2 DUP7 DUP1 EXTCODESIZE ISZERO DUP1 ISZERO PUSH2 0x39BC JUMPI PUSH1 0x0 DUP1 REVERT JUMPDEST POP GAS STATICCALL ISZERO DUP1 ISZERO PUSH2 0x39D0 JUMPI RETURNDATASIZE PUSH1 0x0 DUP1 RETURNDATACOPY RETURNDATASIZE PUSH1 0x0 REVERT JUMPDEST POP POP POP POP PUSH1 0x40 MLOAD RETURNDATASIZE PUSH1 0x20 DUP2 LT ISZERO PUSH2 0x39E6 JUMPI PUSH1 0x0 DUP1 REVERT JUMPDEST POP MLOAD PUSH1 0x60 DUP6 ADD MLOAD SWAP1 SWAP2 POP PUSH2 0x39FA SWAP1 DUP10 PUSH2 0x29B1 JUMP JUMPDEST PUSH1 0x40 DUP6 ADD MSTORE PUSH1 0x80 DUP5 ADD MLOAD PUSH2 0x3AFE JUMPI PUSH8 0xF43FC2C04EE0000 DUP5 PUSH1 0x40 ADD MLOAD LT ISZERO DUP1 ISZERO PUSH2 0x3A23 JUMPI POP DUP4 MLOAD ISZERO JUMPDEST ISZERO PUSH2 0x3A2E JUMPI POP PUSH2 0x3B8C JUMP JUMPDEST PUSH1 0x0 PUSH2 0x3A43 DUP6 PUSH1 0xC0 ADD MLOAD DUP7 PUSH1 0xA0 ADD MLOAD DUP12 PUSH2 0x486A JUMP JUMPDEST DUP11 MLOAD PUSH1 0x20 DUP13 ADD MLOAD PUSH1 0x60 DUP9 ADD MLOAD PUSH1 0x40 DUP10 ADD MLOAD DUP10 MLOAD SWAP5 SWAP6 POP PUSH2 0x3A64 SWAP5 DUP7 DUP16 PUSH2 0x4B1E JUMP JUMPDEST PUSH1 0x80 DUP2 ADD MLOAD DUP7 MLOAD SWAP2 SWAP6 POP PUSH2 0x3A7E SWAP2 SWAP1 PUSH4 0xFFFFFFFF PUSH2 0x2C93 AND JUMP JUMPDEST DUP6 MSTORE PUSH1 0x80 DUP5 ADD MLOAD PUSH1 0xA0 DUP7 ADD MLOAD PUSH2 0x3A99 SWAP2 PUSH4 0xFFFFFFFF PUSH2 0x2C93 AND JUMP JUMPDEST DUP6 PUSH1 0xA0 ADD DUP2 DUP2 MSTORE POP POP PUSH2 0x3ACE DUP5 PUSH2 0x100 ADD MLOAD PUSH2 0x119F DUP7 PUSH1 0x40 ADD MLOAD PUSH2 0x119F DUP9 PUSH1 0xA0 ADD MLOAD DUP11 PUSH1 0xC0 ADD MLOAD PUSH2 0x2C93 SWAP1 SWAP2 SWAP1 PUSH4 0xFFFFFFFF AND JUMP JUMPDEST PUSH1 0xC0 DUP7 ADD MSTORE PUSH2 0x3ADD DUP7 DUP6 PUSH2 0x4E75 JUMP JUMPDEST SWAP6 POP PUSH2 0x3AF2 DUP6 PUSH1 0xC0 ADD MLOAD DUP7 PUSH1 0xA0 ADD MLOAD DUP12 PUSH2 0x4F8C JUMP JUMPDEST ISZERO PUSH1 0x80 DUP7 ADD MSTORE POP PUSH2 0x3B6E JUMP JUMPDEST DUP4 PUSH1 0x80 ADD MLOAD DUP1 ISZERO PUSH2 0x3B1A JUMPI POP PUSH8 0xF43FC2C04EE0000 DUP5 PUSH1 0x40 ADD MLOAD LT JUMPDEST ISZERO PUSH2 0x3B68 JUMPI PUSH2 0x3B3B DUP10 PUSH1 0x0 ADD MLOAD DUP11 PUSH1 0x20 ADD MLOAD DUP7 PUSH1 0x60 ADD MLOAD DUP8 PUSH1 0x0 ADD MLOAD PUSH2 0x4FAD JUMP JUMPDEST PUSH1 0x80 DUP2 ADD MLOAD DUP6 MLOAD SWAP2 SWAP5 POP PUSH2 0x3B55 SWAP2 SWAP1 PUSH4 0xFFFFFFFF PUSH2 0x2C93 AND JUMP JUMPDEST DUP5 MSTORE PUSH2 0x3B61 DUP6 DUP5 PUSH2 0x4E75 JUMP JUMPDEST SWAP5 POP PUSH2 0x3B6E JUMP JUMPDEST POP PUSH2 0x3B8C JUMP JUMPDEST PUSH1 0x1 PUSH1 0x1 PUSH1 0xA0 SHL SUB AND PUSH1 0x60 DUP5 ADD MSTORE PUSH1 0x20 DUP4 ADD DUP1 MLOAD PUSH1 0x1 ADD SWAP1 MSTORE PUSH2 0x392E JUMP JUMPDEST POP POP POP SWAP5 SWAP4 POP POP POP POP JUMP JUMPDEST PUSH2 0x3B9F PUSH2 0x5811 JUMP JUMPDEST PUSH2 0x3BA7 PUSH2 0x5901 JUMP JUMPDEST PUSH2 0x3BAF PUSH2 0x5811 JUMP JUMPDEST PUSH1 0xB SLOAD DUP6 DUP4 MSTORE PUSH1 0x0 PUSH1 0x20 DUP5 ADD MSTORE PUSH1 0x1 PUSH1 0x1 PUSH1 0xA0 SHL SUB AND JUMPDEST DUP5 DUP4 PUSH1 0x20 ADD MLOAD LT ISZERO PUSH2 0x3CBD JUMPI DUP1 PUSH1 0x1 PUSH1 0x1 PUSH1 0xA0 SHL SUB AND PUSH4 0x4D622831 PUSH1 0x40 MLOAD DUP2 PUSH4 0xFFFFFFFF AND PUSH1 0xE0 SHL DUP2 MSTORE PUSH1 0x4 ADD PUSH1 0x20 PUSH1 0x40 MLOAD DUP1 DUP4 SUB DUP2 DUP7 DUP1 EXTCODESIZE ISZERO DUP1 ISZERO PUSH2 0x3C0B JUMPI PUSH1 0x0 DUP1 REVERT JUMPDEST POP GAS STATICCALL ISZERO DUP1 ISZERO PUSH2 0x3C1F JUMPI RETURNDATASIZE PUSH1 0x0 DUP1 RETURNDATACOPY RETURNDATASIZE PUSH1 0x0 REVERT JUMPDEST POP POP POP POP PUSH1 0x40 MLOAD RETURNDATASIZE PUSH1 0x20 DUP2 LT ISZERO PUSH2 0x3C35 JUMPI PUSH1 0x0 DUP1 REVERT JUMPDEST POP MLOAD PUSH1 0x1 PUSH1 0x1 PUSH1 0xA0 SHL SUB AND PUSH1 0x60 DUP5 ADD DUP2 SWAP1 MSTORE PUSH2 0x3C51 SWAP1 DUP9 PUSH2 0x29B1 JUMP JUMPDEST PUSH1 0x40 DUP5 ADD DUP2 SWAP1 MSTORE PUSH8 0xF43FC2C04EE0000 GT ISZERO PUSH2 0x3CA8 JUMPI PUSH2 0x3C7B DUP10 DUP10 DUP6 PUSH1 0x60 ADD MLOAD DUP7 PUSH1 0x0 ADD MLOAD PUSH2 0x4FAD JUMP JUMPDEST PUSH1 0x80 DUP2 ADD MLOAD DUP5 MLOAD SWAP2 SWAP4 POP PUSH2 0x3C95 SWAP2 SWAP1 PUSH4 0xFFFFFFFF PUSH2 0x2C93 AND JUMP JUMPDEST DUP4 MSTORE PUSH2 0x3CA1 DUP5 DUP4 PUSH2 0x4E75 JUMP JUMPDEST SWAP4 POP PUSH2 0x3CAD JUMP JUMPDEST PUSH2 0x3CBD JUMP JUMPDEST PUSH1 0x20 DUP4 ADD DUP1 MLOAD PUSH1 0x1 ADD SWAP1 MSTORE PUSH2 0x3BC6 JUMP JUMPDEST POP POP POP SWAP6 SWAP5 POP POP POP POP POP JUMP JUMPDEST PUSH1 0x0 PUSH2 0xE1D PUSH2 0x3CE3 DUP4 PUSH2 0x3E8 PUSH8 0xDE0B6B3A7640000 PUSH2 0x361B JUMP JUMPDEST PUSH7 0xB1A2BC2EC50000 PUSH2 0x512E JUMP JUMPDEST PUSH1 0x0 DUP3 DUP3 ADD DUP4 DUP2 LT ISZERO PUSH2 0x2CD5 JUMPI PUSH1 0x40 DUP1 MLOAD PUSH3 0x461BCD PUSH1 0xE5 SHL DUP2 MSTORE PUSH1 0x20 PUSH1 0x4 DUP3 ADD MSTORE PUSH1 0x1B PUSH1 0x24 DUP3 ADD MSTORE PUSH32 0x536166654D6174683A206164646974696F6E206F766572666C6F770000000000 PUSH1 0x44 DUP3 ADD MSTORE SWAP1 MLOAD SWAP1 DUP2 SWAP1 SUB PUSH1 0x64 ADD SWAP1 REVERT JUMPDEST PUSH1 0x1 PUSH1 0x1 PUSH1 0xA0 SHL SUB DUP2 AND PUSH2 0x3DA5 JUMPI PUSH1 0x40 DUP1 MLOAD PUSH3 0x461BCD PUSH1 0xE5 SHL DUP2 MSTORE PUSH1 0x20 PUSH1 0x4 DUP3 ADD MSTORE PUSH1 0x1E PUSH1 0x24 DUP3 ADD MSTORE PUSH32 0x4163636F756E742063616E6E6F74206265207A65726F20616464726573730000 PUSH1 0x44 DUP3 ADD MSTORE SWAP1 MLOAD SWAP1 DUP2 SWAP1 SUB PUSH1 0x64 ADD SWAP1 REVERT JUMPDEST DUP1 EXTCODESIZE DUP1 PUSH2 0x1306 JUMPI PUSH1 0x40 DUP1 MLOAD PUSH3 0x461BCD PUSH1 0xE5 SHL DUP2 MSTORE PUSH1 0x20 PUSH1 0x4 DUP3 ADD DUP2 SWAP1 MSTORE PUSH1 0x24 DUP3 ADD MSTORE PUSH32 0x4163636F756E7420636F64652073697A652063616E6E6F74206265207A65726F PUSH1 0x44 DUP3 ADD MSTORE SWAP1 MLOAD SWAP1 DUP2 SWAP1 SUB PUSH1 0x64 ADD SWAP1 REVERT JUMPDEST PUSH1 0x3 SLOAD PUSH1 0x40 MLOAD PUSH1 0x0 SWAP2 PUSH1 0x1 PUSH1 0x1 PUSH1 0xA0 SHL SUB AND SWAP1 PUSH32 0x8BE0079C531659141344CD1FD0A4F28419497F9722A3DAAFE3B4186F6B6457E0 SWAP1 DUP4 SWAP1 LOG3 PUSH1 0x3 DUP1 SLOAD PUSH1 0x1 PUSH1 0x1 PUSH1 0xA0 SHL SUB NOT AND SWAP1 SSTORE JUMP JUMPDEST PUSH1 0x12 DUP1 SLOAD PUSH1 0x1 PUSH1 0x1 PUSH1 0xA0 SHL SUB DUP4 AND PUSH1 0x0 SWAP1 DUP2 MSTORE PUSH1 0x14 PUSH1 0x20 SWAP1 DUP2 MSTORE PUSH1 0x40 SWAP2 DUP3 SWAP1 KECCAK256 SWAP3 DUP4 SSTORE PUSH1 0x13 SLOAD PUSH1 0x1 SWAP1 SWAP4 ADD DUP4 SWAP1 SSTORE SWAP3 SLOAD DUP2 MLOAD SWAP1 DUP2 MSTORE SWAP3 DUP4 ADD SWAP2 SWAP1 SWAP2 MSTORE DUP1 MLOAD PUSH32 0xC437F324D85E369394148DD9D62F98F534B382E01ED3DD2EB98138FB6D3AB49A SWAP3 DUP2 SWAP1 SUB SWAP1 SWAP2 ADD SWAP1 LOG1 POP JUMP JUMPDEST PUSH1 0x0 DUP1 PUSH1 0x0 PUSH2 0x3EBC DUP5 PUSH2 0x13B8 JUMP JUMPDEST SWAP1 POP PUSH1 0x0 PUSH2 0x3EC9 DUP6 PUSH2 0x2AC8 JUMP JUMPDEST PUSH1 0x1 PUSH1 0x1 PUSH1 0xA0 SHL SUB DUP7 AND PUSH1 0x0 SWAP1 DUP2 MSTORE PUSH1 0xE PUSH1 0x20 MSTORE PUSH1 0x40 DUP2 KECCAK256 PUSH1 0x1 ADD SLOAD SWAP2 SWAP3 POP SWAP1 PUSH2 0x3EF9 SWAP1 DUP5 PUSH4 0xFFFFFFFF PUSH2 0x3CF0 AND JUMP JUMPDEST PUSH1 0x1 PUSH1 0x1 PUSH1 0xA0 SHL SUB DUP8 AND PUSH1 0x0 SWAP1 DUP2 MSTORE PUSH1 0xE PUSH1 0x20 MSTORE PUSH1 0x40 DUP2 KECCAK256 SLOAD SWAP2 SWAP3 POP SWAP1 PUSH2 0x3F26 SWAP1 DUP5 PUSH4 0xFFFFFFFF PUSH2 0x3CF0 AND JUMP JUMPDEST SWAP2 SWAP6 POP SWAP1 SWAP4 POP POP POP POP SWAP2 POP SWAP2 JUMP JUMPDEST PUSH1 0x0 DUP2 ISZERO PUSH2 0x3F60 JUMPI PUSH2 0x3F59 DUP3 PUSH2 0x1468 DUP6 PUSH9 0x56BC75E2D63100000 PUSH4 0xFFFFFFFF PUSH2 0x36C1 AND JUMP JUMPDEST SWAP1 POP PUSH2 0xE1D JUMP JUMPDEST POP PUSH1 0x0 NOT PUSH2 0xE1D JUMP JUMPDEST PUSH1 0x0 DUP1 PUSH2 0x3F74 PUSH2 0x1F93 JUMP JUMPDEST SWAP1 POP PUSH1 0x0 PUSH2 0x3F80 PUSH2 0x1A6D JUMP JUMPDEST SWAP1 POP PUSH2 0x3F8D DUP3 DUP3 DUP7 PUSH2 0x486A JUMP JUMPDEST SWAP5 SWAP4 POP POP POP POP JUMP JUMPDEST PUSH7 0x11C37937E08000 DUP2 LT DUP1 ISZERO SWAP1 PUSH2 0x3FB4 JUMPI POP PUSH8 0xDE0B6B3A7640000 DUP2 GT ISZERO JUMPDEST PUSH2 0xDC8 JUMPI PUSH1 0x40 MLOAD PUSH3 0x461BCD PUSH1 0xE5 SHL DUP2 MSTORE PUSH1 0x4 ADD DUP1 DUP1 PUSH1 0x20 ADD DUP3 DUP2 SUB DUP3 MSTORE PUSH1 0x30 DUP2 MSTORE PUSH1 0x20 ADD DUP1 PUSH2 0x5B62 PUSH1 0x30 SWAP2 CODECOPY PUSH1 0x40 ADD SWAP2 POP POP PUSH1 0x40 MLOAD DUP1 SWAP2 SUB SWAP1 REVERT JUMPDEST PUSH1 0x9 SLOAD PUSH1 0x40 DUP1 MLOAD PUSH4 0x1E425BE1 PUSH1 0xE1 SHL DUP2 MSTORE SWAP1 MLOAD PUSH1 0x0 SWAP3 PUSH1 0x1 PUSH1 0x1 PUSH1 0xA0 SHL SUB AND SWAP2 PUSH4 0x3C84B7C2 SWAP2 PUSH1 0x4 DUP1 DUP4 ADD SWAP3 PUSH1 0x20 SWAP3 SWAP2 SWAP1 DUP3 SWAP1 SUB ADD DUP2 DUP7 DUP1 EXTCODESIZE ISZERO DUP1 ISZERO PUSH2 0x4034 JUMPI PUSH1 0x0 DUP1 REVERT JUMPDEST POP GAS STATICCALL ISZERO DUP1 ISZERO PUSH2 0x4048 JUMPI RETURNDATASIZE PUSH1 0x0 DUP1 RETURNDATACOPY RETURNDATASIZE PUSH1 0x0 REVERT JUMPDEST POP POP POP POP PUSH1 0x40 MLOAD RETURNDATASIZE PUSH1 0x20 DUP2 LT ISZERO PUSH2 0x405E JUMPI PUSH1 0x0 DUP1 REVERT JUMPDEST POP MLOAD SWAP1 POP PUSH2 0x4075 DUP2 PUSH3 0x127500 PUSH4 0xFFFFFFFF PUSH2 0x3CF0 AND JUMP JUMPDEST TIMESTAMP LT ISZERO PUSH2 0xDC8 JUMPI PUSH1 0x40 MLOAD PUSH3 0x461BCD PUSH1 0xE5 SHL DUP2 MSTORE PUSH1 0x4 ADD DUP1 DUP1 PUSH1 0x20 ADD DUP3 DUP2 SUB DUP3 MSTORE PUSH1 0x40 DUP2 MSTORE PUSH1 0x20 ADD DUP1 PUSH2 0x59BE PUSH1 0x40 SWAP2 CODECOPY PUSH1 0x40 ADD SWAP2 POP POP PUSH1 0x40 MLOAD DUP1 SWAP2 SUB SWAP1 REVERT JUMPDEST PUSH8 0xF43FC2C04EE0000 PUSH2 0x40C5 DUP3 PUSH2 0x3F69 JUMP JUMPDEST LT ISZERO PUSH2 0xDC8 JUMPI PUSH1 0x40 MLOAD PUSH3 0x461BCD PUSH1 0xE5 SHL DUP2 MSTORE PUSH1 0x4 ADD DUP1 DUP1 PUSH1 0x20 ADD DUP3 DUP2 SUB DUP3 MSTORE PUSH1 0x2A DUP2 MSTORE PUSH1 0x20 ADD DUP1 PUSH2 0x5B92 PUSH1 0x2A SWAP2 CODECOPY PUSH1 0x40 ADD SWAP2 POP POP PUSH1 0x40 MLOAD DUP1 SWAP2 SUB SWAP1 REVERT JUMPDEST PUSH1 0x0 DUP2 GT PUSH2 0xDC8 JUMPI PUSH1 0x40 MLOAD PUSH3 0x461BCD PUSH1 0xE5 SHL DUP2 MSTORE PUSH1 0x4 ADD DUP1 DUP1 PUSH1 0x20 ADD DUP3 DUP2 SUB DUP3 MSTORE PUSH1 0x2E DUP2 MSTORE PUSH1 0x20 ADD DUP1 PUSH2 0x5AFE PUSH1 0x2E SWAP2 CODECOPY PUSH1 0x40 ADD SWAP2 POP POP PUSH1 0x40 MLOAD DUP1 SWAP2 SUB SWAP1 REVERT JUMPDEST DUP1 DUP4 PUSH1 0x1 PUSH1 0x1 PUSH1 0xA0 SHL SUB AND PUSH4 0x70A08231 DUP5 PUSH1 0x40 MLOAD DUP3 PUSH4 0xFFFFFFFF AND PUSH1 0xE0 SHL DUP2 MSTORE PUSH1 0x4 ADD DUP1 DUP3 PUSH1 0x1 PUSH1 0x1 PUSH1 0xA0 SHL SUB AND PUSH1 0x1 PUSH1 0x1 PUSH1 0xA0 SHL SUB AND DUP2 MSTORE PUSH1 0x20 ADD SWAP2 POP POP PUSH1 0x20 PUSH1 0x40 MLOAD DUP1 DUP4 SUB DUP2 DUP7 DUP1 EXTCODESIZE ISZERO DUP1 ISZERO PUSH2 0x4198 JUMPI PUSH1 0x0 DUP1 REVERT JUMPDEST POP GAS STATICCALL ISZERO DUP1 ISZERO PUSH2 0x41AC JUMPI RETURNDATASIZE PUSH1 0x0 DUP1 RETURNDATACOPY RETURNDATASIZE PUSH1 0x0 REVERT JUMPDEST POP POP POP POP PUSH1 0x40 MLOAD RETURNDATASIZE PUSH1 0x20 DUP2 LT ISZERO PUSH2 0x41C2 JUMPI PUSH1 0x0 DUP1 REVERT JUMPDEST POP MLOAD LT ISZERO PUSH2 0x2C8E JUMPI PUSH1 0x40 MLOAD PUSH3 0x461BCD PUSH1 0xE5 SHL DUP2 MSTORE PUSH1 0x4 ADD DUP1 DUP1 PUSH1 0x20 ADD DUP3 DUP2 SUB DUP3 MSTORE PUSH1 0x4E DUP2 MSTORE PUSH1 0x20 ADD DUP1 PUSH2 0x5A1F PUSH1 0x4E SWAP2 CODECOPY PUSH1 0x60 ADD SWAP2 POP POP PUSH1 0x40 MLOAD DUP1 SWAP2 SUB SWAP1 REVERT JUMPDEST PUSH1 0x0 PUSH1 0x1 PUSH1 0x1 PUSH1 0xA0 SHL SUB DUP4 AND ISZERO DUP1 PUSH2 0x4298 JUMPI POP DUP4 PUSH1 0x1 PUSH1 0x1 PUSH1 0xA0 SHL SUB AND PUSH4 0x5DBE47E8 DUP5 PUSH1 0x40 MLOAD DUP3 PUSH4 0xFFFFFFFF AND PUSH1 0xE0 SHL DUP2 MSTORE PUSH1 0x4 ADD DUP1 DUP3 PUSH1 0x1 PUSH1 0x1 PUSH1 0xA0 SHL SUB AND PUSH1 0x1 PUSH1 0x1 PUSH1 0xA0 SHL SUB AND DUP2 MSTORE PUSH1 0x20 ADD SWAP2 POP POP PUSH1 0x20 PUSH1 0x40 MLOAD DUP1 DUP4 SUB DUP2 DUP7 DUP1 EXTCODESIZE ISZERO DUP1 ISZERO PUSH2 0x426A JUMPI PUSH1 0x0 DUP1 REVERT JUMPDEST POP GAS STATICCALL ISZERO DUP1 ISZERO PUSH2 0x427E JUMPI RETURNDATASIZE PUSH1 0x0 DUP1 RETURNDATACOPY RETURNDATASIZE PUSH1 0x0 REVERT JUMPDEST POP POP POP POP PUSH1 0x40 MLOAD RETURNDATASIZE PUSH1 0x20 DUP2 LT ISZERO PUSH2 0x4294 JUMPI PUSH1 0x0 DUP1 REVERT JUMPDEST POP MLOAD ISZERO JUMPDEST DUP1 PUSH2 0x42B3 JUMPI POP PUSH8 0xF43FC2C04EE0000 PUSH2 0x42B1 DUP5 DUP5 PUSH2 0x29B1 JUMP JUMPDEST LT JUMPDEST ISZERO PUSH2 0x42C0 JUMPI POP PUSH1 0x0 PUSH2 0x2CD5 JUMP JUMPDEST PUSH1 0x0 DUP5 PUSH1 0x1 PUSH1 0x1 PUSH1 0xA0 SHL SUB AND PUSH4 0x765E0159 DUP6 PUSH1 0x40 MLOAD DUP3 PUSH4 0xFFFFFFFF AND PUSH1 0xE0 SHL DUP2 MSTORE PUSH1 0x4 ADD DUP1 DUP3 PUSH1 0x1 PUSH1 0x1 PUSH1 0xA0 SHL SUB AND PUSH1 0x1 PUSH1 0x1 PUSH1 0xA0 SHL SUB AND DUP2 MSTORE PUSH1 0x20 ADD SWAP2 POP POP PUSH1 0x20 PUSH1 0x40 MLOAD DUP1 DUP4 SUB DUP2 DUP7 DUP1 EXTCODESIZE ISZERO DUP1 ISZERO PUSH2 0x4318 JUMPI PUSH1 0x0 DUP1 REVERT JUMPDEST POP GAS STATICCALL ISZERO DUP1 ISZERO PUSH2 0x432C JUMPI RETURNDATASIZE PUSH1 0x0 DUP1 RETURNDATACOPY RETURNDATASIZE PUSH1 0x0 REVERT JUMPDEST POP POP POP POP PUSH1 0x40 MLOAD RETURNDATASIZE PUSH1 0x20 DUP2 LT ISZERO PUSH2 0x4342 JUMPI PUSH1 0x0 DUP1 REVERT JUMPDEST POP MLOAD SWAP1 POP PUSH1 0x1 PUSH1 0x1 PUSH1 0xA0 SHL SUB DUP2 AND ISZERO DUP1 PUSH2 0x213B JUMPI POP PUSH8 0xF43FC2C04EE0000 PUSH2 0x436A DUP3 DUP6 PUSH2 0x29B1 JUMP JUMPDEST LT SWAP6 SWAP5 POP POP POP POP POP JUMP JUMPDEST PUSH2 0x437C PUSH2 0x58DE JUMP JUMPDEST PUSH1 0x1 PUSH1 0x1 PUSH1 0xA0 SHL SUB DUP8 AND PUSH1 0x0 SWAP1 DUP2 MSTORE PUSH1 0xE PUSH1 0x20 MSTORE PUSH1 0x40 SWAP1 KECCAK256 SLOAD PUSH2 0x43B9 SWAP1 DUP8 SWAP1 PUSH2 0x43B4 SWAP1 PUSH9 0x1158E460913D00000 PUSH4 0xFFFFFFFF PUSH2 0x2C93 AND JUMP JUMPDEST PUSH2 0x512E JUMP JUMPDEST DUP1 DUP3 MSTORE PUSH2 0x43DA SWAP1 DUP7 SWAP1 PUSH2 0x1468 SWAP1 PUSH8 0xDE0B6B3A7640000 PUSH4 0xFFFFFFFF PUSH2 0x36C1 AND JUMP JUMPDEST PUSH1 0x20 DUP1 DUP4 ADD SWAP2 SWAP1 SWAP2 MSTORE DUP2 MLOAD PUSH1 0x1 PUSH1 0x1 PUSH1 0xA0 SHL SUB DUP10 AND PUSH1 0x0 SWAP1 DUP2 MSTORE PUSH1 0xE SWAP1 SWAP3 MSTORE PUSH1 0x40 DUP3 KECCAK256 SLOAD PUSH2 0x440D SWAP2 PUSH4 0xFFFFFFFF PUSH2 0x2C93 AND JUMP JUMPDEST PUSH1 0x20 DUP1 DUP5 ADD MLOAD PUSH1 0x1 PUSH1 0x1 PUSH1 0xA0 SHL SUB DUP12 AND PUSH1 0x0 SWAP1 DUP2 MSTORE PUSH1 0xE SWAP1 SWAP3 MSTORE PUSH1 0x40 DUP3 KECCAK256 PUSH1 0x1 ADD SLOAD SWAP3 SWAP4 POP SWAP1 SWAP2 PUSH2 0x4443 SWAP2 PUSH4 0xFFFFFFFF PUSH2 0x2C93 AND JUMP JUMPDEST SWAP1 POP PUSH9 0x1158E460913D00000 DUP3 EQ ISZERO PUSH2 0x44DC JUMPI PUSH2 0x445F DUP10 PUSH2 0x48F9 JUMP JUMPDEST PUSH2 0x446A DUP10 PUSH1 0x4 PUSH2 0x4751 JUMP JUMPDEST PUSH2 0x447F DUP11 DUP11 PUSH9 0x1158E460913D00000 DUP5 PUSH2 0x5270 JUMP JUMPDEST DUP9 PUSH1 0x1 PUSH1 0x1 PUSH1 0xA0 SHL SUB AND PUSH1 0x0 DUP1 MLOAD PUSH1 0x20 PUSH2 0x5A6D DUP4 CODECOPY DUP2 MLOAD SWAP2 MSTORE PUSH1 0x0 DUP1 PUSH1 0x0 PUSH1 0x3 PUSH1 0x40 MLOAD DUP1 DUP6 DUP2 MSTORE PUSH1 0x20 ADD DUP5 DUP2 MSTORE PUSH1 0x20 ADD DUP4 DUP2 MSTORE PUSH1 0x20 ADD DUP3 PUSH1 0x3 DUP2 GT ISZERO PUSH2 0x44C1 JUMPI INVALID JUMPDEST PUSH1 0xFF AND DUP2 MSTORE PUSH1 0x20 ADD SWAP5 POP POP POP POP POP PUSH1 0x40 MLOAD DUP1 SWAP2 SUB SWAP1 LOG2 PUSH2 0x4619 JUMP JUMPDEST PUSH1 0x0 PUSH2 0x44E8 DUP3 DUP5 PUSH2 0x3F34 JUMP JUMPDEST SWAP1 POP DUP5 DUP2 EQ ISZERO DUP1 PUSH2 0x4509 JUMPI POP PUSH9 0x9C2007651B2500000 PUSH2 0x4507 DUP5 PUSH2 0x5425 JUMP JUMPDEST LT JUMPDEST ISZERO PUSH2 0x451D JUMPI POP POP PUSH1 0x1 PUSH1 0x40 DUP4 ADD MSTORE POP PUSH2 0x461C JUMP JUMPDEST PUSH1 0x80 DUP12 ADD MLOAD PUSH1 0x40 DUP1 MLOAD PUSH4 0x15F1093 PUSH1 0xE5 SHL DUP2 MSTORE PUSH1 0x1 PUSH1 0x1 PUSH1 0xA0 SHL SUB DUP14 DUP2 AND PUSH1 0x4 DUP4 ADD MSTORE PUSH1 0x24 DUP3 ADD DUP6 SWAP1 MSTORE DUP11 DUP2 AND PUSH1 0x44 DUP4 ADD MSTORE DUP10 DUP2 AND PUSH1 0x64 DUP4 ADD MSTORE SWAP2 MLOAD SWAP2 SWAP1 SWAP3 AND SWAP2 PUSH4 0x2BE21260 SWAP2 PUSH1 0x84 DUP1 DUP4 ADD SWAP3 PUSH1 0x0 SWAP3 SWAP2 SWAP1 DUP3 SWAP1 SUB ADD DUP2 DUP4 DUP8 DUP1 EXTCODESIZE ISZERO DUP1 ISZERO PUSH2 0x4584 JUMPI PUSH1 0x0 DUP1 REVERT JUMPDEST POP GAS CALL ISZERO DUP1 ISZERO PUSH2 0x4598 JUMPI RETURNDATASIZE PUSH1 0x0 DUP1 RETURNDATACOPY RETURNDATASIZE PUSH1 0x0 REVERT JUMPDEST POP POP POP PUSH1 0x1 PUSH1 0x1 PUSH1 0xA0 SHL SUB DUP12 AND PUSH1 0x0 SWAP1 DUP2 MSTORE PUSH1 0xE PUSH1 0x20 MSTORE PUSH1 0x40 SWAP1 KECCAK256 DUP5 DUP2 SSTORE PUSH1 0x1 ADD DUP4 SWAP1 SSTORE POP PUSH2 0x45C6 DUP11 PUSH2 0x2D76 JUMP JUMPDEST POP PUSH1 0x1 PUSH1 0x1 PUSH1 0xA0 SHL SUB DUP11 AND PUSH1 0x0 DUP2 DUP2 MSTORE PUSH1 0xE PUSH1 0x20 SWAP1 DUP2 MSTORE PUSH1 0x40 SWAP2 DUP3 SWAP1 KECCAK256 PUSH1 0x2 ADD SLOAD DUP3 MLOAD DUP8 DUP2 MSTORE SWAP2 DUP3 ADD DUP7 SWAP1 MSTORE DUP2 DUP4 ADD MSTORE PUSH1 0x3 PUSH1 0x60 DUP3 ADD MSTORE SWAP1 MLOAD PUSH1 0x0 DUP1 MLOAD PUSH1 0x20 PUSH2 0x5A6D DUP4 CODECOPY DUP2 MLOAD SWAP2 MSTORE SWAP2 DUP2 SWAP1 SUB PUSH1 0x80 ADD SWAP1 LOG2 POP JUMPDEST POP POP JUMPDEST SWAP8 SWAP7 POP POP POP POP POP POP POP JUMP JUMPDEST PUSH1 0x0 DUP1 PUSH2 0x4632 PUSH2 0x375C JUMP JUMPDEST SWAP1 POP PUSH1 0x0 PUSH2 0x464A DUP5 PUSH2 0x1468 DUP9 DUP9 PUSH4 0xFFFFFFFF PUSH2 0x36C1 AND JUMP JUMPDEST SWAP1 POP PUSH1 0x0 PUSH2 0x466F PUSH2 0x4662 DUP4 PUSH1 0x2 PUSH4 0xFFFFFFFF PUSH2 0x371A AND JUMP JUMPDEST DUP5 SWAP1 PUSH4 0xFFFFFFFF PUSH2 0x3CF0 AND JUMP JUMPDEST SWAP1 POP PUSH2 0x4683 DUP2 PUSH8 0xDE0B6B3A7640000 PUSH2 0x512E JUMP JUMPDEST SWAP1 POP PUSH1 0x0 DUP2 GT PUSH2 0x468F JUMPI INVALID JUMPDEST PUSH1 0xC DUP2 SWAP1 SSTORE PUSH1 0x40 DUP1 MLOAD DUP3 DUP2 MSTORE SWAP1 MLOAD PUSH32 0xC454EE9B76C52F782A256AF821B857CA6E125D1E3333BCEDE402FEC2BED9600C SWAP2 DUP2 SWAP1 SUB PUSH1 0x20 ADD SWAP1 LOG1 PUSH2 0x1474 PUSH2 0x37A0 JUMP JUMPDEST PUSH1 0x0 PUSH2 0xE1D PUSH2 0x2A19 PUSH2 0x1285 JUMP JUMPDEST PUSH1 0x0 PUSH2 0x46FA DUP4 PUSH2 0x1468 DUP7 PUSH8 0xDE0B6B3A7640000 PUSH4 0xFFFFFFFF PUSH2 0x36C1 AND JUMP JUMPDEST SWAP1 POP DUP2 DUP2 GT ISZERO PUSH2 0x33B5 JUMPI PUSH1 0x40 DUP1 MLOAD PUSH3 0x461BCD PUSH1 0xE5 SHL DUP2 MSTORE PUSH1 0x20 PUSH1 0x4 DUP3 ADD MSTORE PUSH1 0x1D PUSH1 0x24 DUP3 ADD MSTORE PUSH32 0x4665652065786365656465642070726F7669646564206D6178696D756D000000 PUSH1 0x44 DUP3 ADD MSTORE SWAP1 MLOAD SWAP1 DUP2 SWAP1 SUB PUSH1 0x64 ADD SWAP1 REVERT JUMPDEST PUSH1 0x0 DUP2 PUSH1 0x4 DUP2 GT ISZERO PUSH2 0x475F JUMPI INVALID JUMPDEST EQ ISZERO DUP1 ISZERO PUSH2 0x4779 JUMPI POP PUSH1 0x1 DUP2 PUSH1 0x4 DUP2 GT ISZERO PUSH2 0x4776 JUMPI INVALID JUMPDEST EQ ISZERO JUMPDEST PUSH2 0x477F JUMPI INVALID JUMPDEST PUSH1 0x15 SLOAD PUSH2 0x478B DUP2 PUSH2 0x5440 JUMP JUMPDEST PUSH1 0x1 PUSH1 0x1 PUSH1 0xA0 SHL SUB DUP4 AND PUSH1 0x0 SWAP1 DUP2 MSTORE PUSH1 0xE PUSH1 0x20 MSTORE PUSH1 0x40 SWAP1 KECCAK256 PUSH1 0x3 ADD DUP1 SLOAD DUP4 SWAP2 SWAP1 PUSH1 0xFF NOT AND PUSH1 0x1 DUP4 PUSH1 0x4 DUP2 GT ISZERO PUSH2 0x47BD JUMPI INVALID JUMPDEST MUL OR SWAP1 SSTORE POP PUSH1 0x1 PUSH1 0x1 PUSH1 0xA0 SHL SUB DUP4 AND PUSH1 0x0 SWAP1 DUP2 MSTORE PUSH1 0xE PUSH1 0x20 SWAP1 DUP2 MSTORE PUSH1 0x40 DUP1 DUP4 KECCAK256 PUSH1 0x1 DUP1 DUP3 ADD DUP6 SWAP1 SSTORE SWAP1 DUP5 SWAP1 SSTORE PUSH1 0x14 SWAP1 SWAP3 MSTORE DUP3 KECCAK256 DUP3 DUP2 SSTORE ADD SSTORE PUSH2 0x47FF DUP4 DUP3 PUSH2 0x54F9 JUMP JUMPDEST PUSH1 0xB SLOAD PUSH1 0x40 DUP1 MLOAD PUSH4 0x14849687 PUSH1 0xE1 SHL DUP2 MSTORE PUSH1 0x1 PUSH1 0x1 PUSH1 0xA0 SHL SUB DUP7 DUP2 AND PUSH1 0x4 DUP4 ADD MSTORE SWAP2 MLOAD SWAP2 SWAP1 SWAP3 AND SWAP2 PUSH4 0x29092D0E SWAP2 PUSH1 0x24 DUP1 DUP4 ADD SWAP3 PUSH1 0x0 SWAP3 SWAP2 SWAP1 DUP3 SWAP1 SUB ADD DUP2 DUP4 DUP8 DUP1 EXTCODESIZE ISZERO DUP1 ISZERO PUSH2 0x484D JUMPI PUSH1 0x0 DUP1 REVERT JUMPDEST POP GAS CALL ISZERO DUP1 ISZERO PUSH2 0x4861 JUMPI RETURNDATASIZE PUSH1 0x0 DUP1 RETURNDATACOPY RETURNDATASIZE PUSH1 0x0 REVERT JUMPDEST POP POP POP POP POP POP POP JUMP JUMPDEST PUSH1 0x0 DUP3 ISZERO PUSH2 0x4891 JUMPI PUSH1 0x0 PUSH2 0x4888 DUP5 PUSH2 0x1468 DUP8 DUP7 PUSH4 0xFFFFFFFF PUSH2 0x36C1 AND JUMP JUMPDEST SWAP2 POP PUSH2 0x2CD5 SWAP1 POP JUMP JUMPDEST POP PUSH1 0x0 NOT PUSH2 0x2CD5 JUMP JUMPDEST PUSH1 0x0 DUP1 PUSH2 0x48B9 PUSH8 0xDE0B6B3A7640000 PUSH2 0x1468 DUP7 DUP7 PUSH4 0xFFFFFFFF PUSH2 0x36C1 AND JUMP JUMPDEST SWAP1 POP DUP3 DUP2 LT PUSH2 0x2CD5 JUMPI PUSH1 0x40 MLOAD PUSH3 0x461BCD PUSH1 0xE5 SHL DUP2 MSTORE PUSH1 0x4 ADD DUP1 DUP1 PUSH1 0x20 ADD DUP3 DUP2 SUB DUP3 MSTORE PUSH1 0x36 DUP2 MSTORE PUSH1 0x20 ADD DUP1 PUSH2 0x5B2C PUSH1 0x36 SWAP2 CODECOPY PUSH1 0x40 ADD SWAP2 POP POP PUSH1 0x40 MLOAD DUP1 SWAP2 SUB SWAP1 REVERT JUMPDEST PUSH1 0x1 PUSH1 0x1 PUSH1 0xA0 SHL SUB DUP2 AND PUSH1 0x0 SWAP1 DUP2 MSTORE PUSH1 0xE PUSH1 0x20 MSTORE PUSH1 0x40 SWAP1 KECCAK256 PUSH1 0x2 ADD SLOAD PUSH1 0xF SLOAD PUSH2 0x4928 SWAP1 DUP3 PUSH4 0xFFFFFFFF PUSH2 0x2C93 AND JUMP JUMPDEST PUSH1 0xF SSTORE POP PUSH1 0x1 PUSH1 0x1 PUSH1 0xA0 SHL SUB AND PUSH1 0x0 SWAP1 DUP2 MSTORE PUSH1 0xE PUSH1 0x20 MSTORE PUSH1 0x40 DUP2 KECCAK256 PUSH1 0x2 ADD SSTORE JUMP JUMPDEST DUP3 PUSH1 0x1 PUSH1 0x1 PUSH1 0xA0 SHL SUB AND PUSH4 0x38D995A8 DUP4 PUSH1 0x40 MLOAD DUP3 PUSH4 0xFFFFFFFF AND PUSH1 0xE0 SHL DUP2 MSTORE PUSH1 0x4 ADD DUP1 DUP3 DUP2 MSTORE PUSH1 0x20 ADD SWAP2 POP POP PUSH1 0x0 PUSH1 0x40 MLOAD DUP1 DUP4 SUB DUP2 PUSH1 0x0 DUP8 DUP1 EXTCODESIZE ISZERO DUP1 ISZERO PUSH2 0x498F JUMPI PUSH1 0x0 DUP1 REVERT JUMPDEST POP GAS CALL ISZERO DUP1 ISZERO PUSH2 0x49A3 JUMPI RETURNDATASIZE PUSH1 0x0 DUP1 RETURNDATACOPY RETURNDATASIZE PUSH1 0x0 REVERT JUMPDEST POP POP POP POP DUP4 PUSH1 0x1 PUSH1 0x1 PUSH1 0xA0 SHL SUB AND PUSH4 0xCFB9329A DUP4 PUSH1 0x40 MLOAD DUP3 PUSH4 0xFFFFFFFF AND PUSH1 0xE0 SHL DUP2 MSTORE PUSH1 0x4 ADD DUP1 DUP3 DUP2 MSTORE PUSH1 0x20 ADD SWAP2 POP POP PUSH1 0x0 PUSH1 0x40 MLOAD DUP1 DUP4 SUB DUP2 PUSH1 0x0 DUP8 DUP1 EXTCODESIZE ISZERO DUP1 ISZERO PUSH2 0x49ED JUMPI PUSH1 0x0 DUP1 REVERT JUMPDEST POP GAS CALL ISZERO DUP1 ISZERO PUSH2 0x4A01 JUMPI RETURNDATASIZE PUSH1 0x0 DUP1 RETURNDATACOPY RETURNDATASIZE PUSH1 0x0 REVERT JUMPDEST POP POP POP POP DUP3 PUSH1 0x1 PUSH1 0x1 PUSH1 0xA0 SHL SUB AND PUSH4 0xBE41205F DUP3 PUSH1 0x40 MLOAD DUP3 PUSH4 0xFFFFFFFF AND PUSH1 0xE0 SHL DUP2 MSTORE PUSH1 0x4 ADD DUP1 DUP3 DUP2 MSTORE PUSH1 0x20 ADD SWAP2 POP POP PUSH1 0x0 PUSH1 0x40 MLOAD DUP1 DUP4 SUB DUP2 PUSH1 0x0 DUP8 DUP1 EXTCODESIZE ISZERO DUP1 ISZERO PUSH2 0x35E7 JUMPI PUSH1 0x0 DUP1 REVERT JUMPDEST PUSH1 0x0 DUP2 DUP5 DUP5 GT ISZERO PUSH2 0x4ADA JUMPI PUSH1 0x40 MLOAD PUSH3 0x461BCD PUSH1 0xE5 SHL DUP2 MSTORE PUSH1 0x4 ADD DUP1 DUP1 PUSH1 0x20 ADD DUP3 DUP2 SUB DUP3 MSTORE DUP4 DUP2 DUP2 MLOAD DUP2 MSTORE PUSH1 0x20 ADD SWAP2 POP DUP1 MLOAD SWAP1 PUSH1 0x20 ADD SWAP1 DUP1 DUP4 DUP4 PUSH1 0x0 JUMPDEST DUP4 DUP2 LT ISZERO PUSH2 0x4A9F JUMPI DUP2 DUP2 ADD MLOAD DUP4 DUP3 ADD MSTORE PUSH1 0x20 ADD PUSH2 0x4A87 JUMP JUMPDEST POP POP POP POP SWAP1 POP SWAP1 DUP2 ADD SWAP1 PUSH1 0x1F AND DUP1 ISZERO PUSH2 0x4ACC JUMPI DUP1 DUP3 SUB DUP1 MLOAD PUSH1 0x1 DUP4 PUSH1 0x20 SUB PUSH2 0x100 EXP SUB NOT AND DUP2 MSTORE PUSH1 0x20 ADD SWAP2 POP JUMPDEST POP SWAP3 POP POP POP PUSH1 0x40 MLOAD DUP1 SWAP2 SUB SWAP1 REVERT JUMPDEST POP POP POP SWAP1 SUB SWAP1 JUMP JUMPDEST PUSH1 0x0 DUP1 PUSH1 0x11 SLOAD PUSH1 0x0 EQ ISZERO PUSH2 0x4AF7 JUMPI POP DUP2 PUSH2 0xE1D JUMP JUMPDEST PUSH1 0x0 PUSH1 0x10 SLOAD GT PUSH2 0x4B03 JUMPI INVALID JUMPDEST PUSH2 0x2CD5 PUSH1 0x11 SLOAD PUSH2 0x1468 PUSH1 0x10 SLOAD DUP7 PUSH2 0x36C1 SWAP1 SWAP2 SWAP1 PUSH4 0xFFFFFFFF AND JUMP JUMPDEST PUSH2 0x4B26 PUSH2 0x5811 JUMP JUMPDEST PUSH2 0x4B2E PUSH2 0x5949 JUMP JUMPDEST PUSH1 0x15 SLOAD PUSH1 0x1 LT PUSH2 0x4B3E JUMPI POP PUSH2 0x461C JUMP JUMPDEST PUSH2 0x4B47 DUP8 PUSH2 0x216D JUMP JUMPDEST PUSH1 0x40 DUP6 ADD MSTORE PUSH1 0x20 DUP5 DUP2 ADD SWAP2 SWAP1 SWAP2 MSTORE DUP5 ADD DUP2 SWAP1 MSTORE SWAP1 DUP4 MSTORE PUSH2 0x4B66 SWAP1 PUSH2 0x56A0 JUMP JUMPDEST PUSH1 0x40 DUP4 ADD DUP2 SWAP1 MSTORE PUSH9 0x1158E460913D00000 PUSH1 0x60 DUP5 ADD MSTORE PUSH1 0x20 DUP4 ADD MLOAD PUSH2 0x4B90 SWAP2 PUSH4 0xFFFFFFFF PUSH2 0x2C93 AND JUMP JUMPDEST DUP2 MSTORE PUSH8 0xDE0B6B3A7640000 DUP7 GT PUSH2 0x4CAA JUMPI PUSH2 0x4BB5 DUP10 DUP10 DUP4 PUSH1 0x20 ADD MLOAD DUP5 PUSH1 0x40 ADD MLOAD PUSH2 0x4949 JUMP JUMPDEST PUSH2 0x4BBE DUP8 PUSH2 0x48F9 JUMP JUMPDEST PUSH1 0x0 PUSH1 0x80 DUP4 ADD DUP2 SWAP1 MSTORE PUSH1 0xA0 DUP4 ADD MSTORE DUP2 MLOAD PUSH1 0xC0 DUP4 ADD MSTORE DUP1 MLOAD PUSH1 0xE0 DUP4 ADD MSTORE PUSH2 0x4BE5 DUP8 PUSH1 0x3 PUSH2 0x4751 JUMP JUMPDEST DUP7 PUSH1 0x1 PUSH1 0x1 PUSH1 0xA0 SHL SUB AND PUSH32 0xEA67486ED7EBE3EEA8AB3390EFD4A3C8AAE48BE5BEA27DF104A8AF786C408434 DUP4 PUSH1 0x0 ADD MLOAD DUP5 PUSH1 0x20 ADD MLOAD PUSH1 0x2 PUSH1 0x40 MLOAD DUP1 DUP5 DUP2 MSTORE PUSH1 0x20 ADD DUP4 DUP2 MSTORE PUSH1 0x20 ADD DUP3 PUSH1 0x3 DUP2 GT ISZERO PUSH2 0x4C38 JUMPI INVALID JUMPDEST PUSH1 0xFF AND DUP2 MSTORE PUSH1 0x20 ADD SWAP4 POP POP POP POP PUSH1 0x40 MLOAD DUP1 SWAP2 SUB SWAP1 LOG2 DUP7 PUSH1 0x1 PUSH1 0x1 PUSH1 0xA0 SHL SUB AND PUSH1 0x0 DUP1 MLOAD PUSH1 0x20 PUSH2 0x5A6D DUP4 CODECOPY DUP2 MLOAD SWAP2 MSTORE PUSH1 0x0 DUP1 PUSH1 0x0 PUSH1 0x2 PUSH1 0x40 MLOAD DUP1 DUP6 DUP2 MSTORE PUSH1 0x20 ADD DUP5 DUP2 MSTORE PUSH1 0x20 ADD DUP4 DUP2 MSTORE PUSH1 0x20 ADD DUP3 PUSH1 0x3 DUP2 GT ISZERO PUSH2 0x4C8F JUMPI INVALID JUMPDEST PUSH1 0xFF AND DUP2 MSTORE PUSH1 0x20 ADD SWAP5 POP POP POP POP POP PUSH1 0x40 MLOAD DUP1 SWAP2 SUB SWAP1 LOG2 PUSH2 0x4E69 JUMP JUMPDEST PUSH8 0xDE0B6B3A7640000 DUP7 GT DUP1 ISZERO PUSH2 0x4CC8 JUMPI POP PUSH8 0xF43FC2C04EE0000 DUP7 LT JUMPDEST ISZERO PUSH2 0x4D18 JUMPI PUSH2 0x4CE1 DUP10 DUP10 DUP4 PUSH1 0x20 ADD MLOAD DUP5 PUSH1 0x40 ADD MLOAD PUSH2 0x4949 JUMP JUMPDEST PUSH2 0x4CEA DUP8 PUSH2 0x48F9 JUMP JUMPDEST DUP2 MLOAD DUP2 MLOAD PUSH2 0x4CF9 SWAP2 SWAP1 DUP8 PUSH2 0x56A7 JUMP JUMPDEST PUSH1 0xE0 DUP7 ADD MSTORE PUSH1 0xC0 DUP6 ADD MSTORE PUSH1 0xA0 DUP5 ADD MSTORE PUSH1 0x80 DUP4 ADD MSTORE PUSH2 0x4BE5 DUP8 PUSH1 0x3 PUSH2 0x4751 JUMP JUMPDEST PUSH8 0xF43FC2C04EE0000 DUP7 LT ISZERO DUP1 ISZERO PUSH2 0x4D2F JUMPI POP DUP4 DUP7 LT JUMPDEST DUP1 ISZERO PUSH2 0x4D3C JUMPI POP DUP2 MLOAD DUP6 LT ISZERO JUMPDEST ISZERO PUSH2 0x4E58 JUMPI PUSH2 0x4D55 DUP10 DUP10 DUP4 PUSH1 0x20 ADD MLOAD DUP5 PUSH1 0x40 ADD MLOAD PUSH2 0x4949 JUMP JUMPDEST DUP5 PUSH2 0x4D5C JUMPI INVALID JUMPDEST PUSH2 0x4D65 DUP8 PUSH2 0x48F9 JUMP JUMPDEST PUSH2 0x4D78 DUP3 PUSH1 0x0 ADD MLOAD DUP4 PUSH1 0x20 ADD MLOAD DUP6 PUSH2 0x5713 JUMP JUMPDEST SWAP2 POP PUSH2 0x4D85 DUP8 PUSH1 0x3 PUSH2 0x4751 JUMP JUMPDEST PUSH2 0x100 DUP3 ADD MLOAD ISZERO PUSH2 0x4E05 JUMPI PUSH1 0x7 SLOAD PUSH2 0x100 DUP4 ADD MLOAD PUSH1 0x40 DUP1 MLOAD PUSH4 0x3F10ABAB PUSH1 0xE0 SHL DUP2 MSTORE PUSH1 0x1 PUSH1 0x1 PUSH1 0xA0 SHL SUB DUP12 DUP2 AND PUSH1 0x4 DUP4 ADD MSTORE PUSH1 0x24 DUP3 ADD SWAP4 SWAP1 SWAP4 MSTORE SWAP1 MLOAD SWAP2 SWAP1 SWAP3 AND SWAP2 PUSH4 0x3F10ABAB SWAP2 PUSH1 0x44 DUP1 DUP4 ADD SWAP3 PUSH1 0x0 SWAP3 SWAP2 SWAP1 DUP3 SWAP1 SUB ADD DUP2 DUP4 DUP8 DUP1 EXTCODESIZE ISZERO DUP1 ISZERO PUSH2 0x4DEC JUMPI PUSH1 0x0 DUP1 REVERT JUMPDEST POP GAS CALL ISZERO DUP1 ISZERO PUSH2 0x4E00 JUMPI RETURNDATASIZE PUSH1 0x0 DUP1 RETURNDATACOPY RETURNDATASIZE PUSH1 0x0 REVERT JUMPDEST POP POP POP POP JUMPDEST DUP7 PUSH1 0x1 PUSH1 0x1 PUSH1 0xA0 SHL SUB AND PUSH32 0xEA67486ED7EBE3EEA8AB3390EFD4A3C8AAE48BE5BEA27DF104A8AF786C408434 DUP4 PUSH1 0x0 ADD MLOAD DUP5 PUSH1 0xA0 ADD MLOAD PUSH1 0x2 PUSH1 0x40 MLOAD DUP1 DUP5 DUP2 MSTORE PUSH1 0x20 ADD DUP4 DUP2 MSTORE PUSH1 0x20 ADD DUP3 PUSH1 0x3 DUP2 GT ISZERO PUSH2 0x4C38 JUMPI INVALID JUMPDEST PUSH2 0x4E60 PUSH2 0x5811 JUMP JUMPDEST SWAP2 POP PUSH2 0x461C SWAP1 POP JUMP JUMPDEST POP SWAP8 SWAP7 POP POP POP POP POP POP POP JUMP JUMPDEST PUSH2 0x4E7D PUSH2 0x5811 JUMP JUMPDEST PUSH1 0x40 DUP1 DUP4 ADD MLOAD SWAP1 DUP5 ADD MLOAD PUSH2 0x4E96 SWAP2 PUSH4 0xFFFFFFFF PUSH2 0x3CF0 AND JUMP JUMPDEST PUSH1 0x40 DUP3 ADD MSTORE PUSH1 0x60 DUP1 DUP4 ADD MLOAD SWAP1 DUP5 ADD MLOAD PUSH2 0x4EB4 SWAP2 PUSH4 0xFFFFFFFF PUSH2 0x3CF0 AND JUMP JUMPDEST PUSH1 0x60 DUP3 ADD MSTORE DUP2 MLOAD PUSH1 0x20 DUP5 ADD MLOAD PUSH2 0x4ECF SWAP2 PUSH4 0xFFFFFFFF PUSH2 0x3CF0 AND JUMP JUMPDEST PUSH1 0x20 DUP1 DUP4 ADD SWAP2 SWAP1 SWAP2 MSTORE DUP3 ADD MLOAD DUP4 MLOAD PUSH2 0x4EEC SWAP2 PUSH4 0xFFFFFFFF PUSH2 0x3CF0 AND JUMP JUMPDEST DUP2 MSTORE PUSH1 0x80 DUP1 DUP4 ADD MLOAD SWAP1 DUP5 ADD MLOAD PUSH2 0x4F07 SWAP2 PUSH4 0xFFFFFFFF PUSH2 0x3CF0 AND JUMP JUMPDEST PUSH1 0x80 DUP3 ADD MSTORE PUSH1 0xA0 DUP1 DUP4 ADD MLOAD SWAP1 DUP5 ADD MLOAD PUSH2 0x4F25 SWAP2 PUSH4 0xFFFFFFFF PUSH2 0x3CF0 AND JUMP JUMPDEST PUSH1 0xA0 DUP3 ADD MSTORE PUSH1 0xC0 DUP1 DUP4 ADD MLOAD SWAP1 DUP5 ADD MLOAD PUSH2 0x4F43 SWAP2 PUSH4 0xFFFFFFFF PUSH2 0x3CF0 AND JUMP JUMPDEST PUSH1 0xC0 DUP3 ADD MSTORE PUSH1 0xE0 DUP1 DUP4 ADD MLOAD SWAP1 DUP5 ADD MLOAD PUSH2 0x4F61 SWAP2 PUSH4 0xFFFFFFFF PUSH2 0x3CF0 AND JUMP JUMPDEST PUSH1 0xE0 DUP3 ADD MSTORE PUSH2 0x100 DUP1 DUP4 ADD MLOAD SWAP1 DUP5 ADD MLOAD PUSH2 0x4F80 SWAP2 PUSH4 0xFFFFFFFF PUSH2 0x3CF0 AND JUMP JUMPDEST PUSH2 0x100 DUP3 ADD MSTORE SWAP3 SWAP2 POP POP JUMP JUMPDEST PUSH1 0x0 DUP1 PUSH2 0x4F9A DUP6 DUP6 DUP6 PUSH2 0x486A JUMP JUMPDEST PUSH8 0x14D1120D7B160000 GT SWAP6 SWAP5 POP POP POP POP POP JUMP JUMPDEST PUSH2 0x4FB5 PUSH2 0x5811 JUMP JUMPDEST PUSH2 0x4FBD PUSH2 0x5949 JUMP JUMPDEST PUSH2 0x4FC6 DUP5 PUSH2 0x216D JUMP JUMPDEST PUSH1 0x40 DUP6 ADD SWAP1 DUP2 MSTORE PUSH1 0x20 DUP6 DUP2 ADD SWAP3 DUP4 MSTORE DUP7 ADD SWAP3 SWAP1 SWAP3 MSTORE SWAP2 DUP5 MSTORE SWAP1 MLOAD SWAP1 MLOAD PUSH2 0x4FF0 SWAP2 DUP9 SWAP2 DUP9 SWAP2 SWAP1 PUSH2 0x4949 JUMP JUMPDEST PUSH2 0x4FF9 DUP5 PUSH2 0x48F9 JUMP JUMPDEST PUSH2 0x5006 DUP3 PUSH1 0x20 ADD MLOAD PUSH2 0x56A0 JUMP JUMPDEST PUSH1 0x40 DUP4 ADD DUP2 SWAP1 MSTORE PUSH9 0x1158E460913D00000 PUSH1 0x60 DUP5 ADD MSTORE PUSH1 0x20 DUP4 ADD MLOAD PUSH1 0x0 SWAP2 PUSH2 0x5034 SWAP2 SWAP1 PUSH4 0xFFFFFFFF PUSH2 0x2C93 AND JUMP JUMPDEST SWAP1 POP PUSH2 0x5045 DUP4 PUSH1 0x0 ADD MLOAD DUP3 DUP7 PUSH2 0x56A7 JUMP JUMPDEST PUSH1 0xE0 DUP8 ADD MSTORE PUSH1 0xC0 DUP7 ADD MSTORE PUSH1 0xA0 DUP6 ADD MSTORE PUSH1 0x80 DUP5 ADD MSTORE PUSH2 0x5064 DUP6 PUSH1 0x3 PUSH2 0x4751 JUMP JUMPDEST DUP5 PUSH1 0x1 PUSH1 0x1 PUSH1 0xA0 SHL SUB AND PUSH32 0xEA67486ED7EBE3EEA8AB3390EFD4A3C8AAE48BE5BEA27DF104A8AF786C408434 DUP5 PUSH1 0x0 ADD MLOAD DUP6 PUSH1 0x20 ADD MLOAD PUSH1 0x1 PUSH1 0x40 MLOAD DUP1 DUP5 DUP2 MSTORE PUSH1 0x20 ADD DUP4 DUP2 MSTORE PUSH1 0x20 ADD DUP3 PUSH1 0x3 DUP2 GT ISZERO PUSH2 0x50B7 JUMPI INVALID JUMPDEST PUSH1 0xFF AND DUP2 MSTORE PUSH1 0x20 ADD SWAP4 POP POP POP POP PUSH1 0x40 MLOAD DUP1 SWAP2 SUB SWAP1 LOG2 DUP5 PUSH1 0x1 PUSH1 0x1 PUSH1 0xA0 SHL SUB AND PUSH1 0x0 DUP1 MLOAD PUSH1 0x20 PUSH2 0x5A6D DUP4 CODECOPY DUP2 MLOAD SWAP2 MSTORE PUSH1 0x0 DUP1 PUSH1 0x0 PUSH1 0x1 PUSH1 0x40 MLOAD DUP1 DUP6 DUP2 MSTORE PUSH1 0x20 ADD DUP5 DUP2 MSTORE PUSH1 0x20 ADD DUP4 DUP2 MSTORE PUSH1 0x20 ADD DUP3 PUSH1 0x3 DUP2 GT ISZERO PUSH2 0x510E JUMPI INVALID JUMPDEST PUSH1 0xFF AND DUP2 MSTORE PUSH1 0x20 ADD SWAP5 POP POP POP POP POP PUSH1 0x40 MLOAD DUP1 SWAP2 SUB SWAP1 LOG2 POP POP SWAP5 SWAP4 POP POP POP POP JUMP JUMPDEST PUSH1 0x0 DUP2 DUP4 LT PUSH2 0x513D JUMPI DUP2 PUSH2 0x2CD5 JUMP JUMPDEST POP SWAP1 SWAP2 SWAP1 POP JUMP JUMPDEST PUSH1 0x0 DUP2 DUP4 PUSH2 0x5193 JUMPI PUSH1 0x40 MLOAD PUSH3 0x461BCD PUSH1 0xE5 SHL DUP2 MSTORE PUSH1 0x20 PUSH1 0x4 DUP3 ADD DUP2 DUP2 MSTORE DUP4 MLOAD PUSH1 0x24 DUP5 ADD MSTORE DUP4 MLOAD SWAP1 SWAP3 DUP4 SWAP3 PUSH1 0x44 SWAP1 SWAP2 ADD SWAP2 SWAP1 DUP6 ADD SWAP1 DUP1 DUP4 DUP4 PUSH1 0x0 DUP4 ISZERO PUSH2 0x4A9F JUMPI DUP2 DUP2 ADD MLOAD DUP4 DUP3 ADD MSTORE PUSH1 0x20 ADD PUSH2 0x4A87 JUMP JUMPDEST POP PUSH1 0x0 DUP4 DUP6 DUP2 PUSH2 0x519F JUMPI INVALID JUMPDEST DIV SWAP6 SWAP5 POP POP POP POP POP JUMP JUMPDEST PUSH1 0x0 PUSH2 0x1292 PUSH1 0x3C PUSH2 0x1468 PUSH1 0xD SLOAD TIMESTAMP PUSH2 0x2C93 SWAP1 SWAP2 SWAP1 PUSH4 0xFFFFFFFF AND JUMP JUMPDEST PUSH1 0x0 PUSH4 0x1F540500 DUP3 GT ISZERO PUSH2 0x51DB JUMPI PUSH4 0x1F540500 SWAP2 POP JUMPDEST DUP2 PUSH2 0x51EF JUMPI POP PUSH8 0xDE0B6B3A7640000 PUSH2 0xE1D JUMP JUMPDEST PUSH8 0xDE0B6B3A7640000 DUP4 DUP4 JUMPDEST PUSH1 0x1 DUP2 GT ISZERO PUSH2 0x5266 JUMPI PUSH1 0x2 DUP2 MOD PUSH2 0x5230 JUMPI PUSH2 0x5216 DUP3 DUP4 PUSH2 0x57AD JUMP JUMPDEST SWAP2 POP PUSH2 0x5229 DUP2 PUSH1 0x2 PUSH4 0xFFFFFFFF PUSH2 0x371A AND JUMP JUMPDEST SWAP1 POP PUSH2 0x5261 JUMP JUMPDEST PUSH2 0x523A DUP3 DUP5 PUSH2 0x57AD JUMP JUMPDEST SWAP3 POP PUSH2 0x5246 DUP3 DUP4 PUSH2 0x57AD JUMP JUMPDEST SWAP2 POP PUSH2 0x525E PUSH1 0x2 PUSH2 0x1468 DUP4 PUSH1 0x1 PUSH4 0xFFFFFFFF PUSH2 0x2C93 AND JUMP JUMPDEST SWAP1 POP JUMPDEST PUSH2 0x51FB JUMP JUMPDEST PUSH2 0x1474 DUP3 DUP5 PUSH2 0x57AD JUMP JUMPDEST PUSH1 0x40 DUP1 DUP6 ADD MLOAD PUSH1 0x6 SLOAD DUP3 MLOAD PUSH4 0x2770A7EB PUSH1 0xE2 SHL DUP2 MSTORE PUSH1 0x1 PUSH1 0x1 PUSH1 0xA0 SHL SUB SWAP2 DUP3 AND PUSH1 0x4 DUP3 ADD MSTORE PUSH1 0x24 DUP2 ADD DUP7 SWAP1 MSTORE SWAP3 MLOAD SWAP2 AND SWAP2 PUSH4 0x9DC29FAC SWAP2 PUSH1 0x44 DUP1 DUP4 ADD SWAP3 PUSH1 0x0 SWAP3 SWAP2 SWAP1 DUP3 SWAP1 SUB ADD DUP2 DUP4 DUP8 DUP1 EXTCODESIZE ISZERO DUP1 ISZERO PUSH2 0x52C7 JUMPI PUSH1 0x0 DUP1 REVERT JUMPDEST POP GAS CALL ISZERO DUP1 ISZERO PUSH2 0x52DB JUMPI RETURNDATASIZE PUSH1 0x0 DUP1 RETURNDATACOPY RETURNDATASIZE PUSH1 0x0 REVERT JUMPDEST POP POP POP POP DUP4 PUSH1 0x0 ADD MLOAD PUSH1 0x1 PUSH1 0x1 PUSH1 0xA0 SHL SUB AND PUSH4 0x38D995A8 DUP4 PUSH1 0x40 MLOAD DUP3 PUSH4 0xFFFFFFFF AND PUSH1 0xE0 SHL DUP2 MSTORE PUSH1 0x4 ADD DUP1 DUP3 DUP2 MSTORE PUSH1 0x20 ADD SWAP2 POP POP PUSH1 0x0 PUSH1 0x40 MLOAD DUP1 DUP4 SUB DUP2 PUSH1 0x0 DUP8 DUP1 EXTCODESIZE ISZERO DUP1 ISZERO PUSH2 0x5329 JUMPI PUSH1 0x0 DUP1 REVERT JUMPDEST POP GAS CALL ISZERO DUP1 ISZERO PUSH2 0x533D JUMPI RETURNDATASIZE PUSH1 0x0 DUP1 RETURNDATACOPY RETURNDATASIZE PUSH1 0x0 REVERT JUMPDEST POP POP POP POP DUP4 PUSH1 0xA0 ADD MLOAD PUSH1 0x1 PUSH1 0x1 PUSH1 0xA0 SHL SUB AND PUSH4 0x3F10ABAB DUP5 DUP4 PUSH1 0x40 MLOAD DUP4 PUSH4 0xFFFFFFFF AND PUSH1 0xE0 SHL DUP2 MSTORE PUSH1 0x4 ADD DUP1 DUP4 PUSH1 0x1 PUSH1 0x1 PUSH1 0xA0 SHL SUB AND PUSH1 0x1 PUSH1 0x1 PUSH1 0xA0 SHL SUB AND DUP2 MSTORE PUSH1 0x20 ADD DUP3 DUP2 MSTORE PUSH1 0x20 ADD SWAP3 POP POP POP PUSH1 0x0 PUSH1 0x40 MLOAD DUP1 DUP4 SUB DUP2 PUSH1 0x0 DUP8 DUP1 EXTCODESIZE ISZERO DUP1 ISZERO PUSH2 0x53A5 JUMPI PUSH1 0x0 DUP1 REVERT JUMPDEST POP GAS CALL ISZERO DUP1 ISZERO PUSH2 0x53B9 JUMPI RETURNDATASIZE PUSH1 0x0 DUP1 RETURNDATACOPY RETURNDATASIZE PUSH1 0x0 REVERT JUMPDEST POP POP POP POP DUP4 PUSH1 0x0 ADD MLOAD PUSH1 0x1 PUSH1 0x1 PUSH1 0xA0 SHL SUB AND PUSH4 0x64A197F3 DUP6 PUSH1 0xA0 ADD MLOAD DUP4 PUSH1 0x40 MLOAD DUP4 PUSH4 0xFFFFFFFF AND PUSH1 0xE0 SHL DUP2 MSTORE PUSH1 0x4 ADD DUP1 DUP4 PUSH1 0x1 PUSH1 0x1 PUSH1 0xA0 SHL SUB AND PUSH1 0x1 PUSH1 0x1 PUSH1 0xA0 SHL SUB AND DUP2 MSTORE PUSH1 0x20 ADD DUP3 DUP2 MSTORE PUSH1 0x20 ADD SWAP3 POP POP POP PUSH1 0x0 PUSH1 0x40 MLOAD DUP1 DUP4 SUB DUP2 PUSH1 0x0 DUP8 DUP1 EXTCODESIZE ISZERO DUP1 ISZERO PUSH2 0x35E7 JUMPI PUSH1 0x0 DUP1 REVERT JUMPDEST PUSH1 0x0 PUSH2 0xE1D DUP3 PUSH9 0x1158E460913D00000 PUSH4 0xFFFFFFFF PUSH2 0x2C93 AND JUMP JUMPDEST PUSH1 0x1 DUP2 GT DUP1 ISZERO PUSH2 0x54BE JUMPI POP PUSH1 0xB SLOAD PUSH1 0x40 DUP1 MLOAD PUSH4 0xDE8FA431 PUSH1 0xE0 SHL DUP2 MSTORE SWAP1 MLOAD PUSH1 0x1 SWAP3 PUSH1 0x1 PUSH1 0x1 PUSH1 0xA0 SHL SUB AND SWAP2 PUSH4 0xDE8FA431 SWAP2 PUSH1 0x4 DUP1 DUP4 ADD SWAP3 PUSH1 0x20 SWAP3 SWAP2 SWAP1 DUP3 SWAP1 SUB ADD DUP2 DUP7 DUP1 EXTCODESIZE ISZERO DUP1 ISZERO PUSH2 0x5490 JUMPI PUSH1 0x0 DUP1 REVERT JUMPDEST POP GAS STATICCALL ISZERO DUP1 ISZERO PUSH2 0x54A4 JUMPI RETURNDATASIZE PUSH1 0x0 DUP1 RETURNDATACOPY RETURNDATASIZE PUSH1 0x0 REVERT JUMPDEST POP POP POP POP PUSH1 0x40 MLOAD RETURNDATASIZE PUSH1 0x20 DUP2 LT ISZERO PUSH2 0x54BA JUMPI PUSH1 0x0 DUP1 REVERT JUMPDEST POP MLOAD GT JUMPDEST PUSH2 0xDC8 JUMPI PUSH1 0x40 MLOAD PUSH3 0x461BCD PUSH1 0xE5 SHL DUP2 MSTORE PUSH1 0x4 ADD DUP1 DUP1 PUSH1 0x20 ADD DUP3 DUP2 SUB DUP3 MSTORE PUSH1 0x2A DUP2 MSTORE PUSH1 0x20 ADD DUP1 PUSH2 0x5994 PUSH1 0x2A SWAP2 CODECOPY PUSH1 0x40 ADD SWAP2 POP POP PUSH1 0x40 MLOAD DUP1 SWAP2 SUB SWAP1 REVERT JUMPDEST PUSH1 0x1 PUSH1 0x1 PUSH1 0xA0 SHL SUB DUP3 AND PUSH1 0x0 SWAP1 DUP2 MSTORE PUSH1 0xE PUSH1 0x20 MSTORE PUSH1 0x40 DUP2 KECCAK256 PUSH1 0x3 ADD SLOAD PUSH1 0xFF AND SWAP1 DUP2 PUSH1 0x4 DUP2 GT ISZERO PUSH2 0x5525 JUMPI INVALID JUMPDEST EQ ISZERO DUP1 ISZERO PUSH2 0x553F JUMPI POP PUSH1 0x1 DUP2 PUSH1 0x4 DUP2 GT ISZERO PUSH2 0x553C JUMPI INVALID JUMPDEST EQ ISZERO JUMPDEST PUSH2 0x5545 JUMPI INVALID JUMPDEST PUSH1 0x1 PUSH1 0x1 PUSH1 0xA0 SHL SUB DUP4 AND PUSH1 0x0 SWAP1 DUP2 MSTORE PUSH1 0xE PUSH1 0x20 MSTORE PUSH1 0x40 DUP2 KECCAK256 PUSH1 0x3 ADD SLOAD PUSH2 0x100 SWAP1 DIV PUSH1 0x1 PUSH1 0x1 PUSH1 0x80 SHL SUB AND SWAP1 DUP4 SWAP1 PUSH2 0x557D DUP3 PUSH1 0x1 PUSH2 0x2C93 JUMP JUMPDEST SWAP1 POP DUP1 DUP4 PUSH1 0x1 PUSH1 0x1 PUSH1 0x80 SHL SUB AND GT ISZERO PUSH2 0x5592 JUMPI INVALID JUMPDEST PUSH1 0x0 PUSH1 0x15 DUP3 DUP2 SLOAD DUP2 LT PUSH2 0x55A1 JUMPI INVALID JUMPDEST PUSH1 0x0 SWAP2 DUP3 MSTORE PUSH1 0x20 SWAP1 SWAP2 KECCAK256 ADD SLOAD PUSH1 0x15 DUP1 SLOAD PUSH1 0x1 PUSH1 0x1 PUSH1 0xA0 SHL SUB SWAP1 SWAP3 AND SWAP3 POP DUP3 SWAP2 PUSH1 0x1 PUSH1 0x1 PUSH1 0x80 SHL SUB DUP8 AND SWAP1 DUP2 LT PUSH2 0x55D3 JUMPI INVALID JUMPDEST PUSH1 0x0 SWAP2 DUP3 MSTORE PUSH1 0x20 DUP1 DUP4 KECCAK256 SWAP2 SWAP1 SWAP2 ADD DUP1 SLOAD PUSH1 0x1 PUSH1 0x1 PUSH1 0xA0 SHL SUB NOT AND PUSH1 0x1 PUSH1 0x1 PUSH1 0xA0 SHL SUB SWAP5 DUP6 AND OR SWAP1 SSTORE SWAP2 DUP4 AND DUP1 DUP3 MSTORE PUSH1 0xE DUP4 MSTORE PUSH1 0x40 SWAP2 DUP3 SWAP1 KECCAK256 PUSH1 0x3 ADD DUP1 SLOAD PUSH2 0x100 PUSH1 0x1 PUSH1 0x88 SHL SUB NOT AND PUSH2 0x100 PUSH1 0x1 PUSH1 0x1 PUSH1 0x80 SHL SUB DUP11 AND SWAP1 DUP2 MUL SWAP2 SWAP1 SWAP2 OR SWAP1 SWAP2 SSTORE DUP3 MLOAD SWAP2 DUP3 MSTORE SWAP3 DUP2 ADD SWAP3 SWAP1 SWAP3 MSTORE DUP1 MLOAD PUSH32 0x2B04AE5F7BE9CA7C103293A2AA15F3C339D15D6EDA53B721FEF7B0E609C831A SWAP3 DUP2 SWAP1 SUB SWAP1 SWAP2 ADD SWAP1 LOG1 PUSH1 0x15 DUP1 SLOAD DUP1 PUSH2 0x5675 JUMPI INVALID JUMPDEST PUSH1 0x0 DUP3 DUP2 MSTORE PUSH1 0x20 SWAP1 KECCAK256 DUP2 ADD PUSH1 0x0 NOT SWAP1 DUP2 ADD DUP1 SLOAD PUSH1 0x1 PUSH1 0x1 PUSH1 0xA0 SHL SUB NOT AND SWAP1 SSTORE ADD SWAP1 SSTORE POP POP POP POP POP POP POP JUMP JUMPDEST PUSH1 0xC8 SWAP1 DIV SWAP1 JUMP JUMPDEST PUSH1 0x0 DUP1 DUP1 DUP1 DUP5 ISZERO PUSH2 0x56FD JUMPI PUSH2 0x56BC DUP8 DUP7 PUSH2 0x512E JUMP JUMPDEST SWAP4 POP PUSH2 0x56D2 DUP8 PUSH2 0x1468 DUP9 DUP8 PUSH4 0xFFFFFFFF PUSH2 0x36C1 AND JUMP JUMPDEST SWAP3 POP PUSH2 0x56E4 DUP8 DUP6 PUSH4 0xFFFFFFFF PUSH2 0x2C93 AND JUMP JUMPDEST SWAP2 POP PUSH2 0x56F6 DUP7 DUP5 PUSH4 0xFFFFFFFF PUSH2 0x2C93 AND JUMP JUMPDEST SWAP1 POP PUSH2 0x570A JUMP JUMPDEST POP PUSH1 0x0 SWAP3 POP DUP3 SWAP2 POP DUP6 SWAP1 POP DUP5 JUMPDEST SWAP4 POP SWAP4 POP SWAP4 POP SWAP4 JUMP JUMPDEST PUSH2 0x571B PUSH2 0x5811 JUMP JUMPDEST DUP4 DUP2 MSTORE PUSH1 0x20 DUP2 ADD DUP4 SWAP1 MSTORE PUSH1 0x0 PUSH2 0x5743 DUP4 PUSH2 0x1468 DUP8 PUSH8 0xF43FC2C04EE0000 PUSH4 0xFFFFFFFF PUSH2 0x36C1 AND JUMP JUMPDEST SWAP1 POP PUSH2 0x574E DUP2 PUSH2 0x56A0 JUMP JUMPDEST PUSH1 0x40 DUP4 ADD DUP2 SWAP1 MSTORE PUSH9 0x1158E460913D00000 PUSH1 0x60 DUP5 ADD MSTORE PUSH1 0x80 DUP4 ADD DUP7 SWAP1 MSTORE PUSH2 0x577C SWAP1 DUP3 SWAP1 PUSH4 0xFFFFFFFF PUSH2 0x2C93 AND JUMP JUMPDEST PUSH1 0xA0 DUP4 ADD MSTORE PUSH2 0x5791 DUP5 DUP3 PUSH4 0xFFFFFFFF PUSH2 0x2C93 AND JUMP JUMPDEST PUSH2 0x100 DUP4 ADD MSTORE POP PUSH1 0x0 PUSH1 0xC0 DUP3 ADD DUP2 SWAP1 MSTORE PUSH1 0xE0 DUP3 ADD MSTORE SWAP4 SWAP3 POP POP POP JUMP JUMPDEST PUSH1 0x0 DUP1 PUSH2 0x57C0 DUP5 DUP5 PUSH4 0xFFFFFFFF PUSH2 0x36C1 AND JUMP JUMPDEST SWAP1 POP PUSH2 0x3F8D PUSH8 0xDE0B6B3A7640000 PUSH2 0x1468 DUP4 PUSH8 0x6F05B59D3B20000 PUSH2 0x3CF0 JUMP JUMPDEST PUSH1 0x40 MLOAD DUP1 PUSH1 0xA0 ADD PUSH1 0x40 MSTORE DUP1 PUSH1 0x0 DUP2 MSTORE PUSH1 0x20 ADD PUSH1 0x0 DUP2 MSTORE PUSH1 0x20 ADD PUSH1 0x0 ISZERO ISZERO DUP2 MSTORE PUSH1 0x20 ADD PUSH1 0x0 DUP2 MSTORE PUSH1 0x20 ADD PUSH1 0x0 DUP2 MSTORE POP SWAP1 JUMP JUMPDEST PUSH1 0x40 MLOAD DUP1 PUSH2 0x120 ADD PUSH1 0x40 MSTORE DUP1 PUSH1 0x0 DUP2 MSTORE PUSH1 0x20 ADD PUSH1 0x0 DUP2 MSTORE PUSH1 0x20 ADD PUSH1 0x0 DUP2 MSTORE PUSH1 0x20 ADD PUSH1 0x0 DUP2 MSTORE PUSH1 0x20 ADD PUSH1 0x0 DUP2 MSTORE PUSH1 0x20 ADD PUSH1 0x0 DUP2 MSTORE PUSH1 0x20 ADD PUSH1 0x0 DUP2 MSTORE PUSH1 0x20 ADD PUSH1 0x0 DUP2 MSTORE PUSH1 0x20 ADD PUSH1 0x0 DUP2 MSTORE POP SWAP1 JUMP JUMPDEST PUSH1 0x40 DUP1 MLOAD PUSH1 0xE0 DUP2 ADD DUP3 MSTORE PUSH1 0x0 DUP1 DUP3 MSTORE PUSH1 0x20 DUP3 ADD DUP2 SWAP1 MSTORE SWAP2 DUP2 ADD DUP3 SWAP1 MSTORE PUSH1 0x60 DUP2 ADD DUP3 SWAP1 MSTORE PUSH1 0x80 DUP2 ADD DUP3 SWAP1 MSTORE PUSH1 0xA0 DUP2 ADD DUP3 SWAP1 MSTORE PUSH1 0xC0 DUP2 ADD SWAP2 SWAP1 SWAP2 MSTORE SWAP1 JUMP JUMPDEST PUSH1 0x40 MLOAD DUP1 PUSH2 0x100 ADD PUSH1 0x40 MSTORE DUP1 PUSH1 0x0 DUP2 MSTORE PUSH1 0x20 ADD PUSH1 0x0 DUP2 MSTORE PUSH1 0x20 ADD PUSH1 0x0 DUP2 MSTORE PUSH1 0x20 ADD PUSH1 0x0 DUP2 MSTORE PUSH1 0x20 ADD PUSH1 0x0 DUP2 MSTORE PUSH1 0x20 ADD PUSH1 0x0 DUP2 MSTORE PUSH1 0x20 ADD PUSH1 0x0 DUP2 MSTORE PUSH1 0x20 ADD PUSH1 0x0 DUP2 MSTORE POP SWAP1 JUMP JUMPDEST PUSH1 0x40 MLOAD DUP1 PUSH1 0x60 ADD PUSH1 0x40 MSTORE DUP1 PUSH1 0x0 DUP2 MSTORE PUSH1 0x20 ADD PUSH1 0x0 DUP2 MSTORE PUSH1 0x20 ADD PUSH1 0x0 ISZERO ISZERO DUP2 MSTORE POP SWAP1 JUMP JUMPDEST PUSH1 0x40 MLOAD DUP1 PUSH1 0xE0 ADD PUSH1 0x40 MSTORE DUP1 PUSH1 0x0 DUP2 MSTORE PUSH1 0x20 ADD PUSH1 0x0 DUP2 MSTORE PUSH1 0x20 ADD PUSH1 0x0 DUP2 MSTORE PUSH1 0x20 ADD PUSH1 0x0 PUSH1 0x1 PUSH1 0x1 PUSH1 0xA0 SHL SUB AND DUP2 MSTORE PUSH1 0x20 ADD PUSH1 0x0 ISZERO ISZERO DUP2 MSTORE PUSH1 0x20 ADD PUSH1 0x0 DUP2 MSTORE PUSH1 0x20 ADD PUSH1 0x0 DUP2 MSTORE POP SWAP1 JUMP JUMPDEST PUSH1 0x40 MLOAD DUP1 PUSH1 0x60 ADD PUSH1 0x40 MSTORE DUP1 PUSH1 0x0 DUP2 MSTORE PUSH1 0x20 ADD PUSH1 0x0 DUP2 MSTORE PUSH1 0x20 ADD PUSH1 0x0 DUP2 MSTORE POP SWAP1 JUMP INVALID SLOAD PUSH19 0x6F76654D616E616765723A20556E61626C6520 PUSH21 0x6F2072656465656D20616E7920616D6F756E745472 PUSH16 0x76654D616E616765723A204F6E6C7920 PUSH16 0x6E652074726F766520696E2074686520 PUSH20 0x797374656D54726F76654D616E616765723A2052 PUSH6 0x64656D707469 PUSH16 0x6E7320617265206E6F7420616C6C6F77 PUSH6 0x642064757269 PUSH15 0x6720626F6F74737472617020706861 PUSH20 0x65536166654D6174683A206D756C7469706C6963 PUSH2 0x7469 PUSH16 0x6E206F766572666C6F7754726F76654D PUSH2 0x6E61 PUSH8 0x65723A2052657175 PUSH6 0x737465642072 PUSH6 0x64656D707469 PUSH16 0x6E20616D6F756E74206D757374206265 KECCAK256 EXTCODECOPY RETURNDATASIZE KECCAK256 PUSH22 0x7365722773204C55534420746F6B656E2062616C616E PUSH4 0x65C3770D PUSH6 0x4ED33AEEA6BF GT 0xAC DUP15 CREATE 0x5D MUL 0xA6 LOG0 0x4E 0xD4 PUSH9 0x6DD2F624D853BBEC43 0xCC DUP12 SLOAD PUSH19 0x6F76654D616E616765723A2043616C6C657220 PUSH10 0x73206E6F742074686520 TIMESTAMP PUSH16 0x72726F7765724F7065726174696F6E73 KECCAK256 PUSH4 0x6F6E7472 PUSH2 0x6374 SLOAD PUSH19 0x6F76654D616E616765723A2043616C6C646174 PUSH2 0x2061 PUSH5 0x6472657373 KECCAK256 PUSH2 0x7272 PUSH2 0x7920 PUSH14 0x757374206E6F7420626520656D70 PUSH21 0x7954726F76654D616E616765723A20416D6F756E74 KECCAK256 PUSH14 0x7573742062652067726561746572 KECCAK256 PUSH21 0x68616E207A65726F54726F76654D616E616765723A KECCAK256 CHAINID PUSH6 0x6520776F756C PUSH5 0x2065617420 PUSH22 0x7020616C6C2072657475726E656420636F6C6C617465 PUSH19 0x616C4D6178206665652070657263656E746167 PUSH6 0x206D75737420 PUSH3 0x652062 PUSH6 0x747765656E20 ADDRESS 0x2E CALLDATALOAD 0x25 KECCAK256 PUSH2 0x6E64 KECCAK256 BALANCE ADDRESS ADDRESS 0x25 SLOAD PUSH19 0x6F76654D616E616765723A2043616E6E6F7420 PUSH19 0x656465656D207768656E20544352203C204D43 MSTORE SLOAD PUSH19 0x6F76654D616E616765723A206E6F7468696E67 KECCAK256 PUSH21 0x6F206C697175696461746554726F76654D616E6167 PUSH6 0x723A2054726F PUSH23 0x6520646F6573206E6F74206578697374206F7220697320 PUSH4 0x6C6F7365 PUSH5 0xA264697066 PUSH20 0x582212208D843E64798D7C9FA2B15BEB6B354222 0xDF ISZERO 0xB8 PUSH12 0xC0A0C75D432D41F8A278D1B PUSH5 0x736F6C6343 STOP MOD SIGNEXTEND STOP CALLER "
		},
		"gasEstimates": {
			"creation": {
				"codeDepositCost": "4723600",
				"executionCost": "27919",
				"totalCost": "4751519"
			},
			"external": {
				"BETA()": "312",
				"BOOTSTRAP_PERIOD()": "354",
				"BORROWING_FEE_FLOOR()": "380",
				"CCR()": "355",
				"DECIMAL_PRECISION()": "332",
				"LUSD_GAS_COMPENSATION()": "288",
				"L_ETH()": "1110",
				"L_LUSDDebt()": "1153",
				"MAX_BORROWING_FEE()": "350",
				"MCR()": "375",
				"MINUTE_DECAY_FACTOR()": "287",
				"MIN_NET_DEBT()": "333",
				"NAME()": "infinite",
				"PERCENT_DIVISOR()": "289",
				"REDEMPTION_FEE_FLOOR()": "383",
				"SECONDS_IN_ONE_MINUTE()": "332",
				"TroveOwners(uint256)": "2125",
				"Troves(address)": "3885",
				"_100pct()": "309",
				"activePool()": "1172",
				"addTroveOwnerToArray(address)": "infinite",
				"admin()": "1169",
				"applyPendingRewards(address)": "infinite",
				"baseRate()": "1067",
				"batchLiquidateTroves(address[])": "infinite",
				"borrowerOperationsAddress()": "1170",
				"checkRecoveryMode(uint256)": "infinite",
				"closeTrove(address)": "infinite",
				"decayBaseRateFromBorrowing()": "infinite",
				"decreaseTroveColl(address,uint256)": "infinite",
				"decreaseTroveDebt(address,uint256)": "infinite",
				"defaultPool()": "1171",
				"getBorrowingFee(uint256)": "infinite",
				"getBorrowingFeeWithDecay(uint256)": "infinite",
				"getBorrowingRate()": "infinite",
				"getBorrowingRateWithDecay()": "infinite",
				"getCurrentICR(address,uint256)": "infinite",
				"getEntireDebtAndColl(address)": "infinite",
				"getEntireSystemColl()": "infinite",
				"getEntireSystemDebt()": "infinite",
				"getNominalICR(address)": "infinite",
				"getPendingETHReward(address)": "infinite",
				"getPendingLUSDDebtReward(address)": "infinite",
				"getRedemptionFeeWithDecay(uint256)": "infinite",
				"getRedemptionRate()": "infinite",
				"getRedemptionRateWithDecay()": "infinite",
				"getTCR(uint256)": "infinite",
				"getTroveColl(address)": "1217",
				"getTroveDebt(address)": "1253",
				"getTroveFromTroveOwnersArray(uint256)": "2108",
				"getTroveOwnersCount()": "1111",
				"getTroveStake(address)": "1216",
				"getTroveStatus(address)": "1303",
				"hasPendingRewards(address)": "2981",
				"increaseTroveColl(address,uint256)": "infinite",
				"increaseTroveDebt(address,uint256)": "infinite",
				"isOwner()": "1183",
				"lastETHError_Redistribution()": "1089",
				"lastFeeOperationTime()": "1153",
				"lastLUSDDebtError_Redistribution()": "1090",
				"liquidate(address)": "infinite",
				"liquidateTroves(uint256)": "infinite",
				"lqtyStaking()": "1193",
				"lqtyToken()": "1128",
				"lusdToken()": "1105",
				"owner()": "1171",
				"priceFeed()": "1170",
				"redeemCollateral(uint256,address,address,address,uint256,uint256,uint256)": "infinite",
				"removeStake(address)": "infinite",
				"renounceAdmin()": "21926",
				"rewardSnapshots(address)": "2054",
				"setAddresses(address,address,address,address,address,address,address,address,address,address,address)": "infinite",
				"setAdmin(address)": "22096",
				"setPriceFeed(address)": "22002",
				"setTroveStatus(address,uint256)": "infinite",
				"sortedTroves()": "1126",
				"stabilityPool()": "1107",
				"totalCollateralSnapshot()": "1066",
				"totalStakes()": "1132",
				"totalStakesSnapshot()": "1155",
				"updateStakeAndTotalStakes(address)": "infinite",
				"updateTroveRewardSnapshots(address)": "infinite"
			},
			"internal": {
				"_addLiquidationValuesToTotals(struct TroveManager.LiquidationTotals memory,struct TroveManager.LiquidationValues memory)": "infinite",
				"_addTroveOwnerToArray(address)": "infinite",
				"_applyPendingRewards(contract IActivePool,contract IDefaultPool,address)": "infinite",
				"_calcBorrowingFee(uint256,uint256)": "infinite",
				"_calcBorrowingRate(uint256)": "infinite",
				"_calcDecayedBaseRate()": "infinite",
				"_calcRedemptionFee(uint256,uint256)": "infinite",
				"_calcRedemptionRate(uint256)": "infinite",
				"_checkPotentialRecoveryMode(uint256,uint256,uint256)": "infinite",
				"_closeTrove(address,enum TroveManager.Status)": "infinite",
				"_computeNewStake(uint256)": "infinite",
				"_getCappedOffsetVals(uint256,uint256,uint256)": "infinite",
				"_getCurrentTroveAmounts(address)": "infinite",
				"_getOffsetAndRedistributionVals(uint256,uint256,uint256)": "infinite",
				"_getRedemptionFee(uint256)": "infinite",
				"_getTotalFromBatchLiquidate_RecoveryMode(contract IActivePool,contract IDefaultPool,uint256,uint256,address[] memory)": "infinite",
				"_getTotalsFromBatchLiquidate_NormalMode(contract IActivePool,contract IDefaultPool,uint256,uint256,address[] memory)": "infinite",
				"_getTotalsFromLiquidateTrovesSequence_NormalMode(contract IActivePool,contract IDefaultPool,uint256,uint256,uint256)": "infinite",
				"_getTotalsFromLiquidateTrovesSequence_RecoveryMode(struct TroveManager.ContractsCache memory,uint256,uint256,uint256)": "infinite",
				"_isValidFirstRedemptionHint(contract ISortedTroves,address,uint256)": "infinite",
				"_liquidateNormalMode(contract IActivePool,contract IDefaultPool,address,uint256)": "infinite",
				"_liquidateRecoveryMode(contract IActivePool,contract IDefaultPool,address,uint256,uint256,uint256,uint256)": "infinite",
				"_minutesPassedSinceLastFeeOp()": "infinite",
				"_movePendingTroveRewardsToActivePool(contract IActivePool,contract IDefaultPool,uint256,uint256)": "infinite",
				"_redeemCloseTrove(struct TroveManager.ContractsCache memory,address,uint256,uint256)": "infinite",
				"_redeemCollateralFromTrove(struct TroveManager.ContractsCache memory,address,uint256,uint256,address,address,uint256)": "infinite",
				"_redistributeDebtAndColl(contract IActivePool,contract IDefaultPool,uint256,uint256)": "infinite",
				"_removeStake(address)": "infinite",
				"_removeTroveOwner(address,uint256)": "infinite",
				"_requireAfterBootstrapPeriod()": "infinite",
				"_requireAmountGreaterThanZero(uint256)": "infinite",
				"_requireCallerIsBorrowerOperations()": "infinite",
				"_requireLUSDBalanceCoversRedemption(contract ILUSDToken,address,uint256)": "infinite",
				"_requireMoreThanOneTroveInSystem(uint256)": "infinite",
				"_requireTCRoverMCR(uint256)": "infinite",
				"_requireTroveIsActive(address)": "infinite",
				"_requireValidMaxFeePercentage(uint256)": "infinite",
				"_sendGasCompensation(contract IActivePool,address,uint256,uint256)": "infinite",
				"_updateBaseRateFromRedemption(uint256,uint256,uint256)": "infinite",
				"_updateLastFeeOpTime()": "infinite",
				"_updateStakeAndTotalStakes(address)": "infinite",
				"_updateSystemSnapshots_excludeCollRemainder(contract IActivePool,uint256)": "infinite",
				"_updateTroveRewardSnapshots(address)": "infinite"
			}
		},
		"methodIdentifiers": {
			"BETA()": "071a7541",
			"BOOTSTRAP_PERIOD()": "c35bc550",
			"BORROWING_FEE_FLOOR()": "f92d3433",
			"CCR()": "5733d58f",
			"DECIMAL_PRECISION()": "a20baee6",
			"LUSD_GAS_COMPENSATION()": "2e86bbd8",
			"L_ETH()": "9dd233d2",
			"L_LUSDDebt()": "dba1c5f2",
			"MAX_BORROWING_FEE()": "24092669",
			"MCR()": "794e5724",
			"MINUTE_DECAY_FACTOR()": "c7b55481",
			"MIN_NET_DEBT()": "1bf43555",
			"NAME()": "a3f4df7e",
			"PERCENT_DIVISOR()": "4870dd9a",
			"REDEMPTION_FEE_FLOOR()": "28d28b5b",
			"SECONDS_IN_ONE_MINUTE()": "61ec893d",
			"TroveOwners(uint256)": "756b253e",
			"Troves(address)": "6ef64338",
			"_100pct()": "72fe25aa",
			"activePool()": "7f7dde4a",
			"addTroveOwnerToArray(address)": "15d549f1",
			"admin()": "f851a440",
			"applyPendingRewards(address)": "0b076557",
			"baseRate()": "1f68f20a",
			"batchLiquidateTroves(address[])": "1e8b1c2b",
			"borrowerOperationsAddress()": "b7f8cf9b",
			"checkRecoveryMode(uint256)": "4e443d9e",
			"closeTrove(address)": "cbd138ae",
			"decayBaseRateFromBorrowing()": "5dba4c4a",
			"decreaseTroveColl(address,uint256)": "d3d6f843",
			"decreaseTroveDebt(address,uint256)": "12610e92",
			"defaultPool()": "3cc74225",
			"getBorrowingFee(uint256)": "631203b0",
			"getBorrowingFeeWithDecay(uint256)": "477d66cf",
			"getBorrowingRate()": "f36b2425",
			"getBorrowingRateWithDecay()": "66ca4a21",
			"getCurrentICR(address,uint256)": "d293c710",
			"getEntireDebtAndColl(address)": "b91af97c",
			"getEntireSystemColl()": "887105d3",
			"getEntireSystemDebt()": "795d26c3",
			"getNominalICR(address)": "b0d8e181",
			"getPendingETHReward(address)": "5d8c9609",
			"getPendingLUSDDebtReward(address)": "f34862de",
			"getRedemptionFeeWithDecay(uint256)": "d5b35635",
			"getRedemptionRate()": "2b11551a",
			"getRedemptionRateWithDecay()": "c52861f2",
			"getTCR(uint256)": "b82f263d",
			"getTroveColl(address)": "480cd578",
			"getTroveDebt(address)": "d66a2553",
			"getTroveFromTroveOwnersArray(uint256)": "d9a72444",
			"getTroveOwnersCount()": "49eefeee",
			"getTroveStake(address)": "64cee260",
			"getTroveStatus(address)": "21e37801",
			"hasPendingRewards(address)": "e2ac77b0",
			"increaseTroveColl(address,uint256)": "72423c17",
			"increaseTroveDebt(address,uint256)": "9976cf45",
			"isOwner()": "8f32d59b",
			"lastETHError_Redistribution()": "797250e3",
			"lastFeeOperationTime()": "d380a37c",
			"lastLUSDDebtError_Redistribution()": "060d49a3",
			"liquidate(address)": "2f865568",
			"liquidateTroves(uint256)": "653d46e7",
			"lqtyStaking()": "a3a64017",
			"lqtyToken()": "1f7af3c3",
			"lusdToken()": "b83f91a2",
			"owner()": "8da5cb5b",
			"priceFeed()": "741bef1a",
			"redeemCollateral(uint256,address,address,address,uint256,uint256,uint256)": "bcd37526",
			"removeStake(address)": "fe2ba848",
			"renounceAdmin()": "8bad0c0a",
			"rewardSnapshots(address)": "1673c79a",
			"setAddresses(address,address,address,address,address,address,address,address,address,address,address)": "7985c5e4",
			"setAdmin(address)": "704b6c02",
			"setPriceFeed(address)": "724e78da",
			"setTroveStatus(address,uint256)": "5d6b480f",
			"sortedTroves()": "ae918754",
			"stabilityPool()": "048c661d",
			"totalCollateralSnapshot()": "96d711ff",
			"totalStakes()": "bf9befb1",
			"totalStakesSnapshot()": "807d138d",
			"updateStakeAndTotalStakes(address)": "18f2817a",
			"updateTroveRewardSnapshots(address)": "82fe3eb9"
		}
	},
	"abi": [
		{
			"anonymous": false,
			"inputs": [
				{
					"indexed": false,
					"internalType": "address",
					"name": "_activePoolAddress",
					"type": "address"
				}
			],
			"name": "ActivePoolAddressChanged",
			"type": "event"
		},
		{
			"anonymous": false,
			"inputs": [
				{
					"indexed": false,
					"internalType": "uint256",
					"name": "_baseRate",
					"type": "uint256"
				}
			],
			"name": "BaseRateUpdated",
			"type": "event"
		},
		{
			"anonymous": false,
			"inputs": [
				{
					"indexed": false,
					"internalType": "address",
					"name": "_newBorrowerOperationsAddress",
					"type": "address"
				}
			],
			"name": "BorrowerOperationsAddressChanged",
			"type": "event"
		},
		{
			"anonymous": false,
			"inputs": [
				{
					"indexed": false,
					"internalType": "address",
					"name": "_collSurplusPoolAddress",
					"type": "address"
				}
			],
			"name": "CollSurplusPoolAddressChanged",
			"type": "event"
		},
		{
			"anonymous": false,
			"inputs": [
				{
					"indexed": false,
					"internalType": "address",
					"name": "_defaultPoolAddress",
					"type": "address"
				}
			],
			"name": "DefaultPoolAddressChanged",
			"type": "event"
		},
		{
			"anonymous": false,
			"inputs": [
				{
					"indexed": false,
					"internalType": "address",
					"name": "_gasPoolAddress",
					"type": "address"
				}
			],
			"name": "GasPoolAddressChanged",
			"type": "event"
		},
		{
			"anonymous": false,
			"inputs": [
				{
					"indexed": false,
					"internalType": "address",
					"name": "_lqtyStakingAddress",
					"type": "address"
				}
			],
			"name": "LQTYStakingAddressChanged",
			"type": "event"
		},
		{
			"anonymous": false,
			"inputs": [
				{
					"indexed": false,
					"internalType": "address",
					"name": "_lqtyTokenAddress",
					"type": "address"
				}
			],
			"name": "LQTYTokenAddressChanged",
			"type": "event"
		},
		{
			"anonymous": false,
			"inputs": [
				{
					"indexed": false,
					"internalType": "uint256",
					"name": "_L_ETH",
					"type": "uint256"
				},
				{
					"indexed": false,
					"internalType": "uint256",
					"name": "_L_LUSDDebt",
					"type": "uint256"
				}
			],
			"name": "LTermsUpdated",
			"type": "event"
		},
		{
			"anonymous": false,
			"inputs": [
				{
					"indexed": false,
					"internalType": "address",
					"name": "_newLUSDTokenAddress",
					"type": "address"
				}
			],
			"name": "LUSDTokenAddressChanged",
			"type": "event"
		},
		{
			"anonymous": false,
			"inputs": [
				{
					"indexed": false,
					"internalType": "uint256",
					"name": "_lastFeeOpTime",
					"type": "uint256"
				}
			],
			"name": "LastFeeOpTimeUpdated",
			"type": "event"
		},
		{
			"anonymous": false,
			"inputs": [
				{
					"indexed": false,
					"internalType": "uint256",
					"name": "_liquidatedDebt",
					"type": "uint256"
				},
				{
					"indexed": false,
					"internalType": "uint256",
					"name": "_liquidatedColl",
					"type": "uint256"
				},
				{
					"indexed": false,
					"internalType": "uint256",
					"name": "_collGasCompensation",
					"type": "uint256"
				},
				{
					"indexed": false,
					"internalType": "uint256",
					"name": "_LUSDGasCompensation",
					"type": "uint256"
				}
			],
			"name": "Liquidation",
			"type": "event"
		},
		{
			"anonymous": false,
			"inputs": [
				{
					"indexed": true,
					"internalType": "address",
					"name": "previousOwner",
					"type": "address"
				},
				{
					"indexed": true,
					"internalType": "address",
					"name": "newOwner",
					"type": "address"
				}
			],
			"name": "OwnershipTransferred",
			"type": "event"
		},
		{
			"anonymous": false,
			"inputs": [
				{
					"indexed": false,
					"internalType": "address",
					"name": "_newPriceFeedAddress",
					"type": "address"
				}
			],
			"name": "PriceFeedAddressChanged",
			"type": "event"
		},
		{
			"anonymous": false,
			"inputs": [
				{
					"indexed": false,
					"internalType": "uint256",
					"name": "_attemptedLUSDAmount",
					"type": "uint256"
				},
				{
					"indexed": false,
					"internalType": "uint256",
					"name": "_actualLUSDAmount",
					"type": "uint256"
				},
				{
					"indexed": false,
					"internalType": "uint256",
					"name": "_ETHSent",
					"type": "uint256"
				},
				{
					"indexed": false,
					"internalType": "uint256",
					"name": "_ETHFee",
					"type": "uint256"
				}
			],
			"name": "Redemption",
			"type": "event"
		},
		{
			"anonymous": false,
			"inputs": [
				{
					"indexed": false,
					"internalType": "address",
					"name": "_sortedTrovesAddress",
					"type": "address"
				}
			],
			"name": "SortedTrovesAddressChanged",
			"type": "event"
		},
		{
			"anonymous": false,
			"inputs": [
				{
					"indexed": false,
					"internalType": "address",
					"name": "_stabilityPoolAddress",
					"type": "address"
				}
			],
			"name": "StabilityPoolAddressChanged",
			"type": "event"
		},
		{
			"anonymous": false,
			"inputs": [
				{
					"indexed": false,
					"internalType": "uint256",
					"name": "_totalStakesSnapshot",
					"type": "uint256"
				},
				{
					"indexed": false,
					"internalType": "uint256",
					"name": "_totalCollateralSnapshot",
					"type": "uint256"
				}
			],
			"name": "SystemSnapshotsUpdated",
			"type": "event"
		},
		{
			"anonymous": false,
			"inputs": [
				{
					"indexed": false,
					"internalType": "uint256",
					"name": "_newTotalStakes",
					"type": "uint256"
				}
			],
			"name": "TotalStakesUpdated",
			"type": "event"
		},
		{
			"anonymous": false,
			"inputs": [
				{
					"indexed": false,
					"internalType": "address",
					"name": "_borrower",
					"type": "address"
				},
				{
					"indexed": false,
					"internalType": "uint256",
					"name": "_newIndex",
					"type": "uint256"
				}
			],
			"name": "TroveIndexUpdated",
			"type": "event"
		},
		{
			"anonymous": false,
			"inputs": [
				{
					"indexed": true,
					"internalType": "address",
					"name": "_borrower",
					"type": "address"
				},
				{
					"indexed": false,
					"internalType": "uint256",
					"name": "_debt",
					"type": "uint256"
				},
				{
					"indexed": false,
					"internalType": "uint256",
					"name": "_coll",
					"type": "uint256"
				},
				{
					"indexed": false,
					"internalType": "enum TroveManager.TroveManagerOperation",
					"name": "_operation",
					"type": "uint8"
				}
			],
			"name": "TroveLiquidated",
			"type": "event"
		},
		{
			"anonymous": false,
			"inputs": [
				{
					"indexed": false,
					"internalType": "uint256",
					"name": "_L_ETH",
					"type": "uint256"
				},
				{
					"indexed": false,
					"internalType": "uint256",
					"name": "_L_LUSDDebt",
					"type": "uint256"
				}
			],
			"name": "TroveSnapshotsUpdated",
			"type": "event"
		},
		{
			"anonymous": false,
			"inputs": [
				{
					"indexed": true,
					"internalType": "address",
					"name": "_borrower",
					"type": "address"
				},
				{
					"indexed": false,
					"internalType": "uint256",
					"name": "_debt",
					"type": "uint256"
				},
				{
					"indexed": false,
					"internalType": "uint256",
					"name": "_coll",
					"type": "uint256"
				},
				{
					"indexed": false,
					"internalType": "uint256",
					"name": "_stake",
					"type": "uint256"
				},
				{
					"indexed": false,
					"internalType": "enum TroveManager.TroveManagerOperation",
					"name": "_operation",
					"type": "uint8"
				}
			],
			"name": "TroveUpdated",
			"type": "event"
		},
		{
			"inputs": [],
			"name": "BETA",
			"outputs": [
				{
					"internalType": "uint256",
					"name": "",
					"type": "uint256"
				}
			],
			"stateMutability": "view",
			"type": "function"
		},
		{
			"inputs": [],
			"name": "BOOTSTRAP_PERIOD",
			"outputs": [
				{
					"internalType": "uint256",
					"name": "",
					"type": "uint256"
				}
			],
			"stateMutability": "view",
			"type": "function"
		},
		{
			"inputs": [],
			"name": "BORROWING_FEE_FLOOR",
			"outputs": [
				{
					"internalType": "uint256",
					"name": "",
					"type": "uint256"
				}
			],
			"stateMutability": "view",
			"type": "function"
		},
		{
			"inputs": [],
			"name": "CCR",
			"outputs": [
				{
					"internalType": "uint256",
					"name": "",
					"type": "uint256"
				}
			],
			"stateMutability": "view",
			"type": "function"
		},
		{
			"inputs": [],
			"name": "DECIMAL_PRECISION",
			"outputs": [
				{
					"internalType": "uint256",
					"name": "",
					"type": "uint256"
				}
			],
			"stateMutability": "view",
			"type": "function"
		},
		{
			"inputs": [],
			"name": "LUSD_GAS_COMPENSATION",
			"outputs": [
				{
					"internalType": "uint256",
					"name": "",
					"type": "uint256"
				}
			],
			"stateMutability": "view",
			"type": "function"
		},
		{
			"inputs": [],
			"name": "L_ETH",
			"outputs": [
				{
					"internalType": "uint256",
					"name": "",
					"type": "uint256"
				}
			],
			"stateMutability": "view",
			"type": "function"
		},
		{
			"inputs": [],
			"name": "L_LUSDDebt",
			"outputs": [
				{
					"internalType": "uint256",
					"name": "",
					"type": "uint256"
				}
			],
			"stateMutability": "view",
			"type": "function"
		},
		{
			"inputs": [],
			"name": "MAX_BORROWING_FEE",
			"outputs": [
				{
					"internalType": "uint256",
					"name": "",
					"type": "uint256"
				}
			],
			"stateMutability": "view",
			"type": "function"
		},
		{
			"inputs": [],
			"name": "MCR",
			"outputs": [
				{
					"internalType": "uint256",
					"name": "",
					"type": "uint256"
				}
			],
			"stateMutability": "view",
			"type": "function"
		},
		{
			"inputs": [],
			"name": "MINUTE_DECAY_FACTOR",
			"outputs": [
				{
					"internalType": "uint256",
					"name": "",
					"type": "uint256"
				}
			],
			"stateMutability": "view",
			"type": "function"
		},
		{
			"inputs": [],
			"name": "MIN_NET_DEBT",
			"outputs": [
				{
					"internalType": "uint256",
					"name": "",
					"type": "uint256"
				}
			],
			"stateMutability": "view",
			"type": "function"
		},
		{
			"inputs": [],
			"name": "NAME",
			"outputs": [
				{
					"internalType": "string",
					"name": "",
					"type": "string"
				}
			],
			"stateMutability": "view",
			"type": "function"
		},
		{
			"inputs": [],
			"name": "PERCENT_DIVISOR",
			"outputs": [
				{
					"internalType": "uint256",
					"name": "",
					"type": "uint256"
				}
			],
			"stateMutability": "view",
			"type": "function"
		},
		{
			"inputs": [],
			"name": "REDEMPTION_FEE_FLOOR",
			"outputs": [
				{
					"internalType": "uint256",
					"name": "",
					"type": "uint256"
				}
			],
			"stateMutability": "view",
			"type": "function"
		},
		{
			"inputs": [],
			"name": "SECONDS_IN_ONE_MINUTE",
			"outputs": [
				{
					"internalType": "uint256",
					"name": "",
					"type": "uint256"
				}
			],
			"stateMutability": "view",
			"type": "function"
		},
		{
			"inputs": [
				{
					"internalType": "uint256",
					"name": "",
					"type": "uint256"
				}
			],
			"name": "TroveOwners",
			"outputs": [
				{
					"internalType": "address",
					"name": "",
					"type": "address"
				}
			],
			"stateMutability": "view",
			"type": "function"
		},
		{
			"inputs": [
				{
					"internalType": "address",
					"name": "",
					"type": "address"
				}
			],
			"name": "Troves",
			"outputs": [
				{
					"internalType": "uint256",
					"name": "debt",
					"type": "uint256"
				},
				{
					"internalType": "uint256",
					"name": "coll",
					"type": "uint256"
				},
				{
					"internalType": "uint256",
					"name": "stake",
					"type": "uint256"
				},
				{
					"internalType": "enum TroveManager.Status",
					"name": "status",
					"type": "uint8"
				},
				{
					"internalType": "uint128",
					"name": "arrayIndex",
					"type": "uint128"
				}
			],
			"stateMutability": "view",
			"type": "function"
		},
		{
			"inputs": [],
			"name": "_100pct",
			"outputs": [
				{
					"internalType": "uint256",
					"name": "",
					"type": "uint256"
				}
			],
			"stateMutability": "view",
			"type": "function"
		},
		{
			"inputs": [],
			"name": "activePool",
			"outputs": [
				{
					"internalType": "contract IActivePool",
					"name": "",
					"type": "address"
				}
			],
			"stateMutability": "view",
			"type": "function"
		},
		{
			"inputs": [
				{
					"internalType": "address",
					"name": "_borrower",
					"type": "address"
				}
			],
			"name": "addTroveOwnerToArray",
			"outputs": [
				{
					"internalType": "uint256",
					"name": "index",
					"type": "uint256"
				}
			],
			"stateMutability": "nonpayable",
			"type": "function"
		},
		{
			"inputs": [],
			"name": "admin",
			"outputs": [
				{
					"internalType": "address",
					"name": "",
					"type": "address"
				}
			],
			"stateMutability": "view",
			"type": "function"
		},
		{
			"inputs": [
				{
					"internalType": "address",
					"name": "_borrower",
					"type": "address"
				}
			],
			"name": "applyPendingRewards",
			"outputs": [],
			"stateMutability": "nonpayable",
			"type": "function"
		},
		{
			"inputs": [],
			"name": "baseRate",
			"outputs": [
				{
					"internalType": "uint256",
					"name": "",
					"type": "uint256"
				}
			],
			"stateMutability": "view",
			"type": "function"
		},
		{
			"inputs": [
				{
					"internalType": "address[]",
					"name": "_troveArray",
					"type": "address[]"
				}
			],
			"name": "batchLiquidateTroves",
			"outputs": [],
			"stateMutability": "nonpayable",
			"type": "function"
		},
		{
			"inputs": [],
			"name": "borrowerOperationsAddress",
			"outputs": [
				{
					"internalType": "address",
					"name": "",
					"type": "address"
				}
			],
			"stateMutability": "view",
			"type": "function"
		},
		{
			"inputs": [
				{
					"internalType": "uint256",
					"name": "_price",
					"type": "uint256"
				}
			],
			"name": "checkRecoveryMode",
			"outputs": [
				{
					"internalType": "bool",
					"name": "",
					"type": "bool"
				}
			],
			"stateMutability": "view",
			"type": "function"
		},
		{
			"inputs": [
				{
					"internalType": "address",
					"name": "_borrower",
					"type": "address"
				}
			],
			"name": "closeTrove",
			"outputs": [],
			"stateMutability": "nonpayable",
			"type": "function"
		},
		{
			"inputs": [],
			"name": "decayBaseRateFromBorrowing",
			"outputs": [],
			"stateMutability": "nonpayable",
			"type": "function"
		},
		{
			"inputs": [
				{
					"internalType": "address",
					"name": "_borrower",
					"type": "address"
				},
				{
					"internalType": "uint256",
					"name": "_collDecrease",
					"type": "uint256"
				}
			],
			"name": "decreaseTroveColl",
			"outputs": [
				{
					"internalType": "uint256",
					"name": "",
					"type": "uint256"
				}
			],
			"stateMutability": "nonpayable",
			"type": "function"
		},
		{
			"inputs": [
				{
					"internalType": "address",
					"name": "_borrower",
					"type": "address"
				},
				{
					"internalType": "uint256",
					"name": "_debtDecrease",
					"type": "uint256"
				}
			],
			"name": "decreaseTroveDebt",
			"outputs": [
				{
					"internalType": "uint256",
					"name": "",
					"type": "uint256"
				}
			],
			"stateMutability": "nonpayable",
			"type": "function"
		},
		{
			"inputs": [],
			"name": "defaultPool",
			"outputs": [
				{
					"internalType": "contract IDefaultPool",
					"name": "",
					"type": "address"
				}
			],
			"stateMutability": "view",
			"type": "function"
		},
		{
			"inputs": [
				{
					"internalType": "uint256",
					"name": "_LUSDDebt",
					"type": "uint256"
				}
			],
			"name": "getBorrowingFee",
			"outputs": [
				{
					"internalType": "uint256",
					"name": "",
					"type": "uint256"
				}
			],
			"stateMutability": "view",
			"type": "function"
		},
		{
			"inputs": [
				{
					"internalType": "uint256",
					"name": "_LUSDDebt",
					"type": "uint256"
				}
			],
			"name": "getBorrowingFeeWithDecay",
			"outputs": [
				{
					"internalType": "uint256",
					"name": "",
					"type": "uint256"
				}
			],
			"stateMutability": "view",
			"type": "function"
		},
		{
			"inputs": [],
			"name": "getBorrowingRate",
			"outputs": [
				{
					"internalType": "uint256",
					"name": "",
					"type": "uint256"
				}
			],
			"stateMutability": "view",
			"type": "function"
		},
		{
			"inputs": [],
			"name": "getBorrowingRateWithDecay",
			"outputs": [
				{
					"internalType": "uint256",
					"name": "",
					"type": "uint256"
				}
			],
			"stateMutability": "view",
			"type": "function"
		},
		{
			"inputs": [
				{
					"internalType": "address",
					"name": "_borrower",
					"type": "address"
				},
				{
					"internalType": "uint256",
					"name": "_price",
					"type": "uint256"
				}
			],
			"name": "getCurrentICR",
			"outputs": [
				{
					"internalType": "uint256",
					"name": "",
					"type": "uint256"
				}
			],
			"stateMutability": "view",
			"type": "function"
		},
		{
			"inputs": [
				{
					"internalType": "address",
					"name": "_borrower",
					"type": "address"
				}
			],
			"name": "getEntireDebtAndColl",
			"outputs": [
				{
					"internalType": "uint256",
					"name": "debt",
					"type": "uint256"
				},
				{
					"internalType": "uint256",
					"name": "coll",
					"type": "uint256"
				},
				{
					"internalType": "uint256",
					"name": "pendingLUSDDebtReward",
					"type": "uint256"
				},
				{
					"internalType": "uint256",
					"name": "pendingETHReward",
					"type": "uint256"
				}
			],
			"stateMutability": "view",
			"type": "function"
		},
		{
			"inputs": [],
			"name": "getEntireSystemColl",
			"outputs": [
				{
					"internalType": "uint256",
					"name": "entireSystemColl",
					"type": "uint256"
				}
			],
			"stateMutability": "view",
			"type": "function"
		},
		{
			"inputs": [],
			"name": "getEntireSystemDebt",
			"outputs": [
				{
					"internalType": "uint256",
					"name": "entireSystemDebt",
					"type": "uint256"
				}
			],
			"stateMutability": "view",
			"type": "function"
		},
		{
			"inputs": [
				{
					"internalType": "address",
					"name": "_borrower",
					"type": "address"
				}
			],
			"name": "getNominalICR",
			"outputs": [
				{
					"internalType": "uint256",
					"name": "",
					"type": "uint256"
				}
			],
			"stateMutability": "view",
			"type": "function"
		},
		{
			"inputs": [
				{
					"internalType": "address",
					"name": "_borrower",
					"type": "address"
				}
			],
			"name": "getPendingETHReward",
			"outputs": [
				{
					"internalType": "uint256",
					"name": "",
					"type": "uint256"
				}
			],
			"stateMutability": "view",
			"type": "function"
		},
		{
			"inputs": [
				{
					"internalType": "address",
					"name": "_borrower",
					"type": "address"
				}
			],
			"name": "getPendingLUSDDebtReward",
			"outputs": [
				{
					"internalType": "uint256",
					"name": "",
					"type": "uint256"
				}
			],
			"stateMutability": "view",
			"type": "function"
		},
		{
			"inputs": [
				{
					"internalType": "uint256",
					"name": "_ETHDrawn",
					"type": "uint256"
				}
			],
			"name": "getRedemptionFeeWithDecay",
			"outputs": [
				{
					"internalType": "uint256",
					"name": "",
					"type": "uint256"
				}
			],
			"stateMutability": "view",
			"type": "function"
		},
		{
			"inputs": [],
			"name": "getRedemptionRate",
			"outputs": [
				{
					"internalType": "uint256",
					"name": "",
					"type": "uint256"
				}
			],
			"stateMutability": "view",
			"type": "function"
		},
		{
			"inputs": [],
			"name": "getRedemptionRateWithDecay",
			"outputs": [
				{
					"internalType": "uint256",
					"name": "",
					"type": "uint256"
				}
			],
			"stateMutability": "view",
			"type": "function"
		},
		{
			"inputs": [
				{
					"internalType": "uint256",
					"name": "_price",
					"type": "uint256"
				}
			],
			"name": "getTCR",
			"outputs": [
				{
					"internalType": "uint256",
					"name": "",
					"type": "uint256"
				}
			],
			"stateMutability": "view",
			"type": "function"
		},
		{
			"inputs": [
				{
					"internalType": "address",
					"name": "_borrower",
					"type": "address"
				}
			],
			"name": "getTroveColl",
			"outputs": [
				{
					"internalType": "uint256",
					"name": "",
					"type": "uint256"
				}
			],
			"stateMutability": "view",
			"type": "function"
		},
		{
			"inputs": [
				{
					"internalType": "address",
					"name": "_borrower",
					"type": "address"
				}
			],
			"name": "getTroveDebt",
			"outputs": [
				{
					"internalType": "uint256",
					"name": "",
					"type": "uint256"
				}
			],
			"stateMutability": "view",
			"type": "function"
		},
		{
			"inputs": [
				{
					"internalType": "uint256",
					"name": "_index",
					"type": "uint256"
				}
			],
			"name": "getTroveFromTroveOwnersArray",
			"outputs": [
				{
					"internalType": "address",
					"name": "",
					"type": "address"
				}
			],
			"stateMutability": "view",
			"type": "function"
		},
		{
			"inputs": [],
			"name": "getTroveOwnersCount",
			"outputs": [
				{
					"internalType": "uint256",
					"name": "",
					"type": "uint256"
				}
			],
			"stateMutability": "view",
			"type": "function"
		},
		{
			"inputs": [
				{
					"internalType": "address",
					"name": "_borrower",
					"type": "address"
				}
			],
			"name": "getTroveStake",
			"outputs": [
				{
					"internalType": "uint256",
					"name": "",
					"type": "uint256"
				}
			],
			"stateMutability": "view",
			"type": "function"
		},
		{
			"inputs": [
				{
					"internalType": "address",
					"name": "_borrower",
					"type": "address"
				}
			],
			"name": "getTroveStatus",
			"outputs": [
				{
					"internalType": "uint256",
					"name": "",
					"type": "uint256"
				}
			],
			"stateMutability": "view",
			"type": "function"
		},
		{
			"inputs": [
				{
					"internalType": "address",
					"name": "_borrower",
					"type": "address"
				}
			],
			"name": "hasPendingRewards",
			"outputs": [
				{
					"internalType": "bool",
					"name": "",
					"type": "bool"
				}
			],
			"stateMutability": "view",
			"type": "function"
		},
		{
			"inputs": [
				{
					"internalType": "address",
					"name": "_borrower",
					"type": "address"
				},
				{
					"internalType": "uint256",
					"name": "_collIncrease",
					"type": "uint256"
				}
			],
			"name": "increaseTroveColl",
			"outputs": [
				{
					"internalType": "uint256",
					"name": "",
					"type": "uint256"
				}
			],
			"stateMutability": "nonpayable",
			"type": "function"
		},
		{
			"inputs": [
				{
					"internalType": "address",
					"name": "_borrower",
					"type": "address"
				},
				{
					"internalType": "uint256",
					"name": "_debtIncrease",
					"type": "uint256"
				}
			],
			"name": "increaseTroveDebt",
			"outputs": [
				{
					"internalType": "uint256",
					"name": "",
					"type": "uint256"
				}
			],
			"stateMutability": "nonpayable",
			"type": "function"
		},
		{
			"inputs": [],
			"name": "isOwner",
			"outputs": [
				{
					"internalType": "bool",
					"name": "",
					"type": "bool"
				}
			],
			"stateMutability": "view",
			"type": "function"
		},
		{
			"inputs": [],
			"name": "lastETHError_Redistribution",
			"outputs": [
				{
					"internalType": "uint256",
					"name": "",
					"type": "uint256"
				}
			],
			"stateMutability": "view",
			"type": "function"
		},
		{
			"inputs": [],
			"name": "lastFeeOperationTime",
			"outputs": [
				{
					"internalType": "uint256",
					"name": "",
					"type": "uint256"
				}
			],
			"stateMutability": "view",
			"type": "function"
		},
		{
			"inputs": [],
			"name": "lastLUSDDebtError_Redistribution",
			"outputs": [
				{
					"internalType": "uint256",
					"name": "",
					"type": "uint256"
				}
			],
			"stateMutability": "view",
			"type": "function"
		},
		{
			"inputs": [
				{
					"internalType": "address",
					"name": "_borrower",
					"type": "address"
				}
			],
			"name": "liquidate",
			"outputs": [],
			"stateMutability": "nonpayable",
			"type": "function"
		},
		{
			"inputs": [
				{
					"internalType": "uint256",
					"name": "_n",
					"type": "uint256"
				}
			],
			"name": "liquidateTroves",
			"outputs": [],
			"stateMutability": "nonpayable",
			"type": "function"
		},
		{
			"inputs": [],
			"name": "lqtyStaking",
			"outputs": [
				{
					"internalType": "contract ILQTYStaking",
					"name": "",
					"type": "address"
				}
			],
			"stateMutability": "view",
			"type": "function"
		},
		{
			"inputs": [],
			"name": "lqtyToken",
			"outputs": [
				{
					"internalType": "contract ILQTYToken",
					"name": "",
					"type": "address"
				}
			],
			"stateMutability": "view",
			"type": "function"
		},
		{
			"inputs": [],
			"name": "lusdToken",
			"outputs": [
				{
					"internalType": "contract ILUSDToken",
					"name": "",
					"type": "address"
				}
			],
			"stateMutability": "view",
			"type": "function"
		},
		{
			"inputs": [],
			"name": "owner",
			"outputs": [
				{
					"internalType": "address",
					"name": "",
					"type": "address"
				}
			],
			"stateMutability": "view",
			"type": "function"
		},
		{
			"inputs": [],
			"name": "priceFeed",
			"outputs": [
				{
					"internalType": "contract IPriceFeed",
					"name": "",
					"type": "address"
				}
			],
			"stateMutability": "view",
			"type": "function"
		},
		{
			"inputs": [
				{
					"internalType": "uint256",
					"name": "_LUSDamount",
					"type": "uint256"
				},
				{
					"internalType": "address",
					"name": "_firstRedemptionHint",
					"type": "address"
				},
				{
					"internalType": "address",
					"name": "_upperPartialRedemptionHint",
					"type": "address"
				},
				{
					"internalType": "address",
					"name": "_lowerPartialRedemptionHint",
					"type": "address"
				},
				{
					"internalType": "uint256",
					"name": "_partialRedemptionHintNICR",
					"type": "uint256"
				},
				{
					"internalType": "uint256",
					"name": "_maxIterations",
					"type": "uint256"
				},
				{
					"internalType": "uint256",
					"name": "_maxFeePercentage",
					"type": "uint256"
				}
			],
			"name": "redeemCollateral",
			"outputs": [],
			"stateMutability": "nonpayable",
			"type": "function"
		},
		{
			"inputs": [
				{
					"internalType": "address",
					"name": "_borrower",
					"type": "address"
				}
			],
			"name": "removeStake",
			"outputs": [],
			"stateMutability": "nonpayable",
			"type": "function"
		},
		{
			"inputs": [],
			"name": "renounceAdmin",
			"outputs": [],
			"stateMutability": "nonpayable",
			"type": "function"
		},
		{
			"inputs": [
				{
					"internalType": "address",
					"name": "",
					"type": "address"
				}
			],
			"name": "rewardSnapshots",
			"outputs": [
				{
					"internalType": "uint256",
					"name": "ETH",
					"type": "uint256"
				},
				{
					"internalType": "uint256",
					"name": "LUSDDebt",
					"type": "uint256"
				}
			],
			"stateMutability": "view",
			"type": "function"
		},
		{
			"inputs": [
				{
					"internalType": "address",
					"name": "_borrowerOperationsAddress",
					"type": "address"
				},
				{
					"internalType": "address",
					"name": "_activePoolAddress",
					"type": "address"
				},
				{
					"internalType": "address",
					"name": "_defaultPoolAddress",
					"type": "address"
				},
				{
					"internalType": "address",
					"name": "_stabilityPoolAddress",
					"type": "address"
				},
				{
					"internalType": "address",
					"name": "_gasPoolAddress",
					"type": "address"
				},
				{
					"internalType": "address",
					"name": "_collSurplusPoolAddress",
					"type": "address"
				},
				{
					"internalType": "address",
					"name": "_priceFeedAddress",
					"type": "address"
				},
				{
					"internalType": "address",
					"name": "_lusdTokenAddress",
					"type": "address"
				},
				{
					"internalType": "address",
					"name": "_sortedTrovesAddress",
					"type": "address"
				},
				{
					"internalType": "address",
					"name": "_lqtyTokenAddress",
					"type": "address"
				},
				{
					"internalType": "address",
					"name": "_lqtyStakingAddress",
					"type": "address"
				}
			],
			"name": "setAddresses",
			"outputs": [],
			"stateMutability": "nonpayable",
			"type": "function"
		},
		{
			"inputs": [
				{
					"internalType": "address",
					"name": "_admin",
					"type": "address"
				}
			],
			"name": "setAdmin",
			"outputs": [],
			"stateMutability": "nonpayable",
			"type": "function"
		},
		{
			"inputs": [
				{
					"internalType": "address",
					"name": "_priceFeedAddress",
					"type": "address"
				}
			],
			"name": "setPriceFeed",
			"outputs": [],
			"stateMutability": "nonpayable",
			"type": "function"
		},
		{
			"inputs": [
				{
					"internalType": "address",
					"name": "_borrower",
					"type": "address"
				},
				{
					"internalType": "uint256",
					"name": "_num",
					"type": "uint256"
				}
			],
			"name": "setTroveStatus",
			"outputs": [],
			"stateMutability": "nonpayable",
			"type": "function"
		},
		{
			"inputs": [],
			"name": "sortedTroves",
			"outputs": [
				{
					"internalType": "contract ISortedTroves",
					"name": "",
					"type": "address"
				}
			],
			"stateMutability": "view",
			"type": "function"
		},
		{
			"inputs": [],
			"name": "stabilityPool",
			"outputs": [
				{
					"internalType": "contract IStabilityPool",
					"name": "",
					"type": "address"
				}
			],
			"stateMutability": "view",
			"type": "function"
		},
		{
			"inputs": [],
			"name": "totalCollateralSnapshot",
			"outputs": [
				{
					"internalType": "uint256",
					"name": "",
					"type": "uint256"
				}
			],
			"stateMutability": "view",
			"type": "function"
		},
		{
			"inputs": [],
			"name": "totalStakes",
			"outputs": [
				{
					"internalType": "uint256",
					"name": "",
					"type": "uint256"
				}
			],
			"stateMutability": "view",
			"type": "function"
		},
		{
			"inputs": [],
			"name": "totalStakesSnapshot",
			"outputs": [
				{
					"internalType": "uint256",
					"name": "",
					"type": "uint256"
				}
			],
			"stateMutability": "view",
			"type": "function"
		},
		{
			"inputs": [
				{
					"internalType": "address",
					"name": "_borrower",
					"type": "address"
				}
			],
			"name": "updateStakeAndTotalStakes",
			"outputs": [
				{
					"internalType": "uint256",
					"name": "",
					"type": "uint256"
				}
			],
			"stateMutability": "nonpayable",
			"type": "function"
		},
		{
			"inputs": [
				{
					"internalType": "address",
					"name": "_borrower",
					"type": "address"
				}
			],
			"name": "updateTroveRewardSnapshots",
			"outputs": [],
			"stateMutability": "nonpayable",
			"type": "function"
		}
	]
}