{
	"data": {
		"bytecode": {
			"linkReferences": {},
			"object": "60a060405234801561001057600080fd5b50600080546001600160a01b0319163390811782556040519091907f8be0079c531659141344cd1fd0a4f28419497f9722a3daafe3b4186f6b6457e0908290a342608052608051610b6c610073600039806105d752806106525250610b6c6000f3fe608060405234801561001057600080fd5b50600436106100ea5760003560e01c80638da5cb5b1161008c578063a20baee611610066578063a20baee6146101cd578063a3f4df7e146101d5578063b140384b14610252578063ecda10f51461025a576100ea565b80638da5cb5b1461017b5780638f32d59b1461018357806390107afe1461019f576100ea565b806346ad34d9116100c857806346ad34d9146101355780634e5c99571461013d578063614d2ab61461014557806361ec893d14610173576100ea565b80630b622ab2146100ef5780630fc83da3146101135780631f7af3c31461012d575b600080fd5b6100f7610262565b604080516001600160a01b039092168252519081900360200190f35b61011b610271565b60408051918252519081900360200190f35b6100f761027d565b61011b61028c565b61011b61032e565b6101716004803603604081101561015b57600080fd5b506001600160a01b03813516906020013561033d565b005b61011b6103cb565b6100f76103d0565b61018b6103df565b604080519115158252519081900360200190f35b610171600480360360408110156101b557600080fd5b506001600160a01b03813581169160200135166103f0565b61011b610596565b6101dd6105a2565b6040805160208082528351818301528351919283929083019185019080838360005b838110156102175781810151838201526020016101ff565b50505050905090810190601f1680156102445780820380516001836020036101000a031916815260200191505b509250505060405180910390f35b61011b6105cf565b61011b6105d5565b6002546001600160a01b031681565b670de0b5809a6f939881565b6001546001600160a01b031681565b60006102966105f9565b60006102d3670de0b6b3a76400006102c76102af610644565b6a027b46536c66c8e30000009063ffffffff6106c916565b9063ffffffff61072b16565b905060006102ec6003548361076d90919063ffffffff16565b60038390556040805184815290519192507f033068abf93bdec23e781d0a3b3f3e688bfa8471c68b629ad68652cdc63a6e49919081900360200190a191505090565b6a027b46536c66c8e300000081565b6103456105f9565b6001546040805163a9059cbb60e01b81526001600160a01b038581166004830152602482018590529151919092169163a9059cbb9160448083019260209291908290030181600087803b15801561039b57600080fd5b505af11580156103af573d6000803e3d6000fd5b505050506040513d60208110156103c557600080fd5b50505050565b603c81565b6000546001600160a01b031690565b6000546001600160a01b0316331490565b6103f86103df565b610449576040805162461bcd60e51b815260206004820181905260248201527f4f776e61626c653a2063616c6c6572206973206e6f7420746865206f776e6572604482015290519081900360640190fd5b610452826107af565b61045b816107af565b600180546001600160a01b038085166001600160a01b0319928316179283905560028054858316931692909217909155604080516370a0823160e01b81523060048201529051600093909216916370a0823191602480820192602092909190829003018186803b1580156104ce57600080fd5b505afa1580156104e2573d6000803e3d6000fd5b505050506040513d60208110156104f857600080fd5b505190506a027b46536c66c8e300000081101561051157fe5b604080516001600160a01b038516815290517fb0c89119a7c10e4c2d02306921ba368ac83d0e4b302337916017485c2791bec59181900360200190a1604080516001600160a01b038416815290517f45c53611bc8ba9e11f4f8173bda9e3faf89c395ddb83f9a55230b156828db3159181900360200190a1610591610862565b505050565b670de0b6b3a764000081565b60405180604001604052806011815260200170436f6d6d756e69747949737375616e636560781b81525081565b60035481565b7f000000000000000000000000000000000000000000000000000000000000000081565b6002546001600160a01b031633146106425760405162461bcd60e51b8152600401808060200182810382526023815260200180610b146023913960400191505060405180910390fd5b565b60008061067c603c6102c7427f000000000000000000000000000000000000000000000000000000000000000063ffffffff61076d16565b90506000610692670de0b5809a6f9398836108ac565b905060006106ae670de0b6b3a76400008363ffffffff61076d16565b9050670de0b6b3a76400008111156106c257fe5b9250505090565b6000826106d857506000610725565b828202828482816106e557fe5b04146107225760405162461bcd60e51b8152600401808060200182810382526021815260200180610af36021913960400191505060405180910390fd5b90505b92915050565b600061072283836040518060400160405280601a81526020017f536166654d6174683a206469766973696f6e206279207a65726f000000000000815250610961565b600061072283836040518060400160405280601e81526020017f536166654d6174683a207375627472616374696f6e206f766572666c6f770000815250610a03565b6001600160a01b03811661080a576040805162461bcd60e51b815260206004820152601e60248201527f4163636f756e742063616e6e6f74206265207a65726f20616464726573730000604482015290519081900360640190fd5b803b8061085e576040805162461bcd60e51b815260206004820181905260248201527f4163636f756e7420636f64652073697a652063616e6e6f74206265207a65726f604482015290519081900360640190fd5b5050565b600080546040516001600160a01b03909116907f8be0079c531659141344cd1fd0a4f28419497f9722a3daafe3b4186f6b6457e0908390a3600080546001600160a01b0319169055565b6000631f5405008211156108c257631f54050091505b816108d65750670de0b6b3a7640000610725565b670de0b6b3a764000083835b600181111561094d5760028106610917576108fd8283610a5d565b915061091081600263ffffffff61072b16565b9050610948565b6109218284610a5d565b925061092d8283610a5d565b915061094560026102c783600163ffffffff61076d16565b90505b6108e2565b6109578284610a5d565b9695505050505050565b600081836109ed5760405162461bcd60e51b81526004018080602001828103825283818151815260200191508051906020019080838360005b838110156109b257818101518382015260200161099a565b50505050905090810190601f1680156109df5780820380516001836020036101000a031916815260200191505b509250505060405180910390fd5b5060008385816109f957fe5b0495945050505050565b60008184841115610a555760405162461bcd60e51b81526020600482018181528351602484015283519092839260449091019190850190808383600083156109b257818101518382015260200161099a565b505050900390565b600080610a70848463ffffffff6106c916565b9050610a90670de0b6b3a76400006102c7836706f05b59d3b20000610a98565b949350505050565b600082820183811015610722576040805162461bcd60e51b815260206004820152601b60248201527f536166654d6174683a206164646974696f6e206f766572666c6f770000000000604482015290519081900360640190fdfe536166654d6174683a206d756c7469706c69636174696f6e206f766572666c6f77436f6d6d756e69747949737375616e63653a2063616c6c6572206973206e6f74205350a2646970667358221220e283b89d5b5cd57a9281e2fbcda5cbfcd1b66bf78dd9aa6b4af3e8fabe6c219e64736f6c634300060b0033",
			"opcodes": "PUSH1 0xA0 PUSH1 0x40 MSTORE CALLVALUE DUP1 ISZERO PUSH2 0x10 JUMPI PUSH1 0x0 DUP1 REVERT JUMPDEST POP PUSH1 0x0 DUP1 SLOAD PUSH1 0x1 PUSH1 0x1 PUSH1 0xA0 SHL SUB NOT AND CALLER SWAP1 DUP2 OR DUP3 SSTORE PUSH1 0x40 MLOAD SWAP1 SWAP2 SWAP1 PUSH32 0x8BE0079C531659141344CD1FD0A4F28419497F9722A3DAAFE3B4186F6B6457E0 SWAP1 DUP3 SWAP1 LOG3 TIMESTAMP PUSH1 0x80 MSTORE PUSH1 0x80 MLOAD PUSH2 0xB6C PUSH2 0x73 PUSH1 0x0 CODECOPY DUP1 PUSH2 0x5D7 MSTORE DUP1 PUSH2 0x652 MSTORE POP PUSH2 0xB6C PUSH1 0x0 RETURN INVALID PUSH1 0x80 PUSH1 0x40 MSTORE CALLVALUE DUP1 ISZERO PUSH2 0x10 JUMPI PUSH1 0x0 DUP1 REVERT JUMPDEST POP PUSH1 0x4 CALLDATASIZE LT PUSH2 0xEA JUMPI PUSH1 0x0 CALLDATALOAD PUSH1 0xE0 SHR DUP1 PUSH4 0x8DA5CB5B GT PUSH2 0x8C JUMPI DUP1 PUSH4 0xA20BAEE6 GT PUSH2 0x66 JUMPI DUP1 PUSH4 0xA20BAEE6 EQ PUSH2 0x1CD JUMPI DUP1 PUSH4 0xA3F4DF7E EQ PUSH2 0x1D5 JUMPI DUP1 PUSH4 0xB140384B EQ PUSH2 0x252 JUMPI DUP1 PUSH4 0xECDA10F5 EQ PUSH2 0x25A JUMPI PUSH2 0xEA JUMP JUMPDEST DUP1 PUSH4 0x8DA5CB5B EQ PUSH2 0x17B JUMPI DUP1 PUSH4 0x8F32D59B EQ PUSH2 0x183 JUMPI DUP1 PUSH4 0x90107AFE EQ PUSH2 0x19F JUMPI PUSH2 0xEA JUMP JUMPDEST DUP1 PUSH4 0x46AD34D9 GT PUSH2 0xC8 JUMPI DUP1 PUSH4 0x46AD34D9 EQ PUSH2 0x135 JUMPI DUP1 PUSH4 0x4E5C9957 EQ PUSH2 0x13D JUMPI DUP1 PUSH4 0x614D2AB6 EQ PUSH2 0x145 JUMPI DUP1 PUSH4 0x61EC893D EQ PUSH2 0x173 JUMPI PUSH2 0xEA JUMP JUMPDEST DUP1 PUSH4 0xB622AB2 EQ PUSH2 0xEF JUMPI DUP1 PUSH4 0xFC83DA3 EQ PUSH2 0x113 JUMPI DUP1 PUSH4 0x1F7AF3C3 EQ PUSH2 0x12D JUMPI JUMPDEST PUSH1 0x0 DUP1 REVERT JUMPDEST PUSH2 0xF7 PUSH2 0x262 JUMP JUMPDEST PUSH1 0x40 DUP1 MLOAD PUSH1 0x1 PUSH1 0x1 PUSH1 0xA0 SHL SUB SWAP1 SWAP3 AND DUP3 MSTORE MLOAD SWAP1 DUP2 SWAP1 SUB PUSH1 0x20 ADD SWAP1 RETURN JUMPDEST PUSH2 0x11B PUSH2 0x271 JUMP JUMPDEST PUSH1 0x40 DUP1 MLOAD SWAP2 DUP3 MSTORE MLOAD SWAP1 DUP2 SWAP1 SUB PUSH1 0x20 ADD SWAP1 RETURN JUMPDEST PUSH2 0xF7 PUSH2 0x27D JUMP JUMPDEST PUSH2 0x11B PUSH2 0x28C JUMP JUMPDEST PUSH2 0x11B PUSH2 0x32E JUMP JUMPDEST PUSH2 0x171 PUSH1 0x4 DUP1 CALLDATASIZE SUB PUSH1 0x40 DUP2 LT ISZERO PUSH2 0x15B JUMPI PUSH1 0x0 DUP1 REVERT JUMPDEST POP PUSH1 0x1 PUSH1 0x1 PUSH1 0xA0 SHL SUB DUP2 CALLDATALOAD AND SWAP1 PUSH1 0x20 ADD CALLDATALOAD PUSH2 0x33D JUMP JUMPDEST STOP JUMPDEST PUSH2 0x11B PUSH2 0x3CB JUMP JUMPDEST PUSH2 0xF7 PUSH2 0x3D0 JUMP JUMPDEST PUSH2 0x18B PUSH2 0x3DF JUMP JUMPDEST PUSH1 0x40 DUP1 MLOAD SWAP2 ISZERO ISZERO DUP3 MSTORE MLOAD SWAP1 DUP2 SWAP1 SUB PUSH1 0x20 ADD SWAP1 RETURN JUMPDEST PUSH2 0x171 PUSH1 0x4 DUP1 CALLDATASIZE SUB PUSH1 0x40 DUP2 LT ISZERO PUSH2 0x1B5 JUMPI PUSH1 0x0 DUP1 REVERT JUMPDEST POP PUSH1 0x1 PUSH1 0x1 PUSH1 0xA0 SHL SUB DUP2 CALLDATALOAD DUP2 AND SWAP2 PUSH1 0x20 ADD CALLDATALOAD AND PUSH2 0x3F0 JUMP JUMPDEST PUSH2 0x11B PUSH2 0x596 JUMP JUMPDEST PUSH2 0x1DD PUSH2 0x5A2 JUMP JUMPDEST PUSH1 0x40 DUP1 MLOAD PUSH1 0x20 DUP1 DUP3 MSTORE DUP4 MLOAD DUP2 DUP4 ADD MSTORE DUP4 MLOAD SWAP2 SWAP3 DUP4 SWAP3 SWAP1 DUP4 ADD SWAP2 DUP6 ADD SWAP1 DUP1 DUP4 DUP4 PUSH1 0x0 JUMPDEST DUP4 DUP2 LT ISZERO PUSH2 0x217 JUMPI DUP2 DUP2 ADD MLOAD DUP4 DUP3 ADD MSTORE PUSH1 0x20 ADD PUSH2 0x1FF JUMP JUMPDEST POP POP POP POP SWAP1 POP SWAP1 DUP2 ADD SWAP1 PUSH1 0x1F AND DUP1 ISZERO PUSH2 0x244 JUMPI DUP1 DUP3 SUB DUP1 MLOAD PUSH1 0x1 DUP4 PUSH1 0x20 SUB PUSH2 0x100 EXP SUB NOT AND DUP2 MSTORE PUSH1 0x20 ADD SWAP2 POP JUMPDEST POP SWAP3 POP POP POP PUSH1 0x40 MLOAD DUP1 SWAP2 SUB SWAP1 RETURN JUMPDEST PUSH2 0x11B PUSH2 0x5CF JUMP JUMPDEST PUSH2 0x11B PUSH2 0x5D5 JUMP JUMPDEST PUSH1 0x2 SLOAD PUSH1 0x1 PUSH1 0x1 PUSH1 0xA0 SHL SUB AND DUP2 JUMP JUMPDEST PUSH8 0xDE0B5809A6F9398 DUP2 JUMP JUMPDEST PUSH1 0x1 SLOAD PUSH1 0x1 PUSH1 0x1 PUSH1 0xA0 SHL SUB AND DUP2 JUMP JUMPDEST PUSH1 0x0 PUSH2 0x296 PUSH2 0x5F9 JUMP JUMPDEST PUSH1 0x0 PUSH2 0x2D3 PUSH8 0xDE0B6B3A7640000 PUSH2 0x2C7 PUSH2 0x2AF PUSH2 0x644 JUMP JUMPDEST PUSH11 0x27B46536C66C8E3000000 SWAP1 PUSH4 0xFFFFFFFF PUSH2 0x6C9 AND JUMP JUMPDEST SWAP1 PUSH4 0xFFFFFFFF PUSH2 0x72B AND JUMP JUMPDEST SWAP1 POP PUSH1 0x0 PUSH2 0x2EC PUSH1 0x3 SLOAD DUP4 PUSH2 0x76D SWAP1 SWAP2 SWAP1 PUSH4 0xFFFFFFFF AND JUMP JUMPDEST PUSH1 0x3 DUP4 SWAP1 SSTORE PUSH1 0x40 DUP1 MLOAD DUP5 DUP2 MSTORE SWAP1 MLOAD SWAP2 SWAP3 POP PUSH32 0x33068ABF93BDEC23E781D0A3B3F3E688BFA8471C68B629AD68652CDC63A6E49 SWAP2 SWAP1 DUP2 SWAP1 SUB PUSH1 0x20 ADD SWAP1 LOG1 SWAP2 POP POP SWAP1 JUMP JUMPDEST PUSH11 0x27B46536C66C8E3000000 DUP2 JUMP JUMPDEST PUSH2 0x345 PUSH2 0x5F9 JUMP JUMPDEST PUSH1 0x1 SLOAD PUSH1 0x40 DUP1 MLOAD PUSH4 0xA9059CBB PUSH1 0xE0 SHL DUP2 MSTORE PUSH1 0x1 PUSH1 0x1 PUSH1 0xA0 SHL SUB DUP6 DUP2 AND PUSH1 0x4 DUP4 ADD MSTORE PUSH1 0x24 DUP3 ADD DUP6 SWAP1 MSTORE SWAP2 MLOAD SWAP2 SWAP1 SWAP3 AND SWAP2 PUSH4 0xA9059CBB SWAP2 PUSH1 0x44 DUP1 DUP4 ADD SWAP3 PUSH1 0x20 SWAP3 SWAP2 SWAP1 DUP3 SWAP1 SUB ADD DUP2 PUSH1 0x0 DUP8 DUP1 EXTCODESIZE ISZERO DUP1 ISZERO PUSH2 0x39B JUMPI PUSH1 0x0 DUP1 REVERT JUMPDEST POP GAS CALL ISZERO DUP1 ISZERO PUSH2 0x3AF JUMPI RETURNDATASIZE PUSH1 0x0 DUP1 RETURNDATACOPY RETURNDATASIZE PUSH1 0x0 REVERT JUMPDEST POP POP POP POP PUSH1 0x40 MLOAD RETURNDATASIZE PUSH1 0x20 DUP2 LT ISZERO PUSH2 0x3C5 JUMPI PUSH1 0x0 DUP1 REVERT JUMPDEST POP POP POP POP JUMP JUMPDEST PUSH1 0x3C DUP2 JUMP JUMPDEST PUSH1 0x0 SLOAD PUSH1 0x1 PUSH1 0x1 PUSH1 0xA0 SHL SUB AND SWAP1 JUMP JUMPDEST PUSH1 0x0 SLOAD PUSH1 0x1 PUSH1 0x1 PUSH1 0xA0 SHL SUB AND CALLER EQ SWAP1 JUMP JUMPDEST PUSH2 0x3F8 PUSH2 0x3DF JUMP JUMPDEST PUSH2 0x449 JUMPI PUSH1 0x40 DUP1 MLOAD PUSH3 0x461BCD PUSH1 0xE5 SHL DUP2 MSTORE PUSH1 0x20 PUSH1 0x4 DUP3 ADD DUP2 SWAP1 MSTORE PUSH1 0x24 DUP3 ADD MSTORE PUSH32 0x4F776E61626C653A2063616C6C6572206973206E6F7420746865206F776E6572 PUSH1 0x44 DUP3 ADD MSTORE SWAP1 MLOAD SWAP1 DUP2 SWAP1 SUB PUSH1 0x64 ADD SWAP1 REVERT JUMPDEST PUSH2 0x452 DUP3 PUSH2 0x7AF JUMP JUMPDEST PUSH2 0x45B DUP2 PUSH2 0x7AF JUMP JUMPDEST PUSH1 0x1 DUP1 SLOAD PUSH1 0x1 PUSH1 0x1 PUSH1 0xA0 SHL SUB DUP1 DUP6 AND PUSH1 0x1 PUSH1 0x1 PUSH1 0xA0 SHL SUB NOT SWAP3 DUP4 AND OR SWAP3 DUP4 SWAP1 SSTORE PUSH1 0x2 DUP1 SLOAD DUP6 DUP4 AND SWAP4 AND SWAP3 SWAP1 SWAP3 OR SWAP1 SWAP2 SSTORE PUSH1 0x40 DUP1 MLOAD PUSH4 0x70A08231 PUSH1 0xE0 SHL DUP2 MSTORE ADDRESS PUSH1 0x4 DUP3 ADD MSTORE SWAP1 MLOAD PUSH1 0x0 SWAP4 SWAP1 SWAP3 AND SWAP2 PUSH4 0x70A08231 SWAP2 PUSH1 0x24 DUP1 DUP3 ADD SWAP3 PUSH1 0x20 SWAP3 SWAP1 SWAP2 SWAP1 DUP3 SWAP1 SUB ADD DUP2 DUP7 DUP1 EXTCODESIZE ISZERO DUP1 ISZERO PUSH2 0x4CE JUMPI PUSH1 0x0 DUP1 REVERT JUMPDEST POP GAS STATICCALL ISZERO DUP1 ISZERO PUSH2 0x4E2 JUMPI RETURNDATASIZE PUSH1 0x0 DUP1 RETURNDATACOPY RETURNDATASIZE PUSH1 0x0 REVERT JUMPDEST POP POP POP POP PUSH1 0x40 MLOAD RETURNDATASIZE PUSH1 0x20 DUP2 LT ISZERO PUSH2 0x4F8 JUMPI PUSH1 0x0 DUP1 REVERT JUMPDEST POP MLOAD SWAP1 POP PUSH11 0x27B46536C66C8E3000000 DUP2 LT ISZERO PUSH2 0x511 JUMPI INVALID JUMPDEST PUSH1 0x40 DUP1 MLOAD PUSH1 0x1 PUSH1 0x1 PUSH1 0xA0 SHL SUB DUP6 AND DUP2 MSTORE SWAP1 MLOAD PUSH32 0xB0C89119A7C10E4C2D02306921BA368AC83D0E4B302337916017485C2791BEC5 SWAP2 DUP2 SWAP1 SUB PUSH1 0x20 ADD SWAP1 LOG1 PUSH1 0x40 DUP1 MLOAD PUSH1 0x1 PUSH1 0x1 PUSH1 0xA0 SHL SUB DUP5 AND DUP2 MSTORE SWAP1 MLOAD PUSH32 0x45C53611BC8BA9E11F4F8173BDA9E3FAF89C395DDB83F9A55230B156828DB315 SWAP2 DUP2 SWAP1 SUB PUSH1 0x20 ADD SWAP1 LOG1 PUSH2 0x591 PUSH2 0x862 JUMP JUMPDEST POP POP POP JUMP JUMPDEST PUSH8 0xDE0B6B3A7640000 DUP2 JUMP JUMPDEST PUSH1 0x40 MLOAD DUP1 PUSH1 0x40 ADD PUSH1 0x40 MSTORE DUP1 PUSH1 0x11 DUP2 MSTORE PUSH1 0x20 ADD PUSH17 0x436F6D6D756E69747949737375616E6365 PUSH1 0x78 SHL DUP2 MSTORE POP DUP2 JUMP JUMPDEST PUSH1 0x3 SLOAD DUP2 JUMP JUMPDEST PUSH32 0x0 DUP2 JUMP JUMPDEST PUSH1 0x2 SLOAD PUSH1 0x1 PUSH1 0x1 PUSH1 0xA0 SHL SUB AND CALLER EQ PUSH2 0x642 JUMPI PUSH1 0x40 MLOAD PUSH3 0x461BCD PUSH1 0xE5 SHL DUP2 MSTORE PUSH1 0x4 ADD DUP1 DUP1 PUSH1 0x20 ADD DUP3 DUP2 SUB DUP3 MSTORE PUSH1 0x23 DUP2 MSTORE PUSH1 0x20 ADD DUP1 PUSH2 0xB14 PUSH1 0x23 SWAP2 CODECOPY PUSH1 0x40 ADD SWAP2 POP POP PUSH1 0x40 MLOAD DUP1 SWAP2 SUB SWAP1 REVERT JUMPDEST JUMP JUMPDEST PUSH1 0x0 DUP1 PUSH2 0x67C PUSH1 0x3C PUSH2 0x2C7 TIMESTAMP PUSH32 0x0 PUSH4 0xFFFFFFFF PUSH2 0x76D AND JUMP JUMPDEST SWAP1 POP PUSH1 0x0 PUSH2 0x692 PUSH8 0xDE0B5809A6F9398 DUP4 PUSH2 0x8AC JUMP JUMPDEST SWAP1 POP PUSH1 0x0 PUSH2 0x6AE PUSH8 0xDE0B6B3A7640000 DUP4 PUSH4 0xFFFFFFFF PUSH2 0x76D AND JUMP JUMPDEST SWAP1 POP PUSH8 0xDE0B6B3A7640000 DUP2 GT ISZERO PUSH2 0x6C2 JUMPI INVALID JUMPDEST SWAP3 POP POP POP SWAP1 JUMP JUMPDEST PUSH1 0x0 DUP3 PUSH2 0x6D8 JUMPI POP PUSH1 0x0 PUSH2 0x725 JUMP JUMPDEST DUP3 DUP3 MUL DUP3 DUP5 DUP3 DUP2 PUSH2 0x6E5 JUMPI INVALID JUMPDEST DIV EQ PUSH2 0x722 JUMPI PUSH1 0x40 MLOAD PUSH3 0x461BCD PUSH1 0xE5 SHL DUP2 MSTORE PUSH1 0x4 ADD DUP1 DUP1 PUSH1 0x20 ADD DUP3 DUP2 SUB DUP3 MSTORE PUSH1 0x21 DUP2 MSTORE PUSH1 0x20 ADD DUP1 PUSH2 0xAF3 PUSH1 0x21 SWAP2 CODECOPY PUSH1 0x40 ADD SWAP2 POP POP PUSH1 0x40 MLOAD DUP1 SWAP2 SUB SWAP1 REVERT JUMPDEST SWAP1 POP JUMPDEST SWAP3 SWAP2 POP POP JUMP JUMPDEST PUSH1 0x0 PUSH2 0x722 DUP4 DUP4 PUSH1 0x40 MLOAD DUP1 PUSH1 0x40 ADD PUSH1 0x40 MSTORE DUP1 PUSH1 0x1A DUP2 MSTORE PUSH1 0x20 ADD PUSH32 0x536166654D6174683A206469766973696F6E206279207A65726F000000000000 DUP2 MSTORE POP PUSH2 0x961 JUMP JUMPDEST PUSH1 0x0 PUSH2 0x722 DUP4 DUP4 PUSH1 0x40 MLOAD DUP1 PUSH1 0x40 ADD PUSH1 0x40 MSTORE DUP1 PUSH1 0x1E DUP2 MSTORE PUSH1 0x20 ADD PUSH32 0x536166654D6174683A207375627472616374696F6E206F766572666C6F770000 DUP2 MSTORE POP PUSH2 0xA03 JUMP JUMPDEST PUSH1 0x1 PUSH1 0x1 PUSH1 0xA0 SHL SUB DUP2 AND PUSH2 0x80A JUMPI PUSH1 0x40 DUP1 MLOAD PUSH3 0x461BCD PUSH1 0xE5 SHL DUP2 MSTORE PUSH1 0x20 PUSH1 0x4 DUP3 ADD MSTORE PUSH1 0x1E PUSH1 0x24 DUP3 ADD MSTORE PUSH32 0x4163636F756E742063616E6E6F74206265207A65726F20616464726573730000 PUSH1 0x44 DUP3 ADD MSTORE SWAP1 MLOAD SWAP1 DUP2 SWAP1 SUB PUSH1 0x64 ADD SWAP1 REVERT JUMPDEST DUP1 EXTCODESIZE DUP1 PUSH2 0x85E JUMPI PUSH1 0x40 DUP1 MLOAD PUSH3 0x461BCD PUSH1 0xE5 SHL DUP2 MSTORE PUSH1 0x20 PUSH1 0x4 DUP3 ADD DUP2 SWAP1 MSTORE PUSH1 0x24 DUP3 ADD MSTORE PUSH32 0x4163636F756E7420636F64652073697A652063616E6E6F74206265207A65726F PUSH1 0x44 DUP3 ADD MSTORE SWAP1 MLOAD SWAP1 DUP2 SWAP1 SUB PUSH1 0x64 ADD SWAP1 REVERT JUMPDEST POP POP JUMP JUMPDEST PUSH1 0x0 DUP1 SLOAD PUSH1 0x40 MLOAD PUSH1 0x1 PUSH1 0x1 PUSH1 0xA0 SHL SUB SWAP1 SWAP2 AND SWAP1 PUSH32 0x8BE0079C531659141344CD1FD0A4F28419497F9722A3DAAFE3B4186F6B6457E0 SWAP1 DUP4 SWAP1 LOG3 PUSH1 0x0 DUP1 SLOAD PUSH1 0x1 PUSH1 0x1 PUSH1 0xA0 SHL SUB NOT AND SWAP1 SSTORE JUMP JUMPDEST PUSH1 0x0 PUSH4 0x1F540500 DUP3 GT ISZERO PUSH2 0x8C2 JUMPI PUSH4 0x1F540500 SWAP2 POP JUMPDEST DUP2 PUSH2 0x8D6 JUMPI POP PUSH8 0xDE0B6B3A7640000 PUSH2 0x725 JUMP JUMPDEST PUSH8 0xDE0B6B3A7640000 DUP4 DUP4 JUMPDEST PUSH1 0x1 DUP2 GT ISZERO PUSH2 0x94D JUMPI PUSH1 0x2 DUP2 MOD PUSH2 0x917 JUMPI PUSH2 0x8FD DUP3 DUP4 PUSH2 0xA5D JUMP JUMPDEST SWAP2 POP PUSH2 0x910 DUP2 PUSH1 0x2 PUSH4 0xFFFFFFFF PUSH2 0x72B AND JUMP JUMPDEST SWAP1 POP PUSH2 0x948 JUMP JUMPDEST PUSH2 0x921 DUP3 DUP5 PUSH2 0xA5D JUMP JUMPDEST SWAP3 POP PUSH2 0x92D DUP3 DUP4 PUSH2 0xA5D JUMP JUMPDEST SWAP2 POP PUSH2 0x945 PUSH1 0x2 PUSH2 0x2C7 DUP4 PUSH1 0x1 PUSH4 0xFFFFFFFF PUSH2 0x76D AND JUMP JUMPDEST SWAP1 POP JUMPDEST PUSH2 0x8E2 JUMP JUMPDEST PUSH2 0x957 DUP3 DUP5 PUSH2 0xA5D JUMP JUMPDEST SWAP7 SWAP6 POP POP POP POP POP POP JUMP JUMPDEST PUSH1 0x0 DUP2 DUP4 PUSH2 0x9ED JUMPI PUSH1 0x40 MLOAD PUSH3 0x461BCD PUSH1 0xE5 SHL DUP2 MSTORE PUSH1 0x4 ADD DUP1 DUP1 PUSH1 0x20 ADD DUP3 DUP2 SUB DUP3 MSTORE DUP4 DUP2 DUP2 MLOAD DUP2 MSTORE PUSH1 0x20 ADD SWAP2 POP DUP1 MLOAD SWAP1 PUSH1 0x20 ADD SWAP1 DUP1 DUP4 DUP4 PUSH1 0x0 JUMPDEST DUP4 DUP2 LT ISZERO PUSH2 0x9B2 JUMPI DUP2 DUP2 ADD MLOAD DUP4 DUP3 ADD MSTORE PUSH1 0x20 ADD PUSH2 0x99A JUMP JUMPDEST POP POP POP POP SWAP1 POP SWAP1 DUP2 ADD SWAP1 PUSH1 0x1F AND DUP1 ISZERO PUSH2 0x9DF JUMPI DUP1 DUP3 SUB DUP1 MLOAD PUSH1 0x1 DUP4 PUSH1 0x20 SUB PUSH2 0x100 EXP SUB NOT AND DUP2 MSTORE PUSH1 0x20 ADD SWAP2 POP JUMPDEST POP SWAP3 POP POP POP PUSH1 0x40 MLOAD DUP1 SWAP2 SUB SWAP1 REVERT JUMPDEST POP PUSH1 0x0 DUP4 DUP6 DUP2 PUSH2 0x9F9 JUMPI INVALID JUMPDEST DIV SWAP6 SWAP5 POP POP POP POP POP JUMP JUMPDEST PUSH1 0x0 DUP2 DUP5 DUP5 GT ISZERO PUSH2 0xA55 JUMPI PUSH1 0x40 MLOAD PUSH3 0x461BCD PUSH1 0xE5 SHL DUP2 MSTORE PUSH1 0x20 PUSH1 0x4 DUP3 ADD DUP2 DUP2 MSTORE DUP4 MLOAD PUSH1 0x24 DUP5 ADD MSTORE DUP4 MLOAD SWAP1 SWAP3 DUP4 SWAP3 PUSH1 0x44 SWAP1 SWAP2 ADD SWAP2 SWAP1 DUP6 ADD SWAP1 DUP1 DUP4 DUP4 PUSH1 0x0 DUP4 ISZERO PUSH2 0x9B2 JUMPI DUP2 DUP2 ADD MLOAD DUP4 DUP3 ADD MSTORE PUSH1 0x20 ADD PUSH2 0x99A JUMP JUMPDEST POP POP POP SWAP1 SUB SWAP1 JUMP JUMPDEST PUSH1 0x0 DUP1 PUSH2 0xA70 DUP5 DUP5 PUSH4 0xFFFFFFFF PUSH2 0x6C9 AND JUMP JUMPDEST SWAP1 POP PUSH2 0xA90 PUSH8 0xDE0B6B3A7640000 PUSH2 0x2C7 DUP4 PUSH8 0x6F05B59D3B20000 PUSH2 0xA98 JUMP JUMPDEST SWAP5 SWAP4 POP POP POP POP JUMP JUMPDEST PUSH1 0x0 DUP3 DUP3 ADD DUP4 DUP2 LT ISZERO PUSH2 0x722 JUMPI PUSH1 0x40 DUP1 MLOAD PUSH3 0x461BCD PUSH1 0xE5 SHL DUP2 MSTORE PUSH1 0x20 PUSH1 0x4 DUP3 ADD MSTORE PUSH1 0x1B PUSH1 0x24 DUP3 ADD MSTORE PUSH32 0x536166654D6174683A206164646974696F6E206F766572666C6F770000000000 PUSH1 0x44 DUP3 ADD MSTORE SWAP1 MLOAD SWAP1 DUP2 SWAP1 SUB PUSH1 0x64 ADD SWAP1 REVERT INVALID MSTORE8 PUSH2 0x6665 0x4D PUSH2 0x7468 GASPRICE KECCAK256 PUSH14 0x756C7469706C69636174696F6E20 PUSH16 0x766572666C6F77436F6D6D756E697479 0x49 PUSH20 0x7375616E63653A2063616C6C6572206973206E6F PUSH21 0x205350A2646970667358221220E283B89D5B5CD57A SWAP3 DUP2 0xE2 0xFB 0xCD 0xA5 0xCB 0xFC 0xD1 0xB6 PUSH12 0xF78DD9AA6B4AF3E8FABE6C21 SWAP15 PUSH5 0x736F6C6343 STOP MOD SIGNEXTEND STOP CALLER "
		},
		"gasEstimates": {
			"creation": {
				"codeDepositCost": "584800",
				"executionCost": "infinite",
				"totalCost": "infinite"
			},
			"external": {
				"DECIMAL_PRECISION()": "220",
				"ISSUANCE_FACTOR()": "244",
				"LQTYSupplyCap()": "243",
				"NAME()": "infinite",
				"SECONDS_IN_ONE_MINUTE()": "287",
				"deploymentTime()": "infinite",
				"isOwner()": "1072",
				"issueLQTY()": "infinite",
				"lqtyToken()": "1105",
				"owner()": "1060",
				"sendLQTY(address,uint256)": "infinite",
				"setAddresses(address,address)": "infinite",
				"stabilityPoolAddress()": "1061",
				"totalLQTYIssued()": "1064"
			},
			"internal": {
				"_getCumulativeIssuanceFraction()": "infinite",
				"_requireCallerIsStabilityPool()": "infinite"
			}
		},
		"methodIdentifiers": {
			"DECIMAL_PRECISION()": "a20baee6",
			"ISSUANCE_FACTOR()": "0fc83da3",
			"LQTYSupplyCap()": "4e5c9957",
			"NAME()": "a3f4df7e",
			"SECONDS_IN_ONE_MINUTE()": "61ec893d",
			"deploymentTime()": "ecda10f5",
			"isOwner()": "8f32d59b",
			"issueLQTY()": "46ad34d9",
			"lqtyToken()": "1f7af3c3",
			"owner()": "8da5cb5b",
			"sendLQTY(address,uint256)": "614d2ab6",
			"setAddresses(address,address)": "90107afe",
			"stabilityPoolAddress()": "0b622ab2",
			"totalLQTYIssued()": "b140384b"
		}
	},
	"abi": [
		{
			"inputs": [],
			"stateMutability": "nonpayable",
			"type": "constructor"
		},
		{
			"anonymous": false,
			"inputs": [
				{
					"indexed": false,
					"internalType": "address",
					"name": "_lqtyTokenAddress",
					"type": "address"
				}
			],
			"name": "LQTYTokenAddressSet",
			"type": "event"
		},
		{
			"anonymous": false,
			"inputs": [
				{
					"indexed": true,
					"internalType": "address",
					"name": "previousOwner",
					"type": "address"
				},
				{
					"indexed": true,
					"internalType": "address",
					"name": "newOwner",
					"type": "address"
				}
			],
			"name": "OwnershipTransferred",
			"type": "event"
		},
		{
			"anonymous": false,
			"inputs": [
				{
					"indexed": false,
					"internalType": "address",
					"name": "_stabilityPoolAddress",
					"type": "address"
				}
			],
			"name": "StabilityPoolAddressSet",
			"type": "event"
		},
		{
			"anonymous": false,
			"inputs": [
				{
					"indexed": false,
					"internalType": "uint256",
					"name": "_totalLQTYIssued",
					"type": "uint256"
				}
			],
			"name": "TotalLQTYIssuedUpdated",
			"type": "event"
		},
		{
			"inputs": [],
			"name": "DECIMAL_PRECISION",
			"outputs": [
				{
					"internalType": "uint256",
					"name": "",
					"type": "uint256"
				}
			],
			"stateMutability": "view",
			"type": "function"
		},
		{
			"inputs": [],
			"name": "ISSUANCE_FACTOR",
			"outputs": [
				{
					"internalType": "uint256",
					"name": "",
					"type": "uint256"
				}
			],
			"stateMutability": "view",
			"type": "function"
		},
		{
			"inputs": [],
			"name": "LQTYSupplyCap",
			"outputs": [
				{
					"internalType": "uint256",
					"name": "",
					"type": "uint256"
				}
			],
			"stateMutability": "view",
			"type": "function"
		},
		{
			"inputs": [],
			"name": "NAME",
			"outputs": [
				{
					"internalType": "string",
					"name": "",
					"type": "string"
				}
			],
			"stateMutability": "view",
			"type": "function"
		},
		{
			"inputs": [],
			"name": "SECONDS_IN_ONE_MINUTE",
			"outputs": [
				{
					"internalType": "uint256",
					"name": "",
					"type": "uint256"
				}
			],
			"stateMutability": "view",
			"type": "function"
		},
		{
			"inputs": [],
			"name": "deploymentTime",
			"outputs": [
				{
					"internalType": "uint256",
					"name": "",
					"type": "uint256"
				}
			],
			"stateMutability": "view",
			"type": "function"
		},
		{
			"inputs": [],
			"name": "isOwner",
			"outputs": [
				{
					"internalType": "bool",
					"name": "",
					"type": "bool"
				}
			],
			"stateMutability": "view",
			"type": "function"
		},
		{
			"inputs": [],
			"name": "issueLQTY",
			"outputs": [
				{
					"internalType": "uint256",
					"name": "",
					"type": "uint256"
				}
			],
			"stateMutability": "nonpayable",
			"type": "function"
		},
		{
			"inputs": [],
			"name": "lqtyToken",
			"outputs": [
				{
					"internalType": "contract ILQTYToken",
					"name": "",
					"type": "address"
				}
			],
			"stateMutability": "view",
			"type": "function"
		},
		{
			"inputs": [],
			"name": "owner",
			"outputs": [
				{
					"internalType": "address",
					"name": "",
					"type": "address"
				}
			],
			"stateMutability": "view",
			"type": "function"
		},
		{
			"inputs": [
				{
					"internalType": "address",
					"name": "_account",
					"type": "address"
				},
				{
					"internalType": "uint256",
					"name": "_LQTYamount",
					"type": "uint256"
				}
			],
			"name": "sendLQTY",
			"outputs": [],
			"stateMutability": "nonpayable",
			"type": "function"
		},
		{
			"inputs": [
				{
					"internalType": "address",
					"name": "_lqtyTokenAddress",
					"type": "address"
				},
				{
					"internalType": "address",
					"name": "_stabilityPoolAddress",
					"type": "address"
				}
			],
			"name": "setAddresses",
			"outputs": [],
			"stateMutability": "nonpayable",
			"type": "function"
		},
		{
			"inputs": [],
			"name": "stabilityPoolAddress",
			"outputs": [
				{
					"internalType": "address",
					"name": "",
					"type": "address"
				}
			],
			"stateMutability": "view",
			"type": "function"
		},
		{
			"inputs": [],
			"name": "totalLQTYIssued",
			"outputs": [
				{
					"internalType": "uint256",
					"name": "",
					"type": "uint256"
				}
			],
			"stateMutability": "view",
			"type": "function"
		}
	]
}